{
  "contractName": "OrbitauERC721",
  "abi": [
    {
      "inputs": [],
      "stateMutability": "nonpayable",
      "type": "constructor"
    },
    {
      "anonymous": false,
      "inputs": [
        {
          "indexed": true,
          "internalType": "address",
          "name": "owner",
          "type": "address"
        },
        {
          "indexed": true,
          "internalType": "address",
          "name": "approved",
          "type": "address"
        },
        {
          "indexed": true,
          "internalType": "uint256",
          "name": "tokenId",
          "type": "uint256"
        }
      ],
      "name": "Approval",
      "type": "event"
    },
    {
      "anonymous": false,
      "inputs": [
        {
          "indexed": true,
          "internalType": "address",
          "name": "owner",
          "type": "address"
        },
        {
          "indexed": true,
          "internalType": "address",
          "name": "operator",
          "type": "address"
        },
        {
          "indexed": false,
          "internalType": "bool",
          "name": "approved",
          "type": "bool"
        }
      ],
      "name": "ApprovalForAll",
      "type": "event"
    },
    {
      "anonymous": false,
      "inputs": [
        {
          "indexed": true,
          "internalType": "address",
          "name": "previousOwner",
          "type": "address"
        },
        {
          "indexed": true,
          "internalType": "address",
          "name": "newOwner",
          "type": "address"
        }
      ],
      "name": "OwnershipTransferred",
      "type": "event"
    },
    {
      "anonymous": false,
      "inputs": [
        {
          "indexed": false,
          "internalType": "address",
          "name": "account",
          "type": "address"
        }
      ],
      "name": "Paused",
      "type": "event"
    },
    {
      "anonymous": false,
      "inputs": [
        {
          "indexed": true,
          "internalType": "address",
          "name": "from",
          "type": "address"
        },
        {
          "indexed": true,
          "internalType": "address",
          "name": "to",
          "type": "address"
        },
        {
          "indexed": true,
          "internalType": "uint256",
          "name": "tokenId",
          "type": "uint256"
        }
      ],
      "name": "Transfer",
      "type": "event"
    },
    {
      "anonymous": false,
      "inputs": [
        {
          "indexed": false,
          "internalType": "address",
          "name": "account",
          "type": "address"
        }
      ],
      "name": "Unpaused",
      "type": "event"
    },
    {
      "inputs": [
        {
          "internalType": "address",
          "name": "to",
          "type": "address"
        },
        {
          "internalType": "uint256",
          "name": "tokenId",
          "type": "uint256"
        }
      ],
      "name": "approve",
      "outputs": [],
      "stateMutability": "nonpayable",
      "type": "function"
    },
    {
      "inputs": [
        {
          "internalType": "address",
          "name": "owner",
          "type": "address"
        }
      ],
      "name": "balanceOf",
      "outputs": [
        {
          "internalType": "uint256",
          "name": "",
          "type": "uint256"
        }
      ],
      "stateMutability": "view",
      "type": "function"
    },
    {
      "inputs": [
        {
          "internalType": "uint256",
          "name": "tokenId",
          "type": "uint256"
        }
      ],
      "name": "getApproved",
      "outputs": [
        {
          "internalType": "address",
          "name": "",
          "type": "address"
        }
      ],
      "stateMutability": "view",
      "type": "function"
    },
    {
      "inputs": [
        {
          "internalType": "address",
          "name": "owner",
          "type": "address"
        },
        {
          "internalType": "address",
          "name": "operator",
          "type": "address"
        }
      ],
      "name": "isApprovedForAll",
      "outputs": [
        {
          "internalType": "bool",
          "name": "",
          "type": "bool"
        }
      ],
      "stateMutability": "view",
      "type": "function"
    },
    {
      "inputs": [],
      "name": "name",
      "outputs": [
        {
          "internalType": "string",
          "name": "",
          "type": "string"
        }
      ],
      "stateMutability": "view",
      "type": "function"
    },
    {
      "inputs": [],
      "name": "owner",
      "outputs": [
        {
          "internalType": "address",
          "name": "",
          "type": "address"
        }
      ],
      "stateMutability": "view",
      "type": "function"
    },
    {
      "inputs": [
        {
          "internalType": "uint256",
          "name": "tokenId",
          "type": "uint256"
        }
      ],
      "name": "ownerOf",
      "outputs": [
        {
          "internalType": "address",
          "name": "",
          "type": "address"
        }
      ],
      "stateMutability": "view",
      "type": "function"
    },
    {
      "inputs": [],
      "name": "paused",
      "outputs": [
        {
          "internalType": "bool",
          "name": "",
          "type": "bool"
        }
      ],
      "stateMutability": "view",
      "type": "function"
    },
    {
      "inputs": [],
      "name": "renounceOwnership",
      "outputs": [],
      "stateMutability": "nonpayable",
      "type": "function"
    },
    {
      "inputs": [
        {
          "internalType": "address",
          "name": "from",
          "type": "address"
        },
        {
          "internalType": "address",
          "name": "to",
          "type": "address"
        },
        {
          "internalType": "uint256",
          "name": "tokenId",
          "type": "uint256"
        }
      ],
      "name": "safeTransferFrom",
      "outputs": [],
      "stateMutability": "nonpayable",
      "type": "function"
    },
    {
      "inputs": [
        {
          "internalType": "address",
          "name": "from",
          "type": "address"
        },
        {
          "internalType": "address",
          "name": "to",
          "type": "address"
        },
        {
          "internalType": "uint256",
          "name": "tokenId",
          "type": "uint256"
        },
        {
          "internalType": "bytes",
          "name": "_data",
          "type": "bytes"
        }
      ],
      "name": "safeTransferFrom",
      "outputs": [],
      "stateMutability": "nonpayable",
      "type": "function"
    },
    {
      "inputs": [
        {
          "internalType": "address",
          "name": "operator",
          "type": "address"
        },
        {
          "internalType": "bool",
          "name": "approved",
          "type": "bool"
        }
      ],
      "name": "setApprovalForAll",
      "outputs": [],
      "stateMutability": "nonpayable",
      "type": "function"
    },
    {
      "inputs": [
        {
          "internalType": "bytes4",
          "name": "interfaceId",
          "type": "bytes4"
        }
      ],
      "name": "supportsInterface",
      "outputs": [
        {
          "internalType": "bool",
          "name": "",
          "type": "bool"
        }
      ],
      "stateMutability": "view",
      "type": "function"
    },
    {
      "inputs": [],
      "name": "symbol",
      "outputs": [
        {
          "internalType": "string",
          "name": "",
          "type": "string"
        }
      ],
      "stateMutability": "view",
      "type": "function"
    },
    {
      "inputs": [
        {
          "internalType": "address",
          "name": "from",
          "type": "address"
        },
        {
          "internalType": "address",
          "name": "to",
          "type": "address"
        },
        {
          "internalType": "uint256",
          "name": "tokenId",
          "type": "uint256"
        }
      ],
      "name": "transferFrom",
      "outputs": [],
      "stateMutability": "nonpayable",
      "type": "function"
    },
    {
      "inputs": [
        {
          "internalType": "address",
          "name": "newOwner",
          "type": "address"
        }
      ],
      "name": "transferOwnership",
      "outputs": [],
      "stateMutability": "nonpayable",
      "type": "function"
    },
    {
      "inputs": [],
      "name": "pause",
      "outputs": [],
      "stateMutability": "nonpayable",
      "type": "function"
    },
    {
      "inputs": [],
      "name": "unPause",
      "outputs": [],
      "stateMutability": "nonpayable",
      "type": "function"
    },
    {
      "inputs": [
        {
          "internalType": "uint256",
          "name": "tokenId",
          "type": "uint256"
        }
      ],
      "name": "tokenURI",
      "outputs": [
        {
          "internalType": "string",
          "name": "",
          "type": "string"
        }
      ],
      "stateMutability": "view",
      "type": "function"
    },
    {
      "inputs": [
        {
          "internalType": "uint256",
          "name": "tokenId",
          "type": "uint256"
        }
      ],
      "name": "tokenType",
      "outputs": [
        {
          "internalType": "uint256",
          "name": "",
          "type": "uint256"
        }
      ],
      "stateMutability": "view",
      "type": "function"
    },
    {
      "inputs": [
        {
          "internalType": "string",
          "name": "newBaseURI",
          "type": "string"
        }
      ],
      "name": "setBaseURI",
      "outputs": [],
      "stateMutability": "nonpayable",
      "type": "function"
    },
    {
      "inputs": [],
      "name": "baseURI",
      "outputs": [
        {
          "internalType": "string",
          "name": "",
          "type": "string"
        }
      ],
      "stateMutability": "view",
      "type": "function"
    }
  ],
  "bytecode": "0x60806040523480156200001157600080fd5b506040518060400160405280600e81526020017f4f726269746175204552433732310000000000000000000000000000000000008152506040518060400160405280600781526020017f4f72626974617500000000000000000000000000000000000000000000000000815250816000908051906020019062000096929190620001da565b508060019080519060200190620000af929190620001da565b5050506000600660006101000a81548160ff0219169083151502179055506000620000df620001d260201b60201c565b905080600660016101000a81548173ffffffffffffffffffffffffffffffffffffffff021916908373ffffffffffffffffffffffffffffffffffffffff1602179055508073ffffffffffffffffffffffffffffffffffffffff16600073ffffffffffffffffffffffffffffffffffffffff167f8be0079c531659141344cd1fd0a4f28419497f9722a3daafe3b4186f6b6457e060405160405180910390a3506040518060400160405280601c81526020017f68747470733a2f2f6d657461646174612e6f7262697461752e696f2f0000000081525060089080519060200190620001cb929190620001da565b50620002ef565b600033905090565b828054620001e8906200028a565b90600052602060002090601f0160209004810192826200020c576000855562000258565b82601f106200022757805160ff191683800117855562000258565b8280016001018555821562000258579182015b82811115620002575782518255916020019190600101906200023a565b5b5090506200026791906200026b565b5090565b5b80821115620002865760008160009055506001016200026c565b5090565b60006002820490506001821680620002a357607f821691505b60208210811415620002ba57620002b9620002c0565b5b50919050565b7f4e487b7100000000000000000000000000000000000000000000000000000000600052602260045260246000fd5b6131ea80620002ff6000396000f3fe608060405234801561001057600080fd5b50600436106101425760003560e01c8063715018a6116100b8578063b88d4fde1161007c578063b88d4fde1461033d578063c87b56dd14610359578063e6c3b1f614610389578063e985e9c5146103b9578063f2fde38b146103e9578063f7b188a51461040557610142565b8063715018a6146102d15780638456cb59146102db5780638da5cb5b146102e557806395d89b4114610303578063a22cb4651461032157610142565b806342842e0e1161010a57806342842e0e146101fd57806355f804b3146102195780635c975abb146102355780636352211e146102535780636c0360eb1461028357806370a08231146102a157610142565b806301ffc9a71461014757806306fdde0314610177578063081812fc14610195578063095ea7b3146101c557806323b872dd146101e1575b600080fd5b610161600480360381019061015c9190612060565b61040f565b60405161016e91906125a7565b60405180910390f35b61017f6104f1565b60405161018c91906125c2565b60405180910390f35b6101af60048036038101906101aa91906120f3565b610583565b6040516101bc9190612540565b60405180910390f35b6101df60048036038101906101da9190612024565b610608565b005b6101fb60048036038101906101f69190611f1e565b610720565b005b61021760048036038101906102129190611f1e565b610780565b005b610233600480360381019061022e91906120b2565b6107a0565b005b61023d61087e565b60405161024a91906125a7565b60405180910390f35b61026d600480360381019061026891906120f3565b610895565b60405161027a9190612540565b60405180910390f35b61028b610947565b60405161029891906125c2565b60405180910390f35b6102bb60048036038101906102b69190611eb9565b6109d9565b6040516102c89190612824565b60405180910390f35b6102d9610a91565b005b6102e3610bce565b005b6102ed610c54565b6040516102fa9190612540565b60405180910390f35b61030b610c7e565b60405161031891906125c2565b60405180910390f35b61033b60048036038101906103369190611fe8565b610d10565b005b61035760048036038101906103529190611f6d565b610e91565b005b610373600480360381019061036e91906120f3565b610ef3565b60405161038091906125c2565b60405180910390f35b6103a3600480360381019061039e91906120f3565b610f8c565b6040516103b09190612824565b60405180910390f35b6103d360048036038101906103ce9190611ee2565b610ff1565b6040516103e091906125a7565b60405180910390f35b61040360048036038101906103fe9190611eb9565b611085565b005b61040d611231565b005b60007f80ac58cd000000000000000000000000000000000000000000000000000000007bffffffffffffffffffffffffffffffffffffffffffffffffffffffff1916827bffffffffffffffffffffffffffffffffffffffffffffffffffffffff191614806104da57507f5b5e139f000000000000000000000000000000000000000000000000000000007bffffffffffffffffffffffffffffffffffffffffffffffffffffffff1916827bffffffffffffffffffffffffffffffffffffffffffffffffffffffff1916145b806104ea57506104e9826112b7565b5b9050919050565b60606000805461050090612a8f565b80601f016020809104026020016040519081016040528092919081815260200182805461052c90612a8f565b80156105795780601f1061054e57610100808354040283529160200191610579565b820191906000526020600020905b81548152906001019060200180831161055c57829003601f168201915b5050505050905090565b600061058e82611321565b6105cd576040517f08c379a00000000000000000000000000000000000000000000000000000000081526004016105c490612764565b60405180910390fd5b6004600083815260200190815260200160002060009054906101000a900473ffffffffffffffffffffffffffffffffffffffff169050919050565b600061061382610895565b90508073ffffffffffffffffffffffffffffffffffffffff168373ffffffffffffffffffffffffffffffffffffffff161415610684576040517f08c379a000000000000000000000000000000000000000000000000000000000815260040161067b906127e4565b60405180910390fd5b8073ffffffffffffffffffffffffffffffffffffffff166106a361138d565b73ffffffffffffffffffffffffffffffffffffffff1614806106d257506106d1816106cc61138d565b610ff1565b5b610711576040517f08c379a000000000000000000000000000000000000000000000000000000000815260040161070890612704565b60405180910390fd5b61071b8383611395565b505050565b61073161072b61138d565b8261144e565b610770576040517f08c379a000000000000000000000000000000000000000000000000000000000815260040161076790612804565b60405180910390fd5b61077b83838361152c565b505050565b61079b83838360405180602001604052806000815250610e91565b505050565b6107a861138d565b73ffffffffffffffffffffffffffffffffffffffff166107c6610c54565b73ffffffffffffffffffffffffffffffffffffffff161461081c576040517f08c379a000000000000000000000000000000000000000000000000000000000815260040161081390612784565b60405180910390fd5b61082461087e565b15610864576040517f08c379a000000000000000000000000000000000000000000000000000000000815260040161085b906126e4565b60405180910390fd5b806008908051906020019061087a929190611cdd565b5050565b6000600660009054906101000a900460ff16905090565b6000806002600084815260200190815260200160002060009054906101000a900473ffffffffffffffffffffffffffffffffffffffff169050600073ffffffffffffffffffffffffffffffffffffffff168173ffffffffffffffffffffffffffffffffffffffff16141561093e576040517f08c379a000000000000000000000000000000000000000000000000000000000815260040161093590612744565b60405180910390fd5b80915050919050565b60606008805461095690612a8f565b80601f016020809104026020016040519081016040528092919081815260200182805461098290612a8f565b80156109cf5780601f106109a4576101008083540402835291602001916109cf565b820191906000526020600020905b8154815290600101906020018083116109b257829003601f168201915b5050505050905090565b60008073ffffffffffffffffffffffffffffffffffffffff168273ffffffffffffffffffffffffffffffffffffffff161415610a4a576040517f08c379a0000000000000000000000000000000000000000000000000000000008152600401610a4190612724565b60405180910390fd5b600360008373ffffffffffffffffffffffffffffffffffffffff1673ffffffffffffffffffffffffffffffffffffffff168152602001908152602001600020549050919050565b610a9961138d565b73ffffffffffffffffffffffffffffffffffffffff16610ab7610c54565b73ffffffffffffffffffffffffffffffffffffffff1614610b0d576040517f08c379a0000000000000000000000000000000000000000000000000000000008152600401610b0490612784565b60405180910390fd5b600073ffffffffffffffffffffffffffffffffffffffff16600660019054906101000a900473ffffffffffffffffffffffffffffffffffffffff1673ffffffffffffffffffffffffffffffffffffffff167f8be0079c531659141344cd1fd0a4f28419497f9722a3daafe3b4186f6b6457e060405160405180910390a36000600660016101000a81548173ffffffffffffffffffffffffffffffffffffffff021916908373ffffffffffffffffffffffffffffffffffffffff160217905550565b610bd661138d565b73ffffffffffffffffffffffffffffffffffffffff16610bf4610c54565b73ffffffffffffffffffffffffffffffffffffffff1614610c4a576040517f08c379a0000000000000000000000000000000000000000000000000000000008152600401610c4190612784565b60405180910390fd5b610c52611788565b565b6000600660019054906101000a900473ffffffffffffffffffffffffffffffffffffffff16905090565b606060018054610c8d90612a8f565b80601f0160208091040260200160405190810160405280929190818152602001828054610cb990612a8f565b8015610d065780601f10610cdb57610100808354040283529160200191610d06565b820191906000526020600020905b815481529060010190602001808311610ce957829003601f168201915b5050505050905090565b610d1861138d565b73ffffffffffffffffffffffffffffffffffffffff168273ffffffffffffffffffffffffffffffffffffffff161415610d86576040517f08c379a0000000000000000000000000000000000000000000000000000000008152600401610d7d90612684565b60405180910390fd5b8060056000610d9361138d565b73ffffffffffffffffffffffffffffffffffffffff1673ffffffffffffffffffffffffffffffffffffffff16815260200190815260200160002060008473ffffffffffffffffffffffffffffffffffffffff1673ffffffffffffffffffffffffffffffffffffffff16815260200190815260200160002060006101000a81548160ff0219169083151502179055508173ffffffffffffffffffffffffffffffffffffffff16610e4061138d565b73ffffffffffffffffffffffffffffffffffffffff167f17307eab39ab6107e8899845ad3d59bd9653f200f220920489ca2b5937696c3183604051610e8591906125a7565b60405180910390a35050565b610ea2610e9c61138d565b8361144e565b610ee1576040517f08c379a0000000000000000000000000000000000000000000000000000000008152600401610ed890612804565b60405180910390fd5b610eed8484848461182b565b50505050565b6060610efe82611321565b610f3d576040517f08c379a0000000000000000000000000000000000000000000000000000000008152600401610f34906127c4565b60405180910390fd5b6008610f5b6007600085815260200190815260200160002054611887565b610f6484611887565b604051602001610f7693929190612504565b6040516020818303038152906040529050919050565b6000610f9782611321565b610fd6576040517f08c379a0000000000000000000000000000000000000000000000000000000008152600401610fcd906126a4565b60405180910390fd5b60076000838152602001908152602001600020549050919050565b6000600560008473ffffffffffffffffffffffffffffffffffffffff1673ffffffffffffffffffffffffffffffffffffffff16815260200190815260200160002060008373ffffffffffffffffffffffffffffffffffffffff1673ffffffffffffffffffffffffffffffffffffffff16815260200190815260200160002060009054906101000a900460ff16905092915050565b61108d61138d565b73ffffffffffffffffffffffffffffffffffffffff166110ab610c54565b73ffffffffffffffffffffffffffffffffffffffff1614611101576040517f08c379a00000000000000000000000000000000000000000000000000000000081526004016110f890612784565b60405180910390fd5b600073ffffffffffffffffffffffffffffffffffffffff168173ffffffffffffffffffffffffffffffffffffffff161415611171576040517f08c379a000000000000000000000000000000000000000000000000000000000815260040161116890612644565b60405180910390fd5b8073ffffffffffffffffffffffffffffffffffffffff16600660019054906101000a900473ffffffffffffffffffffffffffffffffffffffff1673ffffffffffffffffffffffffffffffffffffffff167f8be0079c531659141344cd1fd0a4f28419497f9722a3daafe3b4186f6b6457e060405160405180910390a380600660016101000a81548173ffffffffffffffffffffffffffffffffffffffff021916908373ffffffffffffffffffffffffffffffffffffffff16021790555050565b61123961138d565b73ffffffffffffffffffffffffffffffffffffffff16611257610c54565b73ffffffffffffffffffffffffffffffffffffffff16146112ad576040517f08c379a00000000000000000000000000000000000000000000000000000000081526004016112a490612784565b60405180910390fd5b6112b5611a34565b565b60007f01ffc9a7000000000000000000000000000000000000000000000000000000007bffffffffffffffffffffffffffffffffffffffffffffffffffffffff1916827bffffffffffffffffffffffffffffffffffffffffffffffffffffffff1916149050919050565b60008073ffffffffffffffffffffffffffffffffffffffff166002600084815260200190815260200160002060009054906101000a900473ffffffffffffffffffffffffffffffffffffffff1673ffffffffffffffffffffffffffffffffffffffff1614159050919050565b600033905090565b816004600083815260200190815260200160002060006101000a81548173ffffffffffffffffffffffffffffffffffffffff021916908373ffffffffffffffffffffffffffffffffffffffff160217905550808273ffffffffffffffffffffffffffffffffffffffff1661140883610895565b73ffffffffffffffffffffffffffffffffffffffff167f8c5be1e5ebec7d5bd14f71427d1e84f3dd0314c0f7b2291e5b200ac8c7c3b92560405160405180910390a45050565b600061145982611321565b611498576040517f08c379a000000000000000000000000000000000000000000000000000000000815260040161148f906126c4565b60405180910390fd5b60006114a383610895565b90508073ffffffffffffffffffffffffffffffffffffffff168473ffffffffffffffffffffffffffffffffffffffff16148061151257508373ffffffffffffffffffffffffffffffffffffffff166114fa84610583565b73ffffffffffffffffffffffffffffffffffffffff16145b8061152357506115228185610ff1565b5b91505092915050565b8273ffffffffffffffffffffffffffffffffffffffff1661154c82610895565b73ffffffffffffffffffffffffffffffffffffffff16146115a2576040517f08c379a0000000000000000000000000000000000000000000000000000000008152600401611599906127a4565b60405180910390fd5b600073ffffffffffffffffffffffffffffffffffffffff168273ffffffffffffffffffffffffffffffffffffffff161415611612576040517f08c379a000000000000000000000000000000000000000000000000000000000815260040161160990612664565b60405180910390fd5b61161d838383611ad6565b611628600082611395565b6001600360008573ffffffffffffffffffffffffffffffffffffffff1673ffffffffffffffffffffffffffffffffffffffff168152602001908152602001600020600082825461167891906129a5565b925050819055506001600360008473ffffffffffffffffffffffffffffffffffffffff1673ffffffffffffffffffffffffffffffffffffffff16815260200190815260200160002060008282546116cf919061291e565b92505081905550816002600083815260200190815260200160002060006101000a81548173ffffffffffffffffffffffffffffffffffffffff021916908373ffffffffffffffffffffffffffffffffffffffff160217905550808273ffffffffffffffffffffffffffffffffffffffff168473ffffffffffffffffffffffffffffffffffffffff167fddf252ad1be2c89b69c2b068fc378daa952ba7f163c4a11628f55a4df523b3ef60405160405180910390a4505050565b61179061087e565b156117d0576040517f08c379a00000000000000000000000000000000000000000000000000000000081526004016117c7906126e4565b60405180910390fd5b6001600660006101000a81548160ff0219169083151502179055507f62e78cea01bee320cd4e420270b5ea74000d11b0c9f74754ebdbfc544b05a25861181461138d565b6040516118219190612540565b60405180910390a1565b61183684848461152c565b61184284848484611b2e565b611881576040517f08c379a000000000000000000000000000000000000000000000000000000000815260040161187890612624565b60405180910390fd5b50505050565b606060008214156118cf576040518060400160405280600181526020017f30000000000000000000000000000000000000000000000000000000000000008152509050611a2f565b600082905060005b600082146119015780806118ea90612af2565b915050600a826118fa9190612974565b91506118d7565b60008167ffffffffffffffff811115611943577f4e487b7100000000000000000000000000000000000000000000000000000000600052604160045260246000fd5b6040519080825280601f01601f1916602001820160405280156119755781602001600182028036833780820191505090505b5090505b60008514611a285760018261198e91906129a5565b9150600a8561199d9190612b3b565b60306119a9919061291e565b60f81b8183815181106119e5577f4e487b7100000000000000000000000000000000000000000000000000000000600052603260045260246000fd5b60200101907effffffffffffffffffffffffffffffffffffffffffffffffffffffffffffff1916908160001a905350600a85611a219190612974565b9450611979565b8093505050505b919050565b611a3c61087e565b611a7b576040517f08c379a0000000000000000000000000000000000000000000000000000000008152600401611a7290612604565b60405180910390fd5b6000600660006101000a81548160ff0219169083151502179055507f5db9ee0a495bf2e6ff9c91a7834c1ba4fdd244a5e8aa4e537bd38aeae4b073aa611abf61138d565b604051611acc9190612540565b60405180910390a1565b611ae1838383611cc5565b611ae961087e565b15611b29576040517f08c379a0000000000000000000000000000000000000000000000000000000008152600401611b20906125e4565b60405180910390fd5b505050565b6000611b4f8473ffffffffffffffffffffffffffffffffffffffff16611cca565b15611cb8578373ffffffffffffffffffffffffffffffffffffffff1663150b7a02611b7861138d565b8786866040518563ffffffff1660e01b8152600401611b9a949392919061255b565b602060405180830381600087803b158015611bb457600080fd5b505af1925050508015611be557506040513d601f19601f82011682018060405250810190611be29190612089565b60015b611c68573d8060008114611c15576040519150601f19603f3d011682016040523d82523d6000602084013e611c1a565b606091505b50600081511415611c60576040517f08c379a0000000000000000000000000000000000000000000000000000000008152600401611c5790612624565b60405180910390fd5b805181602001fd5b63150b7a0260e01b7bffffffffffffffffffffffffffffffffffffffffffffffffffffffff1916817bffffffffffffffffffffffffffffffffffffffffffffffffffffffff191614915050611cbd565b600190505b949350505050565b505050565b600080823b905060008111915050919050565b828054611ce990612a8f565b90600052602060002090601f016020900481019282611d0b5760008555611d52565b82601f10611d2457805160ff1916838001178555611d52565b82800160010185558215611d52579182015b82811115611d51578251825591602001919060010190611d36565b5b509050611d5f9190611d63565b5090565b5b80821115611d7c576000816000905550600101611d64565b5090565b6000611d93611d8e84612864565b61283f565b905082815260208101848484011115611dab57600080fd5b611db6848285612a4d565b509392505050565b6000611dd1611dcc84612895565b61283f565b905082815260208101848484011115611de957600080fd5b611df4848285612a4d565b509392505050565b600081359050611e0b81613158565b92915050565b600081359050611e208161316f565b92915050565b600081359050611e3581613186565b92915050565b600081519050611e4a81613186565b92915050565b600082601f830112611e6157600080fd5b8135611e71848260208601611d80565b91505092915050565b600082601f830112611e8b57600080fd5b8135611e9b848260208601611dbe565b91505092915050565b600081359050611eb38161319d565b92915050565b600060208284031215611ecb57600080fd5b6000611ed984828501611dfc565b91505092915050565b60008060408385031215611ef557600080fd5b6000611f0385828601611dfc565b9250506020611f1485828601611dfc565b9150509250929050565b600080600060608486031215611f3357600080fd5b6000611f4186828701611dfc565b9350506020611f5286828701611dfc565b9250506040611f6386828701611ea4565b9150509250925092565b60008060008060808587031215611f8357600080fd5b6000611f9187828801611dfc565b9450506020611fa287828801611dfc565b9350506040611fb387828801611ea4565b925050606085013567ffffffffffffffff811115611fd057600080fd5b611fdc87828801611e50565b91505092959194509250565b60008060408385031215611ffb57600080fd5b600061200985828601611dfc565b925050602061201a85828601611e11565b9150509250929050565b6000806040838503121561203757600080fd5b600061204585828601611dfc565b925050602061205685828601611ea4565b9150509250929050565b60006020828403121561207257600080fd5b600061208084828501611e26565b91505092915050565b60006020828403121561209b57600080fd5b60006120a984828501611e3b565b91505092915050565b6000602082840312156120c457600080fd5b600082013567ffffffffffffffff8111156120de57600080fd5b6120ea84828501611e7a565b91505092915050565b60006020828403121561210557600080fd5b600061211384828501611ea4565b91505092915050565b612125816129d9565b82525050565b612134816129eb565b82525050565b6000612145826128db565b61214f81856128f1565b935061215f818560208601612a5c565b61216881612c28565b840191505092915050565b600061217e826128e6565b6121888185612902565b9350612198818560208601612a5c565b6121a181612c28565b840191505092915050565b60006121b7826128e6565b6121c18185612913565b93506121d1818560208601612a5c565b80840191505092915050565b600081546121ea81612a8f565b6121f48186612913565b9450600182166000811461220f576001811461222057612253565b60ff19831686528186019350612253565b612229856128c6565b60005b8381101561224b5781548189015260018201915060208101905061222c565b838801955050505b50505092915050565b6000612269602b83612902565b915061227482612c39565b604082019050919050565b600061228c601483612902565b915061229782612c88565b602082019050919050565b60006122af603283612902565b91506122ba82612cb1565b604082019050919050565b60006122d2602683612902565b91506122dd82612d00565b604082019050919050565b60006122f5602483612902565b915061230082612d4f565b604082019050919050565b6000612318601983612902565b915061232382612d9e565b602082019050919050565b600061233b603083612902565b915061234682612dc7565b604082019050919050565b600061235e602c83612902565b915061236982612e16565b604082019050919050565b6000612381601083612902565b915061238c82612e65565b602082019050919050565b60006123a4603883612902565b91506123af82612e8e565b604082019050919050565b60006123c7602a83612902565b91506123d282612edd565b604082019050919050565b60006123ea602983612902565b91506123f582612f2c565b604082019050919050565b600061240d602c83612902565b915061241882612f7b565b604082019050919050565b6000612430602083612902565b915061243b82612fca565b602082019050919050565b6000612453602983612902565b915061245e82612ff3565b604082019050919050565b6000612476602f83612902565b915061248182613042565b604082019050919050565b6000612499602183612902565b91506124a482613091565b604082019050919050565b60006124bc603183612902565b91506124c7826130e0565b604082019050919050565b60006124df600183612913565b91506124ea8261312f565b600182019050919050565b6124fe81612a43565b82525050565b600061251082866121dd565b915061251c82856121ac565b9150612527826124d2565b915061253382846121ac565b9150819050949350505050565b6000602082019050612555600083018461211c565b92915050565b6000608082019050612570600083018761211c565b61257d602083018661211c565b61258a60408301856124f5565b818103606083015261259c818461213a565b905095945050505050565b60006020820190506125bc600083018461212b565b92915050565b600060208201905081810360008301526125dc8184612173565b905092915050565b600060208201905081810360008301526125fd8161225c565b9050919050565b6000602082019050818103600083015261261d8161227f565b9050919050565b6000602082019050818103600083015261263d816122a2565b9050919050565b6000602082019050818103600083015261265d816122c5565b9050919050565b6000602082019050818103600083015261267d816122e8565b9050919050565b6000602082019050818103600083015261269d8161230b565b9050919050565b600060208201905081810360008301526126bd8161232e565b9050919050565b600060208201905081810360008301526126dd81612351565b9050919050565b600060208201905081810360008301526126fd81612374565b9050919050565b6000602082019050818103600083015261271d81612397565b9050919050565b6000602082019050818103600083015261273d816123ba565b9050919050565b6000602082019050818103600083015261275d816123dd565b9050919050565b6000602082019050818103600083015261277d81612400565b9050919050565b6000602082019050818103600083015261279d81612423565b9050919050565b600060208201905081810360008301526127bd81612446565b9050919050565b600060208201905081810360008301526127dd81612469565b9050919050565b600060208201905081810360008301526127fd8161248c565b9050919050565b6000602082019050818103600083015261281d816124af565b9050919050565b600060208201905061283960008301846124f5565b92915050565b600061284961285a565b90506128558282612ac1565b919050565b6000604051905090565b600067ffffffffffffffff82111561287f5761287e612bf9565b5b61288882612c28565b9050602081019050919050565b600067ffffffffffffffff8211156128b0576128af612bf9565b5b6128b982612c28565b9050602081019050919050565b60008190508160005260206000209050919050565b600081519050919050565b600081519050919050565b600082825260208201905092915050565b600082825260208201905092915050565b600081905092915050565b600061292982612a43565b915061293483612a43565b9250827fffffffffffffffffffffffffffffffffffffffffffffffffffffffffffffffff0382111561296957612968612b6c565b5b828201905092915050565b600061297f82612a43565b915061298a83612a43565b92508261299a57612999612b9b565b5b828204905092915050565b60006129b082612a43565b91506129bb83612a43565b9250828210156129ce576129cd612b6c565b5b828203905092915050565b60006129e482612a23565b9050919050565b60008115159050919050565b60007fffffffff0000000000000000000000000000000000000000000000000000000082169050919050565b600073ffffffffffffffffffffffffffffffffffffffff82169050919050565b6000819050919050565b82818337600083830152505050565b60005b83811015612a7a578082015181840152602081019050612a5f565b83811115612a89576000848401525b50505050565b60006002820490506001821680612aa757607f821691505b60208210811415612abb57612aba612bca565b5b50919050565b612aca82612c28565b810181811067ffffffffffffffff82111715612ae957612ae8612bf9565b5b80604052505050565b6000612afd82612a43565b91507fffffffffffffffffffffffffffffffffffffffffffffffffffffffffffffffff821415612b3057612b2f612b6c565b5b600182019050919050565b6000612b4682612a43565b9150612b5183612a43565b925082612b6157612b60612b9b565b5b828206905092915050565b7f4e487b7100000000000000000000000000000000000000000000000000000000600052601160045260246000fd5b7f4e487b7100000000000000000000000000000000000000000000000000000000600052601260045260246000fd5b7f4e487b7100000000000000000000000000000000000000000000000000000000600052602260045260246000fd5b7f4e487b7100000000000000000000000000000000000000000000000000000000600052604160045260246000fd5b6000601f19601f8301169050919050565b7f4552433732315061757361626c653a20746f6b656e207472616e73666572207760008201527f68696c6520706175736564000000000000000000000000000000000000000000602082015250565b7f5061757361626c653a206e6f7420706175736564000000000000000000000000600082015250565b7f4552433732313a207472616e7366657220746f206e6f6e20455243373231526560008201527f63656976657220696d706c656d656e7465720000000000000000000000000000602082015250565b7f4f776e61626c653a206e6577206f776e657220697320746865207a65726f206160008201527f6464726573730000000000000000000000000000000000000000000000000000602082015250565b7f4552433732313a207472616e7366657220746f20746865207a65726f2061646460008201527f7265737300000000000000000000000000000000000000000000000000000000602082015250565b7f4552433732313a20617070726f766520746f2063616c6c657200000000000000600082015250565b7f4552433732314d657461646174613a205479706520717565727920666f72206e60008201527f6f6e6578697374656e7420746f6b656e00000000000000000000000000000000602082015250565b7f4552433732313a206f70657261746f7220717565727920666f72206e6f6e657860008201527f697374656e7420746f6b656e0000000000000000000000000000000000000000602082015250565b7f5061757361626c653a2070617573656400000000000000000000000000000000600082015250565b7f4552433732313a20617070726f76652063616c6c6572206973206e6f74206f7760008201527f6e6572206e6f7220617070726f76656420666f7220616c6c0000000000000000602082015250565b7f4552433732313a2062616c616e636520717565727920666f7220746865207a6560008201527f726f206164647265737300000000000000000000000000000000000000000000602082015250565b7f4552433732313a206f776e657220717565727920666f72206e6f6e657869737460008201527f656e7420746f6b656e0000000000000000000000000000000000000000000000602082015250565b7f4552433732313a20617070726f76656420717565727920666f72206e6f6e657860008201527f697374656e7420746f6b656e0000000000000000000000000000000000000000602082015250565b7f4f776e61626c653a2063616c6c6572206973206e6f7420746865206f776e6572600082015250565b7f4552433732313a207472616e73666572206f6620746f6b656e2074686174206960008201527f73206e6f74206f776e0000000000000000000000000000000000000000000000602082015250565b7f4552433732314d657461646174613a2055524920717565727920666f72206e6f60008201527f6e6578697374656e7420746f6b656e0000000000000000000000000000000000602082015250565b7f4552433732313a20617070726f76616c20746f2063757272656e74206f776e6560008201527f7200000000000000000000000000000000000000000000000000000000000000602082015250565b7f4552433732313a207472616e736665722063616c6c6572206973206e6f74206f60008201527f776e6572206e6f7220617070726f766564000000000000000000000000000000602082015250565b7f2f00000000000000000000000000000000000000000000000000000000000000600082015250565b613161816129d9565b811461316c57600080fd5b50565b613178816129eb565b811461318357600080fd5b50565b61318f816129f7565b811461319a57600080fd5b50565b6131a681612a43565b81146131b157600080fd5b5056fea2646970667358221220a976c3f3b7b14e0e01d906c2719dadacca959660ebb565570042aa308a38825f64736f6c63430008040033",
  "immutableReferences": {},
  "source": "// SPDX-License-Identifier: UNLICENSED\r\n\r\npragma solidity 0.8.4;\r\n\r\nimport \"../../lib/token/ERC721/ERC721.sol\";\r\nimport \"../../lib/access/Ownable.sol\";\r\nimport \"../../lib/security/Pausable.sol\";\r\nimport \"../../lib/token/ERC721/extensions/ERC721Pausable.sol\";\r\nimport \"../../lib/utils/Strings.sol\";\r\ncontract OrbitauERC721 is ERC721Pausable, Ownable {\r\n    using Strings for uint256;\r\n    \r\n    mapping(uint256 => uint256) private _idToType;\r\n\r\n    /**\r\n     * @dev The base URI for all NFT.\r\n     */\r\n    string private __baseURI;\r\n\r\n    /**\r\n     * @dev Create a new OrbitauERC721 contract.\r\n     *\r\n     */\r\n    constructor() ERC721(\"Orbitau ERC721\", \"Orbitau\") Ownable() Pausable() {\r\n        __baseURI = \"https://metadata.orbitau.io/\";\r\n    }\r\n\r\n    /**\r\n     * @dev Pause the contract in case of bugs/attacks.\r\n     * @notice Only the owner can call this method.\r\n     */\r\n    function pause() public onlyOwner {\r\n        _pause();\r\n    }\r\n\r\n    /**\r\n     * @dev Resume the contract after being paused.\r\n     * @notice Only the owner can call this method.\r\n     */\r\n    function unPause() public onlyOwner {\r\n        _unpause();\r\n    }\r\n\r\n    function safeMint(\r\n        address to,        \r\n        uint256 _tokenType,\r\n        uint256 tokenId)\r\n    internal virtual\r\n    returns (uint256)\r\n    {\r\n        _safeMint(to, tokenId);\r\n        _setTokenType(tokenId, _tokenType);\r\n\r\n        return tokenId;\r\n    }\r\n\r\n    function mint(address to, uint256 _tokenType, uint256 tokenId)\r\n    internal virtual\r\n    returns (uint256)\r\n    {\r\n        _mint(to, tokenId);\r\n        _setTokenType(tokenId, _tokenType);\r\n\r\n        return tokenId;\r\n    }\r\n\r\n    /**\r\n     * @dev See {IERC721Metadata-tokenURI}.\r\n     */\r\n    function tokenURI(uint256 tokenId) public view virtual override returns (string memory) {\r\n        require(_exists(tokenId), \"ERC721Metadata: URI query for nonexistent token\");\r\n\r\n        //return string(abi.encodePacked(__baseURI, _idToType[tokenId], tokenId));\r\n        return string(abi.encodePacked(__baseURI, _idToType[tokenId].toString(), '/', tokenId.toString()));\r\n    }\r\n    \r\n    function tokenType(uint256 tokenId) public view virtual returns (uint256) {\r\n        require(_exists(tokenId), \"ERC721Metadata: Type query for nonexistent token\");\r\n        return _idToType[tokenId];\r\n    }\r\n\r\n    /**\r\n     * @dev Sets new value for the `__baseURI`. This operation can only been done by the owner of this contract.\r\n     */\r\n    function setBaseURI(string memory newBaseURI) external onlyOwner whenNotPaused {\r\n        __baseURI = newBaseURI;\r\n    }\r\n\r\n    /**\r\n     * @dev Returns `__baseURI`.\r\n     */\r\n    function baseURI() external view returns(string memory) {\r\n        return __baseURI;\r\n    }\r\n    \r\n    /**\r\n     * @dev Base URI for computing {tokenURI}. If set, the resulting URI for each\r\n     * token will be the concatenation of the `baseURI` and the `tokenId`.\r\n     */\r\n    function _baseURI() internal view virtual override returns (string memory) {\r\n        return __baseURI;\r\n    }\r\n\r\n    function _setTokenType(\r\n        uint256 _tokenId,\r\n        uint256 _type\r\n    )\r\n    internal\r\n    {\r\n        require(_exists(_tokenId), \"TOKEN_ID_NOT_EXISTED\");\r\n        _idToType[_tokenId] = _type;\r\n    }\r\n\r\n}\r\n",
  "sourcePath": "D:\\0xTaureum\\github\\orbitau-smart-contract\\contracts\\tokens\\ERC721\\OrbitauERC721.sol",
  "compiler": {
    "name": "solc",
    "version": "0.8.4+commit.c7e474f2.Emscripten.clang"
  },
  "schemaVersion": "3.4.3",
  "updatedAt": "2021-09-12T08:10:55.067Z",
  "devdoc": {
    "kind": "dev",
    "methods": {
      "approve(address,uint256)": {
        "details": "See {IERC721-approve}."
      },
      "balanceOf(address)": {
        "details": "See {IERC721-balanceOf}."
      },
      "baseURI()": {
        "details": "Returns `__baseURI`."
      },
      "constructor": {
        "details": "Create a new OrbitauERC721 contract."
      },
      "getApproved(uint256)": {
        "details": "See {IERC721-getApproved}."
      },
      "isApprovedForAll(address,address)": {
        "details": "See {IERC721-isApprovedForAll}."
      },
      "name()": {
        "details": "See {IERC721Metadata-name}."
      },
      "owner()": {
        "details": "Returns the address of the current owner."
      },
      "ownerOf(uint256)": {
        "details": "See {IERC721-ownerOf}."
      },
      "pause()": {
        "details": "Pause the contract in case of bugs/attacks."
      },
      "paused()": {
        "details": "Returns true if the contract is paused, and false otherwise."
      },
      "renounceOwnership()": {
        "details": "Leaves the contract without owner. It will not be possible to call `onlyOwner` functions anymore. Can only be called by the current owner. NOTE: Renouncing ownership will leave the contract without an owner, thereby removing any functionality that is only available to the owner."
      },
      "safeTransferFrom(address,address,uint256)": {
        "details": "See {IERC721-safeTransferFrom}."
      },
      "safeTransferFrom(address,address,uint256,bytes)": {
        "details": "See {IERC721-safeTransferFrom}."
      },
      "setApprovalForAll(address,bool)": {
        "details": "See {IERC721-setApprovalForAll}."
      },
      "setBaseURI(string)": {
        "details": "Sets new value for the `__baseURI`. This operation can only been done by the owner of this contract."
      },
      "supportsInterface(bytes4)": {
        "details": "See {IERC165-supportsInterface}."
      },
      "symbol()": {
        "details": "See {IERC721Metadata-symbol}."
      },
      "tokenURI(uint256)": {
        "details": "See {IERC721Metadata-tokenURI}."
      },
      "transferFrom(address,address,uint256)": {
        "details": "See {IERC721-transferFrom}."
      },
      "transferOwnership(address)": {
        "details": "Transfers ownership of the contract to a new account (`newOwner`). Can only be called by the current owner."
      },
      "unPause()": {
        "details": "Resume the contract after being paused."
      }
    },
    "stateVariables": {
      "__baseURI": {
        "details": "The base URI for all NFT."
      }
    },
    "version": 1
  },
  "userdoc": {
    "kind": "user",
    "methods": {
      "pause()": {
        "notice": "Only the owner can call this method."
      },
      "unPause()": {
        "notice": "Only the owner can call this method."
      }
    },
    "version": 1
  }
}