{
  "contractName": "OrbitauERC721Enumerable",
  "abi": [
    {
      "inputs": [],
      "stateMutability": "nonpayable",
      "type": "constructor"
    },
    {
      "anonymous": false,
      "inputs": [
        {
          "indexed": true,
          "internalType": "address",
          "name": "owner",
          "type": "address"
        },
        {
          "indexed": true,
          "internalType": "address",
          "name": "approved",
          "type": "address"
        },
        {
          "indexed": true,
          "internalType": "uint256",
          "name": "tokenId",
          "type": "uint256"
        }
      ],
      "name": "Approval",
      "type": "event"
    },
    {
      "anonymous": false,
      "inputs": [
        {
          "indexed": true,
          "internalType": "address",
          "name": "owner",
          "type": "address"
        },
        {
          "indexed": true,
          "internalType": "address",
          "name": "operator",
          "type": "address"
        },
        {
          "indexed": false,
          "internalType": "bool",
          "name": "approved",
          "type": "bool"
        }
      ],
      "name": "ApprovalForAll",
      "type": "event"
    },
    {
      "anonymous": false,
      "inputs": [
        {
          "indexed": true,
          "internalType": "address",
          "name": "owner",
          "type": "address"
        },
        {
          "indexed": false,
          "internalType": "uint256",
          "name": "tokenId",
          "type": "uint256"
        }
      ],
      "name": "Equip",
      "type": "event"
    },
    {
      "anonymous": false,
      "inputs": [
        {
          "indexed": true,
          "internalType": "address",
          "name": "previousOwner",
          "type": "address"
        },
        {
          "indexed": true,
          "internalType": "address",
          "name": "newOwner",
          "type": "address"
        }
      ],
      "name": "OwnershipTransferred",
      "type": "event"
    },
    {
      "anonymous": false,
      "inputs": [
        {
          "indexed": false,
          "internalType": "address",
          "name": "account",
          "type": "address"
        }
      ],
      "name": "Paused",
      "type": "event"
    },
    {
      "anonymous": false,
      "inputs": [
        {
          "indexed": true,
          "internalType": "address",
          "name": "owner",
          "type": "address"
        },
        {
          "indexed": false,
          "internalType": "uint256",
          "name": "tokenId",
          "type": "uint256"
        }
      ],
      "name": "Redeem",
      "type": "event"
    },
    {
      "anonymous": false,
      "inputs": [
        {
          "indexed": true,
          "internalType": "address",
          "name": "from",
          "type": "address"
        },
        {
          "indexed": true,
          "internalType": "address",
          "name": "to",
          "type": "address"
        },
        {
          "indexed": true,
          "internalType": "uint256",
          "name": "tokenId",
          "type": "uint256"
        }
      ],
      "name": "Transfer",
      "type": "event"
    },
    {
      "anonymous": false,
      "inputs": [
        {
          "indexed": false,
          "internalType": "address",
          "name": "account",
          "type": "address"
        }
      ],
      "name": "Unpaused",
      "type": "event"
    },
    {
      "inputs": [
        {
          "internalType": "address",
          "name": "to",
          "type": "address"
        },
        {
          "internalType": "uint256",
          "name": "tokenId",
          "type": "uint256"
        }
      ],
      "name": "approve",
      "outputs": [],
      "stateMutability": "nonpayable",
      "type": "function"
    },
    {
      "inputs": [
        {
          "internalType": "address",
          "name": "owner",
          "type": "address"
        }
      ],
      "name": "balanceOf",
      "outputs": [
        {
          "internalType": "uint256",
          "name": "",
          "type": "uint256"
        }
      ],
      "stateMutability": "view",
      "type": "function"
    },
    {
      "inputs": [],
      "name": "baseURI",
      "outputs": [
        {
          "internalType": "string",
          "name": "",
          "type": "string"
        }
      ],
      "stateMutability": "view",
      "type": "function"
    },
    {
      "inputs": [
        {
          "internalType": "uint256",
          "name": "tokenId",
          "type": "uint256"
        }
      ],
      "name": "getApproved",
      "outputs": [
        {
          "internalType": "address",
          "name": "",
          "type": "address"
        }
      ],
      "stateMutability": "view",
      "type": "function"
    },
    {
      "inputs": [
        {
          "internalType": "address",
          "name": "owner",
          "type": "address"
        },
        {
          "internalType": "address",
          "name": "operator",
          "type": "address"
        }
      ],
      "name": "isApprovedForAll",
      "outputs": [
        {
          "internalType": "bool",
          "name": "",
          "type": "bool"
        }
      ],
      "stateMutability": "view",
      "type": "function"
    },
    {
      "inputs": [
        {
          "internalType": "uint256",
          "name": "tokenId",
          "type": "uint256"
        }
      ],
      "name": "isFreeze",
      "outputs": [
        {
          "internalType": "bool",
          "name": "",
          "type": "bool"
        }
      ],
      "stateMutability": "view",
      "type": "function"
    },
    {
      "inputs": [],
      "name": "name",
      "outputs": [
        {
          "internalType": "string",
          "name": "",
          "type": "string"
        }
      ],
      "stateMutability": "view",
      "type": "function"
    },
    {
      "inputs": [],
      "name": "owner",
      "outputs": [
        {
          "internalType": "address",
          "name": "",
          "type": "address"
        }
      ],
      "stateMutability": "view",
      "type": "function"
    },
    {
      "inputs": [
        {
          "internalType": "uint256",
          "name": "tokenId",
          "type": "uint256"
        }
      ],
      "name": "ownerOf",
      "outputs": [
        {
          "internalType": "address",
          "name": "",
          "type": "address"
        }
      ],
      "stateMutability": "view",
      "type": "function"
    },
    {
      "inputs": [],
      "name": "pause",
      "outputs": [],
      "stateMutability": "nonpayable",
      "type": "function"
    },
    {
      "inputs": [],
      "name": "paused",
      "outputs": [
        {
          "internalType": "bool",
          "name": "",
          "type": "bool"
        }
      ],
      "stateMutability": "view",
      "type": "function"
    },
    {
      "inputs": [],
      "name": "renounceOwnership",
      "outputs": [],
      "stateMutability": "nonpayable",
      "type": "function"
    },
    {
      "inputs": [
        {
          "internalType": "address",
          "name": "from",
          "type": "address"
        },
        {
          "internalType": "address",
          "name": "to",
          "type": "address"
        },
        {
          "internalType": "uint256",
          "name": "tokenId",
          "type": "uint256"
        }
      ],
      "name": "safeTransferFrom",
      "outputs": [],
      "stateMutability": "nonpayable",
      "type": "function"
    },
    {
      "inputs": [
        {
          "internalType": "address",
          "name": "from",
          "type": "address"
        },
        {
          "internalType": "address",
          "name": "to",
          "type": "address"
        },
        {
          "internalType": "uint256",
          "name": "tokenId",
          "type": "uint256"
        },
        {
          "internalType": "bytes",
          "name": "_data",
          "type": "bytes"
        }
      ],
      "name": "safeTransferFrom",
      "outputs": [],
      "stateMutability": "nonpayable",
      "type": "function"
    },
    {
      "inputs": [
        {
          "internalType": "address",
          "name": "operator",
          "type": "address"
        },
        {
          "internalType": "bool",
          "name": "approved",
          "type": "bool"
        }
      ],
      "name": "setApprovalForAll",
      "outputs": [],
      "stateMutability": "nonpayable",
      "type": "function"
    },
    {
      "inputs": [
        {
          "internalType": "string",
          "name": "newBaseURI",
          "type": "string"
        }
      ],
      "name": "setBaseURI",
      "outputs": [],
      "stateMutability": "nonpayable",
      "type": "function"
    },
    {
      "inputs": [],
      "name": "symbol",
      "outputs": [
        {
          "internalType": "string",
          "name": "",
          "type": "string"
        }
      ],
      "stateMutability": "view",
      "type": "function"
    },
    {
      "inputs": [
        {
          "internalType": "uint256",
          "name": "index",
          "type": "uint256"
        }
      ],
      "name": "tokenByIndex",
      "outputs": [
        {
          "internalType": "uint256",
          "name": "",
          "type": "uint256"
        }
      ],
      "stateMutability": "view",
      "type": "function"
    },
    {
      "inputs": [
        {
          "internalType": "address",
          "name": "owner",
          "type": "address"
        },
        {
          "internalType": "uint256",
          "name": "index",
          "type": "uint256"
        }
      ],
      "name": "tokenOfOwnerByIndex",
      "outputs": [
        {
          "internalType": "uint256",
          "name": "",
          "type": "uint256"
        }
      ],
      "stateMutability": "view",
      "type": "function"
    },
    {
      "inputs": [],
      "name": "totalSupply",
      "outputs": [
        {
          "internalType": "uint256",
          "name": "",
          "type": "uint256"
        }
      ],
      "stateMutability": "view",
      "type": "function"
    },
    {
      "inputs": [
        {
          "internalType": "address",
          "name": "from",
          "type": "address"
        },
        {
          "internalType": "address",
          "name": "to",
          "type": "address"
        },
        {
          "internalType": "uint256",
          "name": "tokenId",
          "type": "uint256"
        }
      ],
      "name": "transferFrom",
      "outputs": [],
      "stateMutability": "nonpayable",
      "type": "function"
    },
    {
      "inputs": [
        {
          "internalType": "address",
          "name": "newOwner",
          "type": "address"
        }
      ],
      "name": "transferOwnership",
      "outputs": [],
      "stateMutability": "nonpayable",
      "type": "function"
    },
    {
      "inputs": [],
      "name": "unPause",
      "outputs": [],
      "stateMutability": "nonpayable",
      "type": "function"
    },
    {
      "inputs": [
        {
          "internalType": "bytes4",
          "name": "interfaceId",
          "type": "bytes4"
        }
      ],
      "name": "supportsInterface",
      "outputs": [
        {
          "internalType": "bool",
          "name": "",
          "type": "bool"
        }
      ],
      "stateMutability": "view",
      "type": "function"
    },
    {
      "inputs": [
        {
          "internalType": "uint256",
          "name": "tokenId",
          "type": "uint256"
        }
      ],
      "name": "tokenURI",
      "outputs": [
        {
          "internalType": "string",
          "name": "",
          "type": "string"
        }
      ],
      "stateMutability": "view",
      "type": "function"
    }
  ],
  "bytecode": "0x60806040523480156200001157600080fd5b506040518060400160405280600e81526020017f4f726269746175204552433732310000000000000000000000000000000000008152506040518060400160405280600781526020017f4f72626974617500000000000000000000000000000000000000000000000000815250816000908051906020019062000096929190620001da565b508060019080519060200190620000af929190620001da565b5050506000600660006101000a81548160ff0219169083151502179055506000620000df620001d260201b60201c565b905080600660016101000a81548173ffffffffffffffffffffffffffffffffffffffff021916908373ffffffffffffffffffffffffffffffffffffffff1602179055508073ffffffffffffffffffffffffffffffffffffffff16600073ffffffffffffffffffffffffffffffffffffffff167f8be0079c531659141344cd1fd0a4f28419497f9722a3daafe3b4186f6b6457e060405160405180910390a3506040518060400160405280601c81526020017f68747470733a2f2f6d657461646174612e6f7262697461752e696f2f0000000081525060089080519060200190620001cb929190620001da565b50620002ef565b600033905090565b828054620001e8906200028a565b90600052602060002090601f0160209004810192826200020c576000855562000258565b82601f106200022757805160ff191683800117855562000258565b8280016001018555821562000258579182015b82811115620002575782518255916020019190600101906200023a565b5b5090506200026791906200026b565b5090565b5b80821115620002865760008160009055506001016200026c565b5090565b60006002820490506001821680620002a357607f821691505b60208210811415620002ba57620002b9620002c0565b5b50919050565b7f4e487b7100000000000000000000000000000000000000000000000000000000600052602260045260246000fd5b613bbc80620002ff6000396000f3fe608060405234801561001057600080fd5b50600436106101735760003560e01c80636352211e116100de57806395d89b4111610097578063c87b56dd11610071578063c87b56dd14610438578063e985e9c514610468578063f2fde38b14610498578063f7b188a5146104b457610173565b806395d89b41146103e2578063a22cb46514610400578063b88d4fde1461041c57610173565b80636352211e146103325780636c0360eb1461036257806370a0823114610380578063715018a6146103b05780638456cb59146103ba5780638da5cb5b146103c457610173565b806323b872dd1161013057806323b872dd146102605780632f745c591461027c57806342842e0e146102ac5780634f6ccce7146102c857806355f804b3146102f85780635c975abb1461031457610173565b806301ffc9a71461017857806306fdde03146101a8578063081812fc146101c6578063095ea7b3146101f657806318160ddd1461021257806323932b3214610230575b600080fd5b610192600480360381019061018d91906128e0565b6104be565b60405161019f9190612e55565b60405180910390f35b6101b06105a0565b6040516101bd9190612e70565b60405180910390f35b6101e060048036038101906101db9190612973565b610632565b6040516101ed9190612dee565b60405180910390f35b610210600480360381019061020b91906128a4565b6106b7565b005b61021a6107cf565b6040516102279190613132565b60405180910390f35b61024a60048036038101906102459190612973565b6107dc565b6040516102579190612e55565b60405180910390f35b61027a6004803603810190610275919061279e565b61084e565b005b610296600480360381019061029191906128a4565b6108ae565b6040516102a39190613132565b60405180910390f35b6102c660048036038101906102c1919061279e565b610953565b005b6102e260048036038101906102dd9190612973565b610973565b6040516102ef9190613132565b60405180910390f35b610312600480360381019061030d9190612932565b610a0a565b005b61031c610ae8565b6040516103299190612e55565b60405180910390f35b61034c60048036038101906103479190612973565b610aff565b6040516103599190612dee565b60405180910390f35b61036a610bb1565b6040516103779190612e70565b60405180910390f35b61039a60048036038101906103959190612739565b610c43565b6040516103a79190613132565b60405180910390f35b6103b8610cfb565b005b6103c2610e38565b005b6103cc610ebe565b6040516103d99190612dee565b60405180910390f35b6103ea610ee8565b6040516103f79190612e70565b60405180910390f35b61041a60048036038101906104159190612868565b610f7a565b005b610436600480360381019061043191906127ed565b6110fb565b005b610452600480360381019061044d9190612973565b61115d565b60405161045f9190612e70565b60405180910390f35b610482600480360381019061047d9190612762565b61116f565b60405161048f9190612e55565b60405180910390f35b6104b260048036038101906104ad9190612739565b611203565b005b6104bc6113af565b005b60007f80ac58cd000000000000000000000000000000000000000000000000000000007bffffffffffffffffffffffffffffffffffffffffffffffffffffffff1916827bffffffffffffffffffffffffffffffffffffffffffffffffffffffff1916148061058957507f5b5e139f000000000000000000000000000000000000000000000000000000007bffffffffffffffffffffffffffffffffffffffffffffffffffffffff1916827bffffffffffffffffffffffffffffffffffffffffffffffffffffffff1916145b80610599575061059882611435565b5b9050919050565b6060600080546105af9061339d565b80601f01602080910402602001604051908101604052809291908181526020018280546105db9061339d565b80156106285780601f106105fd57610100808354040283529160200191610628565b820191906000526020600020905b81548152906001019060200180831161060b57829003601f168201915b5050505050905090565b600061063d826114af565b61067c576040517f08c379a000000000000000000000000000000000000000000000000000000000815260040161067390613052565b60405180910390fd5b6004600083815260200190815260200160002060009054906101000a900473ffffffffffffffffffffffffffffffffffffffff169050919050565b60006106c282610aff565b90508073ffffffffffffffffffffffffffffffffffffffff168373ffffffffffffffffffffffffffffffffffffffff161415610733576040517f08c379a000000000000000000000000000000000000000000000000000000000815260040161072a906130d2565b60405180910390fd5b8073ffffffffffffffffffffffffffffffffffffffff1661075261151b565b73ffffffffffffffffffffffffffffffffffffffff16148061078157506107808161077b61151b565b61116f565b5b6107c0576040517f08c379a00000000000000000000000000000000000000000000000000000000081526004016107b790612ff2565b60405180910390fd5b6107ca8383611523565b505050565b6000600b80549050905090565b60006107e7826114af565b610826576040517f08c379a000000000000000000000000000000000000000000000000000000000815260040161081d90612e92565b60405180910390fd5b6007600083815260200190815260200160002060009054906101000a900460ff169050919050565b61085f61085961151b565b826115dc565b61089e576040517f08c379a0000000000000000000000000000000000000000000000000000000008152600401610895906130f2565b60405180910390fd5b6108a98383836116ba565b505050565b60006108b983610c43565b82106108fa576040517f08c379a00000000000000000000000000000000000000000000000000000000081526004016108f190612f12565b60405180910390fd5b600960008473ffffffffffffffffffffffffffffffffffffffff1673ffffffffffffffffffffffffffffffffffffffff168152602001908152602001600020600083815260200190815260200160002054905092915050565b61096e838383604051806020016040528060008152506110fb565b505050565b600061097d6107cf565b82106109be576040517f08c379a00000000000000000000000000000000000000000000000000000000081526004016109b590613112565b60405180910390fd5b600b82815481106109f8577f4e487b7100000000000000000000000000000000000000000000000000000000600052603260045260246000fd5b90600052602060002001549050919050565b610a1261151b565b73ffffffffffffffffffffffffffffffffffffffff16610a30610ebe565b73ffffffffffffffffffffffffffffffffffffffff1614610a86576040517f08c379a0000000000000000000000000000000000000000000000000000000008152600401610a7d90613072565b60405180910390fd5b610a8e610ae8565b15610ace576040517f08c379a0000000000000000000000000000000000000000000000000000000008152600401610ac590612fd2565b60405180910390fd5b8060089080519060200190610ae492919061255d565b5050565b6000600660009054906101000a900460ff16905090565b6000806002600084815260200190815260200160002060009054906101000a900473ffffffffffffffffffffffffffffffffffffffff169050600073ffffffffffffffffffffffffffffffffffffffff168173ffffffffffffffffffffffffffffffffffffffff161415610ba8576040517f08c379a0000000000000000000000000000000000000000000000000000000008152600401610b9f90613032565b60405180910390fd5b80915050919050565b606060088054610bc09061339d565b80601f0160208091040260200160405190810160405280929190818152602001828054610bec9061339d565b8015610c395780601f10610c0e57610100808354040283529160200191610c39565b820191906000526020600020905b815481529060010190602001808311610c1c57829003601f168201915b5050505050905090565b60008073ffffffffffffffffffffffffffffffffffffffff168273ffffffffffffffffffffffffffffffffffffffff161415610cb4576040517f08c379a0000000000000000000000000000000000000000000000000000000008152600401610cab90613012565b60405180910390fd5b600360008373ffffffffffffffffffffffffffffffffffffffff1673ffffffffffffffffffffffffffffffffffffffff168152602001908152602001600020549050919050565b610d0361151b565b73ffffffffffffffffffffffffffffffffffffffff16610d21610ebe565b73ffffffffffffffffffffffffffffffffffffffff1614610d77576040517f08c379a0000000000000000000000000000000000000000000000000000000008152600401610d6e90613072565b60405180910390fd5b600073ffffffffffffffffffffffffffffffffffffffff16600660019054906101000a900473ffffffffffffffffffffffffffffffffffffffff1673ffffffffffffffffffffffffffffffffffffffff167f8be0079c531659141344cd1fd0a4f28419497f9722a3daafe3b4186f6b6457e060405160405180910390a36000600660016101000a81548173ffffffffffffffffffffffffffffffffffffffff021916908373ffffffffffffffffffffffffffffffffffffffff160217905550565b610e4061151b565b73ffffffffffffffffffffffffffffffffffffffff16610e5e610ebe565b73ffffffffffffffffffffffffffffffffffffffff1614610eb4576040517f08c379a0000000000000000000000000000000000000000000000000000000008152600401610eab90613072565b60405180910390fd5b610ebc611916565b565b6000600660019054906101000a900473ffffffffffffffffffffffffffffffffffffffff16905090565b606060018054610ef79061339d565b80601f0160208091040260200160405190810160405280929190818152602001828054610f239061339d565b8015610f705780601f10610f4557610100808354040283529160200191610f70565b820191906000526020600020905b815481529060010190602001808311610f5357829003601f168201915b5050505050905090565b610f8261151b565b73ffffffffffffffffffffffffffffffffffffffff168273ffffffffffffffffffffffffffffffffffffffff161415610ff0576040517f08c379a0000000000000000000000000000000000000000000000000000000008152600401610fe790612f92565b60405180910390fd5b8060056000610ffd61151b565b73ffffffffffffffffffffffffffffffffffffffff1673ffffffffffffffffffffffffffffffffffffffff16815260200190815260200160002060008473ffffffffffffffffffffffffffffffffffffffff1673ffffffffffffffffffffffffffffffffffffffff16815260200190815260200160002060006101000a81548160ff0219169083151502179055508173ffffffffffffffffffffffffffffffffffffffff166110aa61151b565b73ffffffffffffffffffffffffffffffffffffffff167f17307eab39ab6107e8899845ad3d59bd9653f200f220920489ca2b5937696c31836040516110ef9190612e55565b60405180910390a35050565b61110c61110661151b565b836115dc565b61114b576040517f08c379a0000000000000000000000000000000000000000000000000000000008152600401611142906130f2565b60405180910390fd5b611157848484846119b9565b50505050565b606061116882611a15565b9050919050565b6000600560008473ffffffffffffffffffffffffffffffffffffffff1673ffffffffffffffffffffffffffffffffffffffff16815260200190815260200160002060008373ffffffffffffffffffffffffffffffffffffffff1673ffffffffffffffffffffffffffffffffffffffff16815260200190815260200160002060009054906101000a900460ff16905092915050565b61120b61151b565b73ffffffffffffffffffffffffffffffffffffffff16611229610ebe565b73ffffffffffffffffffffffffffffffffffffffff161461127f576040517f08c379a000000000000000000000000000000000000000000000000000000000815260040161127690613072565b60405180910390fd5b600073ffffffffffffffffffffffffffffffffffffffff168173ffffffffffffffffffffffffffffffffffffffff1614156112ef576040517f08c379a00000000000000000000000000000000000000000000000000000000081526004016112e690612f52565b60405180910390fd5b8073ffffffffffffffffffffffffffffffffffffffff16600660019054906101000a900473ffffffffffffffffffffffffffffffffffffffff1673ffffffffffffffffffffffffffffffffffffffff167f8be0079c531659141344cd1fd0a4f28419497f9722a3daafe3b4186f6b6457e060405160405180910390a380600660016101000a81548173ffffffffffffffffffffffffffffffffffffffff021916908373ffffffffffffffffffffffffffffffffffffffff16021790555050565b6113b761151b565b73ffffffffffffffffffffffffffffffffffffffff166113d5610ebe565b73ffffffffffffffffffffffffffffffffffffffff161461142b576040517f08c379a000000000000000000000000000000000000000000000000000000000815260040161142290613072565b60405180910390fd5b611433611a91565b565b60007f780e9d63000000000000000000000000000000000000000000000000000000007bffffffffffffffffffffffffffffffffffffffffffffffffffffffff1916827bffffffffffffffffffffffffffffffffffffffffffffffffffffffff191614806114a857506114a782611b33565b5b9050919050565b60008073ffffffffffffffffffffffffffffffffffffffff166002600084815260200190815260200160002060009054906101000a900473ffffffffffffffffffffffffffffffffffffffff1673ffffffffffffffffffffffffffffffffffffffff1614159050919050565b600033905090565b816004600083815260200190815260200160002060006101000a81548173ffffffffffffffffffffffffffffffffffffffff021916908373ffffffffffffffffffffffffffffffffffffffff160217905550808273ffffffffffffffffffffffffffffffffffffffff1661159683610aff565b73ffffffffffffffffffffffffffffffffffffffff167f8c5be1e5ebec7d5bd14f71427d1e84f3dd0314c0f7b2291e5b200ac8c7c3b92560405160405180910390a45050565b60006115e7826114af565b611626576040517f08c379a000000000000000000000000000000000000000000000000000000000815260040161161d90612fb2565b60405180910390fd5b600061163183610aff565b90508073ffffffffffffffffffffffffffffffffffffffff168473ffffffffffffffffffffffffffffffffffffffff1614806116a057508373ffffffffffffffffffffffffffffffffffffffff1661168884610632565b73ffffffffffffffffffffffffffffffffffffffff16145b806116b157506116b0818561116f565b5b91505092915050565b8273ffffffffffffffffffffffffffffffffffffffff166116da82610aff565b73ffffffffffffffffffffffffffffffffffffffff1614611730576040517f08c379a000000000000000000000000000000000000000000000000000000000815260040161172790613092565b60405180910390fd5b600073ffffffffffffffffffffffffffffffffffffffff168273ffffffffffffffffffffffffffffffffffffffff1614156117a0576040517f08c379a000000000000000000000000000000000000000000000000000000000815260040161179790612f72565b60405180910390fd5b6117ab838383611c15565b6117b6600082611523565b6001600360008573ffffffffffffffffffffffffffffffffffffffff1673ffffffffffffffffffffffffffffffffffffffff168152602001908152602001600020600082825461180691906132b3565b925050819055506001600360008473ffffffffffffffffffffffffffffffffffffffff1673ffffffffffffffffffffffffffffffffffffffff168152602001908152602001600020600082825461185d919061322c565b92505081905550816002600083815260200190815260200160002060006101000a81548173ffffffffffffffffffffffffffffffffffffffff021916908373ffffffffffffffffffffffffffffffffffffffff160217905550808273ffffffffffffffffffffffffffffffffffffffff168473ffffffffffffffffffffffffffffffffffffffff167fddf252ad1be2c89b69c2b068fc378daa952ba7f163c4a11628f55a4df523b3ef60405160405180910390a4505050565b61191e610ae8565b1561195e576040517f08c379a000000000000000000000000000000000000000000000000000000000815260040161195590612fd2565b60405180910390fd5b6001600660006101000a81548160ff0219169083151502179055507f62e78cea01bee320cd4e420270b5ea74000d11b0c9f74754ebdbfc544b05a2586119a261151b565b6040516119af9190612dee565b60405180910390a1565b6119c48484846116ba565b6119d084848484611c30565b611a0f576040517f08c379a0000000000000000000000000000000000000000000000000000000008152600401611a0690612f32565b60405180910390fd5b50505050565b6060611a20826114af565b611a5f576040517f08c379a0000000000000000000000000000000000000000000000000000000008152600401611a56906130b2565b60405180910390fd5b6008611a6a83611dc7565b604051602001611a7b929190612dca565b6040516020818303038152906040529050919050565b611a99610ae8565b611ad8576040517f08c379a0000000000000000000000000000000000000000000000000000000008152600401611acf90612ed2565b60405180910390fd5b6000600660006101000a81548160ff0219169083151502179055507f5db9ee0a495bf2e6ff9c91a7834c1ba4fdd244a5e8aa4e537bd38aeae4b073aa611b1c61151b565b604051611b299190612dee565b60405180910390a1565b60007f80ac58cd000000000000000000000000000000000000000000000000000000007bffffffffffffffffffffffffffffffffffffffffffffffffffffffff1916827bffffffffffffffffffffffffffffffffffffffffffffffffffffffff19161480611bfe57507f5b5e139f000000000000000000000000000000000000000000000000000000007bffffffffffffffffffffffffffffffffffffffffffffffffffffffff1916827bffffffffffffffffffffffffffffffffffffffffffffffffffffffff1916145b80611c0e5750611c0d82611f74565b5b9050919050565b611c20838383611fde565b611c2b838383612036565b505050565b6000611c518473ffffffffffffffffffffffffffffffffffffffff1661214a565b15611dba578373ffffffffffffffffffffffffffffffffffffffff1663150b7a02611c7a61151b565b8786866040518563ffffffff1660e01b8152600401611c9c9493929190612e09565b602060405180830381600087803b158015611cb657600080fd5b505af1925050508015611ce757506040513d601f19601f82011682018060405250810190611ce49190612909565b60015b611d6a573d8060008114611d17576040519150601f19603f3d011682016040523d82523d6000602084013e611d1c565b606091505b50600081511415611d62576040517f08c379a0000000000000000000000000000000000000000000000000000000008152600401611d5990612f32565b60405180910390fd5b805181602001fd5b63150b7a0260e01b7bffffffffffffffffffffffffffffffffffffffffffffffffffffffff1916817bffffffffffffffffffffffffffffffffffffffffffffffffffffffff191614915050611dbf565b600190505b949350505050565b60606000821415611e0f576040518060400160405280600181526020017f30000000000000000000000000000000000000000000000000000000000000008152509050611f6f565b600082905060005b60008214611e41578080611e2a90613400565b915050600a82611e3a9190613282565b9150611e17565b60008167ffffffffffffffff811115611e83577f4e487b7100000000000000000000000000000000000000000000000000000000600052604160045260246000fd5b6040519080825280601f01601f191660200182016040528015611eb55781602001600182028036833780820191505090505b5090505b60008514611f6857600182611ece91906132b3565b9150600a85611edd9190613449565b6030611ee9919061322c565b60f81b818381518110611f25577f4e487b7100000000000000000000000000000000000000000000000000000000600052603260045260246000fd5b60200101907effffffffffffffffffffffffffffffffffffffffffffffffffffffffffffff1916908160001a905350600a85611f619190613282565b9450611eb9565b8093505050505b919050565b60007f01ffc9a7000000000000000000000000000000000000000000000000000000007bffffffffffffffffffffffffffffffffffffffffffffffffffffffff1916827bffffffffffffffffffffffffffffffffffffffffffffffffffffffff1916149050919050565b611fe983838361215d565b611ff2816121b5565b612031576040517f08c379a000000000000000000000000000000000000000000000000000000000815260040161202890612ef2565b60405180910390fd5b505050565b612041838383611fde565b600073ffffffffffffffffffffffffffffffffffffffff168373ffffffffffffffffffffffffffffffffffffffff1614156120845761207f816121e0565b6120c3565b8173ffffffffffffffffffffffffffffffffffffffff168373ffffffffffffffffffffffffffffffffffffffff16146120c2576120c18382612229565b5b5b600073ffffffffffffffffffffffffffffffffffffffff168273ffffffffffffffffffffffffffffffffffffffff1614156121065761210181612396565b612145565b8273ffffffffffffffffffffffffffffffffffffffff168273ffffffffffffffffffffffffffffffffffffffff16146121445761214382826124d9565b5b5b505050565b600080823b905060008111915050919050565b612168838383612558565b612170610ae8565b156121b0576040517f08c379a00000000000000000000000000000000000000000000000000000000081526004016121a790612eb2565b60405180910390fd5b505050565b60006007600083815260200190815260200160002060009054906101000a900460ff16159050919050565b600b80549050600c600083815260200190815260200160002081905550600b81908060018154018082558091505060019003906000526020600020016000909190919091505550565b6000600161223684610c43565b61224091906132b3565b90506000600a6000848152602001908152602001600020549050818114612325576000600960008673ffffffffffffffffffffffffffffffffffffffff1673ffffffffffffffffffffffffffffffffffffffff168152602001908152602001600020600084815260200190815260200160002054905080600960008773ffffffffffffffffffffffffffffffffffffffff1673ffffffffffffffffffffffffffffffffffffffff16815260200190815260200160002060008481526020019081526020016000208190555081600a600083815260200190815260200160002081905550505b600a600084815260200190815260200160002060009055600960008573ffffffffffffffffffffffffffffffffffffffff1673ffffffffffffffffffffffffffffffffffffffff16815260200190815260200160002060008381526020019081526020016000206000905550505050565b60006001600b805490506123aa91906132b3565b90506000600c60008481526020019081526020016000205490506000600b8381548110612400577f4e487b7100000000000000000000000000000000000000000000000000000000600052603260045260246000fd5b9060005260206000200154905080600b8381548110612448577f4e487b7100000000000000000000000000000000000000000000000000000000600052603260045260246000fd5b906000526020600020018190555081600c600083815260200190815260200160002081905550600c600085815260200190815260200160002060009055600b8054806124bd577f4e487b7100000000000000000000000000000000000000000000000000000000600052603160045260246000fd5b6001900381819060005260206000200160009055905550505050565b60006124e483610c43565b905081600960008573ffffffffffffffffffffffffffffffffffffffff1673ffffffffffffffffffffffffffffffffffffffff16815260200190815260200160002060008381526020019081526020016000208190555080600a600084815260200190815260200160002081905550505050565b505050565b8280546125699061339d565b90600052602060002090601f01602090048101928261258b57600085556125d2565b82601f106125a457805160ff19168380011785556125d2565b828001600101855582156125d2579182015b828111156125d15782518255916020019190600101906125b6565b5b5090506125df91906125e3565b5090565b5b808211156125fc5760008160009055506001016125e4565b5090565b600061261361260e84613172565b61314d565b90508281526020810184848401111561262b57600080fd5b61263684828561335b565b509392505050565b600061265161264c846131a3565b61314d565b90508281526020810184848401111561266957600080fd5b61267484828561335b565b509392505050565b60008135905061268b81613b2a565b92915050565b6000813590506126a081613b41565b92915050565b6000813590506126b581613b58565b92915050565b6000815190506126ca81613b58565b92915050565b600082601f8301126126e157600080fd5b81356126f1848260208601612600565b91505092915050565b600082601f83011261270b57600080fd5b813561271b84826020860161263e565b91505092915050565b60008135905061273381613b6f565b92915050565b60006020828403121561274b57600080fd5b60006127598482850161267c565b91505092915050565b6000806040838503121561277557600080fd5b60006127838582860161267c565b92505060206127948582860161267c565b9150509250929050565b6000806000606084860312156127b357600080fd5b60006127c18682870161267c565b93505060206127d28682870161267c565b92505060406127e386828701612724565b9150509250925092565b6000806000806080858703121561280357600080fd5b60006128118782880161267c565b94505060206128228782880161267c565b935050604061283387828801612724565b925050606085013567ffffffffffffffff81111561285057600080fd5b61285c878288016126d0565b91505092959194509250565b6000806040838503121561287b57600080fd5b60006128898582860161267c565b925050602061289a85828601612691565b9150509250929050565b600080604083850312156128b757600080fd5b60006128c58582860161267c565b92505060206128d685828601612724565b9150509250929050565b6000602082840312156128f257600080fd5b6000612900848285016126a6565b91505092915050565b60006020828403121561291b57600080fd5b6000612929848285016126bb565b91505092915050565b60006020828403121561294457600080fd5b600082013567ffffffffffffffff81111561295e57600080fd5b61296a848285016126fa565b91505092915050565b60006020828403121561298557600080fd5b600061299384828501612724565b91505092915050565b6129a5816132e7565b82525050565b6129b4816132f9565b82525050565b60006129c5826131e9565b6129cf81856131ff565b93506129df81856020860161336a565b6129e881613536565b840191505092915050565b60006129fe826131f4565b612a088185613210565b9350612a1881856020860161336a565b612a2181613536565b840191505092915050565b6000612a37826131f4565b612a418185613221565b9350612a5181856020860161336a565b80840191505092915050565b60008154612a6a8161339d565b612a748186613221565b94506001821660008114612a8f5760018114612aa057612ad3565b60ff19831686528186019350612ad3565b612aa9856131d4565b60005b83811015612acb57815481890152600182019150602081019050612aac565b838801955050505b50505092915050565b6000612ae9603283613210565b9150612af482613547565b604082019050919050565b6000612b0c602b83613210565b9150612b1782613596565b604082019050919050565b6000612b2f601483613210565b9150612b3a826135e5565b602082019050919050565b6000612b52602c83613210565b9150612b5d8261360e565b604082019050919050565b6000612b75602b83613210565b9150612b808261365d565b604082019050919050565b6000612b98603283613210565b9150612ba3826136ac565b604082019050919050565b6000612bbb602683613210565b9150612bc6826136fb565b604082019050919050565b6000612bde602483613210565b9150612be98261374a565b604082019050919050565b6000612c01601983613210565b9150612c0c82613799565b602082019050919050565b6000612c24602c83613210565b9150612c2f826137c2565b604082019050919050565b6000612c47601083613210565b9150612c5282613811565b602082019050919050565b6000612c6a603883613210565b9150612c758261383a565b604082019050919050565b6000612c8d602a83613210565b9150612c9882613889565b604082019050919050565b6000612cb0602983613210565b9150612cbb826138d8565b604082019050919050565b6000612cd3602c83613210565b9150612cde82613927565b604082019050919050565b6000612cf6602083613210565b9150612d0182613976565b602082019050919050565b6000612d19602983613210565b9150612d248261399f565b604082019050919050565b6000612d3c602f83613210565b9150612d47826139ee565b604082019050919050565b6000612d5f602183613210565b9150612d6a82613a3d565b604082019050919050565b6000612d82603183613210565b9150612d8d82613a8c565b604082019050919050565b6000612da5602c83613210565b9150612db082613adb565b604082019050919050565b612dc481613351565b82525050565b6000612dd68285612a5d565b9150612de28284612a2c565b91508190509392505050565b6000602082019050612e03600083018461299c565b92915050565b6000608082019050612e1e600083018761299c565b612e2b602083018661299c565b612e386040830185612dbb565b8181036060830152612e4a81846129ba565b905095945050505050565b6000602082019050612e6a60008301846129ab565b92915050565b60006020820190508181036000830152612e8a81846129f3565b905092915050565b60006020820190508181036000830152612eab81612adc565b9050919050565b60006020820190508181036000830152612ecb81612aff565b9050919050565b60006020820190508181036000830152612eeb81612b22565b9050919050565b60006020820190508181036000830152612f0b81612b45565b9050919050565b60006020820190508181036000830152612f2b81612b68565b9050919050565b60006020820190508181036000830152612f4b81612b8b565b9050919050565b60006020820190508181036000830152612f6b81612bae565b9050919050565b60006020820190508181036000830152612f8b81612bd1565b9050919050565b60006020820190508181036000830152612fab81612bf4565b9050919050565b60006020820190508181036000830152612fcb81612c17565b9050919050565b60006020820190508181036000830152612feb81612c3a565b9050919050565b6000602082019050818103600083015261300b81612c5d565b9050919050565b6000602082019050818103600083015261302b81612c80565b9050919050565b6000602082019050818103600083015261304b81612ca3565b9050919050565b6000602082019050818103600083015261306b81612cc6565b9050919050565b6000602082019050818103600083015261308b81612ce9565b9050919050565b600060208201905081810360008301526130ab81612d0c565b9050919050565b600060208201905081810360008301526130cb81612d2f565b9050919050565b600060208201905081810360008301526130eb81612d52565b9050919050565b6000602082019050818103600083015261310b81612d75565b9050919050565b6000602082019050818103600083015261312b81612d98565b9050919050565b60006020820190506131476000830184612dbb565b92915050565b6000613157613168565b905061316382826133cf565b919050565b6000604051905090565b600067ffffffffffffffff82111561318d5761318c613507565b5b61319682613536565b9050602081019050919050565b600067ffffffffffffffff8211156131be576131bd613507565b5b6131c782613536565b9050602081019050919050565b60008190508160005260206000209050919050565b600081519050919050565b600081519050919050565b600082825260208201905092915050565b600082825260208201905092915050565b600081905092915050565b600061323782613351565b915061324283613351565b9250827fffffffffffffffffffffffffffffffffffffffffffffffffffffffffffffffff038211156132775761327661347a565b5b828201905092915050565b600061328d82613351565b915061329883613351565b9250826132a8576132a76134a9565b5b828204905092915050565b60006132be82613351565b91506132c983613351565b9250828210156132dc576132db61347a565b5b828203905092915050565b60006132f282613331565b9050919050565b60008115159050919050565b60007fffffffff0000000000000000000000000000000000000000000000000000000082169050919050565b600073ffffffffffffffffffffffffffffffffffffffff82169050919050565b6000819050919050565b82818337600083830152505050565b60005b8381101561338857808201518184015260208101905061336d565b83811115613397576000848401525b50505050565b600060028204905060018216806133b557607f821691505b602082108114156133c9576133c86134d8565b5b50919050565b6133d882613536565b810181811067ffffffffffffffff821117156133f7576133f6613507565b5b80604052505050565b600061340b82613351565b91507fffffffffffffffffffffffffffffffffffffffffffffffffffffffffffffffff82141561343e5761343d61347a565b5b600182019050919050565b600061345482613351565b915061345f83613351565b92508261346f5761346e6134a9565b5b828206905092915050565b7f4e487b7100000000000000000000000000000000000000000000000000000000600052601160045260246000fd5b7f4e487b7100000000000000000000000000000000000000000000000000000000600052601260045260246000fd5b7f4e487b7100000000000000000000000000000000000000000000000000000000600052602260045260246000fd5b7f4e487b7100000000000000000000000000000000000000000000000000000000600052604160045260246000fd5b6000601f19601f8301169050919050565b7f4552433732314d657461646174613a20467265657a6520717565727920666f7260008201527f206e6f6e6578697374656e7420746f6b656e0000000000000000000000000000602082015250565b7f4552433732315061757361626c653a20746f6b656e207472616e73666572207760008201527f68696c6520706175736564000000000000000000000000000000000000000000602082015250565b7f5061757361626c653a206e6f7420706175736564000000000000000000000000600082015250565b7f4f7262697461754552433732313a20746f6b656e207472616e7366657220776860008201527f696c652065717569707065640000000000000000000000000000000000000000602082015250565b7f455243373231456e756d657261626c653a206f776e657220696e646578206f7560008201527f74206f6620626f756e6473000000000000000000000000000000000000000000602082015250565b7f4552433732313a207472616e7366657220746f206e6f6e20455243373231526560008201527f63656976657220696d706c656d656e7465720000000000000000000000000000602082015250565b7f4f776e61626c653a206e6577206f776e657220697320746865207a65726f206160008201527f6464726573730000000000000000000000000000000000000000000000000000602082015250565b7f4552433732313a207472616e7366657220746f20746865207a65726f2061646460008201527f7265737300000000000000000000000000000000000000000000000000000000602082015250565b7f4552433732313a20617070726f766520746f2063616c6c657200000000000000600082015250565b7f4552433732313a206f70657261746f7220717565727920666f72206e6f6e657860008201527f697374656e7420746f6b656e0000000000000000000000000000000000000000602082015250565b7f5061757361626c653a2070617573656400000000000000000000000000000000600082015250565b7f4552433732313a20617070726f76652063616c6c6572206973206e6f74206f7760008201527f6e6572206e6f7220617070726f76656420666f7220616c6c0000000000000000602082015250565b7f4552433732313a2062616c616e636520717565727920666f7220746865207a6560008201527f726f206164647265737300000000000000000000000000000000000000000000602082015250565b7f4552433732313a206f776e657220717565727920666f72206e6f6e657869737460008201527f656e7420746f6b656e0000000000000000000000000000000000000000000000602082015250565b7f4552433732313a20617070726f76656420717565727920666f72206e6f6e657860008201527f697374656e7420746f6b656e0000000000000000000000000000000000000000602082015250565b7f4f776e61626c653a2063616c6c6572206973206e6f7420746865206f776e6572600082015250565b7f4552433732313a207472616e73666572206f6620746f6b656e2074686174206960008201527f73206e6f74206f776e0000000000000000000000000000000000000000000000602082015250565b7f4552433732314d657461646174613a2055524920717565727920666f72206e6f60008201527f6e6578697374656e7420746f6b656e0000000000000000000000000000000000602082015250565b7f4552433732313a20617070726f76616c20746f2063757272656e74206f776e6560008201527f7200000000000000000000000000000000000000000000000000000000000000602082015250565b7f4552433732313a207472616e736665722063616c6c6572206973206e6f74206f60008201527f776e6572206e6f7220617070726f766564000000000000000000000000000000602082015250565b7f455243373231456e756d657261626c653a20676c6f62616c20696e646578206f60008201527f7574206f6620626f756e64730000000000000000000000000000000000000000602082015250565b613b33816132e7565b8114613b3e57600080fd5b50565b613b4a816132f9565b8114613b5557600080fd5b50565b613b6181613305565b8114613b6c57600080fd5b50565b613b7881613351565b8114613b8357600080fd5b5056fea2646970667358221220ac1f78f07829736ce8d5c34112adacfd23b9f8465993071753f7edc19332e18a64736f6c63430008040033",
  "immutableReferences": {},
  "source": "// SPDX-License-Identifier: UNLICENSED\r\n\r\npragma solidity ^0.8.4;\r\n\r\nimport \"./OrbitauERC721.sol\";\r\nimport \"../../lib/token/ERC721/extensions/ERC721Enumerable.sol\";\r\n\r\ncontract OrbitauERC721Enumerable is OrbitauERC721, ERC721Enumerable {\r\n    /**\r\n     * @dev Create a new OrbitauERC721Enumerable contract.\r\n     *\r\n     */\r\n    constructor() OrbitauERC721() {}\r\n\r\n    /**\r\n     * @dev See {IERC165-supportsInterface}.\r\n     */\r\n    function supportsInterface(bytes4 interfaceId) public view virtual override(ERC721, ERC721Enumerable) returns (bool) {\r\n        return\r\n        interfaceId == type(IERC721).interfaceId ||\r\n        interfaceId == type(IERC721Metadata).interfaceId ||\r\n        ERC721Enumerable.supportsInterface(interfaceId);\r\n    }\r\n\r\n    /**\r\n     * @dev See {IERC721Metadata-tokenURI}.\r\n     */\r\n    function tokenURI(uint256 tokenId) public view override(ERC721, OrbitauERC721) returns (string memory) {\r\n        return OrbitauERC721.tokenURI(tokenId);\r\n    }\r\n\r\n    /**\r\n     * @dev Base URI for computing {tokenURI}. If set, the resulting URI for each\r\n     * token will be the concatenation of the `baseURI` and the `tokenId`.\r\n     */\r\n    function _baseURI() internal view override(ERC721, OrbitauERC721) returns (string memory) {\r\n        return OrbitauERC721._baseURI();\r\n    }\r\n\r\n    /**\r\n     * @dev Hook that is called before any token transfer. This includes minting\r\n     * and burning.\r\n     *\r\n     * Calling conditions:\r\n     *\r\n     * - When `from` and `to` are both non-zero, ``from``'s `tokenId` will be\r\n     * transferred to `to`.\r\n     * - When `from` is zero, `tokenId` will be minted for `to`.\r\n     * - When `to` is zero, ``from``'s `tokenId` will be burned.\r\n     * - `from` cannot be the zero address.\r\n     * - `to` cannot be the zero address.\r\n     *\r\n     * To learn more about hooks, head to xref:ROOT:extending-contracts.adoc#using-hooks[Using Hooks].\r\n     */\r\n    function _beforeTokenTransfer(address from, address to, uint256 tokenId) internal virtual override(OrbitauERC721, ERC721Enumerable) {\r\n        OrbitauERC721._beforeTokenTransfer(from, to, tokenId);\r\n        ERC721Enumerable._beforeTokenTransfer(from, to, tokenId);\r\n    }\r\n}\r\n",
  "sourcePath": "D:\\0xTaureum\\github\\orbitau-smart-contract\\contracts\\tokens\\ERC721\\OrbitauERC721Enumerable.sol",
  "compiler": {
    "name": "solc",
    "version": "0.8.4+commit.c7e474f2.Emscripten.clang"
  },
  "schemaVersion": "3.4.3",
  "updatedAt": "2021-09-21T14:38:21.267Z",
  "devdoc": {
    "kind": "dev",
    "methods": {
      "approve(address,uint256)": {
        "details": "See {IERC721-approve}."
      },
      "balanceOf(address)": {
        "details": "See {IERC721-balanceOf}."
      },
      "baseURI()": {
        "details": "Returns `__baseURI`."
      },
      "constructor": {
        "details": "Create a new OrbitauERC721Enumerable contract."
      },
      "getApproved(uint256)": {
        "details": "See {IERC721-getApproved}."
      },
      "isApprovedForAll(address,address)": {
        "details": "See {IERC721-isApprovedForAll}."
      },
      "name()": {
        "details": "See {IERC721Metadata-name}."
      },
      "owner()": {
        "details": "Returns the address of the current owner."
      },
      "ownerOf(uint256)": {
        "details": "See {IERC721-ownerOf}."
      },
      "pause()": {
        "details": "Pause the contract in case of bugs/attacks."
      },
      "paused()": {
        "details": "Returns true if the contract is paused, and false otherwise."
      },
      "renounceOwnership()": {
        "details": "Leaves the contract without owner. It will not be possible to call `onlyOwner` functions anymore. Can only be called by the current owner. NOTE: Renouncing ownership will leave the contract without an owner, thereby removing any functionality that is only available to the owner."
      },
      "safeTransferFrom(address,address,uint256)": {
        "details": "See {IERC721-safeTransferFrom}."
      },
      "safeTransferFrom(address,address,uint256,bytes)": {
        "details": "See {IERC721-safeTransferFrom}."
      },
      "setApprovalForAll(address,bool)": {
        "details": "See {IERC721-setApprovalForAll}."
      },
      "setBaseURI(string)": {
        "details": "Sets new value for the `__baseURI`. This operation can only been done by the owner of this contract."
      },
      "supportsInterface(bytes4)": {
        "details": "See {IERC165-supportsInterface}."
      },
      "symbol()": {
        "details": "See {IERC721Metadata-symbol}."
      },
      "tokenByIndex(uint256)": {
        "details": "See {IERC721Enumerable-tokenByIndex}."
      },
      "tokenOfOwnerByIndex(address,uint256)": {
        "details": "See {IERC721Enumerable-tokenOfOwnerByIndex}."
      },
      "tokenURI(uint256)": {
        "details": "See {IERC721Metadata-tokenURI}."
      },
      "totalSupply()": {
        "details": "See {IERC721Enumerable-totalSupply}."
      },
      "transferFrom(address,address,uint256)": {
        "details": "See {IERC721-transferFrom}."
      },
      "transferOwnership(address)": {
        "details": "Transfers ownership of the contract to a new account (`newOwner`). Can only be called by the current owner."
      },
      "unPause()": {
        "details": "Resume the contract after being paused."
      }
    },
    "version": 1
  },
  "userdoc": {
    "kind": "user",
    "methods": {
      "pause()": {
        "notice": "Only the owner can call this method."
      },
      "unPause()": {
        "notice": "Only the owner can call this method."
      }
    },
    "version": 1
  }
}