{
  "contractName": "OrbitauERC721",
  "abi": [
    {
      "inputs": [],
      "stateMutability": "nonpayable",
      "type": "constructor"
    },
    {
      "anonymous": false,
      "inputs": [
        {
          "indexed": true,
          "internalType": "address",
          "name": "owner",
          "type": "address"
        },
        {
          "indexed": true,
          "internalType": "address",
          "name": "approved",
          "type": "address"
        },
        {
          "indexed": true,
          "internalType": "uint256",
          "name": "tokenId",
          "type": "uint256"
        }
      ],
      "name": "Approval",
      "type": "event"
    },
    {
      "anonymous": false,
      "inputs": [
        {
          "indexed": true,
          "internalType": "address",
          "name": "owner",
          "type": "address"
        },
        {
          "indexed": true,
          "internalType": "address",
          "name": "operator",
          "type": "address"
        },
        {
          "indexed": false,
          "internalType": "bool",
          "name": "approved",
          "type": "bool"
        }
      ],
      "name": "ApprovalForAll",
      "type": "event"
    },
    {
      "anonymous": false,
      "inputs": [
        {
          "indexed": true,
          "internalType": "address",
          "name": "owner",
          "type": "address"
        },
        {
          "indexed": false,
          "internalType": "uint256",
          "name": "tokenId",
          "type": "uint256"
        }
      ],
      "name": "Equip",
      "type": "event"
    },
    {
      "anonymous": false,
      "inputs": [
        {
          "indexed": true,
          "internalType": "address",
          "name": "previousOwner",
          "type": "address"
        },
        {
          "indexed": true,
          "internalType": "address",
          "name": "newOwner",
          "type": "address"
        }
      ],
      "name": "OwnershipTransferred",
      "type": "event"
    },
    {
      "anonymous": false,
      "inputs": [
        {
          "indexed": false,
          "internalType": "address",
          "name": "account",
          "type": "address"
        }
      ],
      "name": "Paused",
      "type": "event"
    },
    {
      "anonymous": false,
      "inputs": [
        {
          "indexed": true,
          "internalType": "address",
          "name": "owner",
          "type": "address"
        },
        {
          "indexed": false,
          "internalType": "uint256",
          "name": "tokenId",
          "type": "uint256"
        }
      ],
      "name": "Redeem",
      "type": "event"
    },
    {
      "anonymous": false,
      "inputs": [
        {
          "indexed": true,
          "internalType": "address",
          "name": "from",
          "type": "address"
        },
        {
          "indexed": true,
          "internalType": "address",
          "name": "to",
          "type": "address"
        },
        {
          "indexed": true,
          "internalType": "uint256",
          "name": "tokenId",
          "type": "uint256"
        }
      ],
      "name": "Transfer",
      "type": "event"
    },
    {
      "anonymous": false,
      "inputs": [
        {
          "indexed": false,
          "internalType": "address",
          "name": "account",
          "type": "address"
        }
      ],
      "name": "Unpaused",
      "type": "event"
    },
    {
      "inputs": [
        {
          "internalType": "address",
          "name": "to",
          "type": "address"
        },
        {
          "internalType": "uint256",
          "name": "tokenId",
          "type": "uint256"
        }
      ],
      "name": "approve",
      "outputs": [],
      "stateMutability": "nonpayable",
      "type": "function"
    },
    {
      "inputs": [
        {
          "internalType": "address",
          "name": "owner",
          "type": "address"
        }
      ],
      "name": "balanceOf",
      "outputs": [
        {
          "internalType": "uint256",
          "name": "",
          "type": "uint256"
        }
      ],
      "stateMutability": "view",
      "type": "function"
    },
    {
      "inputs": [
        {
          "internalType": "uint256",
          "name": "tokenId",
          "type": "uint256"
        }
      ],
      "name": "getApproved",
      "outputs": [
        {
          "internalType": "address",
          "name": "",
          "type": "address"
        }
      ],
      "stateMutability": "view",
      "type": "function"
    },
    {
      "inputs": [
        {
          "internalType": "address",
          "name": "owner",
          "type": "address"
        },
        {
          "internalType": "address",
          "name": "operator",
          "type": "address"
        }
      ],
      "name": "isApprovedForAll",
      "outputs": [
        {
          "internalType": "bool",
          "name": "",
          "type": "bool"
        }
      ],
      "stateMutability": "view",
      "type": "function"
    },
    {
      "inputs": [],
      "name": "name",
      "outputs": [
        {
          "internalType": "string",
          "name": "",
          "type": "string"
        }
      ],
      "stateMutability": "view",
      "type": "function"
    },
    {
      "inputs": [],
      "name": "owner",
      "outputs": [
        {
          "internalType": "address",
          "name": "",
          "type": "address"
        }
      ],
      "stateMutability": "view",
      "type": "function"
    },
    {
      "inputs": [
        {
          "internalType": "uint256",
          "name": "tokenId",
          "type": "uint256"
        }
      ],
      "name": "ownerOf",
      "outputs": [
        {
          "internalType": "address",
          "name": "",
          "type": "address"
        }
      ],
      "stateMutability": "view",
      "type": "function"
    },
    {
      "inputs": [],
      "name": "paused",
      "outputs": [
        {
          "internalType": "bool",
          "name": "",
          "type": "bool"
        }
      ],
      "stateMutability": "view",
      "type": "function"
    },
    {
      "inputs": [],
      "name": "renounceOwnership",
      "outputs": [],
      "stateMutability": "nonpayable",
      "type": "function"
    },
    {
      "inputs": [
        {
          "internalType": "address",
          "name": "from",
          "type": "address"
        },
        {
          "internalType": "address",
          "name": "to",
          "type": "address"
        },
        {
          "internalType": "uint256",
          "name": "tokenId",
          "type": "uint256"
        }
      ],
      "name": "safeTransferFrom",
      "outputs": [],
      "stateMutability": "nonpayable",
      "type": "function"
    },
    {
      "inputs": [
        {
          "internalType": "address",
          "name": "from",
          "type": "address"
        },
        {
          "internalType": "address",
          "name": "to",
          "type": "address"
        },
        {
          "internalType": "uint256",
          "name": "tokenId",
          "type": "uint256"
        },
        {
          "internalType": "bytes",
          "name": "_data",
          "type": "bytes"
        }
      ],
      "name": "safeTransferFrom",
      "outputs": [],
      "stateMutability": "nonpayable",
      "type": "function"
    },
    {
      "inputs": [
        {
          "internalType": "address",
          "name": "operator",
          "type": "address"
        },
        {
          "internalType": "bool",
          "name": "approved",
          "type": "bool"
        }
      ],
      "name": "setApprovalForAll",
      "outputs": [],
      "stateMutability": "nonpayable",
      "type": "function"
    },
    {
      "inputs": [
        {
          "internalType": "bytes4",
          "name": "interfaceId",
          "type": "bytes4"
        }
      ],
      "name": "supportsInterface",
      "outputs": [
        {
          "internalType": "bool",
          "name": "",
          "type": "bool"
        }
      ],
      "stateMutability": "view",
      "type": "function"
    },
    {
      "inputs": [],
      "name": "symbol",
      "outputs": [
        {
          "internalType": "string",
          "name": "",
          "type": "string"
        }
      ],
      "stateMutability": "view",
      "type": "function"
    },
    {
      "inputs": [
        {
          "internalType": "address",
          "name": "from",
          "type": "address"
        },
        {
          "internalType": "address",
          "name": "to",
          "type": "address"
        },
        {
          "internalType": "uint256",
          "name": "tokenId",
          "type": "uint256"
        }
      ],
      "name": "transferFrom",
      "outputs": [],
      "stateMutability": "nonpayable",
      "type": "function"
    },
    {
      "inputs": [
        {
          "internalType": "address",
          "name": "newOwner",
          "type": "address"
        }
      ],
      "name": "transferOwnership",
      "outputs": [],
      "stateMutability": "nonpayable",
      "type": "function"
    },
    {
      "inputs": [],
      "name": "pause",
      "outputs": [],
      "stateMutability": "nonpayable",
      "type": "function"
    },
    {
      "inputs": [],
      "name": "unPause",
      "outputs": [],
      "stateMutability": "nonpayable",
      "type": "function"
    },
    {
      "inputs": [
        {
          "internalType": "uint256",
          "name": "tokenId",
          "type": "uint256"
        }
      ],
      "name": "tokenURI",
      "outputs": [
        {
          "internalType": "string",
          "name": "",
          "type": "string"
        }
      ],
      "stateMutability": "view",
      "type": "function"
    },
    {
      "inputs": [
        {
          "internalType": "string",
          "name": "newBaseURI",
          "type": "string"
        }
      ],
      "name": "setBaseURI",
      "outputs": [],
      "stateMutability": "nonpayable",
      "type": "function"
    },
    {
      "inputs": [],
      "name": "baseURI",
      "outputs": [
        {
          "internalType": "string",
          "name": "",
          "type": "string"
        }
      ],
      "stateMutability": "view",
      "type": "function"
    }
  ],
  "bytecode": "0x60806040523480156200001157600080fd5b506040518060400160405280600e81526020017f4f726269746175204552433732310000000000000000000000000000000000008152506040518060400160405280600781526020017f4f72626974617500000000000000000000000000000000000000000000000000815250816000908051906020019062000096929190620001da565b508060019080519060200190620000af929190620001da565b5050506000600660006101000a81548160ff0219169083151502179055506000620000df620001d260201b60201c565b905080600660016101000a81548173ffffffffffffffffffffffffffffffffffffffff021916908373ffffffffffffffffffffffffffffffffffffffff1602179055508073ffffffffffffffffffffffffffffffffffffffff16600073ffffffffffffffffffffffffffffffffffffffff167f8be0079c531659141344cd1fd0a4f28419497f9722a3daafe3b4186f6b6457e060405160405180910390a3506040518060400160405280601c81526020017f68747470733a2f2f6d657461646174612e6f7262697461752e696f2f0000000081525060089080519060200190620001cb929190620001da565b50620002ef565b600033905090565b828054620001e8906200028a565b90600052602060002090601f0160209004810192826200020c576000855562000258565b82601f106200022757805160ff191683800117855562000258565b8280016001018555821562000258579182015b82811115620002575782518255916020019190600101906200023a565b5b5090506200026791906200026b565b5090565b5b80821115620002865760008160009055506001016200026c565b5090565b60006002820490506001821680620002a357607f821691505b60208210811415620002ba57620002b9620002c0565b5b50919050565b7f4e487b7100000000000000000000000000000000000000000000000000000000600052602260045260246000fd5b61314c80620002ff6000396000f3fe608060405234801561001057600080fd5b50600436106101375760003560e01c806370a08231116100b8578063a22cb4651161007c578063a22cb46514610316578063b88d4fde14610332578063c87b56dd1461034e578063e985e9c51461037e578063f2fde38b146103ae578063f7b188a5146103ca57610137565b806370a0823114610296578063715018a6146102c65780638456cb59146102d05780638da5cb5b146102da57806395d89b41146102f857610137565b806342842e0e116100ff57806342842e0e146101f257806355f804b31461020e5780635c975abb1461022a5780636352211e146102485780636c0360eb1461027857610137565b806301ffc9a71461013c57806306fdde031461016c578063081812fc1461018a578063095ea7b3146101ba57806323b872dd146101d6575b600080fd5b61015660048036038101906101519190612026565b6103d4565b6040516101639190612532565b60405180910390f35b6101746104b6565b604051610181919061254d565b60405180910390f35b6101a4600480360381019061019f91906120b9565b610548565b6040516101b191906124cb565b60405180910390f35b6101d460048036038101906101cf9190611fea565b6105cd565b005b6101f060048036038101906101eb9190611ee4565b6106e5565b005b61020c60048036038101906102079190611ee4565b610745565b005b61022860048036038101906102239190612078565b610765565b005b610232610843565b60405161023f9190612532565b60405180910390f35b610262600480360381019061025d91906120b9565b61085a565b60405161026f91906124cb565b60405180910390f35b61028061090c565b60405161028d919061254d565b60405180910390f35b6102b060048036038101906102ab9190611e7f565b61099e565b6040516102bd91906127af565b60405180910390f35b6102ce610a56565b005b6102d8610b93565b005b6102e2610c19565b6040516102ef91906124cb565b60405180910390f35b610300610c43565b60405161030d919061254d565b60405180910390f35b610330600480360381019061032b9190611fae565b610cd5565b005b61034c60048036038101906103479190611f33565b610e56565b005b610368600480360381019061036391906120b9565b610eb8565b604051610375919061254d565b60405180910390f35b61039860048036038101906103939190611ea8565b610f34565b6040516103a59190612532565b60405180910390f35b6103c860048036038101906103c39190611e7f565b610fc8565b005b6103d2611174565b005b60007f80ac58cd000000000000000000000000000000000000000000000000000000007bffffffffffffffffffffffffffffffffffffffffffffffffffffffff1916827bffffffffffffffffffffffffffffffffffffffffffffffffffffffff1916148061049f57507f5b5e139f000000000000000000000000000000000000000000000000000000007bffffffffffffffffffffffffffffffffffffffffffffffffffffffff1916827bffffffffffffffffffffffffffffffffffffffffffffffffffffffff1916145b806104af57506104ae826111fa565b5b9050919050565b6060600080546104c590612a1a565b80601f01602080910402602001604051908101604052809291908181526020018280546104f190612a1a565b801561053e5780601f106105135761010080835404028352916020019161053e565b820191906000526020600020905b81548152906001019060200180831161052157829003601f168201915b5050505050905090565b600061055382611264565b610592576040517f08c379a0000000000000000000000000000000000000000000000000000000008152600401610589906126ef565b60405180910390fd5b6004600083815260200190815260200160002060009054906101000a900473ffffffffffffffffffffffffffffffffffffffff169050919050565b60006105d88261085a565b90508073ffffffffffffffffffffffffffffffffffffffff168373ffffffffffffffffffffffffffffffffffffffff161415610649576040517f08c379a00000000000000000000000000000000000000000000000000000000081526004016106409061276f565b60405180910390fd5b8073ffffffffffffffffffffffffffffffffffffffff166106686112d0565b73ffffffffffffffffffffffffffffffffffffffff1614806106975750610696816106916112d0565b610f34565b5b6106d6576040517f08c379a00000000000000000000000000000000000000000000000000000000081526004016106cd9061268f565b60405180910390fd5b6106e083836112d8565b505050565b6106f66106f06112d0565b82611391565b610735576040517f08c379a000000000000000000000000000000000000000000000000000000000815260040161072c9061278f565b60405180910390fd5b61074083838361146f565b505050565b61076083838360405180602001604052806000815250610e56565b505050565b61076d6112d0565b73ffffffffffffffffffffffffffffffffffffffff1661078b610c19565b73ffffffffffffffffffffffffffffffffffffffff16146107e1576040517f08c379a00000000000000000000000000000000000000000000000000000000081526004016107d89061270f565b60405180910390fd5b6107e9610843565b15610829576040517f08c379a00000000000000000000000000000000000000000000000000000000081526004016108209061266f565b60405180910390fd5b806008908051906020019061083f929190611ca3565b5050565b6000600660009054906101000a900460ff16905090565b6000806002600084815260200190815260200160002060009054906101000a900473ffffffffffffffffffffffffffffffffffffffff169050600073ffffffffffffffffffffffffffffffffffffffff168173ffffffffffffffffffffffffffffffffffffffff161415610903576040517f08c379a00000000000000000000000000000000000000000000000000000000081526004016108fa906126cf565b60405180910390fd5b80915050919050565b60606008805461091b90612a1a565b80601f016020809104026020016040519081016040528092919081815260200182805461094790612a1a565b80156109945780601f1061096957610100808354040283529160200191610994565b820191906000526020600020905b81548152906001019060200180831161097757829003601f168201915b5050505050905090565b60008073ffffffffffffffffffffffffffffffffffffffff168273ffffffffffffffffffffffffffffffffffffffff161415610a0f576040517f08c379a0000000000000000000000000000000000000000000000000000000008152600401610a06906126af565b60405180910390fd5b600360008373ffffffffffffffffffffffffffffffffffffffff1673ffffffffffffffffffffffffffffffffffffffff168152602001908152602001600020549050919050565b610a5e6112d0565b73ffffffffffffffffffffffffffffffffffffffff16610a7c610c19565b73ffffffffffffffffffffffffffffffffffffffff1614610ad2576040517f08c379a0000000000000000000000000000000000000000000000000000000008152600401610ac99061270f565b60405180910390fd5b600073ffffffffffffffffffffffffffffffffffffffff16600660019054906101000a900473ffffffffffffffffffffffffffffffffffffffff1673ffffffffffffffffffffffffffffffffffffffff167f8be0079c531659141344cd1fd0a4f28419497f9722a3daafe3b4186f6b6457e060405160405180910390a36000600660016101000a81548173ffffffffffffffffffffffffffffffffffffffff021916908373ffffffffffffffffffffffffffffffffffffffff160217905550565b610b9b6112d0565b73ffffffffffffffffffffffffffffffffffffffff16610bb9610c19565b73ffffffffffffffffffffffffffffffffffffffff1614610c0f576040517f08c379a0000000000000000000000000000000000000000000000000000000008152600401610c069061270f565b60405180910390fd5b610c176116cb565b565b6000600660019054906101000a900473ffffffffffffffffffffffffffffffffffffffff16905090565b606060018054610c5290612a1a565b80601f0160208091040260200160405190810160405280929190818152602001828054610c7e90612a1a565b8015610ccb5780601f10610ca057610100808354040283529160200191610ccb565b820191906000526020600020905b815481529060010190602001808311610cae57829003601f168201915b5050505050905090565b610cdd6112d0565b73ffffffffffffffffffffffffffffffffffffffff168273ffffffffffffffffffffffffffffffffffffffff161415610d4b576040517f08c379a0000000000000000000000000000000000000000000000000000000008152600401610d429061262f565b60405180910390fd5b8060056000610d586112d0565b73ffffffffffffffffffffffffffffffffffffffff1673ffffffffffffffffffffffffffffffffffffffff16815260200190815260200160002060008473ffffffffffffffffffffffffffffffffffffffff1673ffffffffffffffffffffffffffffffffffffffff16815260200190815260200160002060006101000a81548160ff0219169083151502179055508173ffffffffffffffffffffffffffffffffffffffff16610e056112d0565b73ffffffffffffffffffffffffffffffffffffffff167f17307eab39ab6107e8899845ad3d59bd9653f200f220920489ca2b5937696c3183604051610e4a9190612532565b60405180910390a35050565b610e67610e616112d0565b83611391565b610ea6576040517f08c379a0000000000000000000000000000000000000000000000000000000008152600401610e9d9061278f565b60405180910390fd5b610eb28484848461176e565b50505050565b6060610ec382611264565b610f02576040517f08c379a0000000000000000000000000000000000000000000000000000000008152600401610ef99061274f565b60405180910390fd5b6008610f0d836117ca565b604051602001610f1e9291906124a7565b6040516020818303038152906040529050919050565b6000600560008473ffffffffffffffffffffffffffffffffffffffff1673ffffffffffffffffffffffffffffffffffffffff16815260200190815260200160002060008373ffffffffffffffffffffffffffffffffffffffff1673ffffffffffffffffffffffffffffffffffffffff16815260200190815260200160002060009054906101000a900460ff16905092915050565b610fd06112d0565b73ffffffffffffffffffffffffffffffffffffffff16610fee610c19565b73ffffffffffffffffffffffffffffffffffffffff1614611044576040517f08c379a000000000000000000000000000000000000000000000000000000000815260040161103b9061270f565b60405180910390fd5b600073ffffffffffffffffffffffffffffffffffffffff168173ffffffffffffffffffffffffffffffffffffffff1614156110b4576040517f08c379a00000000000000000000000000000000000000000000000000000000081526004016110ab906125ef565b60405180910390fd5b8073ffffffffffffffffffffffffffffffffffffffff16600660019054906101000a900473ffffffffffffffffffffffffffffffffffffffff1673ffffffffffffffffffffffffffffffffffffffff167f8be0079c531659141344cd1fd0a4f28419497f9722a3daafe3b4186f6b6457e060405160405180910390a380600660016101000a81548173ffffffffffffffffffffffffffffffffffffffff021916908373ffffffffffffffffffffffffffffffffffffffff16021790555050565b61117c6112d0565b73ffffffffffffffffffffffffffffffffffffffff1661119a610c19565b73ffffffffffffffffffffffffffffffffffffffff16146111f0576040517f08c379a00000000000000000000000000000000000000000000000000000000081526004016111e79061270f565b60405180910390fd5b6111f8611977565b565b60007f01ffc9a7000000000000000000000000000000000000000000000000000000007bffffffffffffffffffffffffffffffffffffffffffffffffffffffff1916827bffffffffffffffffffffffffffffffffffffffffffffffffffffffff1916149050919050565b60008073ffffffffffffffffffffffffffffffffffffffff166002600084815260200190815260200160002060009054906101000a900473ffffffffffffffffffffffffffffffffffffffff1673ffffffffffffffffffffffffffffffffffffffff1614159050919050565b600033905090565b816004600083815260200190815260200160002060006101000a81548173ffffffffffffffffffffffffffffffffffffffff021916908373ffffffffffffffffffffffffffffffffffffffff160217905550808273ffffffffffffffffffffffffffffffffffffffff1661134b8361085a565b73ffffffffffffffffffffffffffffffffffffffff167f8c5be1e5ebec7d5bd14f71427d1e84f3dd0314c0f7b2291e5b200ac8c7c3b92560405160405180910390a45050565b600061139c82611264565b6113db576040517f08c379a00000000000000000000000000000000000000000000000000000000081526004016113d29061264f565b60405180910390fd5b60006113e68361085a565b90508073ffffffffffffffffffffffffffffffffffffffff168473ffffffffffffffffffffffffffffffffffffffff16148061145557508373ffffffffffffffffffffffffffffffffffffffff1661143d84610548565b73ffffffffffffffffffffffffffffffffffffffff16145b8061146657506114658185610f34565b5b91505092915050565b8273ffffffffffffffffffffffffffffffffffffffff1661148f8261085a565b73ffffffffffffffffffffffffffffffffffffffff16146114e5576040517f08c379a00000000000000000000000000000000000000000000000000000000081526004016114dc9061272f565b60405180910390fd5b600073ffffffffffffffffffffffffffffffffffffffff168273ffffffffffffffffffffffffffffffffffffffff161415611555576040517f08c379a000000000000000000000000000000000000000000000000000000000815260040161154c9061260f565b60405180910390fd5b611560838383611a19565b61156b6000826112d8565b6001600360008573ffffffffffffffffffffffffffffffffffffffff1673ffffffffffffffffffffffffffffffffffffffff16815260200190815260200160002060008282546115bb9190612930565b925050819055506001600360008473ffffffffffffffffffffffffffffffffffffffff1673ffffffffffffffffffffffffffffffffffffffff168152602001908152602001600020600082825461161291906128a9565b92505081905550816002600083815260200190815260200160002060006101000a81548173ffffffffffffffffffffffffffffffffffffffff021916908373ffffffffffffffffffffffffffffffffffffffff160217905550808273ffffffffffffffffffffffffffffffffffffffff168473ffffffffffffffffffffffffffffffffffffffff167fddf252ad1be2c89b69c2b068fc378daa952ba7f163c4a11628f55a4df523b3ef60405160405180910390a4505050565b6116d3610843565b15611713576040517f08c379a000000000000000000000000000000000000000000000000000000000815260040161170a9061266f565b60405180910390fd5b6001600660006101000a81548160ff0219169083151502179055507f62e78cea01bee320cd4e420270b5ea74000d11b0c9f74754ebdbfc544b05a2586117576112d0565b60405161176491906124cb565b60405180910390a1565b61177984848461146f565b61178584848484611a71565b6117c4576040517f08c379a00000000000000000000000000000000000000000000000000000000081526004016117bb906125cf565b60405180910390fd5b50505050565b60606000821415611812576040518060400160405280600181526020017f30000000000000000000000000000000000000000000000000000000000000008152509050611972565b600082905060005b6000821461184457808061182d90612a7d565b915050600a8261183d91906128ff565b915061181a565b60008167ffffffffffffffff811115611886577f4e487b7100000000000000000000000000000000000000000000000000000000600052604160045260246000fd5b6040519080825280601f01601f1916602001820160405280156118b85781602001600182028036833780820191505090505b5090505b6000851461196b576001826118d19190612930565b9150600a856118e09190612ac6565b60306118ec91906128a9565b60f81b818381518110611928577f4e487b7100000000000000000000000000000000000000000000000000000000600052603260045260246000fd5b60200101907effffffffffffffffffffffffffffffffffffffffffffffffffffffffffffff1916908160001a905350600a8561196491906128ff565b94506118bc565b8093505050505b919050565b61197f610843565b6119be576040517f08c379a00000000000000000000000000000000000000000000000000000000081526004016119b59061258f565b60405180910390fd5b6000600660006101000a81548160ff0219169083151502179055507f5db9ee0a495bf2e6ff9c91a7834c1ba4fdd244a5e8aa4e537bd38aeae4b073aa611a026112d0565b604051611a0f91906124cb565b60405180910390a1565b611a24838383611c08565b611a2d81611c60565b611a6c576040517f08c379a0000000000000000000000000000000000000000000000000000000008152600401611a63906125af565b60405180910390fd5b505050565b6000611a928473ffffffffffffffffffffffffffffffffffffffff16611c8b565b15611bfb578373ffffffffffffffffffffffffffffffffffffffff1663150b7a02611abb6112d0565b8786866040518563ffffffff1660e01b8152600401611add94939291906124e6565b602060405180830381600087803b158015611af757600080fd5b505af1925050508015611b2857506040513d601f19601f82011682018060405250810190611b25919061204f565b60015b611bab573d8060008114611b58576040519150601f19603f3d011682016040523d82523d6000602084013e611b5d565b606091505b50600081511415611ba3576040517f08c379a0000000000000000000000000000000000000000000000000000000008152600401611b9a906125cf565b60405180910390fd5b805181602001fd5b63150b7a0260e01b7bffffffffffffffffffffffffffffffffffffffffffffffffffffffff1916817bffffffffffffffffffffffffffffffffffffffffffffffffffffffff191614915050611c00565b600190505b949350505050565b611c13838383611c9e565b611c1b610843565b15611c5b576040517f08c379a0000000000000000000000000000000000000000000000000000000008152600401611c529061256f565b60405180910390fd5b505050565b60006007600083815260200190815260200160002060009054906101000a900460ff16159050919050565b600080823b905060008111915050919050565b505050565b828054611caf90612a1a565b90600052602060002090601f016020900481019282611cd15760008555611d18565b82601f10611cea57805160ff1916838001178555611d18565b82800160010185558215611d18579182015b82811115611d17578251825591602001919060010190611cfc565b5b509050611d259190611d29565b5090565b5b80821115611d42576000816000905550600101611d2a565b5090565b6000611d59611d54846127ef565b6127ca565b905082815260208101848484011115611d7157600080fd5b611d7c8482856129d8565b509392505050565b6000611d97611d9284612820565b6127ca565b905082815260208101848484011115611daf57600080fd5b611dba8482856129d8565b509392505050565b600081359050611dd1816130ba565b92915050565b600081359050611de6816130d1565b92915050565b600081359050611dfb816130e8565b92915050565b600081519050611e10816130e8565b92915050565b600082601f830112611e2757600080fd5b8135611e37848260208601611d46565b91505092915050565b600082601f830112611e5157600080fd5b8135611e61848260208601611d84565b91505092915050565b600081359050611e79816130ff565b92915050565b600060208284031215611e9157600080fd5b6000611e9f84828501611dc2565b91505092915050565b60008060408385031215611ebb57600080fd5b6000611ec985828601611dc2565b9250506020611eda85828601611dc2565b9150509250929050565b600080600060608486031215611ef957600080fd5b6000611f0786828701611dc2565b9350506020611f1886828701611dc2565b9250506040611f2986828701611e6a565b9150509250925092565b60008060008060808587031215611f4957600080fd5b6000611f5787828801611dc2565b9450506020611f6887828801611dc2565b9350506040611f7987828801611e6a565b925050606085013567ffffffffffffffff811115611f9657600080fd5b611fa287828801611e16565b91505092959194509250565b60008060408385031215611fc157600080fd5b6000611fcf85828601611dc2565b9250506020611fe085828601611dd7565b9150509250929050565b60008060408385031215611ffd57600080fd5b600061200b85828601611dc2565b925050602061201c85828601611e6a565b9150509250929050565b60006020828403121561203857600080fd5b600061204684828501611dec565b91505092915050565b60006020828403121561206157600080fd5b600061206f84828501611e01565b91505092915050565b60006020828403121561208a57600080fd5b600082013567ffffffffffffffff8111156120a457600080fd5b6120b084828501611e40565b91505092915050565b6000602082840312156120cb57600080fd5b60006120d984828501611e6a565b91505092915050565b6120eb81612964565b82525050565b6120fa81612976565b82525050565b600061210b82612866565b612115818561287c565b93506121258185602086016129e7565b61212e81612bb3565b840191505092915050565b600061214482612871565b61214e818561288d565b935061215e8185602086016129e7565b61216781612bb3565b840191505092915050565b600061217d82612871565b612187818561289e565b93506121978185602086016129e7565b80840191505092915050565b600081546121b081612a1a565b6121ba818661289e565b945060018216600081146121d557600181146121e657612219565b60ff19831686528186019350612219565b6121ef85612851565b60005b83811015612211578154818901526001820191506020810190506121f2565b838801955050505b50505092915050565b600061222f602b8361288d565b915061223a82612bc4565b604082019050919050565b600061225260148361288d565b915061225d82612c13565b602082019050919050565b6000612275602c8361288d565b915061228082612c3c565b604082019050919050565b600061229860328361288d565b91506122a382612c8b565b604082019050919050565b60006122bb60268361288d565b91506122c682612cda565b604082019050919050565b60006122de60248361288d565b91506122e982612d29565b604082019050919050565b600061230160198361288d565b915061230c82612d78565b602082019050919050565b6000612324602c8361288d565b915061232f82612da1565b604082019050919050565b600061234760108361288d565b915061235282612df0565b602082019050919050565b600061236a60388361288d565b915061237582612e19565b604082019050919050565b600061238d602a8361288d565b915061239882612e68565b604082019050919050565b60006123b060298361288d565b91506123bb82612eb7565b604082019050919050565b60006123d3602c8361288d565b91506123de82612f06565b604082019050919050565b60006123f660208361288d565b915061240182612f55565b602082019050919050565b600061241960298361288d565b915061242482612f7e565b604082019050919050565b600061243c602f8361288d565b915061244782612fcd565b604082019050919050565b600061245f60218361288d565b915061246a8261301c565b604082019050919050565b600061248260318361288d565b915061248d8261306b565b604082019050919050565b6124a1816129ce565b82525050565b60006124b382856121a3565b91506124bf8284612172565b91508190509392505050565b60006020820190506124e060008301846120e2565b92915050565b60006080820190506124fb60008301876120e2565b61250860208301866120e2565b6125156040830185612498565b81810360608301526125278184612100565b905095945050505050565b600060208201905061254760008301846120f1565b92915050565b600060208201905081810360008301526125678184612139565b905092915050565b6000602082019050818103600083015261258881612222565b9050919050565b600060208201905081810360008301526125a881612245565b9050919050565b600060208201905081810360008301526125c881612268565b9050919050565b600060208201905081810360008301526125e88161228b565b9050919050565b60006020820190508181036000830152612608816122ae565b9050919050565b60006020820190508181036000830152612628816122d1565b9050919050565b60006020820190508181036000830152612648816122f4565b9050919050565b6000602082019050818103600083015261266881612317565b9050919050565b600060208201905081810360008301526126888161233a565b9050919050565b600060208201905081810360008301526126a88161235d565b9050919050565b600060208201905081810360008301526126c881612380565b9050919050565b600060208201905081810360008301526126e8816123a3565b9050919050565b60006020820190508181036000830152612708816123c6565b9050919050565b60006020820190508181036000830152612728816123e9565b9050919050565b600060208201905081810360008301526127488161240c565b9050919050565b600060208201905081810360008301526127688161242f565b9050919050565b6000602082019050818103600083015261278881612452565b9050919050565b600060208201905081810360008301526127a881612475565b9050919050565b60006020820190506127c46000830184612498565b92915050565b60006127d46127e5565b90506127e08282612a4c565b919050565b6000604051905090565b600067ffffffffffffffff82111561280a57612809612b84565b5b61281382612bb3565b9050602081019050919050565b600067ffffffffffffffff82111561283b5761283a612b84565b5b61284482612bb3565b9050602081019050919050565b60008190508160005260206000209050919050565b600081519050919050565b600081519050919050565b600082825260208201905092915050565b600082825260208201905092915050565b600081905092915050565b60006128b4826129ce565b91506128bf836129ce565b9250827fffffffffffffffffffffffffffffffffffffffffffffffffffffffffffffffff038211156128f4576128f3612af7565b5b828201905092915050565b600061290a826129ce565b9150612915836129ce565b92508261292557612924612b26565b5b828204905092915050565b600061293b826129ce565b9150612946836129ce565b92508282101561295957612958612af7565b5b828203905092915050565b600061296f826129ae565b9050919050565b60008115159050919050565b60007fffffffff0000000000000000000000000000000000000000000000000000000082169050919050565b600073ffffffffffffffffffffffffffffffffffffffff82169050919050565b6000819050919050565b82818337600083830152505050565b60005b83811015612a055780820151818401526020810190506129ea565b83811115612a14576000848401525b50505050565b60006002820490506001821680612a3257607f821691505b60208210811415612a4657612a45612b55565b5b50919050565b612a5582612bb3565b810181811067ffffffffffffffff82111715612a7457612a73612b84565b5b80604052505050565b6000612a88826129ce565b91507fffffffffffffffffffffffffffffffffffffffffffffffffffffffffffffffff821415612abb57612aba612af7565b5b600182019050919050565b6000612ad1826129ce565b9150612adc836129ce565b925082612aec57612aeb612b26565b5b828206905092915050565b7f4e487b7100000000000000000000000000000000000000000000000000000000600052601160045260246000fd5b7f4e487b7100000000000000000000000000000000000000000000000000000000600052601260045260246000fd5b7f4e487b7100000000000000000000000000000000000000000000000000000000600052602260045260246000fd5b7f4e487b7100000000000000000000000000000000000000000000000000000000600052604160045260246000fd5b6000601f19601f8301169050919050565b7f4552433732315061757361626c653a20746f6b656e207472616e73666572207760008201527f68696c6520706175736564000000000000000000000000000000000000000000602082015250565b7f5061757361626c653a206e6f7420706175736564000000000000000000000000600082015250565b7f4f7262697461754552433732313a20746f6b656e207472616e7366657220776860008201527f696c652065717569707065640000000000000000000000000000000000000000602082015250565b7f4552433732313a207472616e7366657220746f206e6f6e20455243373231526560008201527f63656976657220696d706c656d656e7465720000000000000000000000000000602082015250565b7f4f776e61626c653a206e6577206f776e657220697320746865207a65726f206160008201527f6464726573730000000000000000000000000000000000000000000000000000602082015250565b7f4552433732313a207472616e7366657220746f20746865207a65726f2061646460008201527f7265737300000000000000000000000000000000000000000000000000000000602082015250565b7f4552433732313a20617070726f766520746f2063616c6c657200000000000000600082015250565b7f4552433732313a206f70657261746f7220717565727920666f72206e6f6e657860008201527f697374656e7420746f6b656e0000000000000000000000000000000000000000602082015250565b7f5061757361626c653a2070617573656400000000000000000000000000000000600082015250565b7f4552433732313a20617070726f76652063616c6c6572206973206e6f74206f7760008201527f6e6572206e6f7220617070726f76656420666f7220616c6c0000000000000000602082015250565b7f4552433732313a2062616c616e636520717565727920666f7220746865207a6560008201527f726f206164647265737300000000000000000000000000000000000000000000602082015250565b7f4552433732313a206f776e657220717565727920666f72206e6f6e657869737460008201527f656e7420746f6b656e0000000000000000000000000000000000000000000000602082015250565b7f4552433732313a20617070726f76656420717565727920666f72206e6f6e657860008201527f697374656e7420746f6b656e0000000000000000000000000000000000000000602082015250565b7f4f776e61626c653a2063616c6c6572206973206e6f7420746865206f776e6572600082015250565b7f4552433732313a207472616e73666572206f6620746f6b656e2074686174206960008201527f73206e6f74206f776e0000000000000000000000000000000000000000000000602082015250565b7f4552433732314d657461646174613a2055524920717565727920666f72206e6f60008201527f6e6578697374656e7420746f6b656e0000000000000000000000000000000000602082015250565b7f4552433732313a20617070726f76616c20746f2063757272656e74206f776e6560008201527f7200000000000000000000000000000000000000000000000000000000000000602082015250565b7f4552433732313a207472616e736665722063616c6c6572206973206e6f74206f60008201527f776e6572206e6f7220617070726f766564000000000000000000000000000000602082015250565b6130c381612964565b81146130ce57600080fd5b50565b6130da81612976565b81146130e557600080fd5b50565b6130f181612982565b81146130fc57600080fd5b50565b613108816129ce565b811461311357600080fd5b5056fea2646970667358221220962002cde2b931b728eb9dcc3e0ac7f954d542331830df013d37ce7f8e630cb764736f6c63430008040033",
  "immutableReferences": {},
  "source": "// SPDX-License-Identifier: UNLICENSED\r\n\r\npragma solidity 0.8.4;\r\n\r\nimport \"../../lib/token/ERC721/ERC721.sol\";\r\nimport \"../../lib/access/Ownable.sol\";\r\nimport \"../../lib/security/Pausable.sol\";\r\nimport \"../../lib/token/ERC721/extensions/ERC721Pausable.sol\";\r\nimport \"../../lib/utils/Strings.sol\";\r\ncontract OrbitauERC721 is ERC721Pausable, Ownable {\r\n    using Strings for uint256;\r\n    \r\n    mapping(uint256 => bool) private _idFreeze;\r\n\r\n    /**\r\n     * @dev The base URI for all NFT.\r\n     */\r\n    string private __baseURI;\r\n    \r\n    /**\r\n     * @dev Emitted when a pending token is redeemed in the lazy-minting protocol.\r\n     */\r\n    event Redeem(address indexed owner, uint256 tokenId);\r\n    event Equip(address indexed owner, uint256 tokenId); \r\n    \r\n    function _transferable(uint256 tokenId) internal view virtual returns (bool) {\r\n        return !_idFreeze[tokenId];\r\n    }\r\n\r\n    /**\r\n     * @dev Create a new OrbitauERC721 contract.\r\n     *\r\n     */\r\n    constructor() ERC721(\"Orbitau ERC721\", \"Orbitau\") Ownable() Pausable() {\r\n        __baseURI = \"https://metadata.orbitau.io/\";\r\n    }\r\n\r\n    /**\r\n     * @dev Pause the contract in case of bugs/attacks.\r\n     * @notice Only the owner can call this method.\r\n     */\r\n    function pause() public onlyOwner {\r\n        _pause();\r\n    }\r\n\r\n    /**\r\n     * @dev Resume the contract after being paused.\r\n     * @notice Only the owner can call this method.\r\n     */\r\n    function unPause() public onlyOwner {\r\n        _unpause();\r\n    }\r\n\r\n    function equip(uint256 tokenId) internal virtual {\r\n        require(ownerOf(tokenId) == msg.sender, \"OrbitauERC721: equip caller is not owner nor approved\");\r\n        require(!_idFreeze[tokenId], \"OrbitauERC721: nft equipped\");\r\n        _idFreeze[tokenId] = true;\r\n        emit Equip(msg.sender, tokenId);\r\n    }\r\n    \r\n    function redeem(address redeemer, uint256 tokenId) internal virtual returns (uint256) {\r\n        if(_exists(tokenId)){\r\n            require(ownerOf(tokenId) == msg.sender, \"OrbitauERC721: redeemer caller is not owner nor approved\");\r\n            require(_idFreeze[tokenId], \"OrbitauERC721: nft redeemed\");\r\n            _idFreeze[tokenId] = false;\r\n        }else{\r\n            safeMint(redeemer, tokenId);\r\n        }\r\n        emit Redeem(redeemer, tokenId);\r\n        return tokenId;\r\n    }\r\n\r\n    function safeMint(\r\n        address to,\r\n        uint256 tokenId)\r\n    internal virtual\r\n    returns (uint256)\r\n    {\r\n        _safeMint(to, tokenId);\r\n        return tokenId;\r\n    }\r\n\r\n    function mint(address to, uint256 tokenId)\r\n    internal virtual\r\n    returns (uint256)\r\n    {\r\n        _mint(to, tokenId);\r\n        return tokenId;\r\n    }\r\n\r\n    /**\r\n     * @dev See {IERC721Metadata-tokenURI}.\r\n     */\r\n    function tokenURI(uint256 tokenId) public view virtual override returns (string memory) {\r\n        require(_exists(tokenId), \"ERC721Metadata: URI query for nonexistent token\");\r\n\r\n        //return string(abi.encodePacked(__baseURI, _idToType[tokenId], tokenId));\r\n        return string(abi.encodePacked(__baseURI, tokenId.toString()));\r\n    }\r\n    \r\n    /**\r\n     * @dev Sets new value for the `__baseURI`. This operation can only been done by the owner of this contract.\r\n     */\r\n    function setBaseURI(string memory newBaseURI) external onlyOwner whenNotPaused {\r\n        __baseURI = newBaseURI;\r\n    }\r\n\r\n    /**\r\n     * @dev Returns `__baseURI`.\r\n     */\r\n    function baseURI() external view returns(string memory) {\r\n        return __baseURI;\r\n    }\r\n    \r\n    /**\r\n     * @dev Base URI for computing {tokenURI}. If set, the resulting URI for each\r\n     * token will be the concatenation of the `baseURI` and the `tokenId`.\r\n     */\r\n    function _baseURI() internal view virtual override returns (string memory) {\r\n        return __baseURI;\r\n    }\r\n\r\n    function _beforeTokenTransfer(address from, address to, uint256 tokenId) internal virtual override (ERC721Pausable) {\r\n        ERC721Pausable._beforeTokenTransfer(from, to, tokenId);\r\n        require(_transferable(tokenId), \"OrbitauERC721: token transfer while equipped\");\r\n    }\r\n}\r\n",
  "sourcePath": "D:\\0xTaureum\\github\\orbitau-smart-contract\\contracts\\tokens\\ERC721\\OrbitauERC721.sol",
  "compiler": {
    "name": "solc",
    "version": "0.8.4+commit.c7e474f2.Emscripten.clang"
  },
  "schemaVersion": "3.4.3",
  "updatedAt": "2021-09-17T17:04:05.530Z",
  "devdoc": {
    "events": {
      "Redeem(address,uint256)": {
        "details": "Emitted when a pending token is redeemed in the lazy-minting protocol."
      }
    },
    "kind": "dev",
    "methods": {
      "approve(address,uint256)": {
        "details": "See {IERC721-approve}."
      },
      "balanceOf(address)": {
        "details": "See {IERC721-balanceOf}."
      },
      "baseURI()": {
        "details": "Returns `__baseURI`."
      },
      "constructor": {
        "details": "Create a new OrbitauERC721 contract."
      },
      "getApproved(uint256)": {
        "details": "See {IERC721-getApproved}."
      },
      "isApprovedForAll(address,address)": {
        "details": "See {IERC721-isApprovedForAll}."
      },
      "name()": {
        "details": "See {IERC721Metadata-name}."
      },
      "owner()": {
        "details": "Returns the address of the current owner."
      },
      "ownerOf(uint256)": {
        "details": "See {IERC721-ownerOf}."
      },
      "pause()": {
        "details": "Pause the contract in case of bugs/attacks."
      },
      "paused()": {
        "details": "Returns true if the contract is paused, and false otherwise."
      },
      "renounceOwnership()": {
        "details": "Leaves the contract without owner. It will not be possible to call `onlyOwner` functions anymore. Can only be called by the current owner. NOTE: Renouncing ownership will leave the contract without an owner, thereby removing any functionality that is only available to the owner."
      },
      "safeTransferFrom(address,address,uint256)": {
        "details": "See {IERC721-safeTransferFrom}."
      },
      "safeTransferFrom(address,address,uint256,bytes)": {
        "details": "See {IERC721-safeTransferFrom}."
      },
      "setApprovalForAll(address,bool)": {
        "details": "See {IERC721-setApprovalForAll}."
      },
      "setBaseURI(string)": {
        "details": "Sets new value for the `__baseURI`. This operation can only been done by the owner of this contract."
      },
      "supportsInterface(bytes4)": {
        "details": "See {IERC165-supportsInterface}."
      },
      "symbol()": {
        "details": "See {IERC721Metadata-symbol}."
      },
      "tokenURI(uint256)": {
        "details": "See {IERC721Metadata-tokenURI}."
      },
      "transferFrom(address,address,uint256)": {
        "details": "See {IERC721-transferFrom}."
      },
      "transferOwnership(address)": {
        "details": "Transfers ownership of the contract to a new account (`newOwner`). Can only be called by the current owner."
      },
      "unPause()": {
        "details": "Resume the contract after being paused."
      }
    },
    "stateVariables": {
      "__baseURI": {
        "details": "The base URI for all NFT."
      }
    },
    "version": 1
  },
  "userdoc": {
    "kind": "user",
    "methods": {
      "pause()": {
        "notice": "Only the owner can call this method."
      },
      "unPause()": {
        "notice": "Only the owner can call this method."
      }
    },
    "version": 1
  }
}