{
  "contractName": "OrbitauERC721Enumerable",
  "abi": [
    {
      "inputs": [],
      "stateMutability": "nonpayable",
      "type": "constructor"
    },
    {
      "anonymous": false,
      "inputs": [
        {
          "indexed": true,
          "internalType": "address",
          "name": "owner",
          "type": "address"
        },
        {
          "indexed": true,
          "internalType": "address",
          "name": "approved",
          "type": "address"
        },
        {
          "indexed": true,
          "internalType": "uint256",
          "name": "tokenId",
          "type": "uint256"
        }
      ],
      "name": "Approval",
      "type": "event"
    },
    {
      "anonymous": false,
      "inputs": [
        {
          "indexed": true,
          "internalType": "address",
          "name": "owner",
          "type": "address"
        },
        {
          "indexed": true,
          "internalType": "address",
          "name": "operator",
          "type": "address"
        },
        {
          "indexed": false,
          "internalType": "bool",
          "name": "approved",
          "type": "bool"
        }
      ],
      "name": "ApprovalForAll",
      "type": "event"
    },
    {
      "anonymous": false,
      "inputs": [
        {
          "indexed": true,
          "internalType": "address",
          "name": "previousOwner",
          "type": "address"
        },
        {
          "indexed": true,
          "internalType": "address",
          "name": "newOwner",
          "type": "address"
        }
      ],
      "name": "OwnershipTransferred",
      "type": "event"
    },
    {
      "anonymous": false,
      "inputs": [
        {
          "indexed": false,
          "internalType": "address",
          "name": "account",
          "type": "address"
        }
      ],
      "name": "Paused",
      "type": "event"
    },
    {
      "anonymous": false,
      "inputs": [
        {
          "indexed": true,
          "internalType": "address",
          "name": "from",
          "type": "address"
        },
        {
          "indexed": true,
          "internalType": "address",
          "name": "to",
          "type": "address"
        },
        {
          "indexed": true,
          "internalType": "uint256",
          "name": "tokenId",
          "type": "uint256"
        }
      ],
      "name": "Transfer",
      "type": "event"
    },
    {
      "anonymous": false,
      "inputs": [
        {
          "indexed": false,
          "internalType": "address",
          "name": "account",
          "type": "address"
        }
      ],
      "name": "Unpaused",
      "type": "event"
    },
    {
      "inputs": [
        {
          "internalType": "address",
          "name": "to",
          "type": "address"
        },
        {
          "internalType": "uint256",
          "name": "tokenId",
          "type": "uint256"
        }
      ],
      "name": "approve",
      "outputs": [],
      "stateMutability": "nonpayable",
      "type": "function"
    },
    {
      "inputs": [
        {
          "internalType": "address",
          "name": "owner",
          "type": "address"
        }
      ],
      "name": "balanceOf",
      "outputs": [
        {
          "internalType": "uint256",
          "name": "",
          "type": "uint256"
        }
      ],
      "stateMutability": "view",
      "type": "function"
    },
    {
      "inputs": [],
      "name": "baseURI",
      "outputs": [
        {
          "internalType": "string",
          "name": "",
          "type": "string"
        }
      ],
      "stateMutability": "view",
      "type": "function"
    },
    {
      "inputs": [
        {
          "internalType": "uint256",
          "name": "tokenId",
          "type": "uint256"
        }
      ],
      "name": "getApproved",
      "outputs": [
        {
          "internalType": "address",
          "name": "",
          "type": "address"
        }
      ],
      "stateMutability": "view",
      "type": "function"
    },
    {
      "inputs": [
        {
          "internalType": "address",
          "name": "owner",
          "type": "address"
        },
        {
          "internalType": "address",
          "name": "operator",
          "type": "address"
        }
      ],
      "name": "isApprovedForAll",
      "outputs": [
        {
          "internalType": "bool",
          "name": "",
          "type": "bool"
        }
      ],
      "stateMutability": "view",
      "type": "function"
    },
    {
      "inputs": [],
      "name": "name",
      "outputs": [
        {
          "internalType": "string",
          "name": "",
          "type": "string"
        }
      ],
      "stateMutability": "view",
      "type": "function"
    },
    {
      "inputs": [],
      "name": "owner",
      "outputs": [
        {
          "internalType": "address",
          "name": "",
          "type": "address"
        }
      ],
      "stateMutability": "view",
      "type": "function"
    },
    {
      "inputs": [
        {
          "internalType": "uint256",
          "name": "tokenId",
          "type": "uint256"
        }
      ],
      "name": "ownerOf",
      "outputs": [
        {
          "internalType": "address",
          "name": "",
          "type": "address"
        }
      ],
      "stateMutability": "view",
      "type": "function"
    },
    {
      "inputs": [],
      "name": "pause",
      "outputs": [],
      "stateMutability": "nonpayable",
      "type": "function"
    },
    {
      "inputs": [],
      "name": "paused",
      "outputs": [
        {
          "internalType": "bool",
          "name": "",
          "type": "bool"
        }
      ],
      "stateMutability": "view",
      "type": "function"
    },
    {
      "inputs": [],
      "name": "renounceOwnership",
      "outputs": [],
      "stateMutability": "nonpayable",
      "type": "function"
    },
    {
      "inputs": [
        {
          "internalType": "address",
          "name": "from",
          "type": "address"
        },
        {
          "internalType": "address",
          "name": "to",
          "type": "address"
        },
        {
          "internalType": "uint256",
          "name": "tokenId",
          "type": "uint256"
        }
      ],
      "name": "safeTransferFrom",
      "outputs": [],
      "stateMutability": "nonpayable",
      "type": "function"
    },
    {
      "inputs": [
        {
          "internalType": "address",
          "name": "from",
          "type": "address"
        },
        {
          "internalType": "address",
          "name": "to",
          "type": "address"
        },
        {
          "internalType": "uint256",
          "name": "tokenId",
          "type": "uint256"
        },
        {
          "internalType": "bytes",
          "name": "_data",
          "type": "bytes"
        }
      ],
      "name": "safeTransferFrom",
      "outputs": [],
      "stateMutability": "nonpayable",
      "type": "function"
    },
    {
      "inputs": [
        {
          "internalType": "address",
          "name": "operator",
          "type": "address"
        },
        {
          "internalType": "bool",
          "name": "approved",
          "type": "bool"
        }
      ],
      "name": "setApprovalForAll",
      "outputs": [],
      "stateMutability": "nonpayable",
      "type": "function"
    },
    {
      "inputs": [
        {
          "internalType": "string",
          "name": "newBaseURI",
          "type": "string"
        }
      ],
      "name": "setBaseURI",
      "outputs": [],
      "stateMutability": "nonpayable",
      "type": "function"
    },
    {
      "inputs": [],
      "name": "symbol",
      "outputs": [
        {
          "internalType": "string",
          "name": "",
          "type": "string"
        }
      ],
      "stateMutability": "view",
      "type": "function"
    },
    {
      "inputs": [
        {
          "internalType": "uint256",
          "name": "index",
          "type": "uint256"
        }
      ],
      "name": "tokenByIndex",
      "outputs": [
        {
          "internalType": "uint256",
          "name": "",
          "type": "uint256"
        }
      ],
      "stateMutability": "view",
      "type": "function"
    },
    {
      "inputs": [
        {
          "internalType": "address",
          "name": "owner",
          "type": "address"
        },
        {
          "internalType": "uint256",
          "name": "index",
          "type": "uint256"
        }
      ],
      "name": "tokenOfOwnerByIndex",
      "outputs": [
        {
          "internalType": "uint256",
          "name": "",
          "type": "uint256"
        }
      ],
      "stateMutability": "view",
      "type": "function"
    },
    {
      "inputs": [
        {
          "internalType": "uint256",
          "name": "tokenId",
          "type": "uint256"
        }
      ],
      "name": "tokenType",
      "outputs": [
        {
          "internalType": "uint256",
          "name": "",
          "type": "uint256"
        }
      ],
      "stateMutability": "view",
      "type": "function"
    },
    {
      "inputs": [],
      "name": "totalSupply",
      "outputs": [
        {
          "internalType": "uint256",
          "name": "",
          "type": "uint256"
        }
      ],
      "stateMutability": "view",
      "type": "function"
    },
    {
      "inputs": [
        {
          "internalType": "address",
          "name": "from",
          "type": "address"
        },
        {
          "internalType": "address",
          "name": "to",
          "type": "address"
        },
        {
          "internalType": "uint256",
          "name": "tokenId",
          "type": "uint256"
        }
      ],
      "name": "transferFrom",
      "outputs": [],
      "stateMutability": "nonpayable",
      "type": "function"
    },
    {
      "inputs": [
        {
          "internalType": "address",
          "name": "newOwner",
          "type": "address"
        }
      ],
      "name": "transferOwnership",
      "outputs": [],
      "stateMutability": "nonpayable",
      "type": "function"
    },
    {
      "inputs": [],
      "name": "unPause",
      "outputs": [],
      "stateMutability": "nonpayable",
      "type": "function"
    },
    {
      "inputs": [
        {
          "internalType": "bytes4",
          "name": "interfaceId",
          "type": "bytes4"
        }
      ],
      "name": "supportsInterface",
      "outputs": [
        {
          "internalType": "bool",
          "name": "",
          "type": "bool"
        }
      ],
      "stateMutability": "view",
      "type": "function"
    },
    {
      "inputs": [
        {
          "internalType": "uint256",
          "name": "tokenId",
          "type": "uint256"
        }
      ],
      "name": "tokenURI",
      "outputs": [
        {
          "internalType": "string",
          "name": "",
          "type": "string"
        }
      ],
      "stateMutability": "view",
      "type": "function"
    }
  ],
  "bytecode": "0x60806040523480156200001157600080fd5b506040518060400160405280600e81526020017f4f726269746175204552433732310000000000000000000000000000000000008152506040518060400160405280600781526020017f4f72626974617500000000000000000000000000000000000000000000000000815250816000908051906020019062000096929190620001da565b508060019080519060200190620000af929190620001da565b5050506000600660006101000a81548160ff0219169083151502179055506000620000df620001d260201b60201c565b905080600660016101000a81548173ffffffffffffffffffffffffffffffffffffffff021916908373ffffffffffffffffffffffffffffffffffffffff1602179055508073ffffffffffffffffffffffffffffffffffffffff16600073ffffffffffffffffffffffffffffffffffffffff167f8be0079c531659141344cd1fd0a4f28419497f9722a3daafe3b4186f6b6457e060405160405180910390a3506040518060400160405280601c81526020017f68747470733a2f2f6d657461646174612e6f7262697461752e696f2f0000000081525060089080519060200190620001cb929190620001da565b50620002ef565b600033905090565b828054620001e8906200028a565b90600052602060002090601f0160209004810192826200020c576000855562000258565b82601f106200022757805160ff191683800117855562000258565b8280016001018555821562000258579182015b82811115620002575782518255916020019190600101906200023a565b5b5090506200026791906200026b565b5090565b5b80821115620002865760008160009055506001016200026c565b5090565b60006002820490506001821680620002a357607f821691505b60208210811415620002ba57620002b9620002c0565b5b50919050565b7f4e487b7100000000000000000000000000000000000000000000000000000000600052602260045260246000fd5b613b1080620002ff6000396000f3fe608060405234801561001057600080fd5b50600436106101735760003560e01c80636c0360eb116100de578063a22cb46511610097578063e6c3b1f611610071578063e6c3b1f614610438578063e985e9c514610468578063f2fde38b14610498578063f7b188a5146104b457610173565b8063a22cb465146103d0578063b88d4fde146103ec578063c87b56dd1461040857610173565b80636c0360eb1461033257806370a0823114610350578063715018a6146103805780638456cb591461038a5780638da5cb5b1461039457806395d89b41146103b257610173565b80632f745c59116101305780632f745c591461024c57806342842e0e1461027c5780634f6ccce71461029857806355f804b3146102c85780635c975abb146102e45780636352211e1461030257610173565b806301ffc9a71461017857806306fdde03146101a8578063081812fc146101c6578063095ea7b3146101f657806318160ddd1461021257806323b872dd14610230575b600080fd5b610192600480360381019061018d9190612862565b6104be565b60405161019f9190612def565b60405180910390f35b6101b06105a0565b6040516101bd9190612e0a565b60405180910390f35b6101e060048036038101906101db91906128f5565b610632565b6040516101ed9190612d88565b60405180910390f35b610210600480360381019061020b9190612826565b6106b7565b005b61021a6107cf565b60405161022791906130ac565b60405180910390f35b61024a60048036038101906102459190612720565b6107dc565b005b61026660048036038101906102619190612826565b61083c565b60405161027391906130ac565b60405180910390f35b61029660048036038101906102919190612720565b6108e1565b005b6102b260048036038101906102ad91906128f5565b610901565b6040516102bf91906130ac565b60405180910390f35b6102e260048036038101906102dd91906128b4565b610998565b005b6102ec610a76565b6040516102f99190612def565b60405180910390f35b61031c600480360381019061031791906128f5565b610a8d565b6040516103299190612d88565b60405180910390f35b61033a610b3f565b6040516103479190612e0a565b60405180910390f35b61036a600480360381019061036591906126bb565b610bd1565b60405161037791906130ac565b60405180910390f35b610388610c89565b005b610392610dc6565b005b61039c610e4c565b6040516103a99190612d88565b60405180910390f35b6103ba610e76565b6040516103c79190612e0a565b60405180910390f35b6103ea60048036038101906103e591906127ea565b610f08565b005b6104066004803603810190610401919061276f565b611089565b005b610422600480360381019061041d91906128f5565b6110eb565b60405161042f9190612e0a565b60405180910390f35b610452600480360381019061044d91906128f5565b6110fd565b60405161045f91906130ac565b60405180910390f35b610482600480360381019061047d91906126e4565b611162565b60405161048f9190612def565b60405180910390f35b6104b260048036038101906104ad91906126bb565b6111f6565b005b6104bc6113a2565b005b60007f80ac58cd000000000000000000000000000000000000000000000000000000007bffffffffffffffffffffffffffffffffffffffffffffffffffffffff1916827bffffffffffffffffffffffffffffffffffffffffffffffffffffffff1916148061058957507f5b5e139f000000000000000000000000000000000000000000000000000000007bffffffffffffffffffffffffffffffffffffffffffffffffffffffff1916827bffffffffffffffffffffffffffffffffffffffffffffffffffffffff1916145b80610599575061059882611428565b5b9050919050565b6060600080546105af90613317565b80601f01602080910402602001604051908101604052809291908181526020018280546105db90613317565b80156106285780601f106105fd57610100808354040283529160200191610628565b820191906000526020600020905b81548152906001019060200180831161060b57829003601f168201915b5050505050905090565b600061063d826114a2565b61067c576040517f08c379a000000000000000000000000000000000000000000000000000000000815260040161067390612fcc565b60405180910390fd5b6004600083815260200190815260200160002060009054906101000a900473ffffffffffffffffffffffffffffffffffffffff169050919050565b60006106c282610a8d565b90508073ffffffffffffffffffffffffffffffffffffffff168373ffffffffffffffffffffffffffffffffffffffff161415610733576040517f08c379a000000000000000000000000000000000000000000000000000000000815260040161072a9061304c565b60405180910390fd5b8073ffffffffffffffffffffffffffffffffffffffff1661075261150e565b73ffffffffffffffffffffffffffffffffffffffff16148061078157506107808161077b61150e565b611162565b5b6107c0576040517f08c379a00000000000000000000000000000000000000000000000000000000081526004016107b790612f6c565b60405180910390fd5b6107ca8383611516565b505050565b6000600b80549050905090565b6107ed6107e761150e565b826115cf565b61082c576040517f08c379a00000000000000000000000000000000000000000000000000000000081526004016108239061306c565b60405180910390fd5b6108378383836116ad565b505050565b600061084783610bd1565b8210610888576040517f08c379a000000000000000000000000000000000000000000000000000000000815260040161087f90612e6c565b60405180910390fd5b600960008473ffffffffffffffffffffffffffffffffffffffff1673ffffffffffffffffffffffffffffffffffffffff168152602001908152602001600020600083815260200190815260200160002054905092915050565b6108fc83838360405180602001604052806000815250611089565b505050565b600061090b6107cf565b821061094c576040517f08c379a00000000000000000000000000000000000000000000000000000000081526004016109439061308c565b60405180910390fd5b600b8281548110610986577f4e487b7100000000000000000000000000000000000000000000000000000000600052603260045260246000fd5b90600052602060002001549050919050565b6109a061150e565b73ffffffffffffffffffffffffffffffffffffffff166109be610e4c565b73ffffffffffffffffffffffffffffffffffffffff1614610a14576040517f08c379a0000000000000000000000000000000000000000000000000000000008152600401610a0b90612fec565b60405180910390fd5b610a1c610a76565b15610a5c576040517f08c379a0000000000000000000000000000000000000000000000000000000008152600401610a5390612f4c565b60405180910390fd5b8060089080519060200190610a729291906124df565b5050565b6000600660009054906101000a900460ff16905090565b6000806002600084815260200190815260200160002060009054906101000a900473ffffffffffffffffffffffffffffffffffffffff169050600073ffffffffffffffffffffffffffffffffffffffff168173ffffffffffffffffffffffffffffffffffffffff161415610b36576040517f08c379a0000000000000000000000000000000000000000000000000000000008152600401610b2d90612fac565b60405180910390fd5b80915050919050565b606060088054610b4e90613317565b80601f0160208091040260200160405190810160405280929190818152602001828054610b7a90613317565b8015610bc75780601f10610b9c57610100808354040283529160200191610bc7565b820191906000526020600020905b815481529060010190602001808311610baa57829003601f168201915b5050505050905090565b60008073ffffffffffffffffffffffffffffffffffffffff168273ffffffffffffffffffffffffffffffffffffffff161415610c42576040517f08c379a0000000000000000000000000000000000000000000000000000000008152600401610c3990612f8c565b60405180910390fd5b600360008373ffffffffffffffffffffffffffffffffffffffff1673ffffffffffffffffffffffffffffffffffffffff168152602001908152602001600020549050919050565b610c9161150e565b73ffffffffffffffffffffffffffffffffffffffff16610caf610e4c565b73ffffffffffffffffffffffffffffffffffffffff1614610d05576040517f08c379a0000000000000000000000000000000000000000000000000000000008152600401610cfc90612fec565b60405180910390fd5b600073ffffffffffffffffffffffffffffffffffffffff16600660019054906101000a900473ffffffffffffffffffffffffffffffffffffffff1673ffffffffffffffffffffffffffffffffffffffff167f8be0079c531659141344cd1fd0a4f28419497f9722a3daafe3b4186f6b6457e060405160405180910390a36000600660016101000a81548173ffffffffffffffffffffffffffffffffffffffff021916908373ffffffffffffffffffffffffffffffffffffffff160217905550565b610dce61150e565b73ffffffffffffffffffffffffffffffffffffffff16610dec610e4c565b73ffffffffffffffffffffffffffffffffffffffff1614610e42576040517f08c379a0000000000000000000000000000000000000000000000000000000008152600401610e3990612fec565b60405180910390fd5b610e4a611909565b565b6000600660019054906101000a900473ffffffffffffffffffffffffffffffffffffffff16905090565b606060018054610e8590613317565b80601f0160208091040260200160405190810160405280929190818152602001828054610eb190613317565b8015610efe5780601f10610ed357610100808354040283529160200191610efe565b820191906000526020600020905b815481529060010190602001808311610ee157829003601f168201915b5050505050905090565b610f1061150e565b73ffffffffffffffffffffffffffffffffffffffff168273ffffffffffffffffffffffffffffffffffffffff161415610f7e576040517f08c379a0000000000000000000000000000000000000000000000000000000008152600401610f7590612eec565b60405180910390fd5b8060056000610f8b61150e565b73ffffffffffffffffffffffffffffffffffffffff1673ffffffffffffffffffffffffffffffffffffffff16815260200190815260200160002060008473ffffffffffffffffffffffffffffffffffffffff1673ffffffffffffffffffffffffffffffffffffffff16815260200190815260200160002060006101000a81548160ff0219169083151502179055508173ffffffffffffffffffffffffffffffffffffffff1661103861150e565b73ffffffffffffffffffffffffffffffffffffffff167f17307eab39ab6107e8899845ad3d59bd9653f200f220920489ca2b5937696c318360405161107d9190612def565b60405180910390a35050565b61109a61109461150e565b836115cf565b6110d9576040517f08c379a00000000000000000000000000000000000000000000000000000000081526004016110d09061306c565b60405180910390fd5b6110e5848484846119ac565b50505050565b60606110f682611a08565b9050919050565b6000611108826114a2565b611147576040517f08c379a000000000000000000000000000000000000000000000000000000000815260040161113e90612f0c565b60405180910390fd5b60076000838152602001908152602001600020549050919050565b6000600560008473ffffffffffffffffffffffffffffffffffffffff1673ffffffffffffffffffffffffffffffffffffffff16815260200190815260200160002060008373ffffffffffffffffffffffffffffffffffffffff1673ffffffffffffffffffffffffffffffffffffffff16815260200190815260200160002060009054906101000a900460ff16905092915050565b6111fe61150e565b73ffffffffffffffffffffffffffffffffffffffff1661121c610e4c565b73ffffffffffffffffffffffffffffffffffffffff1614611272576040517f08c379a000000000000000000000000000000000000000000000000000000000815260040161126990612fec565b60405180910390fd5b600073ffffffffffffffffffffffffffffffffffffffff168173ffffffffffffffffffffffffffffffffffffffff1614156112e2576040517f08c379a00000000000000000000000000000000000000000000000000000000081526004016112d990612eac565b60405180910390fd5b8073ffffffffffffffffffffffffffffffffffffffff16600660019054906101000a900473ffffffffffffffffffffffffffffffffffffffff1673ffffffffffffffffffffffffffffffffffffffff167f8be0079c531659141344cd1fd0a4f28419497f9722a3daafe3b4186f6b6457e060405160405180910390a380600660016101000a81548173ffffffffffffffffffffffffffffffffffffffff021916908373ffffffffffffffffffffffffffffffffffffffff16021790555050565b6113aa61150e565b73ffffffffffffffffffffffffffffffffffffffff166113c8610e4c565b73ffffffffffffffffffffffffffffffffffffffff161461141e576040517f08c379a000000000000000000000000000000000000000000000000000000000815260040161141590612fec565b60405180910390fd5b611426611aa1565b565b60007f780e9d63000000000000000000000000000000000000000000000000000000007bffffffffffffffffffffffffffffffffffffffffffffffffffffffff1916827bffffffffffffffffffffffffffffffffffffffffffffffffffffffff1916148061149b575061149a82611b43565b5b9050919050565b60008073ffffffffffffffffffffffffffffffffffffffff166002600084815260200190815260200160002060009054906101000a900473ffffffffffffffffffffffffffffffffffffffff1673ffffffffffffffffffffffffffffffffffffffff1614159050919050565b600033905090565b816004600083815260200190815260200160002060006101000a81548173ffffffffffffffffffffffffffffffffffffffff021916908373ffffffffffffffffffffffffffffffffffffffff160217905550808273ffffffffffffffffffffffffffffffffffffffff1661158983610a8d565b73ffffffffffffffffffffffffffffffffffffffff167f8c5be1e5ebec7d5bd14f71427d1e84f3dd0314c0f7b2291e5b200ac8c7c3b92560405160405180910390a45050565b60006115da826114a2565b611619576040517f08c379a000000000000000000000000000000000000000000000000000000000815260040161161090612f2c565b60405180910390fd5b600061162483610a8d565b90508073ffffffffffffffffffffffffffffffffffffffff168473ffffffffffffffffffffffffffffffffffffffff16148061169357508373ffffffffffffffffffffffffffffffffffffffff1661167b84610632565b73ffffffffffffffffffffffffffffffffffffffff16145b806116a457506116a38185611162565b5b91505092915050565b8273ffffffffffffffffffffffffffffffffffffffff166116cd82610a8d565b73ffffffffffffffffffffffffffffffffffffffff1614611723576040517f08c379a000000000000000000000000000000000000000000000000000000000815260040161171a9061300c565b60405180910390fd5b600073ffffffffffffffffffffffffffffffffffffffff168273ffffffffffffffffffffffffffffffffffffffff161415611793576040517f08c379a000000000000000000000000000000000000000000000000000000000815260040161178a90612ecc565b60405180910390fd5b61179e838383611c25565b6117a9600082611516565b6001600360008573ffffffffffffffffffffffffffffffffffffffff1673ffffffffffffffffffffffffffffffffffffffff16815260200190815260200160002060008282546117f9919061322d565b925050819055506001600360008473ffffffffffffffffffffffffffffffffffffffff1673ffffffffffffffffffffffffffffffffffffffff168152602001908152602001600020600082825461185091906131a6565b92505081905550816002600083815260200190815260200160002060006101000a81548173ffffffffffffffffffffffffffffffffffffffff021916908373ffffffffffffffffffffffffffffffffffffffff160217905550808273ffffffffffffffffffffffffffffffffffffffff168473ffffffffffffffffffffffffffffffffffffffff167fddf252ad1be2c89b69c2b068fc378daa952ba7f163c4a11628f55a4df523b3ef60405160405180910390a4505050565b611911610a76565b15611951576040517f08c379a000000000000000000000000000000000000000000000000000000000815260040161194890612f4c565b60405180910390fd5b6001600660006101000a81548160ff0219169083151502179055507f62e78cea01bee320cd4e420270b5ea74000d11b0c9f74754ebdbfc544b05a25861199561150e565b6040516119a29190612d88565b60405180910390a1565b6119b78484846116ad565b6119c384848484611c35565b611a02576040517f08c379a00000000000000000000000000000000000000000000000000000000081526004016119f990612e8c565b60405180910390fd5b50505050565b6060611a13826114a2565b611a52576040517f08c379a0000000000000000000000000000000000000000000000000000000008152600401611a499061302c565b60405180910390fd5b6008611a706007600085815260200190815260200160002054611dcc565b611a7984611dcc565b604051602001611a8b93929190612d4c565b6040516020818303038152906040529050919050565b611aa9610a76565b611ae8576040517f08c379a0000000000000000000000000000000000000000000000000000000008152600401611adf90612e4c565b60405180910390fd5b6000600660006101000a81548160ff0219169083151502179055507f5db9ee0a495bf2e6ff9c91a7834c1ba4fdd244a5e8aa4e537bd38aeae4b073aa611b2c61150e565b604051611b399190612d88565b60405180910390a1565b60007f80ac58cd000000000000000000000000000000000000000000000000000000007bffffffffffffffffffffffffffffffffffffffffffffffffffffffff1916827bffffffffffffffffffffffffffffffffffffffffffffffffffffffff19161480611c0e57507f5b5e139f000000000000000000000000000000000000000000000000000000007bffffffffffffffffffffffffffffffffffffffffffffffffffffffff1916827bffffffffffffffffffffffffffffffffffffffffffffffffffffffff1916145b80611c1e5750611c1d82611f79565b5b9050919050565b611c30838383611fe3565b505050565b6000611c568473ffffffffffffffffffffffffffffffffffffffff166120f7565b15611dbf578373ffffffffffffffffffffffffffffffffffffffff1663150b7a02611c7f61150e565b8786866040518563ffffffff1660e01b8152600401611ca19493929190612da3565b602060405180830381600087803b158015611cbb57600080fd5b505af1925050508015611cec57506040513d601f19601f82011682018060405250810190611ce9919061288b565b60015b611d6f573d8060008114611d1c576040519150601f19603f3d011682016040523d82523d6000602084013e611d21565b606091505b50600081511415611d67576040517f08c379a0000000000000000000000000000000000000000000000000000000008152600401611d5e90612e8c565b60405180910390fd5b805181602001fd5b63150b7a0260e01b7bffffffffffffffffffffffffffffffffffffffffffffffffffffffff1916817bffffffffffffffffffffffffffffffffffffffffffffffffffffffff191614915050611dc4565b600190505b949350505050565b60606000821415611e14576040518060400160405280600181526020017f30000000000000000000000000000000000000000000000000000000000000008152509050611f74565b600082905060005b60008214611e46578080611e2f9061337a565b915050600a82611e3f91906131fc565b9150611e1c565b60008167ffffffffffffffff811115611e88577f4e487b7100000000000000000000000000000000000000000000000000000000600052604160045260246000fd5b6040519080825280601f01601f191660200182016040528015611eba5781602001600182028036833780820191505090505b5090505b60008514611f6d57600182611ed3919061322d565b9150600a85611ee291906133c3565b6030611eee91906131a6565b60f81b818381518110611f2a577f4e487b7100000000000000000000000000000000000000000000000000000000600052603260045260246000fd5b60200101907effffffffffffffffffffffffffffffffffffffffffffffffffffffffffffff1916908160001a905350600a85611f6691906131fc565b9450611ebe565b8093505050505b919050565b60007f01ffc9a7000000000000000000000000000000000000000000000000000000007bffffffffffffffffffffffffffffffffffffffffffffffffffffffff1916827bffffffffffffffffffffffffffffffffffffffffffffffffffffffff1916149050919050565b611fee83838361210a565b600073ffffffffffffffffffffffffffffffffffffffff168373ffffffffffffffffffffffffffffffffffffffff1614156120315761202c81612162565b612070565b8173ffffffffffffffffffffffffffffffffffffffff168373ffffffffffffffffffffffffffffffffffffffff161461206f5761206e83826121ab565b5b5b600073ffffffffffffffffffffffffffffffffffffffff168273ffffffffffffffffffffffffffffffffffffffff1614156120b3576120ae81612318565b6120f2565b8273ffffffffffffffffffffffffffffffffffffffff168273ffffffffffffffffffffffffffffffffffffffff16146120f1576120f0828261245b565b5b5b505050565b600080823b905060008111915050919050565b6121158383836124da565b61211d610a76565b1561215d576040517f08c379a000000000000000000000000000000000000000000000000000000000815260040161215490612e2c565b60405180910390fd5b505050565b600b80549050600c600083815260200190815260200160002081905550600b81908060018154018082558091505060019003906000526020600020016000909190919091505550565b600060016121b884610bd1565b6121c2919061322d565b90506000600a60008481526020019081526020016000205490508181146122a7576000600960008673ffffffffffffffffffffffffffffffffffffffff1673ffffffffffffffffffffffffffffffffffffffff168152602001908152602001600020600084815260200190815260200160002054905080600960008773ffffffffffffffffffffffffffffffffffffffff1673ffffffffffffffffffffffffffffffffffffffff16815260200190815260200160002060008481526020019081526020016000208190555081600a600083815260200190815260200160002081905550505b600a600084815260200190815260200160002060009055600960008573ffffffffffffffffffffffffffffffffffffffff1673ffffffffffffffffffffffffffffffffffffffff16815260200190815260200160002060008381526020019081526020016000206000905550505050565b60006001600b8054905061232c919061322d565b90506000600c60008481526020019081526020016000205490506000600b8381548110612382577f4e487b7100000000000000000000000000000000000000000000000000000000600052603260045260246000fd5b9060005260206000200154905080600b83815481106123ca577f4e487b7100000000000000000000000000000000000000000000000000000000600052603260045260246000fd5b906000526020600020018190555081600c600083815260200190815260200160002081905550600c600085815260200190815260200160002060009055600b80548061243f577f4e487b7100000000000000000000000000000000000000000000000000000000600052603160045260246000fd5b6001900381819060005260206000200160009055905550505050565b600061246683610bd1565b905081600960008573ffffffffffffffffffffffffffffffffffffffff1673ffffffffffffffffffffffffffffffffffffffff16815260200190815260200160002060008381526020019081526020016000208190555080600a600084815260200190815260200160002081905550505050565b505050565b8280546124eb90613317565b90600052602060002090601f01602090048101928261250d5760008555612554565b82601f1061252657805160ff1916838001178555612554565b82800160010185558215612554579182015b82811115612553578251825591602001919060010190612538565b5b5090506125619190612565565b5090565b5b8082111561257e576000816000905550600101612566565b5090565b6000612595612590846130ec565b6130c7565b9050828152602081018484840111156125ad57600080fd5b6125b88482856132d5565b509392505050565b60006125d36125ce8461311d565b6130c7565b9050828152602081018484840111156125eb57600080fd5b6125f68482856132d5565b509392505050565b60008135905061260d81613a7e565b92915050565b60008135905061262281613a95565b92915050565b60008135905061263781613aac565b92915050565b60008151905061264c81613aac565b92915050565b600082601f83011261266357600080fd5b8135612673848260208601612582565b91505092915050565b600082601f83011261268d57600080fd5b813561269d8482602086016125c0565b91505092915050565b6000813590506126b581613ac3565b92915050565b6000602082840312156126cd57600080fd5b60006126db848285016125fe565b91505092915050565b600080604083850312156126f757600080fd5b6000612705858286016125fe565b9250506020612716858286016125fe565b9150509250929050565b60008060006060848603121561273557600080fd5b6000612743868287016125fe565b9350506020612754868287016125fe565b9250506040612765868287016126a6565b9150509250925092565b6000806000806080858703121561278557600080fd5b6000612793878288016125fe565b94505060206127a4878288016125fe565b93505060406127b5878288016126a6565b925050606085013567ffffffffffffffff8111156127d257600080fd5b6127de87828801612652565b91505092959194509250565b600080604083850312156127fd57600080fd5b600061280b858286016125fe565b925050602061281c85828601612613565b9150509250929050565b6000806040838503121561283957600080fd5b6000612847858286016125fe565b9250506020612858858286016126a6565b9150509250929050565b60006020828403121561287457600080fd5b600061288284828501612628565b91505092915050565b60006020828403121561289d57600080fd5b60006128ab8482850161263d565b91505092915050565b6000602082840312156128c657600080fd5b600082013567ffffffffffffffff8111156128e057600080fd5b6128ec8482850161267c565b91505092915050565b60006020828403121561290757600080fd5b6000612915848285016126a6565b91505092915050565b61292781613261565b82525050565b61293681613273565b82525050565b600061294782613163565b6129518185613179565b93506129618185602086016132e4565b61296a816134b0565b840191505092915050565b60006129808261316e565b61298a818561318a565b935061299a8185602086016132e4565b6129a3816134b0565b840191505092915050565b60006129b98261316e565b6129c3818561319b565b93506129d38185602086016132e4565b80840191505092915050565b600081546129ec81613317565b6129f6818661319b565b94506001821660008114612a115760018114612a2257612a55565b60ff19831686528186019350612a55565b612a2b8561314e565b60005b83811015612a4d57815481890152600182019150602081019050612a2e565b838801955050505b50505092915050565b6000612a6b602b8361318a565b9150612a76826134c1565b604082019050919050565b6000612a8e60148361318a565b9150612a9982613510565b602082019050919050565b6000612ab1602b8361318a565b9150612abc82613539565b604082019050919050565b6000612ad460328361318a565b9150612adf82613588565b604082019050919050565b6000612af760268361318a565b9150612b02826135d7565b604082019050919050565b6000612b1a60248361318a565b9150612b2582613626565b604082019050919050565b6000612b3d60198361318a565b9150612b4882613675565b602082019050919050565b6000612b6060308361318a565b9150612b6b8261369e565b604082019050919050565b6000612b83602c8361318a565b9150612b8e826136ed565b604082019050919050565b6000612ba660108361318a565b9150612bb18261373c565b602082019050919050565b6000612bc960388361318a565b9150612bd482613765565b604082019050919050565b6000612bec602a8361318a565b9150612bf7826137b4565b604082019050919050565b6000612c0f60298361318a565b9150612c1a82613803565b604082019050919050565b6000612c32602c8361318a565b9150612c3d82613852565b604082019050919050565b6000612c5560208361318a565b9150612c60826138a1565b602082019050919050565b6000612c7860298361318a565b9150612c83826138ca565b604082019050919050565b6000612c9b602f8361318a565b9150612ca682613919565b604082019050919050565b6000612cbe60218361318a565b9150612cc982613968565b604082019050919050565b6000612ce160318361318a565b9150612cec826139b7565b604082019050919050565b6000612d04602c8361318a565b9150612d0f82613a06565b604082019050919050565b6000612d2760018361319b565b9150612d3282613a55565b600182019050919050565b612d46816132cb565b82525050565b6000612d5882866129df565b9150612d6482856129ae565b9150612d6f82612d1a565b9150612d7b82846129ae565b9150819050949350505050565b6000602082019050612d9d600083018461291e565b92915050565b6000608082019050612db8600083018761291e565b612dc5602083018661291e565b612dd26040830185612d3d565b8181036060830152612de4818461293c565b905095945050505050565b6000602082019050612e04600083018461292d565b92915050565b60006020820190508181036000830152612e248184612975565b905092915050565b60006020820190508181036000830152612e4581612a5e565b9050919050565b60006020820190508181036000830152612e6581612a81565b9050919050565b60006020820190508181036000830152612e8581612aa4565b9050919050565b60006020820190508181036000830152612ea581612ac7565b9050919050565b60006020820190508181036000830152612ec581612aea565b9050919050565b60006020820190508181036000830152612ee581612b0d565b9050919050565b60006020820190508181036000830152612f0581612b30565b9050919050565b60006020820190508181036000830152612f2581612b53565b9050919050565b60006020820190508181036000830152612f4581612b76565b9050919050565b60006020820190508181036000830152612f6581612b99565b9050919050565b60006020820190508181036000830152612f8581612bbc565b9050919050565b60006020820190508181036000830152612fa581612bdf565b9050919050565b60006020820190508181036000830152612fc581612c02565b9050919050565b60006020820190508181036000830152612fe581612c25565b9050919050565b6000602082019050818103600083015261300581612c48565b9050919050565b6000602082019050818103600083015261302581612c6b565b9050919050565b6000602082019050818103600083015261304581612c8e565b9050919050565b6000602082019050818103600083015261306581612cb1565b9050919050565b6000602082019050818103600083015261308581612cd4565b9050919050565b600060208201905081810360008301526130a581612cf7565b9050919050565b60006020820190506130c16000830184612d3d565b92915050565b60006130d16130e2565b90506130dd8282613349565b919050565b6000604051905090565b600067ffffffffffffffff82111561310757613106613481565b5b613110826134b0565b9050602081019050919050565b600067ffffffffffffffff82111561313857613137613481565b5b613141826134b0565b9050602081019050919050565b60008190508160005260206000209050919050565b600081519050919050565b600081519050919050565b600082825260208201905092915050565b600082825260208201905092915050565b600081905092915050565b60006131b1826132cb565b91506131bc836132cb565b9250827fffffffffffffffffffffffffffffffffffffffffffffffffffffffffffffffff038211156131f1576131f06133f4565b5b828201905092915050565b6000613207826132cb565b9150613212836132cb565b92508261322257613221613423565b5b828204905092915050565b6000613238826132cb565b9150613243836132cb565b925082821015613256576132556133f4565b5b828203905092915050565b600061326c826132ab565b9050919050565b60008115159050919050565b60007fffffffff0000000000000000000000000000000000000000000000000000000082169050919050565b600073ffffffffffffffffffffffffffffffffffffffff82169050919050565b6000819050919050565b82818337600083830152505050565b60005b838110156133025780820151818401526020810190506132e7565b83811115613311576000848401525b50505050565b6000600282049050600182168061332f57607f821691505b6020821081141561334357613342613452565b5b50919050565b613352826134b0565b810181811067ffffffffffffffff8211171561337157613370613481565b5b80604052505050565b6000613385826132cb565b91507fffffffffffffffffffffffffffffffffffffffffffffffffffffffffffffffff8214156133b8576133b76133f4565b5b600182019050919050565b60006133ce826132cb565b91506133d9836132cb565b9250826133e9576133e8613423565b5b828206905092915050565b7f4e487b7100000000000000000000000000000000000000000000000000000000600052601160045260246000fd5b7f4e487b7100000000000000000000000000000000000000000000000000000000600052601260045260246000fd5b7f4e487b7100000000000000000000000000000000000000000000000000000000600052602260045260246000fd5b7f4e487b7100000000000000000000000000000000000000000000000000000000600052604160045260246000fd5b6000601f19601f8301169050919050565b7f4552433732315061757361626c653a20746f6b656e207472616e73666572207760008201527f68696c6520706175736564000000000000000000000000000000000000000000602082015250565b7f5061757361626c653a206e6f7420706175736564000000000000000000000000600082015250565b7f455243373231456e756d657261626c653a206f776e657220696e646578206f7560008201527f74206f6620626f756e6473000000000000000000000000000000000000000000602082015250565b7f4552433732313a207472616e7366657220746f206e6f6e20455243373231526560008201527f63656976657220696d706c656d656e7465720000000000000000000000000000602082015250565b7f4f776e61626c653a206e6577206f776e657220697320746865207a65726f206160008201527f6464726573730000000000000000000000000000000000000000000000000000602082015250565b7f4552433732313a207472616e7366657220746f20746865207a65726f2061646460008201527f7265737300000000000000000000000000000000000000000000000000000000602082015250565b7f4552433732313a20617070726f766520746f2063616c6c657200000000000000600082015250565b7f4552433732314d657461646174613a205479706520717565727920666f72206e60008201527f6f6e6578697374656e7420746f6b656e00000000000000000000000000000000602082015250565b7f4552433732313a206f70657261746f7220717565727920666f72206e6f6e657860008201527f697374656e7420746f6b656e0000000000000000000000000000000000000000602082015250565b7f5061757361626c653a2070617573656400000000000000000000000000000000600082015250565b7f4552433732313a20617070726f76652063616c6c6572206973206e6f74206f7760008201527f6e6572206e6f7220617070726f76656420666f7220616c6c0000000000000000602082015250565b7f4552433732313a2062616c616e636520717565727920666f7220746865207a6560008201527f726f206164647265737300000000000000000000000000000000000000000000602082015250565b7f4552433732313a206f776e657220717565727920666f72206e6f6e657869737460008201527f656e7420746f6b656e0000000000000000000000000000000000000000000000602082015250565b7f4552433732313a20617070726f76656420717565727920666f72206e6f6e657860008201527f697374656e7420746f6b656e0000000000000000000000000000000000000000602082015250565b7f4f776e61626c653a2063616c6c6572206973206e6f7420746865206f776e6572600082015250565b7f4552433732313a207472616e73666572206f6620746f6b656e2074686174206960008201527f73206e6f74206f776e0000000000000000000000000000000000000000000000602082015250565b7f4552433732314d657461646174613a2055524920717565727920666f72206e6f60008201527f6e6578697374656e7420746f6b656e0000000000000000000000000000000000602082015250565b7f4552433732313a20617070726f76616c20746f2063757272656e74206f776e6560008201527f7200000000000000000000000000000000000000000000000000000000000000602082015250565b7f4552433732313a207472616e736665722063616c6c6572206973206e6f74206f60008201527f776e6572206e6f7220617070726f766564000000000000000000000000000000602082015250565b7f455243373231456e756d657261626c653a20676c6f62616c20696e646578206f60008201527f7574206f6620626f756e64730000000000000000000000000000000000000000602082015250565b7f2f00000000000000000000000000000000000000000000000000000000000000600082015250565b613a8781613261565b8114613a9257600080fd5b50565b613a9e81613273565b8114613aa957600080fd5b50565b613ab58161327f565b8114613ac057600080fd5b50565b613acc816132cb565b8114613ad757600080fd5b5056fea2646970667358221220625889c868a33180aa6ab9bc20ac7d284092e30b2038cfa62763cf397c45e6dd64736f6c63430008040033",
  "immutableReferences": {},
  "source": "// SPDX-License-Identifier: UNLICENSED\r\n\r\npragma solidity ^0.8.4;\r\n\r\nimport \"./OrbitauERC721.sol\";\r\nimport \"../../lib/token/ERC721/extensions/ERC721Enumerable.sol\";\r\n\r\ncontract OrbitauERC721Enumerable is OrbitauERC721, ERC721Enumerable {\r\n    /**\r\n     * @dev Create a new OrbitauERC721Enumerable contract.\r\n     *\r\n     */\r\n    constructor() OrbitauERC721() {}\r\n\r\n    /**\r\n     * @dev See {IERC165-supportsInterface}.\r\n     */\r\n    function supportsInterface(bytes4 interfaceId) public view virtual override(ERC721, ERC721Enumerable) returns (bool) {\r\n        return\r\n        interfaceId == type(IERC721).interfaceId ||\r\n        interfaceId == type(IERC721Metadata).interfaceId ||\r\n        ERC721Enumerable.supportsInterface(interfaceId);\r\n    }\r\n\r\n    /**\r\n     * @dev See {IERC721Metadata-tokenURI}.\r\n     */\r\n    function tokenURI(uint256 tokenId) public view override(ERC721, OrbitauERC721) returns (string memory) {\r\n        return OrbitauERC721.tokenURI(tokenId);\r\n    }\r\n\r\n    /**\r\n     * @dev Base URI for computing {tokenURI}. If set, the resulting URI for each\r\n     * token will be the concatenation of the `baseURI` and the `tokenId`.\r\n     */\r\n    function _baseURI() internal view override(ERC721, OrbitauERC721) returns (string memory) {\r\n        return OrbitauERC721._baseURI();\r\n    }\r\n\r\n    /**\r\n     * @dev Hook that is called before any token transfer. This includes minting\r\n     * and burning.\r\n     *\r\n     * Calling conditions:\r\n     *\r\n     * - When `from` and `to` are both non-zero, ``from``'s `tokenId` will be\r\n     * transferred to `to`.\r\n     * - When `from` is zero, `tokenId` will be minted for `to`.\r\n     * - When `to` is zero, ``from``'s `tokenId` will be burned.\r\n     * - `from` cannot be the zero address.\r\n     * - `to` cannot be the zero address.\r\n     *\r\n     * To learn more about hooks, head to xref:ROOT:extending-contracts.adoc#using-hooks[Using Hooks].\r\n     */\r\n    function _beforeTokenTransfer(address from, address to, uint256 tokenId) internal override(ERC721Pausable, ERC721Enumerable) {\r\n        ERC721Enumerable._beforeTokenTransfer(from, to, tokenId);\r\n    }\r\n}\r\n",
  "sourcePath": "D:\\0xTaureum\\github\\orbitau-smart-contract\\contracts\\tokens\\ERC721\\OrbitauERC721Enumerable.sol",
  "compiler": {
    "name": "solc",
    "version": "0.8.4+commit.c7e474f2.Emscripten.clang"
  },
  "schemaVersion": "3.4.3",
  "updatedAt": "2021-09-12T08:10:55.075Z",
  "devdoc": {
    "kind": "dev",
    "methods": {
      "approve(address,uint256)": {
        "details": "See {IERC721-approve}."
      },
      "balanceOf(address)": {
        "details": "See {IERC721-balanceOf}."
      },
      "baseURI()": {
        "details": "Returns `__baseURI`."
      },
      "constructor": {
        "details": "Create a new OrbitauERC721Enumerable contract."
      },
      "getApproved(uint256)": {
        "details": "See {IERC721-getApproved}."
      },
      "isApprovedForAll(address,address)": {
        "details": "See {IERC721-isApprovedForAll}."
      },
      "name()": {
        "details": "See {IERC721Metadata-name}."
      },
      "owner()": {
        "details": "Returns the address of the current owner."
      },
      "ownerOf(uint256)": {
        "details": "See {IERC721-ownerOf}."
      },
      "pause()": {
        "details": "Pause the contract in case of bugs/attacks."
      },
      "paused()": {
        "details": "Returns true if the contract is paused, and false otherwise."
      },
      "renounceOwnership()": {
        "details": "Leaves the contract without owner. It will not be possible to call `onlyOwner` functions anymore. Can only be called by the current owner. NOTE: Renouncing ownership will leave the contract without an owner, thereby removing any functionality that is only available to the owner."
      },
      "safeTransferFrom(address,address,uint256)": {
        "details": "See {IERC721-safeTransferFrom}."
      },
      "safeTransferFrom(address,address,uint256,bytes)": {
        "details": "See {IERC721-safeTransferFrom}."
      },
      "setApprovalForAll(address,bool)": {
        "details": "See {IERC721-setApprovalForAll}."
      },
      "setBaseURI(string)": {
        "details": "Sets new value for the `__baseURI`. This operation can only been done by the owner of this contract."
      },
      "supportsInterface(bytes4)": {
        "details": "See {IERC165-supportsInterface}."
      },
      "symbol()": {
        "details": "See {IERC721Metadata-symbol}."
      },
      "tokenByIndex(uint256)": {
        "details": "See {IERC721Enumerable-tokenByIndex}."
      },
      "tokenOfOwnerByIndex(address,uint256)": {
        "details": "See {IERC721Enumerable-tokenOfOwnerByIndex}."
      },
      "tokenURI(uint256)": {
        "details": "See {IERC721Metadata-tokenURI}."
      },
      "totalSupply()": {
        "details": "See {IERC721Enumerable-totalSupply}."
      },
      "transferFrom(address,address,uint256)": {
        "details": "See {IERC721-transferFrom}."
      },
      "transferOwnership(address)": {
        "details": "Transfers ownership of the contract to a new account (`newOwner`). Can only be called by the current owner."
      },
      "unPause()": {
        "details": "Resume the contract after being paused."
      }
    },
    "version": 1
  },
  "userdoc": {
    "kind": "user",
    "methods": {
      "pause()": {
        "notice": "Only the owner can call this method."
      },
      "unPause()": {
        "notice": "Only the owner can call this method."
      }
    },
    "version": 1
  }
}