{
  "contractName": "OrbitauERC721LazyMint",
  "abi": [
    {
      "inputs": [],
      "stateMutability": "nonpayable",
      "type": "constructor"
    },
    {
      "anonymous": false,
      "inputs": [
        {
          "indexed": true,
          "internalType": "address",
          "name": "owner",
          "type": "address"
        },
        {
          "indexed": true,
          "internalType": "address",
          "name": "approved",
          "type": "address"
        },
        {
          "indexed": true,
          "internalType": "uint256",
          "name": "tokenId",
          "type": "uint256"
        }
      ],
      "name": "Approval",
      "type": "event"
    },
    {
      "anonymous": false,
      "inputs": [
        {
          "indexed": true,
          "internalType": "address",
          "name": "owner",
          "type": "address"
        },
        {
          "indexed": true,
          "internalType": "address",
          "name": "operator",
          "type": "address"
        },
        {
          "indexed": false,
          "internalType": "bool",
          "name": "approved",
          "type": "bool"
        }
      ],
      "name": "ApprovalForAll",
      "type": "event"
    },
    {
      "anonymous": false,
      "inputs": [
        {
          "indexed": true,
          "internalType": "address",
          "name": "previousOwner",
          "type": "address"
        },
        {
          "indexed": true,
          "internalType": "address",
          "name": "newOwner",
          "type": "address"
        }
      ],
      "name": "OwnershipTransferred",
      "type": "event"
    },
    {
      "anonymous": false,
      "inputs": [
        {
          "indexed": false,
          "internalType": "address",
          "name": "account",
          "type": "address"
        }
      ],
      "name": "Paused",
      "type": "event"
    },
    {
      "anonymous": false,
      "inputs": [
        {
          "indexed": true,
          "internalType": "address",
          "name": "signer",
          "type": "address"
        },
        {
          "indexed": true,
          "internalType": "address",
          "name": "redeemer",
          "type": "address"
        },
        {
          "indexed": false,
          "internalType": "uint256",
          "name": "_tokenType",
          "type": "uint256"
        },
        {
          "indexed": false,
          "internalType": "uint256",
          "name": "tokenId",
          "type": "uint256"
        },
        {
          "indexed": false,
          "internalType": "bytes",
          "name": "signature",
          "type": "bytes"
        }
      ],
      "name": "Redeem",
      "type": "event"
    },
    {
      "anonymous": false,
      "inputs": [
        {
          "indexed": true,
          "internalType": "address",
          "name": "from",
          "type": "address"
        },
        {
          "indexed": true,
          "internalType": "address",
          "name": "to",
          "type": "address"
        },
        {
          "indexed": true,
          "internalType": "uint256",
          "name": "tokenId",
          "type": "uint256"
        }
      ],
      "name": "Transfer",
      "type": "event"
    },
    {
      "anonymous": false,
      "inputs": [
        {
          "indexed": false,
          "internalType": "address",
          "name": "account",
          "type": "address"
        }
      ],
      "name": "Unpaused",
      "type": "event"
    },
    {
      "inputs": [
        {
          "internalType": "address",
          "name": "to",
          "type": "address"
        },
        {
          "internalType": "uint256",
          "name": "tokenId",
          "type": "uint256"
        }
      ],
      "name": "approve",
      "outputs": [],
      "stateMutability": "nonpayable",
      "type": "function"
    },
    {
      "inputs": [
        {
          "internalType": "address",
          "name": "owner",
          "type": "address"
        }
      ],
      "name": "balanceOf",
      "outputs": [
        {
          "internalType": "uint256",
          "name": "",
          "type": "uint256"
        }
      ],
      "stateMutability": "view",
      "type": "function"
    },
    {
      "inputs": [],
      "name": "baseURI",
      "outputs": [
        {
          "internalType": "string",
          "name": "",
          "type": "string"
        }
      ],
      "stateMutability": "view",
      "type": "function"
    },
    {
      "inputs": [
        {
          "internalType": "uint256",
          "name": "tokenId",
          "type": "uint256"
        }
      ],
      "name": "getApproved",
      "outputs": [
        {
          "internalType": "address",
          "name": "",
          "type": "address"
        }
      ],
      "stateMutability": "view",
      "type": "function"
    },
    {
      "inputs": [
        {
          "internalType": "address",
          "name": "owner",
          "type": "address"
        },
        {
          "internalType": "address",
          "name": "operator",
          "type": "address"
        }
      ],
      "name": "isApprovedForAll",
      "outputs": [
        {
          "internalType": "bool",
          "name": "",
          "type": "bool"
        }
      ],
      "stateMutability": "view",
      "type": "function"
    },
    {
      "inputs": [],
      "name": "name",
      "outputs": [
        {
          "internalType": "string",
          "name": "",
          "type": "string"
        }
      ],
      "stateMutability": "view",
      "type": "function"
    },
    {
      "inputs": [],
      "name": "owner",
      "outputs": [
        {
          "internalType": "address",
          "name": "",
          "type": "address"
        }
      ],
      "stateMutability": "view",
      "type": "function"
    },
    {
      "inputs": [
        {
          "internalType": "uint256",
          "name": "tokenId",
          "type": "uint256"
        }
      ],
      "name": "ownerOf",
      "outputs": [
        {
          "internalType": "address",
          "name": "",
          "type": "address"
        }
      ],
      "stateMutability": "view",
      "type": "function"
    },
    {
      "inputs": [],
      "name": "pause",
      "outputs": [],
      "stateMutability": "nonpayable",
      "type": "function"
    },
    {
      "inputs": [],
      "name": "paused",
      "outputs": [
        {
          "internalType": "bool",
          "name": "",
          "type": "bool"
        }
      ],
      "stateMutability": "view",
      "type": "function"
    },
    {
      "inputs": [],
      "name": "renounceOwnership",
      "outputs": [],
      "stateMutability": "nonpayable",
      "type": "function"
    },
    {
      "inputs": [
        {
          "internalType": "address",
          "name": "from",
          "type": "address"
        },
        {
          "internalType": "address",
          "name": "to",
          "type": "address"
        },
        {
          "internalType": "uint256",
          "name": "tokenId",
          "type": "uint256"
        }
      ],
      "name": "safeTransferFrom",
      "outputs": [],
      "stateMutability": "nonpayable",
      "type": "function"
    },
    {
      "inputs": [
        {
          "internalType": "address",
          "name": "from",
          "type": "address"
        },
        {
          "internalType": "address",
          "name": "to",
          "type": "address"
        },
        {
          "internalType": "uint256",
          "name": "tokenId",
          "type": "uint256"
        },
        {
          "internalType": "bytes",
          "name": "_data",
          "type": "bytes"
        }
      ],
      "name": "safeTransferFrom",
      "outputs": [],
      "stateMutability": "nonpayable",
      "type": "function"
    },
    {
      "inputs": [
        {
          "internalType": "address",
          "name": "operator",
          "type": "address"
        },
        {
          "internalType": "bool",
          "name": "approved",
          "type": "bool"
        }
      ],
      "name": "setApprovalForAll",
      "outputs": [],
      "stateMutability": "nonpayable",
      "type": "function"
    },
    {
      "inputs": [
        {
          "internalType": "string",
          "name": "newBaseURI",
          "type": "string"
        }
      ],
      "name": "setBaseURI",
      "outputs": [],
      "stateMutability": "nonpayable",
      "type": "function"
    },
    {
      "inputs": [
        {
          "internalType": "address",
          "name": "",
          "type": "address"
        }
      ],
      "name": "signers",
      "outputs": [
        {
          "internalType": "bool",
          "name": "",
          "type": "bool"
        }
      ],
      "stateMutability": "view",
      "type": "function"
    },
    {
      "inputs": [
        {
          "internalType": "bytes4",
          "name": "interfaceId",
          "type": "bytes4"
        }
      ],
      "name": "supportsInterface",
      "outputs": [
        {
          "internalType": "bool",
          "name": "",
          "type": "bool"
        }
      ],
      "stateMutability": "view",
      "type": "function"
    },
    {
      "inputs": [],
      "name": "symbol",
      "outputs": [
        {
          "internalType": "string",
          "name": "",
          "type": "string"
        }
      ],
      "stateMutability": "view",
      "type": "function"
    },
    {
      "inputs": [
        {
          "internalType": "uint256",
          "name": "index",
          "type": "uint256"
        }
      ],
      "name": "tokenByIndex",
      "outputs": [
        {
          "internalType": "uint256",
          "name": "",
          "type": "uint256"
        }
      ],
      "stateMutability": "view",
      "type": "function"
    },
    {
      "inputs": [
        {
          "internalType": "address",
          "name": "owner",
          "type": "address"
        },
        {
          "internalType": "uint256",
          "name": "index",
          "type": "uint256"
        }
      ],
      "name": "tokenOfOwnerByIndex",
      "outputs": [
        {
          "internalType": "uint256",
          "name": "",
          "type": "uint256"
        }
      ],
      "stateMutability": "view",
      "type": "function"
    },
    {
      "inputs": [
        {
          "internalType": "uint256",
          "name": "tokenId",
          "type": "uint256"
        }
      ],
      "name": "tokenType",
      "outputs": [
        {
          "internalType": "uint256",
          "name": "",
          "type": "uint256"
        }
      ],
      "stateMutability": "view",
      "type": "function"
    },
    {
      "inputs": [
        {
          "internalType": "uint256",
          "name": "tokenId",
          "type": "uint256"
        }
      ],
      "name": "tokenURI",
      "outputs": [
        {
          "internalType": "string",
          "name": "",
          "type": "string"
        }
      ],
      "stateMutability": "view",
      "type": "function"
    },
    {
      "inputs": [],
      "name": "totalSupply",
      "outputs": [
        {
          "internalType": "uint256",
          "name": "",
          "type": "uint256"
        }
      ],
      "stateMutability": "view",
      "type": "function"
    },
    {
      "inputs": [
        {
          "internalType": "address",
          "name": "from",
          "type": "address"
        },
        {
          "internalType": "address",
          "name": "to",
          "type": "address"
        },
        {
          "internalType": "uint256",
          "name": "tokenId",
          "type": "uint256"
        }
      ],
      "name": "transferFrom",
      "outputs": [],
      "stateMutability": "nonpayable",
      "type": "function"
    },
    {
      "inputs": [
        {
          "internalType": "address",
          "name": "newOwner",
          "type": "address"
        }
      ],
      "name": "transferOwnership",
      "outputs": [],
      "stateMutability": "nonpayable",
      "type": "function"
    },
    {
      "inputs": [],
      "name": "unPause",
      "outputs": [],
      "stateMutability": "nonpayable",
      "type": "function"
    },
    {
      "inputs": [
        {
          "internalType": "address",
          "name": "_signer",
          "type": "address"
        }
      ],
      "name": "addSigner",
      "outputs": [],
      "stateMutability": "nonpayable",
      "type": "function"
    },
    {
      "inputs": [
        {
          "internalType": "address",
          "name": "_signer",
          "type": "address"
        }
      ],
      "name": "removeSigner",
      "outputs": [],
      "stateMutability": "nonpayable",
      "type": "function"
    },
    {
      "inputs": [
        {
          "internalType": "uint256",
          "name": "_tokenType",
          "type": "uint256"
        },
        {
          "internalType": "uint256",
          "name": "tokenId",
          "type": "uint256"
        },
        {
          "internalType": "bytes",
          "name": "signature",
          "type": "bytes"
        }
      ],
      "name": "redeem",
      "outputs": [],
      "stateMutability": "nonpayable",
      "type": "function"
    }
  ],
  "bytecode": "0x6101206040523480156200001257600080fd5b506040518060400160405280600a81526020017f4f7262697461754e4654000000000000000000000000000000000000000000008152506040518060400160405280600181526020017f31000000000000000000000000000000000000000000000000000000000000008152506040518060400160405280600e81526020017f4f726269746175204552433732310000000000000000000000000000000000008152506040518060400160405280600781526020017f4f7262697461750000000000000000000000000000000000000000000000000081525081600090805190602001906200010392919062000300565b5080600190805190602001906200011c92919062000300565b5050506000600660006101000a81548160ff02191690831515021790555060006200014c620002bc60201b60201c565b905080600660016101000a81548173ffffffffffffffffffffffffffffffffffffffff021916908373ffffffffffffffffffffffffffffffffffffffff1602179055508073ffffffffffffffffffffffffffffffffffffffff16600073ffffffffffffffffffffffffffffffffffffffff167f8be0079c531659141344cd1fd0a4f28419497f9722a3daafe3b4186f6b6457e060405160405180910390a3506040518060400160405280601c81526020017f68747470733a2f2f6d657461646174612e6f7262697461752e696f2f00000000815250600890805190602001906200023892919062000300565b5060008280519060200120905060008280519060200120905060007f8b73c3c69bb8fe3d512ecc4cf759cc79239f7b179b0ffacaa9a75d522b39400f90508260c081815250508160e081815250504660a08181525050620002a1818484620002c460201b60201c565b608081815250508061010081815250505050505050620004ed565b600033905090565b60008383834630604051602001620002e1959493929190620003e3565b6040516020818303038152906040528051906020012090509392505050565b8280546200030e9062000488565b90600052602060002090601f0160209004810192826200033257600085556200037e565b82601f106200034d57805160ff19168380011785556200037e565b828001600101855582156200037e579182015b828111156200037d57825182559160200191906001019062000360565b5b5090506200038d919062000391565b5090565b5b80821115620003ac57600081600090555060010162000392565b5090565b620003bb8162000440565b82525050565b620003cc8162000454565b82525050565b620003dd816200047e565b82525050565b600060a082019050620003fa6000830188620003c1565b620004096020830187620003c1565b620004186040830186620003c1565b620004276060830185620003d2565b620004366080830184620003b0565b9695505050505050565b60006200044d826200045e565b9050919050565b6000819050919050565b600073ffffffffffffffffffffffffffffffffffffffff82169050919050565b6000819050919050565b60006002820490506001821680620004a157607f821691505b60208210811415620004b857620004b7620004be565b5b50919050565b7f4e487b7100000000000000000000000000000000000000000000000000000000600052602260045260246000fd5b60805160a05160c05160e05161010051614e9f620005326000396000612790015260006127d2015260006127b10152600061273d015260006127650152614e9f6000f3fe608060405234801561001057600080fd5b50600436106101cf5760003560e01c80636c0360eb11610104578063a22cb465116100a2578063e985e9c511610071578063e985e9c51461052c578063eb12d61e1461055c578063f2fde38b14610578578063f7b188a514610594576101cf565b8063a22cb46514610494578063b88d4fde146104b0578063c87b56dd146104cc578063e6c3b1f6146104fc576101cf565b8063736c0d5b116100de578063736c0d5b1461041e5780638456cb591461044e5780638da5cb5b1461045857806395d89b4114610476576101cf565b80636c0360eb146103c657806370a08231146103e4578063715018a614610414576101cf565b806323b872dd116101715780634f6ccce71161014b5780634f6ccce71461032c57806355f804b31461035c5780635c975abb146103785780636352211e14610396576101cf565b806323b872dd146102c45780632f745c59146102e057806342842e0e14610310576101cf565b8063081812fc116101ad578063081812fc1461023e578063095ea7b31461026e5780630e316ab71461028a57806318160ddd146102a6576101cf565b806301ffc9a7146101d45780630449015a1461020457806306fdde0314610220575b600080fd5b6101ee60048036038101906101e991906134e6565b61059e565b6040516101fb9190613d2f565b60405180910390f35b61021e600480360381019061021991906135a2565b610680565b005b6102286107e6565b6040516102359190613e27565b60405180910390f35b61025860048036038101906102539190613579565b610878565b6040516102659190613cc8565b60405180910390f35b610288600480360381019061028391906134aa565b6108fd565b005b6102a4600480360381019061029f919061333f565b610a15565b005b6102ae610b5c565b6040516102bb91906141e9565b60405180910390f35b6102de60048036038101906102d991906133a4565b610b69565b005b6102fa60048036038101906102f591906134aa565b610bc9565b60405161030791906141e9565b60405180910390f35b61032a600480360381019061032591906133a4565b610c6e565b005b61034660048036038101906103419190613579565b610c8e565b60405161035391906141e9565b60405180910390f35b61037660048036038101906103719190613538565b610d25565b005b610380610e03565b60405161038d9190613d2f565b60405180910390f35b6103b060048036038101906103ab9190613579565b610e1a565b6040516103bd9190613cc8565b60405180910390f35b6103ce610ecc565b6040516103db9190613e27565b60405180910390f35b6103fe60048036038101906103f9919061333f565b610f5e565b60405161040b91906141e9565b60405180910390f35b61041c611016565b005b6104386004803603810190610433919061333f565b611153565b6040516104459190613d2f565b60405180910390f35b610456611173565b005b6104606111f9565b60405161046d9190613cc8565b60405180910390f35b61047e611223565b60405161048b9190613e27565b60405180910390f35b6104ae60048036038101906104a9919061346e565b6112b5565b005b6104ca60048036038101906104c591906133f3565b611436565b005b6104e660048036038101906104e19190613579565b611498565b6040516104f39190613e27565b60405180910390f35b61051660048036038101906105119190613579565b6114aa565b60405161052391906141e9565b60405180910390f35b61054660048036038101906105419190613368565b61150f565b6040516105539190613d2f565b60405180910390f35b6105766004803603810190610571919061333f565b6115a3565b005b610592600480360381019061058d919061333f565b6116ea565b005b61059c611896565b005b60007f80ac58cd000000000000000000000000000000000000000000000000000000007bffffffffffffffffffffffffffffffffffffffffffffffffffffffff1916827bffffffffffffffffffffffffffffffffffffffffffffffffffffffff1916148061066957507f5b5e139f000000000000000000000000000000000000000000000000000000007bffffffffffffffffffffffffffffffffffffffffffffffffffffffff1916827bffffffffffffffffffffffffffffffffffffffffffffffffffffffff1916145b8061067957506106788261191c565b5b9050919050565b60006106da610690338787611996565b84848080601f016020809104026020016040519081016040528093929190818152602001838380828437600081840152601f19601f820116905080830192505050505050506119f6565b9050600d60008273ffffffffffffffffffffffffffffffffffffffff1673ffffffffffffffffffffffffffffffffffffffff16815260200190815260200160002060009054906101000a900460ff16610768576040517f08c379a000000000000000000000000000000000000000000000000000000000815260040161075f90614169565b60405180910390fd5b610773338587611a72565b503373ffffffffffffffffffffffffffffffffffffffff168173ffffffffffffffffffffffffffffffffffffffff167f1a1effb3f486d53928f54c4da28efff01ed9566be8c08809d1fa084dd048934b878787876040516107d79493929190614204565b60405180910390a35050505050565b6060600080546107f5906144b6565b80601f0160208091040260200160405190810160405280929190818152602001828054610821906144b6565b801561086e5780601f106108435761010080835404028352916020019161086e565b820191906000526020600020905b81548152906001019060200180831161085157829003601f168201915b5050505050905090565b600061088382611a92565b6108c2576040517f08c379a00000000000000000000000000000000000000000000000000000000081526004016108b9906140c9565b60405180910390fd5b6004600083815260200190815260200160002060009054906101000a900473ffffffffffffffffffffffffffffffffffffffff169050919050565b600061090882610e1a565b90508073ffffffffffffffffffffffffffffffffffffffff168373ffffffffffffffffffffffffffffffffffffffff161415610979576040517f08c379a000000000000000000000000000000000000000000000000000000000815260040161097090614149565b60405180910390fd5b8073ffffffffffffffffffffffffffffffffffffffff16610998611afe565b73ffffffffffffffffffffffffffffffffffffffff1614806109c757506109c6816109c1611afe565b61150f565b5b610a06576040517f08c379a00000000000000000000000000000000000000000000000000000000081526004016109fd90614029565b60405180910390fd5b610a108383611b06565b505050565b610a1d611afe565b73ffffffffffffffffffffffffffffffffffffffff16610a3b6111f9565b73ffffffffffffffffffffffffffffffffffffffff1614610a91576040517f08c379a0000000000000000000000000000000000000000000000000000000008152600401610a88906140e9565b60405180910390fd5b600073ffffffffffffffffffffffffffffffffffffffff168173ffffffffffffffffffffffffffffffffffffffff161415610b01576040517f08c379a0000000000000000000000000000000000000000000000000000000008152600401610af890613ec9565b60405180910390fd5b6000600d60008373ffffffffffffffffffffffffffffffffffffffff1673ffffffffffffffffffffffffffffffffffffffff16815260200190815260200160002060006101000a81548160ff02191690831515021790555050565b6000600b80549050905090565b610b7a610b74611afe565b82611bbf565b610bb9576040517f08c379a0000000000000000000000000000000000000000000000000000000008152600401610bb090614189565b60405180910390fd5b610bc4838383611c9d565b505050565b6000610bd483610f5e565b8210610c15576040517f08c379a0000000000000000000000000000000000000000000000000000000008152600401610c0c90613ee9565b60405180910390fd5b600960008473ffffffffffffffffffffffffffffffffffffffff1673ffffffffffffffffffffffffffffffffffffffff168152602001908152602001600020600083815260200190815260200160002054905092915050565b610c8983838360405180602001604052806000815250611436565b505050565b6000610c98610b5c565b8210610cd9576040517f08c379a0000000000000000000000000000000000000000000000000000000008152600401610cd0906141a9565b60405180910390fd5b600b8281548110610d13577f4e487b7100000000000000000000000000000000000000000000000000000000600052603260045260246000fd5b90600052602060002001549050919050565b610d2d611afe565b73ffffffffffffffffffffffffffffffffffffffff16610d4b6111f9565b73ffffffffffffffffffffffffffffffffffffffff1614610da1576040517f08c379a0000000000000000000000000000000000000000000000000000000008152600401610d98906140e9565b60405180910390fd5b610da9610e03565b15610de9576040517f08c379a0000000000000000000000000000000000000000000000000000000008152600401610de090614009565b60405180910390fd5b8060089080519060200190610dff929190613119565b5050565b6000600660009054906101000a900460ff16905090565b6000806002600084815260200190815260200160002060009054906101000a900473ffffffffffffffffffffffffffffffffffffffff169050600073ffffffffffffffffffffffffffffffffffffffff168173ffffffffffffffffffffffffffffffffffffffff161415610ec3576040517f08c379a0000000000000000000000000000000000000000000000000000000008152600401610eba90614069565b60405180910390fd5b80915050919050565b606060088054610edb906144b6565b80601f0160208091040260200160405190810160405280929190818152602001828054610f07906144b6565b8015610f545780601f10610f2957610100808354040283529160200191610f54565b820191906000526020600020905b815481529060010190602001808311610f3757829003601f168201915b5050505050905090565b60008073ffffffffffffffffffffffffffffffffffffffff168273ffffffffffffffffffffffffffffffffffffffff161415610fcf576040517f08c379a0000000000000000000000000000000000000000000000000000000008152600401610fc690614049565b60405180910390fd5b600360008373ffffffffffffffffffffffffffffffffffffffff1673ffffffffffffffffffffffffffffffffffffffff168152602001908152602001600020549050919050565b61101e611afe565b73ffffffffffffffffffffffffffffffffffffffff1661103c6111f9565b73ffffffffffffffffffffffffffffffffffffffff1614611092576040517f08c379a0000000000000000000000000000000000000000000000000000000008152600401611089906140e9565b60405180910390fd5b600073ffffffffffffffffffffffffffffffffffffffff16600660019054906101000a900473ffffffffffffffffffffffffffffffffffffffff1673ffffffffffffffffffffffffffffffffffffffff167f8be0079c531659141344cd1fd0a4f28419497f9722a3daafe3b4186f6b6457e060405160405180910390a36000600660016101000a81548173ffffffffffffffffffffffffffffffffffffffff021916908373ffffffffffffffffffffffffffffffffffffffff160217905550565b600d6020528060005260406000206000915054906101000a900460ff1681565b61117b611afe565b73ffffffffffffffffffffffffffffffffffffffff166111996111f9565b73ffffffffffffffffffffffffffffffffffffffff16146111ef576040517f08c379a00000000000000000000000000000000000000000000000000000000081526004016111e6906140e9565b60405180910390fd5b6111f7611ef9565b565b6000600660019054906101000a900473ffffffffffffffffffffffffffffffffffffffff16905090565b606060018054611232906144b6565b80601f016020809104026020016040519081016040528092919081815260200182805461125e906144b6565b80156112ab5780601f10611280576101008083540402835291602001916112ab565b820191906000526020600020905b81548152906001019060200180831161128e57829003601f168201915b5050505050905090565b6112bd611afe565b73ffffffffffffffffffffffffffffffffffffffff168273ffffffffffffffffffffffffffffffffffffffff16141561132b576040517f08c379a000000000000000000000000000000000000000000000000000000000815260040161132290613f89565b60405180910390fd5b8060056000611338611afe565b73ffffffffffffffffffffffffffffffffffffffff1673ffffffffffffffffffffffffffffffffffffffff16815260200190815260200160002060008473ffffffffffffffffffffffffffffffffffffffff1673ffffffffffffffffffffffffffffffffffffffff16815260200190815260200160002060006101000a81548160ff0219169083151502179055508173ffffffffffffffffffffffffffffffffffffffff166113e5611afe565b73ffffffffffffffffffffffffffffffffffffffff167f17307eab39ab6107e8899845ad3d59bd9653f200f220920489ca2b5937696c318360405161142a9190613d2f565b60405180910390a35050565b611447611441611afe565b83611bbf565b611486576040517f08c379a000000000000000000000000000000000000000000000000000000000815260040161147d90614189565b60405180910390fd5b61149284848484611f9c565b50505050565b60606114a382611ff8565b9050919050565b60006114b582611a92565b6114f4576040517f08c379a00000000000000000000000000000000000000000000000000000000081526004016114eb90613fa9565b60405180910390fd5b60076000838152602001908152602001600020549050919050565b6000600560008473ffffffffffffffffffffffffffffffffffffffff1673ffffffffffffffffffffffffffffffffffffffff16815260200190815260200160002060008373ffffffffffffffffffffffffffffffffffffffff1673ffffffffffffffffffffffffffffffffffffffff16815260200190815260200160002060009054906101000a900460ff16905092915050565b6115ab611afe565b73ffffffffffffffffffffffffffffffffffffffff166115c96111f9565b73ffffffffffffffffffffffffffffffffffffffff161461161f576040517f08c379a0000000000000000000000000000000000000000000000000000000008152600401611616906140e9565b60405180910390fd5b600073ffffffffffffffffffffffffffffffffffffffff168173ffffffffffffffffffffffffffffffffffffffff16141561168f576040517f08c379a000000000000000000000000000000000000000000000000000000000815260040161168690613ec9565b60405180910390fd5b6001600d60008373ffffffffffffffffffffffffffffffffffffffff1673ffffffffffffffffffffffffffffffffffffffff16815260200190815260200160002060006101000a81548160ff02191690831515021790555050565b6116f2611afe565b73ffffffffffffffffffffffffffffffffffffffff166117106111f9565b73ffffffffffffffffffffffffffffffffffffffff1614611766576040517f08c379a000000000000000000000000000000000000000000000000000000000815260040161175d906140e9565b60405180910390fd5b600073ffffffffffffffffffffffffffffffffffffffff168173ffffffffffffffffffffffffffffffffffffffff1614156117d6576040517f08c379a00000000000000000000000000000000000000000000000000000000081526004016117cd90613f29565b60405180910390fd5b8073ffffffffffffffffffffffffffffffffffffffff16600660019054906101000a900473ffffffffffffffffffffffffffffffffffffffff1673ffffffffffffffffffffffffffffffffffffffff167f8be0079c531659141344cd1fd0a4f28419497f9722a3daafe3b4186f6b6457e060405160405180910390a380600660016101000a81548173ffffffffffffffffffffffffffffffffffffffff021916908373ffffffffffffffffffffffffffffffffffffffff16021790555050565b61189e611afe565b73ffffffffffffffffffffffffffffffffffffffff166118bc6111f9565b73ffffffffffffffffffffffffffffffffffffffff1614611912576040517f08c379a0000000000000000000000000000000000000000000000000000000008152600401611909906140e9565b60405180910390fd5b61191a612091565b565b60007f780e9d63000000000000000000000000000000000000000000000000000000007bffffffffffffffffffffffffffffffffffffffffffffffffffffffff1916827bffffffffffffffffffffffffffffffffffffffffffffffffffffffff1916148061198f575061198e82612133565b5b9050919050565b60006119ed7fa4732447876d6b53cf98a066262c3b33dfc76d697f6cb9f17d23aa00fd485ebd8585856040516020016119d29493929190613d4a565b60405160208183030381529060405280519060200120612215565b90509392505050565b6000806040518060400160405280601c81526020017f19457468657265756d205369676e6564204d6573736167653a0a333200000000815250905060008185604051602001611a46929190613c2d565b604051602081830303815290604052805190602001209050611a68818561222f565b9250505092915050565b6000611a7e84836122f9565b611a888284612317565b8190509392505050565b60008073ffffffffffffffffffffffffffffffffffffffff166002600084815260200190815260200160002060009054906101000a900473ffffffffffffffffffffffffffffffffffffffff1673ffffffffffffffffffffffffffffffffffffffff1614159050919050565b600033905090565b816004600083815260200190815260200160002060006101000a81548173ffffffffffffffffffffffffffffffffffffffff021916908373ffffffffffffffffffffffffffffffffffffffff160217905550808273ffffffffffffffffffffffffffffffffffffffff16611b7983610e1a565b73ffffffffffffffffffffffffffffffffffffffff167f8c5be1e5ebec7d5bd14f71427d1e84f3dd0314c0f7b2291e5b200ac8c7c3b92560405160405180910390a45050565b6000611bca82611a92565b611c09576040517f08c379a0000000000000000000000000000000000000000000000000000000008152600401611c0090613fe9565b60405180910390fd5b6000611c1483610e1a565b90508073ffffffffffffffffffffffffffffffffffffffff168473ffffffffffffffffffffffffffffffffffffffff161480611c8357508373ffffffffffffffffffffffffffffffffffffffff16611c6b84610878565b73ffffffffffffffffffffffffffffffffffffffff16145b80611c945750611c93818561150f565b5b91505092915050565b8273ffffffffffffffffffffffffffffffffffffffff16611cbd82610e1a565b73ffffffffffffffffffffffffffffffffffffffff1614611d13576040517f08c379a0000000000000000000000000000000000000000000000000000000008152600401611d0a90614109565b60405180910390fd5b600073ffffffffffffffffffffffffffffffffffffffff168273ffffffffffffffffffffffffffffffffffffffff161415611d83576040517f08c379a0000000000000000000000000000000000000000000000000000000008152600401611d7a90613f69565b60405180910390fd5b611d8e83838361237b565b611d99600082611b06565b6001600360008573ffffffffffffffffffffffffffffffffffffffff1673ffffffffffffffffffffffffffffffffffffffff1681526020019081526020016000206000828254611de991906143b5565b925050819055506001600360008473ffffffffffffffffffffffffffffffffffffffff1673ffffffffffffffffffffffffffffffffffffffff1681526020019081526020016000206000828254611e40919061432e565b92505081905550816002600083815260200190815260200160002060006101000a81548173ffffffffffffffffffffffffffffffffffffffff021916908373ffffffffffffffffffffffffffffffffffffffff160217905550808273ffffffffffffffffffffffffffffffffffffffff168473ffffffffffffffffffffffffffffffffffffffff167fddf252ad1be2c89b69c2b068fc378daa952ba7f163c4a11628f55a4df523b3ef60405160405180910390a4505050565b611f01610e03565b15611f41576040517f08c379a0000000000000000000000000000000000000000000000000000000008152600401611f3890614009565b60405180910390fd5b6001600660006101000a81548160ff0219169083151502179055507f62e78cea01bee320cd4e420270b5ea74000d11b0c9f74754ebdbfc544b05a258611f85611afe565b604051611f929190613cc8565b60405180910390a1565b611fa7848484611c9d565b611fb38484848461238b565b611ff2576040517f08c379a0000000000000000000000000000000000000000000000000000000008152600401611fe990613f09565b60405180910390fd5b50505050565b606061200382611a92565b612042576040517f08c379a000000000000000000000000000000000000000000000000000000000815260040161203990614129565b60405180910390fd5b60086120606007600085815260200190815260200160002054612522565b61206984612522565b60405160200161207b93929190613c55565b6040516020818303038152906040529050919050565b612099610e03565b6120d8576040517f08c379a00000000000000000000000000000000000000000000000000000000081526004016120cf90613e89565b60405180910390fd5b6000600660006101000a81548160ff0219169083151502179055507f5db9ee0a495bf2e6ff9c91a7834c1ba4fdd244a5e8aa4e537bd38aeae4b073aa61211c611afe565b6040516121299190613cc8565b60405180910390a1565b60007f80ac58cd000000000000000000000000000000000000000000000000000000007bffffffffffffffffffffffffffffffffffffffffffffffffffffffff1916827bffffffffffffffffffffffffffffffffffffffffffffffffffffffff191614806121fe57507f5b5e139f000000000000000000000000000000000000000000000000000000007bffffffffffffffffffffffffffffffffffffffffffffffffffffffff1916827bffffffffffffffffffffffffffffffffffffffffffffffffffffffff1916145b8061220e575061220d826126cf565b5b9050919050565b6000612228612222612739565b836127fc565b9050919050565b60008060008060418551141561225c576020850151925060408501519150606085015160001a90506122e2565b6040855114156122a6576040850151602086015193507f7fffffffffffffffffffffffffffffffffffffffffffffffffffffffffffffff81169250601b8160ff1c019150506122e1565b6040517f08c379a00000000000000000000000000000000000000000000000000000000081526004016122d890613ea9565b60405180910390fd5b5b6122ee8682858561282f565b935050505092915050565b6123138282604051806020016040528060008152506129ba565b5050565b61232082611a92565b61235f576040517f08c379a0000000000000000000000000000000000000000000000000000000008152600401612356906141c9565b60405180910390fd5b8060076000848152602001908152602001600020819055505050565b612386838383612a15565b505050565b60006123ac8473ffffffffffffffffffffffffffffffffffffffff16612b29565b15612515578373ffffffffffffffffffffffffffffffffffffffff1663150b7a026123d5611afe565b8786866040518563ffffffff1660e01b81526004016123f79493929190613ce3565b602060405180830381600087803b15801561241157600080fd5b505af192505050801561244257506040513d601f19601f8201168201806040525081019061243f919061350f565b60015b6124c5573d8060008114612472576040519150601f19603f3d011682016040523d82523d6000602084013e612477565b606091505b506000815114156124bd576040517f08c379a00000000000000000000000000000000000000000000000000000000081526004016124b490613f09565b60405180910390fd5b805181602001fd5b63150b7a0260e01b7bffffffffffffffffffffffffffffffffffffffffffffffffffffffff1916817bffffffffffffffffffffffffffffffffffffffffffffffffffffffff19161491505061251a565b600190505b949350505050565b6060600082141561256a576040518060400160405280600181526020017f300000000000000000000000000000000000000000000000000000000000000081525090506126ca565b600082905060005b6000821461259c57808061258590614519565b915050600a826125959190614384565b9150612572565b60008167ffffffffffffffff8111156125de577f4e487b7100000000000000000000000000000000000000000000000000000000600052604160045260246000fd5b6040519080825280601f01601f1916602001820160405280156126105781602001600182028036833780820191505090505b5090505b600085146126c35760018261262991906143b5565b9150600a85612638919061456c565b6030612644919061432e565b60f81b818381518110612680577f4e487b7100000000000000000000000000000000000000000000000000000000600052603260045260246000fd5b60200101907effffffffffffffffffffffffffffffffffffffffffffffffffffffffffffff1916908160001a905350600a856126bc9190614384565b9450612614565b8093505050505b919050565b60007f01ffc9a7000000000000000000000000000000000000000000000000000000007bffffffffffffffffffffffffffffffffffffffffffffffffffffffff1916827bffffffffffffffffffffffffffffffffffffffffffffffffffffffff1916149050919050565b60007f000000000000000000000000000000000000000000000000000000000000000046141561278b577f000000000000000000000000000000000000000000000000000000000000000090506127f9565b6127f67f00000000000000000000000000000000000000000000000000000000000000007f00000000000000000000000000000000000000000000000000000000000000007f0000000000000000000000000000000000000000000000000000000000000000612b3c565b90505b90565b60008282604051602001612811929190613c91565b60405160208183030381529060405280519060200120905092915050565b60007f7fffffffffffffffffffffffffffffff5d576e7357a4501ddfe92f46681b20a08260001c1115612897576040517f08c379a000000000000000000000000000000000000000000000000000000000815260040161288e90613fc9565b60405180910390fd5b601b8460ff1614806128ac5750601c8460ff16145b6128eb576040517f08c379a00000000000000000000000000000000000000000000000000000000081526004016128e290614089565b60405180910390fd5b6000600186868686604051600081526020016040526040516129109493929190613de2565b6020604051602081039080840390855afa158015612932573d6000803e3d6000fd5b505050602060405103519050600073ffffffffffffffffffffffffffffffffffffffff168173ffffffffffffffffffffffffffffffffffffffff1614156129ae576040517f08c379a00000000000000000000000000000000000000000000000000000000081526004016129a590613e49565b60405180910390fd5b80915050949350505050565b6129c48383612b76565b6129d1600084848461238b565b612a10576040517f08c379a0000000000000000000000000000000000000000000000000000000008152600401612a0790613f09565b60405180910390fd5b505050565b612a20838383612d44565b600073ffffffffffffffffffffffffffffffffffffffff168373ffffffffffffffffffffffffffffffffffffffff161415612a6357612a5e81612d9c565b612aa2565b8173ffffffffffffffffffffffffffffffffffffffff168373ffffffffffffffffffffffffffffffffffffffff1614612aa157612aa08382612de5565b5b5b600073ffffffffffffffffffffffffffffffffffffffff168273ffffffffffffffffffffffffffffffffffffffff161415612ae557612ae081612f52565b612b24565b8273ffffffffffffffffffffffffffffffffffffffff168273ffffffffffffffffffffffffffffffffffffffff1614612b2357612b228282613095565b5b5b505050565b600080823b905060008111915050919050565b60008383834630604051602001612b57959493929190613d8f565b6040516020818303038152906040528051906020012090509392505050565b600073ffffffffffffffffffffffffffffffffffffffff168273ffffffffffffffffffffffffffffffffffffffff161415612be6576040517f08c379a0000000000000000000000000000000000000000000000000000000008152600401612bdd906140a9565b60405180910390fd5b612bef81611a92565b15612c2f576040517f08c379a0000000000000000000000000000000000000000000000000000000008152600401612c2690613f49565b60405180910390fd5b612c3b6000838361237b565b6001600360008473ffffffffffffffffffffffffffffffffffffffff1673ffffffffffffffffffffffffffffffffffffffff1681526020019081526020016000206000828254612c8b919061432e565b92505081905550816002600083815260200190815260200160002060006101000a81548173ffffffffffffffffffffffffffffffffffffffff021916908373ffffffffffffffffffffffffffffffffffffffff160217905550808273ffffffffffffffffffffffffffffffffffffffff16600073ffffffffffffffffffffffffffffffffffffffff167fddf252ad1be2c89b69c2b068fc378daa952ba7f163c4a11628f55a4df523b3ef60405160405180910390a45050565b612d4f838383613114565b612d57610e03565b15612d97576040517f08c379a0000000000000000000000000000000000000000000000000000000008152600401612d8e90613e69565b60405180910390fd5b505050565b600b80549050600c600083815260200190815260200160002081905550600b81908060018154018082558091505060019003906000526020600020016000909190919091505550565b60006001612df284610f5e565b612dfc91906143b5565b90506000600a6000848152602001908152602001600020549050818114612ee1576000600960008673ffffffffffffffffffffffffffffffffffffffff1673ffffffffffffffffffffffffffffffffffffffff168152602001908152602001600020600084815260200190815260200160002054905080600960008773ffffffffffffffffffffffffffffffffffffffff1673ffffffffffffffffffffffffffffffffffffffff16815260200190815260200160002060008481526020019081526020016000208190555081600a600083815260200190815260200160002081905550505b600a600084815260200190815260200160002060009055600960008573ffffffffffffffffffffffffffffffffffffffff1673ffffffffffffffffffffffffffffffffffffffff16815260200190815260200160002060008381526020019081526020016000206000905550505050565b60006001600b80549050612f6691906143b5565b90506000600c60008481526020019081526020016000205490506000600b8381548110612fbc577f4e487b7100000000000000000000000000000000000000000000000000000000600052603260045260246000fd5b9060005260206000200154905080600b8381548110613004577f4e487b7100000000000000000000000000000000000000000000000000000000600052603260045260246000fd5b906000526020600020018190555081600c600083815260200190815260200160002081905550600c600085815260200190815260200160002060009055600b805480613079577f4e487b7100000000000000000000000000000000000000000000000000000000600052603160045260246000fd5b6001900381819060005260206000200160009055905550505050565b60006130a083610f5e565b905081600960008573ffffffffffffffffffffffffffffffffffffffff1673ffffffffffffffffffffffffffffffffffffffff16815260200190815260200160002060008381526020019081526020016000208190555080600a600084815260200190815260200160002081905550505050565b505050565b828054613125906144b6565b90600052602060002090601f016020900481019282613147576000855561318e565b82601f1061316057805160ff191683800117855561318e565b8280016001018555821561318e579182015b8281111561318d578251825591602001919060010190613172565b5b50905061319b919061319f565b5090565b5b808211156131b85760008160009055506001016131a0565b5090565b60006131cf6131ca84614269565b614244565b9050828152602081018484840111156131e757600080fd5b6131f2848285614474565b509392505050565b600061320d6132088461429a565b614244565b90508281526020810184848401111561322557600080fd5b613230848285614474565b509392505050565b60008135905061324781614e0d565b92915050565b60008135905061325c81614e24565b92915050565b60008135905061327181614e3b565b92915050565b60008151905061328681614e3b565b92915050565b60008083601f84011261329e57600080fd5b8235905067ffffffffffffffff8111156132b757600080fd5b6020830191508360018202830111156132cf57600080fd5b9250929050565b600082601f8301126132e757600080fd5b81356132f78482602086016131bc565b91505092915050565b600082601f83011261331157600080fd5b81356133218482602086016131fa565b91505092915050565b60008135905061333981614e52565b92915050565b60006020828403121561335157600080fd5b600061335f84828501613238565b91505092915050565b6000806040838503121561337b57600080fd5b600061338985828601613238565b925050602061339a85828601613238565b9150509250929050565b6000806000606084860312156133b957600080fd5b60006133c786828701613238565b93505060206133d886828701613238565b92505060406133e98682870161332a565b9150509250925092565b6000806000806080858703121561340957600080fd5b600061341787828801613238565b945050602061342887828801613238565b93505060406134398782880161332a565b925050606085013567ffffffffffffffff81111561345657600080fd5b613462878288016132d6565b91505092959194509250565b6000806040838503121561348157600080fd5b600061348f85828601613238565b92505060206134a08582860161324d565b9150509250929050565b600080604083850312156134bd57600080fd5b60006134cb85828601613238565b92505060206134dc8582860161332a565b9150509250929050565b6000602082840312156134f857600080fd5b600061350684828501613262565b91505092915050565b60006020828403121561352157600080fd5b600061352f84828501613277565b91505092915050565b60006020828403121561354a57600080fd5b600082013567ffffffffffffffff81111561356457600080fd5b61357084828501613300565b91505092915050565b60006020828403121561358b57600080fd5b60006135998482850161332a565b91505092915050565b600080600080606085870312156135b857600080fd5b60006135c68782880161332a565b94505060206135d78782880161332a565b935050604085013567ffffffffffffffff8111156135f457600080fd5b6136008782880161328c565b925092505092959194509250565b613617816143e9565b82525050565b613626816143fb565b82525050565b61363581614407565b82525050565b61364c61364782614407565b614562565b82525050565b600061365e83856142f6565b935061366b838584614474565b61367483614659565b840190509392505050565b600061368a826142e0565b61369481856142f6565b93506136a4818560208601614483565b6136ad81614659565b840191505092915050565b60006136c3826142e0565b6136cd8185614307565b93506136dd818560208601614483565b80840191505092915050565b60006136f4826142eb565b6136fe8185614312565b935061370e818560208601614483565b61371781614659565b840191505092915050565b600061372d826142eb565b6137378185614323565b9350613747818560208601614483565b80840191505092915050565b60008154613760816144b6565b61376a8186614323565b945060018216600081146137855760018114613796576137c9565b60ff198316865281860193506137c9565b61379f856142cb565b60005b838110156137c1578154818901526001820191506020810190506137a2565b838801955050505b50505092915050565b60006137df601883614312565b91506137ea8261466a565b602082019050919050565b6000613802602b83614312565b915061380d82614693565b604082019050919050565b6000613825601483614312565b9150613830826146e2565b602082019050919050565b6000613848601f83614312565b91506138538261470b565b602082019050919050565b600061386b601a83614312565b915061387682614734565b602082019050919050565b600061388e602b83614312565b91506138998261475d565b604082019050919050565b60006138b1603283614312565b91506138bc826147ac565b604082019050919050565b60006138d4602683614312565b91506138df826147fb565b604082019050919050565b60006138f7601c83614312565b91506139028261484a565b602082019050919050565b600061391a600283614323565b915061392582614873565b600282019050919050565b600061393d602483614312565b91506139488261489c565b604082019050919050565b6000613960601983614312565b915061396b826148eb565b602082019050919050565b6000613983603083614312565b915061398e82614914565b604082019050919050565b60006139a6602283614312565b91506139b182614963565b604082019050919050565b60006139c9602c83614312565b91506139d4826149b2565b604082019050919050565b60006139ec601083614312565b91506139f782614a01565b602082019050919050565b6000613a0f603883614312565b9150613a1a82614a2a565b604082019050919050565b6000613a32602a83614312565b9150613a3d82614a79565b604082019050919050565b6000613a55602983614312565b9150613a6082614ac8565b604082019050919050565b6000613a78602283614312565b9150613a8382614b17565b604082019050919050565b6000613a9b602083614312565b9150613aa682614b66565b602082019050919050565b6000613abe602c83614312565b9150613ac982614b8f565b604082019050919050565b6000613ae1602083614312565b9150613aec82614bde565b602082019050919050565b6000613b04602983614312565b9150613b0f82614c07565b604082019050919050565b6000613b27602f83614312565b9150613b3282614c56565b604082019050919050565b6000613b4a602183614312565b9150613b5582614ca5565b604082019050919050565b6000613b6d601583614312565b9150613b7882614cf4565b602082019050919050565b6000613b90603183614312565b9150613b9b82614d1d565b604082019050919050565b6000613bb3602c83614312565b9150613bbe82614d6c565b604082019050919050565b6000613bd6601483614312565b9150613be182614dbb565b602082019050919050565b6000613bf9600183614323565b9150613c0482614de4565b600182019050919050565b613c188161445d565b82525050565b613c2781614467565b82525050565b6000613c3982856136b8565b9150613c45828461363b565b6020820191508190509392505050565b6000613c618286613753565b9150613c6d8285613722565b9150613c7882613bec565b9150613c848284613722565b9150819050949350505050565b6000613c9c8261390d565b9150613ca8828561363b565b602082019150613cb8828461363b565b6020820191508190509392505050565b6000602082019050613cdd600083018461360e565b92915050565b6000608082019050613cf8600083018761360e565b613d05602083018661360e565b613d126040830185613c0f565b8181036060830152613d24818461367f565b905095945050505050565b6000602082019050613d44600083018461361d565b92915050565b6000608082019050613d5f600083018761362c565b613d6c602083018661360e565b613d796040830185613c0f565b613d866060830184613c0f565b95945050505050565b600060a082019050613da4600083018861362c565b613db1602083018761362c565b613dbe604083018661362c565b613dcb6060830185613c0f565b613dd8608083018461360e565b9695505050505050565b6000608082019050613df7600083018761362c565b613e046020830186613c1e565b613e11604083018561362c565b613e1e606083018461362c565b95945050505050565b60006020820190508181036000830152613e4181846136e9565b905092915050565b60006020820190508181036000830152613e62816137d2565b9050919050565b60006020820190508181036000830152613e82816137f5565b9050919050565b60006020820190508181036000830152613ea281613818565b9050919050565b60006020820190508181036000830152613ec28161383b565b9050919050565b60006020820190508181036000830152613ee28161385e565b9050919050565b60006020820190508181036000830152613f0281613881565b9050919050565b60006020820190508181036000830152613f22816138a4565b9050919050565b60006020820190508181036000830152613f42816138c7565b9050919050565b60006020820190508181036000830152613f62816138ea565b9050919050565b60006020820190508181036000830152613f8281613930565b9050919050565b60006020820190508181036000830152613fa281613953565b9050919050565b60006020820190508181036000830152613fc281613976565b9050919050565b60006020820190508181036000830152613fe281613999565b9050919050565b60006020820190508181036000830152614002816139bc565b9050919050565b60006020820190508181036000830152614022816139df565b9050919050565b6000602082019050818103600083015261404281613a02565b9050919050565b6000602082019050818103600083015261406281613a25565b9050919050565b6000602082019050818103600083015261408281613a48565b9050919050565b600060208201905081810360008301526140a281613a6b565b9050919050565b600060208201905081810360008301526140c281613a8e565b9050919050565b600060208201905081810360008301526140e281613ab1565b9050919050565b6000602082019050818103600083015261410281613ad4565b9050919050565b6000602082019050818103600083015261412281613af7565b9050919050565b6000602082019050818103600083015261414281613b1a565b9050919050565b6000602082019050818103600083015261416281613b3d565b9050919050565b6000602082019050818103600083015261418281613b60565b9050919050565b600060208201905081810360008301526141a281613b83565b9050919050565b600060208201905081810360008301526141c281613ba6565b9050919050565b600060208201905081810360008301526141e281613bc9565b9050919050565b60006020820190506141fe6000830184613c0f565b92915050565b60006060820190506142196000830187613c0f565b6142266020830186613c0f565b8181036040830152614239818486613652565b905095945050505050565b600061424e61425f565b905061425a82826144e8565b919050565b6000604051905090565b600067ffffffffffffffff8211156142845761428361462a565b5b61428d82614659565b9050602081019050919050565b600067ffffffffffffffff8211156142b5576142b461462a565b5b6142be82614659565b9050602081019050919050565b60008190508160005260206000209050919050565b600081519050919050565b600081519050919050565b600082825260208201905092915050565b600081905092915050565b600082825260208201905092915050565b600081905092915050565b60006143398261445d565b91506143448361445d565b9250827fffffffffffffffffffffffffffffffffffffffffffffffffffffffffffffffff038211156143795761437861459d565b5b828201905092915050565b600061438f8261445d565b915061439a8361445d565b9250826143aa576143a96145cc565b5b828204905092915050565b60006143c08261445d565b91506143cb8361445d565b9250828210156143de576143dd61459d565b5b828203905092915050565b60006143f48261443d565b9050919050565b60008115159050919050565b6000819050919050565b60007fffffffff0000000000000000000000000000000000000000000000000000000082169050919050565b600073ffffffffffffffffffffffffffffffffffffffff82169050919050565b6000819050919050565b600060ff82169050919050565b82818337600083830152505050565b60005b838110156144a1578082015181840152602081019050614486565b838111156144b0576000848401525b50505050565b600060028204905060018216806144ce57607f821691505b602082108114156144e2576144e16145fb565b5b50919050565b6144f182614659565b810181811067ffffffffffffffff821117156145105761450f61462a565b5b80604052505050565b60006145248261445d565b91507fffffffffffffffffffffffffffffffffffffffffffffffffffffffffffffffff8214156145575761455661459d565b5b600182019050919050565b6000819050919050565b60006145778261445d565b91506145828361445d565b925082614592576145916145cc565b5b828206905092915050565b7f4e487b7100000000000000000000000000000000000000000000000000000000600052601160045260246000fd5b7f4e487b7100000000000000000000000000000000000000000000000000000000600052601260045260246000fd5b7f4e487b7100000000000000000000000000000000000000000000000000000000600052602260045260246000fd5b7f4e487b7100000000000000000000000000000000000000000000000000000000600052604160045260246000fd5b6000601f19601f8301169050919050565b7f45434453413a20696e76616c6964207369676e61747572650000000000000000600082015250565b7f4552433732315061757361626c653a20746f6b656e207472616e73666572207760008201527f68696c6520706175736564000000000000000000000000000000000000000000602082015250565b7f5061757361626c653a206e6f7420706175736564000000000000000000000000600082015250565b7f45434453413a20696e76616c6964207369676e6174757265206c656e67746800600082015250565b7f4552525f5349474e45525f49535f5a45524f5f41444452455353000000000000600082015250565b7f455243373231456e756d657261626c653a206f776e657220696e646578206f7560008201527f74206f6620626f756e6473000000000000000000000000000000000000000000602082015250565b7f4552433732313a207472616e7366657220746f206e6f6e20455243373231526560008201527f63656976657220696d706c656d656e7465720000000000000000000000000000602082015250565b7f4f776e61626c653a206e6577206f776e657220697320746865207a65726f206160008201527f6464726573730000000000000000000000000000000000000000000000000000602082015250565b7f4552433732313a20746f6b656e20616c7265616479206d696e74656400000000600082015250565b7f1901000000000000000000000000000000000000000000000000000000000000600082015250565b7f4552433732313a207472616e7366657220746f20746865207a65726f2061646460008201527f7265737300000000000000000000000000000000000000000000000000000000602082015250565b7f4552433732313a20617070726f766520746f2063616c6c657200000000000000600082015250565b7f4552433732314d657461646174613a205479706520717565727920666f72206e60008201527f6f6e6578697374656e7420746f6b656e00000000000000000000000000000000602082015250565b7f45434453413a20696e76616c6964207369676e6174757265202773272076616c60008201527f7565000000000000000000000000000000000000000000000000000000000000602082015250565b7f4552433732313a206f70657261746f7220717565727920666f72206e6f6e657860008201527f697374656e7420746f6b656e0000000000000000000000000000000000000000602082015250565b7f5061757361626c653a2070617573656400000000000000000000000000000000600082015250565b7f4552433732313a20617070726f76652063616c6c6572206973206e6f74206f7760008201527f6e6572206e6f7220617070726f76656420666f7220616c6c0000000000000000602082015250565b7f4552433732313a2062616c616e636520717565727920666f7220746865207a6560008201527f726f206164647265737300000000000000000000000000000000000000000000602082015250565b7f4552433732313a206f776e657220717565727920666f72206e6f6e657869737460008201527f656e7420746f6b656e0000000000000000000000000000000000000000000000602082015250565b7f45434453413a20696e76616c6964207369676e6174757265202776272076616c60008201527f7565000000000000000000000000000000000000000000000000000000000000602082015250565b7f4552433732313a206d696e7420746f20746865207a65726f2061646472657373600082015250565b7f4552433732313a20617070726f76656420717565727920666f72206e6f6e657860008201527f697374656e7420746f6b656e0000000000000000000000000000000000000000602082015250565b7f4f776e61626c653a2063616c6c6572206973206e6f7420746865206f776e6572600082015250565b7f4552433732313a207472616e73666572206f6620746f6b656e2074686174206960008201527f73206e6f74206f776e0000000000000000000000000000000000000000000000602082015250565b7f4552433732314d657461646174613a2055524920717565727920666f72206e6f60008201527f6e6578697374656e7420746f6b656e0000000000000000000000000000000000602082015250565b7f4552433732313a20617070726f76616c20746f2063757272656e74206f776e6560008201527f7200000000000000000000000000000000000000000000000000000000000000602082015250565b7f4552525f494e56414c49445f5349474e41545552450000000000000000000000600082015250565b7f4552433732313a207472616e736665722063616c6c6572206973206e6f74206f60008201527f776e6572206e6f7220617070726f766564000000000000000000000000000000602082015250565b7f455243373231456e756d657261626c653a20676c6f62616c20696e646578206f60008201527f7574206f6620626f756e64730000000000000000000000000000000000000000602082015250565b7f544f4b454e5f49445f4e4f545f45584953544544000000000000000000000000600082015250565b7f2f00000000000000000000000000000000000000000000000000000000000000600082015250565b614e16816143e9565b8114614e2157600080fd5b50565b614e2d816143fb565b8114614e3857600080fd5b50565b614e4481614411565b8114614e4f57600080fd5b50565b614e5b8161445d565b8114614e6657600080fd5b5056fea2646970667358221220fa58e225e4165001cd57f6cc23cc82bc0c51c2d612014efdc67643cf22482f6164736f6c63430008040033",
  "immutableReferences": {
    "11562": [
      {
        "length": 32,
        "start": 10085
      }
    ],
    "11564": [
      {
        "length": 32,
        "start": 10045
      }
    ],
    "11566": [
      {
        "length": 32,
        "start": 10161
      }
    ],
    "11568": [
      {
        "length": 32,
        "start": 10194
      }
    ],
    "11570": [
      {
        "length": 32,
        "start": 10128
      }
    ]
  },
  "source": "// SPDX-License-Identifier: UNLICENSED\r\n\r\npragma solidity 0.8.4;\r\n\r\nimport \"./OrbitauERC721Enumerable.sol\";\r\nimport \"../../lib/utils/cryptography/draft-EIP712.sol\";\r\n\r\ncontract OrbitauERC721LazyMint is OrbitauERC721Enumerable, EIP712 {    \r\n    mapping(address => bool) public signers;\r\n\r\n    string private constant SIGNING_DOMAIN = \"OrbitauNFT\";\r\n    string private constant SIGNATURE_VERSION = \"1\";\r\n\r\n    /**\r\n     * @dev Emitted when a pending token is redeemed in the lazy-minting protocol.\r\n     */\r\n    event Redeem(\r\n        address indexed signer,\r\n        address indexed redeemer,\r\n        uint256 _tokenType, uint256 tokenId,\r\n        bytes signature);\r\n\r\n    /**\r\n     * @dev Create a new OrbitauNFTLazyMint contract and and assign `DEFAULT_ADMIN_ROLE, MINTER_ROLE` for the creator.\r\n     * This construction function should be called from an exchange.\r\n     *\r\n     */\r\n    constructor() OrbitauERC721Enumerable() EIP712(SIGNING_DOMAIN, SIGNATURE_VERSION)\r\n    {}\r\n\r\n    function addSigner(address _signer) external onlyOwner {\r\n        require(_signer != address(0), \"ERR_SIGNER_IS_ZERO_ADDRESS\");\r\n        signers[_signer] = true;\r\n    }\r\n\r\n    function removeSigner(address _signer) external onlyOwner {\r\n        require(_signer != address(0), \"ERR_SIGNER_IS_ZERO_ADDRESS\");\r\n        signers[_signer] = false;\r\n    }\r\n\r\n    function redeem(uint256 _tokenType, uint256 tokenId, bytes calldata signature)\r\n    external\r\n    {\r\n        address _signer = _verify(_hash(msg.sender, _tokenType, tokenId), signature);\r\n        \r\n        require(signers[_signer], \"ERR_INVALID_SIGNATURE\");\r\n\r\n        safeMint(msg.sender, tokenId, _tokenType);        \r\n\r\n        emit Redeem(_signer, msg.sender, _tokenType, tokenId, signature);\r\n    }\r\n\r\n    /// @notice Returns a hash of the given PendingNFT, prepared using EIP712 typed data hashing rules.\r\n    function _hash(address redeemer, uint256 _tokenType, uint256 tokenId)\r\n    internal view returns (bytes32)\r\n    {\r\n        return _hashTypedDataV4(keccak256(abi.encode(\r\n                keccak256(\"OrbitauNFT(address redeemer, uint256 _tokenType, uint256 tokenId)\"),\r\n                redeemer,\r\n                _tokenType,\r\n                tokenId\r\n            )));\r\n    }\r\n\r\n    /**\r\n     * @dev Returns the signer for a pair of digested message and signature.\r\n     */\r\n    function _verify(bytes32 digest, bytes memory signature)\r\n    internal pure returns (address)\r\n    {\r\n        bytes memory prefix = \"\\x19Ethereum Signed Message:\\n32\";\r\n        bytes32 prefixedHash = keccak256(abi.encodePacked(prefix, digest));\r\n        return ECDSA.recover(prefixedHash, signature);\r\n    }\r\n}\r\n",
  "sourcePath": "D:\\0xTaureum\\github\\orbitau-smart-contract\\contracts\\tokens\\ERC721\\OrbitauERC721LazyMint.sol",
  "compiler": {
    "name": "solc",
    "version": "0.8.4+commit.c7e474f2.Emscripten.clang"
  },
  "schemaVersion": "3.4.3",
  "updatedAt": "2021-09-12T08:10:55.083Z",
  "devdoc": {
    "events": {
      "Redeem(address,address,uint256,uint256,bytes)": {
        "details": "Emitted when a pending token is redeemed in the lazy-minting protocol."
      }
    },
    "kind": "dev",
    "methods": {
      "approve(address,uint256)": {
        "details": "See {IERC721-approve}."
      },
      "balanceOf(address)": {
        "details": "See {IERC721-balanceOf}."
      },
      "baseURI()": {
        "details": "Returns `__baseURI`."
      },
      "constructor": {
        "details": "Create a new OrbitauNFTLazyMint contract and and assign `DEFAULT_ADMIN_ROLE, MINTER_ROLE` for the creator. This construction function should be called from an exchange."
      },
      "getApproved(uint256)": {
        "details": "See {IERC721-getApproved}."
      },
      "isApprovedForAll(address,address)": {
        "details": "See {IERC721-isApprovedForAll}."
      },
      "name()": {
        "details": "See {IERC721Metadata-name}."
      },
      "owner()": {
        "details": "Returns the address of the current owner."
      },
      "ownerOf(uint256)": {
        "details": "See {IERC721-ownerOf}."
      },
      "pause()": {
        "details": "Pause the contract in case of bugs/attacks."
      },
      "paused()": {
        "details": "Returns true if the contract is paused, and false otherwise."
      },
      "renounceOwnership()": {
        "details": "Leaves the contract without owner. It will not be possible to call `onlyOwner` functions anymore. Can only be called by the current owner. NOTE: Renouncing ownership will leave the contract without an owner, thereby removing any functionality that is only available to the owner."
      },
      "safeTransferFrom(address,address,uint256)": {
        "details": "See {IERC721-safeTransferFrom}."
      },
      "safeTransferFrom(address,address,uint256,bytes)": {
        "details": "See {IERC721-safeTransferFrom}."
      },
      "setApprovalForAll(address,bool)": {
        "details": "See {IERC721-setApprovalForAll}."
      },
      "setBaseURI(string)": {
        "details": "Sets new value for the `__baseURI`. This operation can only been done by the owner of this contract."
      },
      "supportsInterface(bytes4)": {
        "details": "See {IERC165-supportsInterface}."
      },
      "symbol()": {
        "details": "See {IERC721Metadata-symbol}."
      },
      "tokenByIndex(uint256)": {
        "details": "See {IERC721Enumerable-tokenByIndex}."
      },
      "tokenOfOwnerByIndex(address,uint256)": {
        "details": "See {IERC721Enumerable-tokenOfOwnerByIndex}."
      },
      "tokenURI(uint256)": {
        "details": "See {IERC721Metadata-tokenURI}."
      },
      "totalSupply()": {
        "details": "See {IERC721Enumerable-totalSupply}."
      },
      "transferFrom(address,address,uint256)": {
        "details": "See {IERC721-transferFrom}."
      },
      "transferOwnership(address)": {
        "details": "Transfers ownership of the contract to a new account (`newOwner`). Can only be called by the current owner."
      },
      "unPause()": {
        "details": "Resume the contract after being paused."
      }
    },
    "version": 1
  },
  "userdoc": {
    "kind": "user",
    "methods": {
      "pause()": {
        "notice": "Only the owner can call this method."
      },
      "unPause()": {
        "notice": "Only the owner can call this method."
      }
    },
    "version": 1
  }
}