{
  "contractName": "OrbitauERC721",
  "abi": [
    {
      "inputs": [],
      "stateMutability": "nonpayable",
      "type": "constructor"
    },
    {
      "anonymous": false,
      "inputs": [
        {
          "indexed": true,
          "internalType": "address",
          "name": "owner",
          "type": "address"
        },
        {
          "indexed": true,
          "internalType": "address",
          "name": "approved",
          "type": "address"
        },
        {
          "indexed": true,
          "internalType": "uint256",
          "name": "tokenId",
          "type": "uint256"
        }
      ],
      "name": "Approval",
      "type": "event"
    },
    {
      "anonymous": false,
      "inputs": [
        {
          "indexed": true,
          "internalType": "address",
          "name": "owner",
          "type": "address"
        },
        {
          "indexed": true,
          "internalType": "address",
          "name": "operator",
          "type": "address"
        },
        {
          "indexed": false,
          "internalType": "bool",
          "name": "approved",
          "type": "bool"
        }
      ],
      "name": "ApprovalForAll",
      "type": "event"
    },
    {
      "anonymous": false,
      "inputs": [
        {
          "indexed": true,
          "internalType": "address",
          "name": "owner",
          "type": "address"
        },
        {
          "indexed": false,
          "internalType": "uint256",
          "name": "tokenId",
          "type": "uint256"
        }
      ],
      "name": "Equip",
      "type": "event"
    },
    {
      "anonymous": false,
      "inputs": [
        {
          "indexed": true,
          "internalType": "address",
          "name": "previousOwner",
          "type": "address"
        },
        {
          "indexed": true,
          "internalType": "address",
          "name": "newOwner",
          "type": "address"
        }
      ],
      "name": "OwnershipTransferred",
      "type": "event"
    },
    {
      "anonymous": false,
      "inputs": [
        {
          "indexed": false,
          "internalType": "address",
          "name": "account",
          "type": "address"
        }
      ],
      "name": "Paused",
      "type": "event"
    },
    {
      "anonymous": false,
      "inputs": [
        {
          "indexed": true,
          "internalType": "address",
          "name": "owner",
          "type": "address"
        },
        {
          "indexed": false,
          "internalType": "uint256",
          "name": "tokenId",
          "type": "uint256"
        }
      ],
      "name": "Redeem",
      "type": "event"
    },
    {
      "anonymous": false,
      "inputs": [
        {
          "indexed": true,
          "internalType": "address",
          "name": "from",
          "type": "address"
        },
        {
          "indexed": true,
          "internalType": "address",
          "name": "to",
          "type": "address"
        },
        {
          "indexed": true,
          "internalType": "uint256",
          "name": "tokenId",
          "type": "uint256"
        }
      ],
      "name": "Transfer",
      "type": "event"
    },
    {
      "anonymous": false,
      "inputs": [
        {
          "indexed": false,
          "internalType": "address",
          "name": "account",
          "type": "address"
        }
      ],
      "name": "Unpaused",
      "type": "event"
    },
    {
      "inputs": [
        {
          "internalType": "address",
          "name": "to",
          "type": "address"
        },
        {
          "internalType": "uint256",
          "name": "tokenId",
          "type": "uint256"
        }
      ],
      "name": "approve",
      "outputs": [],
      "stateMutability": "nonpayable",
      "type": "function"
    },
    {
      "inputs": [
        {
          "internalType": "address",
          "name": "owner",
          "type": "address"
        }
      ],
      "name": "balanceOf",
      "outputs": [
        {
          "internalType": "uint256",
          "name": "",
          "type": "uint256"
        }
      ],
      "stateMutability": "view",
      "type": "function"
    },
    {
      "inputs": [
        {
          "internalType": "uint256",
          "name": "tokenId",
          "type": "uint256"
        }
      ],
      "name": "getApproved",
      "outputs": [
        {
          "internalType": "address",
          "name": "",
          "type": "address"
        }
      ],
      "stateMutability": "view",
      "type": "function"
    },
    {
      "inputs": [
        {
          "internalType": "address",
          "name": "owner",
          "type": "address"
        },
        {
          "internalType": "address",
          "name": "operator",
          "type": "address"
        }
      ],
      "name": "isApprovedForAll",
      "outputs": [
        {
          "internalType": "bool",
          "name": "",
          "type": "bool"
        }
      ],
      "stateMutability": "view",
      "type": "function"
    },
    {
      "inputs": [],
      "name": "name",
      "outputs": [
        {
          "internalType": "string",
          "name": "",
          "type": "string"
        }
      ],
      "stateMutability": "view",
      "type": "function"
    },
    {
      "inputs": [],
      "name": "owner",
      "outputs": [
        {
          "internalType": "address",
          "name": "",
          "type": "address"
        }
      ],
      "stateMutability": "view",
      "type": "function"
    },
    {
      "inputs": [
        {
          "internalType": "uint256",
          "name": "tokenId",
          "type": "uint256"
        }
      ],
      "name": "ownerOf",
      "outputs": [
        {
          "internalType": "address",
          "name": "",
          "type": "address"
        }
      ],
      "stateMutability": "view",
      "type": "function"
    },
    {
      "inputs": [],
      "name": "paused",
      "outputs": [
        {
          "internalType": "bool",
          "name": "",
          "type": "bool"
        }
      ],
      "stateMutability": "view",
      "type": "function"
    },
    {
      "inputs": [],
      "name": "renounceOwnership",
      "outputs": [],
      "stateMutability": "nonpayable",
      "type": "function"
    },
    {
      "inputs": [
        {
          "internalType": "address",
          "name": "from",
          "type": "address"
        },
        {
          "internalType": "address",
          "name": "to",
          "type": "address"
        },
        {
          "internalType": "uint256",
          "name": "tokenId",
          "type": "uint256"
        }
      ],
      "name": "safeTransferFrom",
      "outputs": [],
      "stateMutability": "nonpayable",
      "type": "function"
    },
    {
      "inputs": [
        {
          "internalType": "address",
          "name": "from",
          "type": "address"
        },
        {
          "internalType": "address",
          "name": "to",
          "type": "address"
        },
        {
          "internalType": "uint256",
          "name": "tokenId",
          "type": "uint256"
        },
        {
          "internalType": "bytes",
          "name": "_data",
          "type": "bytes"
        }
      ],
      "name": "safeTransferFrom",
      "outputs": [],
      "stateMutability": "nonpayable",
      "type": "function"
    },
    {
      "inputs": [
        {
          "internalType": "address",
          "name": "operator",
          "type": "address"
        },
        {
          "internalType": "bool",
          "name": "approved",
          "type": "bool"
        }
      ],
      "name": "setApprovalForAll",
      "outputs": [],
      "stateMutability": "nonpayable",
      "type": "function"
    },
    {
      "inputs": [
        {
          "internalType": "bytes4",
          "name": "interfaceId",
          "type": "bytes4"
        }
      ],
      "name": "supportsInterface",
      "outputs": [
        {
          "internalType": "bool",
          "name": "",
          "type": "bool"
        }
      ],
      "stateMutability": "view",
      "type": "function"
    },
    {
      "inputs": [],
      "name": "symbol",
      "outputs": [
        {
          "internalType": "string",
          "name": "",
          "type": "string"
        }
      ],
      "stateMutability": "view",
      "type": "function"
    },
    {
      "inputs": [
        {
          "internalType": "address",
          "name": "from",
          "type": "address"
        },
        {
          "internalType": "address",
          "name": "to",
          "type": "address"
        },
        {
          "internalType": "uint256",
          "name": "tokenId",
          "type": "uint256"
        }
      ],
      "name": "transferFrom",
      "outputs": [],
      "stateMutability": "nonpayable",
      "type": "function"
    },
    {
      "inputs": [
        {
          "internalType": "address",
          "name": "newOwner",
          "type": "address"
        }
      ],
      "name": "transferOwnership",
      "outputs": [],
      "stateMutability": "nonpayable",
      "type": "function"
    },
    {
      "inputs": [],
      "name": "pause",
      "outputs": [],
      "stateMutability": "nonpayable",
      "type": "function"
    },
    {
      "inputs": [],
      "name": "unPause",
      "outputs": [],
      "stateMutability": "nonpayable",
      "type": "function"
    },
    {
      "inputs": [
        {
          "internalType": "uint256",
          "name": "tokenId",
          "type": "uint256"
        }
      ],
      "name": "tokenURI",
      "outputs": [
        {
          "internalType": "string",
          "name": "",
          "type": "string"
        }
      ],
      "stateMutability": "view",
      "type": "function"
    },
    {
      "inputs": [
        {
          "internalType": "uint256",
          "name": "tokenId",
          "type": "uint256"
        }
      ],
      "name": "isFreeze",
      "outputs": [
        {
          "internalType": "bool",
          "name": "",
          "type": "bool"
        }
      ],
      "stateMutability": "view",
      "type": "function"
    },
    {
      "inputs": [
        {
          "internalType": "string",
          "name": "newBaseURI",
          "type": "string"
        }
      ],
      "name": "setBaseURI",
      "outputs": [],
      "stateMutability": "nonpayable",
      "type": "function"
    },
    {
      "inputs": [],
      "name": "baseURI",
      "outputs": [
        {
          "internalType": "string",
          "name": "",
          "type": "string"
        }
      ],
      "stateMutability": "view",
      "type": "function"
    }
  ],
  "bytecode": "0x60806040523480156200001157600080fd5b506040518060400160405280600e81526020017f4f726269746175204552433732310000000000000000000000000000000000008152506040518060400160405280600781526020017f4f72626974617500000000000000000000000000000000000000000000000000815250816000908051906020019062000096929190620001da565b508060019080519060200190620000af929190620001da565b5050506000600660006101000a81548160ff0219169083151502179055506000620000df620001d260201b60201c565b905080600660016101000a81548173ffffffffffffffffffffffffffffffffffffffff021916908373ffffffffffffffffffffffffffffffffffffffff1602179055508073ffffffffffffffffffffffffffffffffffffffff16600073ffffffffffffffffffffffffffffffffffffffff167f8be0079c531659141344cd1fd0a4f28419497f9722a3daafe3b4186f6b6457e060405160405180910390a3506040518060400160405280601c81526020017f68747470733a2f2f6d657461646174612e6f7262697461752e696f2f0000000081525060089080519060200190620001cb929190620001da565b50620002ef565b600033905090565b828054620001e8906200028a565b90600052602060002090601f0160209004810192826200020c576000855562000258565b82601f106200022757805160ff191683800117855562000258565b8280016001018555821562000258579182015b82811115620002575782518255916020019190600101906200023a565b5b5090506200026791906200026b565b5090565b5b80821115620002865760008160009055506001016200026c565b5090565b60006002820490506001821680620002a357607f821691505b60208210811415620002ba57620002b9620002c0565b5b50919050565b7f4e487b7100000000000000000000000000000000000000000000000000000000600052602260045260246000fd5b61328b80620002ff6000396000f3fe608060405234801561001057600080fd5b50600436106101425760003560e01c806370a08231116100b8578063a22cb4651161007c578063a22cb46514610351578063b88d4fde1461036d578063c87b56dd14610389578063e985e9c5146103b9578063f2fde38b146103e9578063f7b188a51461040557610142565b806370a08231146102d1578063715018a6146103015780638456cb591461030b5780638da5cb5b1461031557806395d89b411461033357610142565b806323b872dd1161010a57806323b872dd1461021157806342842e0e1461022d57806355f804b3146102495780635c975abb146102655780636352211e146102835780636c0360eb146102b357610142565b806301ffc9a71461014757806306fdde0314610177578063081812fc14610195578063095ea7b3146101c557806323932b32146101e1575b600080fd5b610161600480360381019061015c91906120d3565b61040f565b60405161016e9190612602565b60405180910390f35b61017f6104f1565b60405161018c919061261d565b60405180910390f35b6101af60048036038101906101aa9190612166565b610583565b6040516101bc919061259b565b60405180910390f35b6101df60048036038101906101da9190612097565b610608565b005b6101fb60048036038101906101f69190612166565b610720565b6040516102089190612602565b60405180910390f35b61022b60048036038101906102269190611f91565b610792565b005b61024760048036038101906102429190611f91565b6107f2565b005b610263600480360381019061025e9190612125565b610812565b005b61026d6108f0565b60405161027a9190612602565b60405180910390f35b61029d60048036038101906102989190612166565b610907565b6040516102aa919061259b565b60405180910390f35b6102bb6109b9565b6040516102c8919061261d565b60405180910390f35b6102eb60048036038101906102e69190611f2c565b610a4b565b6040516102f8919061289f565b60405180910390f35b610309610b03565b005b610313610c40565b005b61031d610cc6565b60405161032a919061259b565b60405180910390f35b61033b610cf0565b604051610348919061261d565b60405180910390f35b61036b6004803603810190610366919061205b565b610d82565b005b61038760048036038101906103829190611fe0565b610f03565b005b6103a3600480360381019061039e9190612166565b610f65565b6040516103b0919061261d565b60405180910390f35b6103d360048036038101906103ce9190611f55565b610fe1565b6040516103e09190612602565b60405180910390f35b61040360048036038101906103fe9190611f2c565b611075565b005b61040d611221565b005b60007f80ac58cd000000000000000000000000000000000000000000000000000000007bffffffffffffffffffffffffffffffffffffffffffffffffffffffff1916827bffffffffffffffffffffffffffffffffffffffffffffffffffffffff191614806104da57507f5b5e139f000000000000000000000000000000000000000000000000000000007bffffffffffffffffffffffffffffffffffffffffffffffffffffffff1916827bffffffffffffffffffffffffffffffffffffffffffffffffffffffff1916145b806104ea57506104e9826112a7565b5b9050919050565b60606000805461050090612b0a565b80601f016020809104026020016040519081016040528092919081815260200182805461052c90612b0a565b80156105795780601f1061054e57610100808354040283529160200191610579565b820191906000526020600020905b81548152906001019060200180831161055c57829003601f168201915b5050505050905090565b600061058e82611311565b6105cd576040517f08c379a00000000000000000000000000000000000000000000000000000000081526004016105c4906127df565b60405180910390fd5b6004600083815260200190815260200160002060009054906101000a900473ffffffffffffffffffffffffffffffffffffffff169050919050565b600061061382610907565b90508073ffffffffffffffffffffffffffffffffffffffff168373ffffffffffffffffffffffffffffffffffffffff161415610684576040517f08c379a000000000000000000000000000000000000000000000000000000000815260040161067b9061285f565b60405180910390fd5b8073ffffffffffffffffffffffffffffffffffffffff166106a361137d565b73ffffffffffffffffffffffffffffffffffffffff1614806106d257506106d1816106cc61137d565b610fe1565b5b610711576040517f08c379a00000000000000000000000000000000000000000000000000000000081526004016107089061277f565b60405180910390fd5b61071b8383611385565b505050565b600061072b82611311565b61076a576040517f08c379a00000000000000000000000000000000000000000000000000000000081526004016107619061263f565b60405180910390fd5b6007600083815260200190815260200160002060009054906101000a900460ff169050919050565b6107a361079d61137d565b8261143e565b6107e2576040517f08c379a00000000000000000000000000000000000000000000000000000000081526004016107d99061287f565b60405180910390fd5b6107ed83838361151c565b505050565b61080d83838360405180602001604052806000815250610f03565b505050565b61081a61137d565b73ffffffffffffffffffffffffffffffffffffffff16610838610cc6565b73ffffffffffffffffffffffffffffffffffffffff161461088e576040517f08c379a0000000000000000000000000000000000000000000000000000000008152600401610885906127ff565b60405180910390fd5b6108966108f0565b156108d6576040517f08c379a00000000000000000000000000000000000000000000000000000000081526004016108cd9061275f565b60405180910390fd5b80600890805190602001906108ec929190611d50565b5050565b6000600660009054906101000a900460ff16905090565b6000806002600084815260200190815260200160002060009054906101000a900473ffffffffffffffffffffffffffffffffffffffff169050600073ffffffffffffffffffffffffffffffffffffffff168173ffffffffffffffffffffffffffffffffffffffff1614156109b0576040517f08c379a00000000000000000000000000000000000000000000000000000000081526004016109a7906127bf565b60405180910390fd5b80915050919050565b6060600880546109c890612b0a565b80601f01602080910402602001604051908101604052809291908181526020018280546109f490612b0a565b8015610a415780601f10610a1657610100808354040283529160200191610a41565b820191906000526020600020905b815481529060010190602001808311610a2457829003601f168201915b5050505050905090565b60008073ffffffffffffffffffffffffffffffffffffffff168273ffffffffffffffffffffffffffffffffffffffff161415610abc576040517f08c379a0000000000000000000000000000000000000000000000000000000008152600401610ab39061279f565b60405180910390fd5b600360008373ffffffffffffffffffffffffffffffffffffffff1673ffffffffffffffffffffffffffffffffffffffff168152602001908152602001600020549050919050565b610b0b61137d565b73ffffffffffffffffffffffffffffffffffffffff16610b29610cc6565b73ffffffffffffffffffffffffffffffffffffffff1614610b7f576040517f08c379a0000000000000000000000000000000000000000000000000000000008152600401610b76906127ff565b60405180910390fd5b600073ffffffffffffffffffffffffffffffffffffffff16600660019054906101000a900473ffffffffffffffffffffffffffffffffffffffff1673ffffffffffffffffffffffffffffffffffffffff167f8be0079c531659141344cd1fd0a4f28419497f9722a3daafe3b4186f6b6457e060405160405180910390a36000600660016101000a81548173ffffffffffffffffffffffffffffffffffffffff021916908373ffffffffffffffffffffffffffffffffffffffff160217905550565b610c4861137d565b73ffffffffffffffffffffffffffffffffffffffff16610c66610cc6565b73ffffffffffffffffffffffffffffffffffffffff1614610cbc576040517f08c379a0000000000000000000000000000000000000000000000000000000008152600401610cb3906127ff565b60405180910390fd5b610cc4611778565b565b6000600660019054906101000a900473ffffffffffffffffffffffffffffffffffffffff16905090565b606060018054610cff90612b0a565b80601f0160208091040260200160405190810160405280929190818152602001828054610d2b90612b0a565b8015610d785780601f10610d4d57610100808354040283529160200191610d78565b820191906000526020600020905b815481529060010190602001808311610d5b57829003601f168201915b5050505050905090565b610d8a61137d565b73ffffffffffffffffffffffffffffffffffffffff168273ffffffffffffffffffffffffffffffffffffffff161415610df8576040517f08c379a0000000000000000000000000000000000000000000000000000000008152600401610def9061271f565b60405180910390fd5b8060056000610e0561137d565b73ffffffffffffffffffffffffffffffffffffffff1673ffffffffffffffffffffffffffffffffffffffff16815260200190815260200160002060008473ffffffffffffffffffffffffffffffffffffffff1673ffffffffffffffffffffffffffffffffffffffff16815260200190815260200160002060006101000a81548160ff0219169083151502179055508173ffffffffffffffffffffffffffffffffffffffff16610eb261137d565b73ffffffffffffffffffffffffffffffffffffffff167f17307eab39ab6107e8899845ad3d59bd9653f200f220920489ca2b5937696c3183604051610ef79190612602565b60405180910390a35050565b610f14610f0e61137d565b8361143e565b610f53576040517f08c379a0000000000000000000000000000000000000000000000000000000008152600401610f4a9061287f565b60405180910390fd5b610f5f8484848461181b565b50505050565b6060610f7082611311565b610faf576040517f08c379a0000000000000000000000000000000000000000000000000000000008152600401610fa69061283f565b60405180910390fd5b6008610fba83611877565b604051602001610fcb929190612577565b6040516020818303038152906040529050919050565b6000600560008473ffffffffffffffffffffffffffffffffffffffff1673ffffffffffffffffffffffffffffffffffffffff16815260200190815260200160002060008373ffffffffffffffffffffffffffffffffffffffff1673ffffffffffffffffffffffffffffffffffffffff16815260200190815260200160002060009054906101000a900460ff16905092915050565b61107d61137d565b73ffffffffffffffffffffffffffffffffffffffff1661109b610cc6565b73ffffffffffffffffffffffffffffffffffffffff16146110f1576040517f08c379a00000000000000000000000000000000000000000000000000000000081526004016110e8906127ff565b60405180910390fd5b600073ffffffffffffffffffffffffffffffffffffffff168173ffffffffffffffffffffffffffffffffffffffff161415611161576040517f08c379a0000000000000000000000000000000000000000000000000000000008152600401611158906126df565b60405180910390fd5b8073ffffffffffffffffffffffffffffffffffffffff16600660019054906101000a900473ffffffffffffffffffffffffffffffffffffffff1673ffffffffffffffffffffffffffffffffffffffff167f8be0079c531659141344cd1fd0a4f28419497f9722a3daafe3b4186f6b6457e060405160405180910390a380600660016101000a81548173ffffffffffffffffffffffffffffffffffffffff021916908373ffffffffffffffffffffffffffffffffffffffff16021790555050565b61122961137d565b73ffffffffffffffffffffffffffffffffffffffff16611247610cc6565b73ffffffffffffffffffffffffffffffffffffffff161461129d576040517f08c379a0000000000000000000000000000000000000000000000000000000008152600401611294906127ff565b60405180910390fd5b6112a5611a24565b565b60007f01ffc9a7000000000000000000000000000000000000000000000000000000007bffffffffffffffffffffffffffffffffffffffffffffffffffffffff1916827bffffffffffffffffffffffffffffffffffffffffffffffffffffffff1916149050919050565b60008073ffffffffffffffffffffffffffffffffffffffff166002600084815260200190815260200160002060009054906101000a900473ffffffffffffffffffffffffffffffffffffffff1673ffffffffffffffffffffffffffffffffffffffff1614159050919050565b600033905090565b816004600083815260200190815260200160002060006101000a81548173ffffffffffffffffffffffffffffffffffffffff021916908373ffffffffffffffffffffffffffffffffffffffff160217905550808273ffffffffffffffffffffffffffffffffffffffff166113f883610907565b73ffffffffffffffffffffffffffffffffffffffff167f8c5be1e5ebec7d5bd14f71427d1e84f3dd0314c0f7b2291e5b200ac8c7c3b92560405160405180910390a45050565b600061144982611311565b611488576040517f08c379a000000000000000000000000000000000000000000000000000000000815260040161147f9061273f565b60405180910390fd5b600061149383610907565b90508073ffffffffffffffffffffffffffffffffffffffff168473ffffffffffffffffffffffffffffffffffffffff16148061150257508373ffffffffffffffffffffffffffffffffffffffff166114ea84610583565b73ffffffffffffffffffffffffffffffffffffffff16145b8061151357506115128185610fe1565b5b91505092915050565b8273ffffffffffffffffffffffffffffffffffffffff1661153c82610907565b73ffffffffffffffffffffffffffffffffffffffff1614611592576040517f08c379a00000000000000000000000000000000000000000000000000000000081526004016115899061281f565b60405180910390fd5b600073ffffffffffffffffffffffffffffffffffffffff168273ffffffffffffffffffffffffffffffffffffffff161415611602576040517f08c379a00000000000000000000000000000000000000000000000000000000081526004016115f9906126ff565b60405180910390fd5b61160d838383611ac6565b611618600082611385565b6001600360008573ffffffffffffffffffffffffffffffffffffffff1673ffffffffffffffffffffffffffffffffffffffff16815260200190815260200160002060008282546116689190612a20565b925050819055506001600360008473ffffffffffffffffffffffffffffffffffffffff1673ffffffffffffffffffffffffffffffffffffffff16815260200190815260200160002060008282546116bf9190612999565b92505081905550816002600083815260200190815260200160002060006101000a81548173ffffffffffffffffffffffffffffffffffffffff021916908373ffffffffffffffffffffffffffffffffffffffff160217905550808273ffffffffffffffffffffffffffffffffffffffff168473ffffffffffffffffffffffffffffffffffffffff167fddf252ad1be2c89b69c2b068fc378daa952ba7f163c4a11628f55a4df523b3ef60405160405180910390a4505050565b6117806108f0565b156117c0576040517f08c379a00000000000000000000000000000000000000000000000000000000081526004016117b79061275f565b60405180910390fd5b6001600660006101000a81548160ff0219169083151502179055507f62e78cea01bee320cd4e420270b5ea74000d11b0c9f74754ebdbfc544b05a25861180461137d565b604051611811919061259b565b60405180910390a1565b61182684848461151c565b61183284848484611b1e565b611871576040517f08c379a0000000000000000000000000000000000000000000000000000000008152600401611868906126bf565b60405180910390fd5b50505050565b606060008214156118bf576040518060400160405280600181526020017f30000000000000000000000000000000000000000000000000000000000000008152509050611a1f565b600082905060005b600082146118f15780806118da90612b6d565b915050600a826118ea91906129ef565b91506118c7565b60008167ffffffffffffffff811115611933577f4e487b7100000000000000000000000000000000000000000000000000000000600052604160045260246000fd5b6040519080825280601f01601f1916602001820160405280156119655781602001600182028036833780820191505090505b5090505b60008514611a185760018261197e9190612a20565b9150600a8561198d9190612bb6565b60306119999190612999565b60f81b8183815181106119d5577f4e487b7100000000000000000000000000000000000000000000000000000000600052603260045260246000fd5b60200101907effffffffffffffffffffffffffffffffffffffffffffffffffffffffffffff1916908160001a905350600a85611a1191906129ef565b9450611969565b8093505050505b919050565b611a2c6108f0565b611a6b576040517f08c379a0000000000000000000000000000000000000000000000000000000008152600401611a629061267f565b60405180910390fd5b6000600660006101000a81548160ff0219169083151502179055507f5db9ee0a495bf2e6ff9c91a7834c1ba4fdd244a5e8aa4e537bd38aeae4b073aa611aaf61137d565b604051611abc919061259b565b60405180910390a1565b611ad1838383611cb5565b611ada81611d0d565b611b19576040517f08c379a0000000000000000000000000000000000000000000000000000000008152600401611b109061269f565b60405180910390fd5b505050565b6000611b3f8473ffffffffffffffffffffffffffffffffffffffff16611d38565b15611ca8578373ffffffffffffffffffffffffffffffffffffffff1663150b7a02611b6861137d565b8786866040518563ffffffff1660e01b8152600401611b8a94939291906125b6565b602060405180830381600087803b158015611ba457600080fd5b505af1925050508015611bd557506040513d601f19601f82011682018060405250810190611bd291906120fc565b60015b611c58573d8060008114611c05576040519150601f19603f3d011682016040523d82523d6000602084013e611c0a565b606091505b50600081511415611c50576040517f08c379a0000000000000000000000000000000000000000000000000000000008152600401611c47906126bf565b60405180910390fd5b805181602001fd5b63150b7a0260e01b7bffffffffffffffffffffffffffffffffffffffffffffffffffffffff1916817bffffffffffffffffffffffffffffffffffffffffffffffffffffffff191614915050611cad565b600190505b949350505050565b611cc0838383611d4b565b611cc86108f0565b15611d08576040517f08c379a0000000000000000000000000000000000000000000000000000000008152600401611cff9061265f565b60405180910390fd5b505050565b60006007600083815260200190815260200160002060009054906101000a900460ff16159050919050565b600080823b905060008111915050919050565b505050565b828054611d5c90612b0a565b90600052602060002090601f016020900481019282611d7e5760008555611dc5565b82601f10611d9757805160ff1916838001178555611dc5565b82800160010185558215611dc5579182015b82811115611dc4578251825591602001919060010190611da9565b5b509050611dd29190611dd6565b5090565b5b80821115611def576000816000905550600101611dd7565b5090565b6000611e06611e01846128df565b6128ba565b905082815260208101848484011115611e1e57600080fd5b611e29848285612ac8565b509392505050565b6000611e44611e3f84612910565b6128ba565b905082815260208101848484011115611e5c57600080fd5b611e67848285612ac8565b509392505050565b600081359050611e7e816131f9565b92915050565b600081359050611e9381613210565b92915050565b600081359050611ea881613227565b92915050565b600081519050611ebd81613227565b92915050565b600082601f830112611ed457600080fd5b8135611ee4848260208601611df3565b91505092915050565b600082601f830112611efe57600080fd5b8135611f0e848260208601611e31565b91505092915050565b600081359050611f268161323e565b92915050565b600060208284031215611f3e57600080fd5b6000611f4c84828501611e6f565b91505092915050565b60008060408385031215611f6857600080fd5b6000611f7685828601611e6f565b9250506020611f8785828601611e6f565b9150509250929050565b600080600060608486031215611fa657600080fd5b6000611fb486828701611e6f565b9350506020611fc586828701611e6f565b9250506040611fd686828701611f17565b9150509250925092565b60008060008060808587031215611ff657600080fd5b600061200487828801611e6f565b945050602061201587828801611e6f565b935050604061202687828801611f17565b925050606085013567ffffffffffffffff81111561204357600080fd5b61204f87828801611ec3565b91505092959194509250565b6000806040838503121561206e57600080fd5b600061207c85828601611e6f565b925050602061208d85828601611e84565b9150509250929050565b600080604083850312156120aa57600080fd5b60006120b885828601611e6f565b92505060206120c985828601611f17565b9150509250929050565b6000602082840312156120e557600080fd5b60006120f384828501611e99565b91505092915050565b60006020828403121561210e57600080fd5b600061211c84828501611eae565b91505092915050565b60006020828403121561213757600080fd5b600082013567ffffffffffffffff81111561215157600080fd5b61215d84828501611eed565b91505092915050565b60006020828403121561217857600080fd5b600061218684828501611f17565b91505092915050565b61219881612a54565b82525050565b6121a781612a66565b82525050565b60006121b882612956565b6121c2818561296c565b93506121d2818560208601612ad7565b6121db81612ca3565b840191505092915050565b60006121f182612961565b6121fb818561297d565b935061220b818560208601612ad7565b61221481612ca3565b840191505092915050565b600061222a82612961565b612234818561298e565b9350612244818560208601612ad7565b80840191505092915050565b6000815461225d81612b0a565b612267818661298e565b945060018216600081146122825760018114612293576122c6565b60ff198316865281860193506122c6565b61229c85612941565b60005b838110156122be5781548189015260018201915060208101905061229f565b838801955050505b50505092915050565b60006122dc60328361297d565b91506122e782612cb4565b604082019050919050565b60006122ff602b8361297d565b915061230a82612d03565b604082019050919050565b600061232260148361297d565b915061232d82612d52565b602082019050919050565b6000612345602c8361297d565b915061235082612d7b565b604082019050919050565b600061236860328361297d565b915061237382612dca565b604082019050919050565b600061238b60268361297d565b915061239682612e19565b604082019050919050565b60006123ae60248361297d565b91506123b982612e68565b604082019050919050565b60006123d160198361297d565b91506123dc82612eb7565b602082019050919050565b60006123f4602c8361297d565b91506123ff82612ee0565b604082019050919050565b600061241760108361297d565b915061242282612f2f565b602082019050919050565b600061243a60388361297d565b915061244582612f58565b604082019050919050565b600061245d602a8361297d565b915061246882612fa7565b604082019050919050565b600061248060298361297d565b915061248b82612ff6565b604082019050919050565b60006124a3602c8361297d565b91506124ae82613045565b604082019050919050565b60006124c660208361297d565b91506124d182613094565b602082019050919050565b60006124e960298361297d565b91506124f4826130bd565b604082019050919050565b600061250c602f8361297d565b91506125178261310c565b604082019050919050565b600061252f60218361297d565b915061253a8261315b565b604082019050919050565b600061255260318361297d565b915061255d826131aa565b604082019050919050565b61257181612abe565b82525050565b60006125838285612250565b915061258f828461221f565b91508190509392505050565b60006020820190506125b0600083018461218f565b92915050565b60006080820190506125cb600083018761218f565b6125d8602083018661218f565b6125e56040830185612568565b81810360608301526125f781846121ad565b905095945050505050565b6000602082019050612617600083018461219e565b92915050565b6000602082019050818103600083015261263781846121e6565b905092915050565b60006020820190508181036000830152612658816122cf565b9050919050565b60006020820190508181036000830152612678816122f2565b9050919050565b6000602082019050818103600083015261269881612315565b9050919050565b600060208201905081810360008301526126b881612338565b9050919050565b600060208201905081810360008301526126d88161235b565b9050919050565b600060208201905081810360008301526126f88161237e565b9050919050565b60006020820190508181036000830152612718816123a1565b9050919050565b60006020820190508181036000830152612738816123c4565b9050919050565b60006020820190508181036000830152612758816123e7565b9050919050565b600060208201905081810360008301526127788161240a565b9050919050565b600060208201905081810360008301526127988161242d565b9050919050565b600060208201905081810360008301526127b881612450565b9050919050565b600060208201905081810360008301526127d881612473565b9050919050565b600060208201905081810360008301526127f881612496565b9050919050565b60006020820190508181036000830152612818816124b9565b9050919050565b60006020820190508181036000830152612838816124dc565b9050919050565b60006020820190508181036000830152612858816124ff565b9050919050565b6000602082019050818103600083015261287881612522565b9050919050565b6000602082019050818103600083015261289881612545565b9050919050565b60006020820190506128b46000830184612568565b92915050565b60006128c46128d5565b90506128d08282612b3c565b919050565b6000604051905090565b600067ffffffffffffffff8211156128fa576128f9612c74565b5b61290382612ca3565b9050602081019050919050565b600067ffffffffffffffff82111561292b5761292a612c74565b5b61293482612ca3565b9050602081019050919050565b60008190508160005260206000209050919050565b600081519050919050565b600081519050919050565b600082825260208201905092915050565b600082825260208201905092915050565b600081905092915050565b60006129a482612abe565b91506129af83612abe565b9250827fffffffffffffffffffffffffffffffffffffffffffffffffffffffffffffffff038211156129e4576129e3612be7565b5b828201905092915050565b60006129fa82612abe565b9150612a0583612abe565b925082612a1557612a14612c16565b5b828204905092915050565b6000612a2b82612abe565b9150612a3683612abe565b925082821015612a4957612a48612be7565b5b828203905092915050565b6000612a5f82612a9e565b9050919050565b60008115159050919050565b60007fffffffff0000000000000000000000000000000000000000000000000000000082169050919050565b600073ffffffffffffffffffffffffffffffffffffffff82169050919050565b6000819050919050565b82818337600083830152505050565b60005b83811015612af5578082015181840152602081019050612ada565b83811115612b04576000848401525b50505050565b60006002820490506001821680612b2257607f821691505b60208210811415612b3657612b35612c45565b5b50919050565b612b4582612ca3565b810181811067ffffffffffffffff82111715612b6457612b63612c74565b5b80604052505050565b6000612b7882612abe565b91507fffffffffffffffffffffffffffffffffffffffffffffffffffffffffffffffff821415612bab57612baa612be7565b5b600182019050919050565b6000612bc182612abe565b9150612bcc83612abe565b925082612bdc57612bdb612c16565b5b828206905092915050565b7f4e487b7100000000000000000000000000000000000000000000000000000000600052601160045260246000fd5b7f4e487b7100000000000000000000000000000000000000000000000000000000600052601260045260246000fd5b7f4e487b7100000000000000000000000000000000000000000000000000000000600052602260045260246000fd5b7f4e487b7100000000000000000000000000000000000000000000000000000000600052604160045260246000fd5b6000601f19601f8301169050919050565b7f4552433732314d657461646174613a20467265657a6520717565727920666f7260008201527f206e6f6e6578697374656e7420746f6b656e0000000000000000000000000000602082015250565b7f4552433732315061757361626c653a20746f6b656e207472616e73666572207760008201527f68696c6520706175736564000000000000000000000000000000000000000000602082015250565b7f5061757361626c653a206e6f7420706175736564000000000000000000000000600082015250565b7f4f7262697461754552433732313a20746f6b656e207472616e7366657220776860008201527f696c652065717569707065640000000000000000000000000000000000000000602082015250565b7f4552433732313a207472616e7366657220746f206e6f6e20455243373231526560008201527f63656976657220696d706c656d656e7465720000000000000000000000000000602082015250565b7f4f776e61626c653a206e6577206f776e657220697320746865207a65726f206160008201527f6464726573730000000000000000000000000000000000000000000000000000602082015250565b7f4552433732313a207472616e7366657220746f20746865207a65726f2061646460008201527f7265737300000000000000000000000000000000000000000000000000000000602082015250565b7f4552433732313a20617070726f766520746f2063616c6c657200000000000000600082015250565b7f4552433732313a206f70657261746f7220717565727920666f72206e6f6e657860008201527f697374656e7420746f6b656e0000000000000000000000000000000000000000602082015250565b7f5061757361626c653a2070617573656400000000000000000000000000000000600082015250565b7f4552433732313a20617070726f76652063616c6c6572206973206e6f74206f7760008201527f6e6572206e6f7220617070726f76656420666f7220616c6c0000000000000000602082015250565b7f4552433732313a2062616c616e636520717565727920666f7220746865207a6560008201527f726f206164647265737300000000000000000000000000000000000000000000602082015250565b7f4552433732313a206f776e657220717565727920666f72206e6f6e657869737460008201527f656e7420746f6b656e0000000000000000000000000000000000000000000000602082015250565b7f4552433732313a20617070726f76656420717565727920666f72206e6f6e657860008201527f697374656e7420746f6b656e0000000000000000000000000000000000000000602082015250565b7f4f776e61626c653a2063616c6c6572206973206e6f7420746865206f776e6572600082015250565b7f4552433732313a207472616e73666572206f6620746f6b656e2074686174206960008201527f73206e6f74206f776e0000000000000000000000000000000000000000000000602082015250565b7f4552433732314d657461646174613a2055524920717565727920666f72206e6f60008201527f6e6578697374656e7420746f6b656e0000000000000000000000000000000000602082015250565b7f4552433732313a20617070726f76616c20746f2063757272656e74206f776e6560008201527f7200000000000000000000000000000000000000000000000000000000000000602082015250565b7f4552433732313a207472616e736665722063616c6c6572206973206e6f74206f60008201527f776e6572206e6f7220617070726f766564000000000000000000000000000000602082015250565b61320281612a54565b811461320d57600080fd5b50565b61321981612a66565b811461322457600080fd5b50565b61323081612a72565b811461323b57600080fd5b50565b61324781612abe565b811461325257600080fd5b5056fea264697066735822122089963c41c6fb0d5f50fed3f360dcff647d9381cf3d86c74ad883894546fd3baa64736f6c63430008040033",
  "immutableReferences": {},
  "source": "// SPDX-License-Identifier: UNLICENSED\r\n\r\npragma solidity 0.8.4;\r\n\r\nimport \"../../lib/token/ERC721/ERC721.sol\";\r\nimport \"../../lib/access/Ownable.sol\";\r\nimport \"../../lib/security/Pausable.sol\";\r\nimport \"../../lib/token/ERC721/extensions/ERC721Pausable.sol\";\r\nimport \"../../lib/utils/Strings.sol\";\r\ncontract OrbitauERC721 is ERC721Pausable, Ownable {\r\n    using Strings for uint256;\r\n    \r\n    mapping(uint256 => bool) private _idFreeze;\r\n\r\n    /**\r\n     * @dev The base URI for all NFT.\r\n     */\r\n    string private __baseURI;\r\n    \r\n    /**\r\n     * @dev Emitted when a pending token is redeemed in the lazy-minting protocol.\r\n     */\r\n    event Redeem(address indexed owner, uint256 tokenId);\r\n    event Equip(address indexed owner, uint256 tokenId); \r\n    \r\n    function _transferable(uint256 tokenId) internal view virtual returns (bool) {\r\n        return !_idFreeze[tokenId];\r\n    }\r\n\r\n    /**\r\n     * @dev Create a new OrbitauERC721 contract.\r\n     *\r\n     */\r\n    constructor() ERC721(\"Orbitau ERC721\", \"Orbitau\") Ownable() Pausable() {\r\n        __baseURI = \"https://metadata.orbitau.io/\";\r\n    }\r\n\r\n    /**\r\n     * @dev Pause the contract in case of bugs/attacks.\r\n     * @notice Only the owner can call this method.\r\n     */\r\n    function pause() public onlyOwner {\r\n        _pause();\r\n    }\r\n\r\n    /**\r\n     * @dev Resume the contract after being paused.\r\n     * @notice Only the owner can call this method.\r\n     */\r\n    function unPause() public onlyOwner {\r\n        _unpause();\r\n    }\r\n\r\n    function equip(uint256 tokenId) internal virtual {\r\n        require(ownerOf(tokenId) == msg.sender, \"OrbitauERC721: equip caller is not owner nor approved\");\r\n        require(!_idFreeze[tokenId], \"OrbitauERC721: nft equipped\");\r\n        _idFreeze[tokenId] = true;\r\n        emit Equip(msg.sender, tokenId);\r\n    }\r\n    \r\n    function redeem(address redeemer, uint256 tokenId) internal virtual returns (uint256) {\r\n        if(_exists(tokenId)){\r\n            //require(ownerOf(tokenId) == msg.sender, \"OrbitauERC721: redeemer caller is not owner nor approved\");\r\n            //require(_idFreeze[tokenId], \"OrbitauERC721: nft redeemed\");\r\n            _idFreeze[tokenId] = false;\r\n        }else{\r\n            safeMint(redeemer, tokenId);\r\n        }\r\n        emit Redeem(redeemer, tokenId);\r\n        return tokenId;\r\n    }\r\n\r\n    function safeMint(\r\n        address to,\r\n        uint256 tokenId)\r\n    internal virtual\r\n    returns (uint256)\r\n    {\r\n        _safeMint(to, tokenId);\r\n        return tokenId;\r\n    }\r\n\r\n    function mint(address to, uint256 tokenId)\r\n    internal virtual\r\n    returns (uint256)\r\n    {\r\n        _mint(to, tokenId);\r\n        return tokenId;\r\n    }\r\n\r\n    /**\r\n     * @dev See {IERC721Metadata-tokenURI}.\r\n     */\r\n    function tokenURI(uint256 tokenId) public view virtual override returns (string memory) {\r\n        require(_exists(tokenId), \"ERC721Metadata: URI query for nonexistent token\");\r\n        return string(abi.encodePacked(__baseURI, tokenId.toString()));\r\n    }\r\n    \r\n    function isFreeze(uint256 tokenId) public view virtual returns (bool) {\r\n        require(_exists(tokenId), \"ERC721Metadata: Freeze query for nonexistent token\");\r\n        return _idFreeze[tokenId];\r\n    }\r\n    \r\n    /**\r\n     * @dev Sets new value for the `__baseURI`. This operation can only been done by the owner of this contract.\r\n     */\r\n    function setBaseURI(string memory newBaseURI) external onlyOwner whenNotPaused {\r\n        __baseURI = newBaseURI;\r\n    }\r\n\r\n    /**\r\n     * @dev Returns `__baseURI`.\r\n     */\r\n    function baseURI() external view returns(string memory) {\r\n        return __baseURI;\r\n    }\r\n    \r\n    /**\r\n     * @dev Base URI for computing {tokenURI}. If set, the resulting URI for each\r\n     * token will be the concatenation of the `baseURI` and the `tokenId`.\r\n     */\r\n    function _baseURI() internal view virtual override returns (string memory) {\r\n        return __baseURI;\r\n    }\r\n\r\n    function _beforeTokenTransfer(address from, address to, uint256 tokenId) internal virtual override (ERC721Pausable) {\r\n        ERC721Pausable._beforeTokenTransfer(from, to, tokenId);\r\n        require(_transferable(tokenId), \"OrbitauERC721: token transfer while equipped\");\r\n    }\r\n}\r\n",
  "sourcePath": "D:\\0xTaureum\\github\\orbitau-smart-contract\\contracts\\tokens\\ERC721\\OrbitauERC721.sol",
  "compiler": {
    "name": "solc",
    "version": "0.8.4+commit.c7e474f2.Emscripten.clang"
  },
  "schemaVersion": "3.4.3",
  "updatedAt": "2021-09-21T14:38:21.236Z",
  "devdoc": {
    "events": {
      "Redeem(address,uint256)": {
        "details": "Emitted when a pending token is redeemed in the lazy-minting protocol."
      }
    },
    "kind": "dev",
    "methods": {
      "approve(address,uint256)": {
        "details": "See {IERC721-approve}."
      },
      "balanceOf(address)": {
        "details": "See {IERC721-balanceOf}."
      },
      "baseURI()": {
        "details": "Returns `__baseURI`."
      },
      "constructor": {
        "details": "Create a new OrbitauERC721 contract."
      },
      "getApproved(uint256)": {
        "details": "See {IERC721-getApproved}."
      },
      "isApprovedForAll(address,address)": {
        "details": "See {IERC721-isApprovedForAll}."
      },
      "name()": {
        "details": "See {IERC721Metadata-name}."
      },
      "owner()": {
        "details": "Returns the address of the current owner."
      },
      "ownerOf(uint256)": {
        "details": "See {IERC721-ownerOf}."
      },
      "pause()": {
        "details": "Pause the contract in case of bugs/attacks."
      },
      "paused()": {
        "details": "Returns true if the contract is paused, and false otherwise."
      },
      "renounceOwnership()": {
        "details": "Leaves the contract without owner. It will not be possible to call `onlyOwner` functions anymore. Can only be called by the current owner. NOTE: Renouncing ownership will leave the contract without an owner, thereby removing any functionality that is only available to the owner."
      },
      "safeTransferFrom(address,address,uint256)": {
        "details": "See {IERC721-safeTransferFrom}."
      },
      "safeTransferFrom(address,address,uint256,bytes)": {
        "details": "See {IERC721-safeTransferFrom}."
      },
      "setApprovalForAll(address,bool)": {
        "details": "See {IERC721-setApprovalForAll}."
      },
      "setBaseURI(string)": {
        "details": "Sets new value for the `__baseURI`. This operation can only been done by the owner of this contract."
      },
      "supportsInterface(bytes4)": {
        "details": "See {IERC165-supportsInterface}."
      },
      "symbol()": {
        "details": "See {IERC721Metadata-symbol}."
      },
      "tokenURI(uint256)": {
        "details": "See {IERC721Metadata-tokenURI}."
      },
      "transferFrom(address,address,uint256)": {
        "details": "See {IERC721-transferFrom}."
      },
      "transferOwnership(address)": {
        "details": "Transfers ownership of the contract to a new account (`newOwner`). Can only be called by the current owner."
      },
      "unPause()": {
        "details": "Resume the contract after being paused."
      }
    },
    "stateVariables": {
      "__baseURI": {
        "details": "The base URI for all NFT."
      }
    },
    "version": 1
  },
  "userdoc": {
    "kind": "user",
    "methods": {
      "pause()": {
        "notice": "Only the owner can call this method."
      },
      "unPause()": {
        "notice": "Only the owner can call this method."
      }
    },
    "version": 1
  }
}