{
  "contractName": "OrbitauERC721Enumerable",
  "abi": [
    {
      "inputs": [],
      "stateMutability": "nonpayable",
      "type": "constructor"
    },
    {
      "anonymous": false,
      "inputs": [
        {
          "indexed": true,
          "internalType": "address",
          "name": "owner",
          "type": "address"
        },
        {
          "indexed": true,
          "internalType": "address",
          "name": "approved",
          "type": "address"
        },
        {
          "indexed": true,
          "internalType": "uint256",
          "name": "tokenId",
          "type": "uint256"
        }
      ],
      "name": "Approval",
      "type": "event"
    },
    {
      "anonymous": false,
      "inputs": [
        {
          "indexed": true,
          "internalType": "address",
          "name": "owner",
          "type": "address"
        },
        {
          "indexed": true,
          "internalType": "address",
          "name": "operator",
          "type": "address"
        },
        {
          "indexed": false,
          "internalType": "bool",
          "name": "approved",
          "type": "bool"
        }
      ],
      "name": "ApprovalForAll",
      "type": "event"
    },
    {
      "anonymous": false,
      "inputs": [
        {
          "indexed": true,
          "internalType": "address",
          "name": "owner",
          "type": "address"
        },
        {
          "indexed": false,
          "internalType": "uint256",
          "name": "tokenId",
          "type": "uint256"
        }
      ],
      "name": "Equip",
      "type": "event"
    },
    {
      "anonymous": false,
      "inputs": [
        {
          "indexed": true,
          "internalType": "address",
          "name": "previousOwner",
          "type": "address"
        },
        {
          "indexed": true,
          "internalType": "address",
          "name": "newOwner",
          "type": "address"
        }
      ],
      "name": "OwnershipTransferred",
      "type": "event"
    },
    {
      "anonymous": false,
      "inputs": [
        {
          "indexed": false,
          "internalType": "address",
          "name": "account",
          "type": "address"
        }
      ],
      "name": "Paused",
      "type": "event"
    },
    {
      "anonymous": false,
      "inputs": [
        {
          "indexed": true,
          "internalType": "address",
          "name": "owner",
          "type": "address"
        },
        {
          "indexed": false,
          "internalType": "uint256",
          "name": "tokenId",
          "type": "uint256"
        }
      ],
      "name": "Redeem",
      "type": "event"
    },
    {
      "anonymous": false,
      "inputs": [
        {
          "indexed": true,
          "internalType": "address",
          "name": "from",
          "type": "address"
        },
        {
          "indexed": true,
          "internalType": "address",
          "name": "to",
          "type": "address"
        },
        {
          "indexed": true,
          "internalType": "uint256",
          "name": "tokenId",
          "type": "uint256"
        }
      ],
      "name": "Transfer",
      "type": "event"
    },
    {
      "anonymous": false,
      "inputs": [
        {
          "indexed": false,
          "internalType": "address",
          "name": "account",
          "type": "address"
        }
      ],
      "name": "Unpaused",
      "type": "event"
    },
    {
      "inputs": [
        {
          "internalType": "address",
          "name": "to",
          "type": "address"
        },
        {
          "internalType": "uint256",
          "name": "tokenId",
          "type": "uint256"
        }
      ],
      "name": "approve",
      "outputs": [],
      "stateMutability": "nonpayable",
      "type": "function"
    },
    {
      "inputs": [
        {
          "internalType": "address",
          "name": "owner",
          "type": "address"
        }
      ],
      "name": "balanceOf",
      "outputs": [
        {
          "internalType": "uint256",
          "name": "",
          "type": "uint256"
        }
      ],
      "stateMutability": "view",
      "type": "function"
    },
    {
      "inputs": [],
      "name": "baseURI",
      "outputs": [
        {
          "internalType": "string",
          "name": "",
          "type": "string"
        }
      ],
      "stateMutability": "view",
      "type": "function"
    },
    {
      "inputs": [
        {
          "internalType": "uint256",
          "name": "tokenId",
          "type": "uint256"
        }
      ],
      "name": "getApproved",
      "outputs": [
        {
          "internalType": "address",
          "name": "",
          "type": "address"
        }
      ],
      "stateMutability": "view",
      "type": "function"
    },
    {
      "inputs": [
        {
          "internalType": "address",
          "name": "owner",
          "type": "address"
        },
        {
          "internalType": "address",
          "name": "operator",
          "type": "address"
        }
      ],
      "name": "isApprovedForAll",
      "outputs": [
        {
          "internalType": "bool",
          "name": "",
          "type": "bool"
        }
      ],
      "stateMutability": "view",
      "type": "function"
    },
    {
      "inputs": [],
      "name": "name",
      "outputs": [
        {
          "internalType": "string",
          "name": "",
          "type": "string"
        }
      ],
      "stateMutability": "view",
      "type": "function"
    },
    {
      "inputs": [],
      "name": "owner",
      "outputs": [
        {
          "internalType": "address",
          "name": "",
          "type": "address"
        }
      ],
      "stateMutability": "view",
      "type": "function"
    },
    {
      "inputs": [
        {
          "internalType": "uint256",
          "name": "tokenId",
          "type": "uint256"
        }
      ],
      "name": "ownerOf",
      "outputs": [
        {
          "internalType": "address",
          "name": "",
          "type": "address"
        }
      ],
      "stateMutability": "view",
      "type": "function"
    },
    {
      "inputs": [],
      "name": "pause",
      "outputs": [],
      "stateMutability": "nonpayable",
      "type": "function"
    },
    {
      "inputs": [],
      "name": "paused",
      "outputs": [
        {
          "internalType": "bool",
          "name": "",
          "type": "bool"
        }
      ],
      "stateMutability": "view",
      "type": "function"
    },
    {
      "inputs": [],
      "name": "renounceOwnership",
      "outputs": [],
      "stateMutability": "nonpayable",
      "type": "function"
    },
    {
      "inputs": [
        {
          "internalType": "address",
          "name": "from",
          "type": "address"
        },
        {
          "internalType": "address",
          "name": "to",
          "type": "address"
        },
        {
          "internalType": "uint256",
          "name": "tokenId",
          "type": "uint256"
        }
      ],
      "name": "safeTransferFrom",
      "outputs": [],
      "stateMutability": "nonpayable",
      "type": "function"
    },
    {
      "inputs": [
        {
          "internalType": "address",
          "name": "from",
          "type": "address"
        },
        {
          "internalType": "address",
          "name": "to",
          "type": "address"
        },
        {
          "internalType": "uint256",
          "name": "tokenId",
          "type": "uint256"
        },
        {
          "internalType": "bytes",
          "name": "_data",
          "type": "bytes"
        }
      ],
      "name": "safeTransferFrom",
      "outputs": [],
      "stateMutability": "nonpayable",
      "type": "function"
    },
    {
      "inputs": [
        {
          "internalType": "address",
          "name": "operator",
          "type": "address"
        },
        {
          "internalType": "bool",
          "name": "approved",
          "type": "bool"
        }
      ],
      "name": "setApprovalForAll",
      "outputs": [],
      "stateMutability": "nonpayable",
      "type": "function"
    },
    {
      "inputs": [
        {
          "internalType": "string",
          "name": "newBaseURI",
          "type": "string"
        }
      ],
      "name": "setBaseURI",
      "outputs": [],
      "stateMutability": "nonpayable",
      "type": "function"
    },
    {
      "inputs": [],
      "name": "symbol",
      "outputs": [
        {
          "internalType": "string",
          "name": "",
          "type": "string"
        }
      ],
      "stateMutability": "view",
      "type": "function"
    },
    {
      "inputs": [
        {
          "internalType": "uint256",
          "name": "index",
          "type": "uint256"
        }
      ],
      "name": "tokenByIndex",
      "outputs": [
        {
          "internalType": "uint256",
          "name": "",
          "type": "uint256"
        }
      ],
      "stateMutability": "view",
      "type": "function"
    },
    {
      "inputs": [
        {
          "internalType": "address",
          "name": "owner",
          "type": "address"
        },
        {
          "internalType": "uint256",
          "name": "index",
          "type": "uint256"
        }
      ],
      "name": "tokenOfOwnerByIndex",
      "outputs": [
        {
          "internalType": "uint256",
          "name": "",
          "type": "uint256"
        }
      ],
      "stateMutability": "view",
      "type": "function"
    },
    {
      "inputs": [],
      "name": "totalSupply",
      "outputs": [
        {
          "internalType": "uint256",
          "name": "",
          "type": "uint256"
        }
      ],
      "stateMutability": "view",
      "type": "function"
    },
    {
      "inputs": [
        {
          "internalType": "address",
          "name": "from",
          "type": "address"
        },
        {
          "internalType": "address",
          "name": "to",
          "type": "address"
        },
        {
          "internalType": "uint256",
          "name": "tokenId",
          "type": "uint256"
        }
      ],
      "name": "transferFrom",
      "outputs": [],
      "stateMutability": "nonpayable",
      "type": "function"
    },
    {
      "inputs": [
        {
          "internalType": "address",
          "name": "newOwner",
          "type": "address"
        }
      ],
      "name": "transferOwnership",
      "outputs": [],
      "stateMutability": "nonpayable",
      "type": "function"
    },
    {
      "inputs": [],
      "name": "unPause",
      "outputs": [],
      "stateMutability": "nonpayable",
      "type": "function"
    },
    {
      "inputs": [
        {
          "internalType": "bytes4",
          "name": "interfaceId",
          "type": "bytes4"
        }
      ],
      "name": "supportsInterface",
      "outputs": [
        {
          "internalType": "bool",
          "name": "",
          "type": "bool"
        }
      ],
      "stateMutability": "view",
      "type": "function"
    },
    {
      "inputs": [
        {
          "internalType": "uint256",
          "name": "tokenId",
          "type": "uint256"
        }
      ],
      "name": "tokenURI",
      "outputs": [
        {
          "internalType": "string",
          "name": "",
          "type": "string"
        }
      ],
      "stateMutability": "view",
      "type": "function"
    }
  ],
  "bytecode": "0x60806040523480156200001157600080fd5b506040518060400160405280600e81526020017f4f726269746175204552433732310000000000000000000000000000000000008152506040518060400160405280600781526020017f4f72626974617500000000000000000000000000000000000000000000000000815250816000908051906020019062000096929190620001da565b508060019080519060200190620000af929190620001da565b5050506000600660006101000a81548160ff0219169083151502179055506000620000df620001d260201b60201c565b905080600660016101000a81548173ffffffffffffffffffffffffffffffffffffffff021916908373ffffffffffffffffffffffffffffffffffffffff1602179055508073ffffffffffffffffffffffffffffffffffffffff16600073ffffffffffffffffffffffffffffffffffffffff167f8be0079c531659141344cd1fd0a4f28419497f9722a3daafe3b4186f6b6457e060405160405180910390a3506040518060400160405280601c81526020017f68747470733a2f2f6d657461646174612e6f7262697461752e696f2f0000000081525060089080519060200190620001cb929190620001da565b50620002ef565b600033905090565b828054620001e8906200028a565b90600052602060002090601f0160209004810192826200020c576000855562000258565b82601f106200022757805160ff191683800117855562000258565b8280016001018555821562000258579182015b82811115620002575782518255916020019190600101906200023a565b5b5090506200026791906200026b565b5090565b5b80821115620002865760008160009055506001016200026c565b5090565b60006002820490506001821680620002a357607f821691505b60208210811415620002ba57620002b9620002c0565b5b50919050565b7f4e487b7100000000000000000000000000000000000000000000000000000000600052602260045260246000fd5b613a6d80620002ff6000396000f3fe608060405234801561001057600080fd5b50600436106101585760003560e01c80636c0360eb116100c3578063a22cb4651161007c578063a22cb465146103b5578063b88d4fde146103d1578063c87b56dd146103ed578063e985e9c51461041d578063f2fde38b1461044d578063f7b188a51461046957610158565b80636c0360eb1461031757806370a0823114610335578063715018a6146103655780638456cb591461036f5780638da5cb5b1461037957806395d89b411461039757610158565b80632f745c59116101155780632f745c591461023157806342842e0e146102615780634f6ccce71461027d57806355f804b3146102ad5780635c975abb146102c95780636352211e146102e757610158565b806301ffc9a71461015d57806306fdde031461018d578063081812fc146101ab578063095ea7b3146101db57806318160ddd146101f757806323b872dd14610215575b600080fd5b61017760048036038101906101729190612823565b610473565b6040516101849190612d75565b60405180910390f35b610195610555565b6040516101a29190612d90565b60405180910390f35b6101c560048036038101906101c091906128b6565b6105e7565b6040516101d29190612d0e565b60405180910390f35b6101f560048036038101906101f091906127e7565b61066c565b005b6101ff610784565b60405161020c9190613032565b60405180910390f35b61022f600480360381019061022a91906126e1565b610791565b005b61024b600480360381019061024691906127e7565b6107f1565b6040516102589190613032565b60405180910390f35b61027b600480360381019061027691906126e1565b610896565b005b610297600480360381019061029291906128b6565b6108b6565b6040516102a49190613032565b60405180910390f35b6102c760048036038101906102c29190612875565b61094d565b005b6102d1610a2b565b6040516102de9190612d75565b60405180910390f35b61030160048036038101906102fc91906128b6565b610a42565b60405161030e9190612d0e565b60405180910390f35b61031f610af4565b60405161032c9190612d90565b60405180910390f35b61034f600480360381019061034a919061267c565b610b86565b60405161035c9190613032565b60405180910390f35b61036d610c3e565b005b610377610d7b565b005b610381610e01565b60405161038e9190612d0e565b60405180910390f35b61039f610e2b565b6040516103ac9190612d90565b60405180910390f35b6103cf60048036038101906103ca91906127ab565b610ebd565b005b6103eb60048036038101906103e69190612730565b61103e565b005b610407600480360381019061040291906128b6565b6110a0565b6040516104149190612d90565b60405180910390f35b610437600480360381019061043291906126a5565b6110b2565b6040516104449190612d75565b60405180910390f35b6104676004803603810190610462919061267c565b611146565b005b6104716112f2565b005b60007f80ac58cd000000000000000000000000000000000000000000000000000000007bffffffffffffffffffffffffffffffffffffffffffffffffffffffff1916827bffffffffffffffffffffffffffffffffffffffffffffffffffffffff1916148061053e57507f5b5e139f000000000000000000000000000000000000000000000000000000007bffffffffffffffffffffffffffffffffffffffffffffffffffffffff1916827bffffffffffffffffffffffffffffffffffffffffffffffffffffffff1916145b8061054e575061054d82611378565b5b9050919050565b6060600080546105649061329d565b80601f01602080910402602001604051908101604052809291908181526020018280546105909061329d565b80156105dd5780601f106105b2576101008083540402835291602001916105dd565b820191906000526020600020905b8154815290600101906020018083116105c057829003601f168201915b5050505050905090565b60006105f2826113f2565b610631576040517f08c379a000000000000000000000000000000000000000000000000000000000815260040161062890612f52565b60405180910390fd5b6004600083815260200190815260200160002060009054906101000a900473ffffffffffffffffffffffffffffffffffffffff169050919050565b600061067782610a42565b90508073ffffffffffffffffffffffffffffffffffffffff168373ffffffffffffffffffffffffffffffffffffffff1614156106e8576040517f08c379a00000000000000000000000000000000000000000000000000000000081526004016106df90612fd2565b60405180910390fd5b8073ffffffffffffffffffffffffffffffffffffffff1661070761145e565b73ffffffffffffffffffffffffffffffffffffffff16148061073657506107358161073061145e565b6110b2565b5b610775576040517f08c379a000000000000000000000000000000000000000000000000000000000815260040161076c90612ef2565b60405180910390fd5b61077f8383611466565b505050565b6000600b80549050905090565b6107a261079c61145e565b8261151f565b6107e1576040517f08c379a00000000000000000000000000000000000000000000000000000000081526004016107d890612ff2565b60405180910390fd5b6107ec8383836115fd565b505050565b60006107fc83610b86565b821061083d576040517f08c379a000000000000000000000000000000000000000000000000000000000815260040161083490612e12565b60405180910390fd5b600960008473ffffffffffffffffffffffffffffffffffffffff1673ffffffffffffffffffffffffffffffffffffffff168152602001908152602001600020600083815260200190815260200160002054905092915050565b6108b18383836040518060200160405280600081525061103e565b505050565b60006108c0610784565b8210610901576040517f08c379a00000000000000000000000000000000000000000000000000000000081526004016108f890613012565b60405180910390fd5b600b828154811061093b577f4e487b7100000000000000000000000000000000000000000000000000000000600052603260045260246000fd5b90600052602060002001549050919050565b61095561145e565b73ffffffffffffffffffffffffffffffffffffffff16610973610e01565b73ffffffffffffffffffffffffffffffffffffffff16146109c9576040517f08c379a00000000000000000000000000000000000000000000000000000000081526004016109c090612f72565b60405180910390fd5b6109d1610a2b565b15610a11576040517f08c379a0000000000000000000000000000000000000000000000000000000008152600401610a0890612ed2565b60405180910390fd5b8060089080519060200190610a279291906124a0565b5050565b6000600660009054906101000a900460ff16905090565b6000806002600084815260200190815260200160002060009054906101000a900473ffffffffffffffffffffffffffffffffffffffff169050600073ffffffffffffffffffffffffffffffffffffffff168173ffffffffffffffffffffffffffffffffffffffff161415610aeb576040517f08c379a0000000000000000000000000000000000000000000000000000000008152600401610ae290612f32565b60405180910390fd5b80915050919050565b606060088054610b039061329d565b80601f0160208091040260200160405190810160405280929190818152602001828054610b2f9061329d565b8015610b7c5780601f10610b5157610100808354040283529160200191610b7c565b820191906000526020600020905b815481529060010190602001808311610b5f57829003601f168201915b5050505050905090565b60008073ffffffffffffffffffffffffffffffffffffffff168273ffffffffffffffffffffffffffffffffffffffff161415610bf7576040517f08c379a0000000000000000000000000000000000000000000000000000000008152600401610bee90612f12565b60405180910390fd5b600360008373ffffffffffffffffffffffffffffffffffffffff1673ffffffffffffffffffffffffffffffffffffffff168152602001908152602001600020549050919050565b610c4661145e565b73ffffffffffffffffffffffffffffffffffffffff16610c64610e01565b73ffffffffffffffffffffffffffffffffffffffff1614610cba576040517f08c379a0000000000000000000000000000000000000000000000000000000008152600401610cb190612f72565b60405180910390fd5b600073ffffffffffffffffffffffffffffffffffffffff16600660019054906101000a900473ffffffffffffffffffffffffffffffffffffffff1673ffffffffffffffffffffffffffffffffffffffff167f8be0079c531659141344cd1fd0a4f28419497f9722a3daafe3b4186f6b6457e060405160405180910390a36000600660016101000a81548173ffffffffffffffffffffffffffffffffffffffff021916908373ffffffffffffffffffffffffffffffffffffffff160217905550565b610d8361145e565b73ffffffffffffffffffffffffffffffffffffffff16610da1610e01565b73ffffffffffffffffffffffffffffffffffffffff1614610df7576040517f08c379a0000000000000000000000000000000000000000000000000000000008152600401610dee90612f72565b60405180910390fd5b610dff611859565b565b6000600660019054906101000a900473ffffffffffffffffffffffffffffffffffffffff16905090565b606060018054610e3a9061329d565b80601f0160208091040260200160405190810160405280929190818152602001828054610e669061329d565b8015610eb35780601f10610e8857610100808354040283529160200191610eb3565b820191906000526020600020905b815481529060010190602001808311610e9657829003601f168201915b5050505050905090565b610ec561145e565b73ffffffffffffffffffffffffffffffffffffffff168273ffffffffffffffffffffffffffffffffffffffff161415610f33576040517f08c379a0000000000000000000000000000000000000000000000000000000008152600401610f2a90612e92565b60405180910390fd5b8060056000610f4061145e565b73ffffffffffffffffffffffffffffffffffffffff1673ffffffffffffffffffffffffffffffffffffffff16815260200190815260200160002060008473ffffffffffffffffffffffffffffffffffffffff1673ffffffffffffffffffffffffffffffffffffffff16815260200190815260200160002060006101000a81548160ff0219169083151502179055508173ffffffffffffffffffffffffffffffffffffffff16610fed61145e565b73ffffffffffffffffffffffffffffffffffffffff167f17307eab39ab6107e8899845ad3d59bd9653f200f220920489ca2b5937696c31836040516110329190612d75565b60405180910390a35050565b61104f61104961145e565b8361151f565b61108e576040517f08c379a000000000000000000000000000000000000000000000000000000000815260040161108590612ff2565b60405180910390fd5b61109a848484846118fc565b50505050565b60606110ab82611958565b9050919050565b6000600560008473ffffffffffffffffffffffffffffffffffffffff1673ffffffffffffffffffffffffffffffffffffffff16815260200190815260200160002060008373ffffffffffffffffffffffffffffffffffffffff1673ffffffffffffffffffffffffffffffffffffffff16815260200190815260200160002060009054906101000a900460ff16905092915050565b61114e61145e565b73ffffffffffffffffffffffffffffffffffffffff1661116c610e01565b73ffffffffffffffffffffffffffffffffffffffff16146111c2576040517f08c379a00000000000000000000000000000000000000000000000000000000081526004016111b990612f72565b60405180910390fd5b600073ffffffffffffffffffffffffffffffffffffffff168173ffffffffffffffffffffffffffffffffffffffff161415611232576040517f08c379a000000000000000000000000000000000000000000000000000000000815260040161122990612e52565b60405180910390fd5b8073ffffffffffffffffffffffffffffffffffffffff16600660019054906101000a900473ffffffffffffffffffffffffffffffffffffffff1673ffffffffffffffffffffffffffffffffffffffff167f8be0079c531659141344cd1fd0a4f28419497f9722a3daafe3b4186f6b6457e060405160405180910390a380600660016101000a81548173ffffffffffffffffffffffffffffffffffffffff021916908373ffffffffffffffffffffffffffffffffffffffff16021790555050565b6112fa61145e565b73ffffffffffffffffffffffffffffffffffffffff16611318610e01565b73ffffffffffffffffffffffffffffffffffffffff161461136e576040517f08c379a000000000000000000000000000000000000000000000000000000000815260040161136590612f72565b60405180910390fd5b6113766119d4565b565b60007f780e9d63000000000000000000000000000000000000000000000000000000007bffffffffffffffffffffffffffffffffffffffffffffffffffffffff1916827bffffffffffffffffffffffffffffffffffffffffffffffffffffffff191614806113eb57506113ea82611a76565b5b9050919050565b60008073ffffffffffffffffffffffffffffffffffffffff166002600084815260200190815260200160002060009054906101000a900473ffffffffffffffffffffffffffffffffffffffff1673ffffffffffffffffffffffffffffffffffffffff1614159050919050565b600033905090565b816004600083815260200190815260200160002060006101000a81548173ffffffffffffffffffffffffffffffffffffffff021916908373ffffffffffffffffffffffffffffffffffffffff160217905550808273ffffffffffffffffffffffffffffffffffffffff166114d983610a42565b73ffffffffffffffffffffffffffffffffffffffff167f8c5be1e5ebec7d5bd14f71427d1e84f3dd0314c0f7b2291e5b200ac8c7c3b92560405160405180910390a45050565b600061152a826113f2565b611569576040517f08c379a000000000000000000000000000000000000000000000000000000000815260040161156090612eb2565b60405180910390fd5b600061157483610a42565b90508073ffffffffffffffffffffffffffffffffffffffff168473ffffffffffffffffffffffffffffffffffffffff1614806115e357508373ffffffffffffffffffffffffffffffffffffffff166115cb846105e7565b73ffffffffffffffffffffffffffffffffffffffff16145b806115f457506115f381856110b2565b5b91505092915050565b8273ffffffffffffffffffffffffffffffffffffffff1661161d82610a42565b73ffffffffffffffffffffffffffffffffffffffff1614611673576040517f08c379a000000000000000000000000000000000000000000000000000000000815260040161166a90612f92565b60405180910390fd5b600073ffffffffffffffffffffffffffffffffffffffff168273ffffffffffffffffffffffffffffffffffffffff1614156116e3576040517f08c379a00000000000000000000000000000000000000000000000000000000081526004016116da90612e72565b60405180910390fd5b6116ee838383611b58565b6116f9600082611466565b6001600360008573ffffffffffffffffffffffffffffffffffffffff1673ffffffffffffffffffffffffffffffffffffffff168152602001908152602001600020600082825461174991906131b3565b925050819055506001600360008473ffffffffffffffffffffffffffffffffffffffff1673ffffffffffffffffffffffffffffffffffffffff16815260200190815260200160002060008282546117a0919061312c565b92505081905550816002600083815260200190815260200160002060006101000a81548173ffffffffffffffffffffffffffffffffffffffff021916908373ffffffffffffffffffffffffffffffffffffffff160217905550808273ffffffffffffffffffffffffffffffffffffffff168473ffffffffffffffffffffffffffffffffffffffff167fddf252ad1be2c89b69c2b068fc378daa952ba7f163c4a11628f55a4df523b3ef60405160405180910390a4505050565b611861610a2b565b156118a1576040517f08c379a000000000000000000000000000000000000000000000000000000000815260040161189890612ed2565b60405180910390fd5b6001600660006101000a81548160ff0219169083151502179055507f62e78cea01bee320cd4e420270b5ea74000d11b0c9f74754ebdbfc544b05a2586118e561145e565b6040516118f29190612d0e565b60405180910390a1565b6119078484846115fd565b61191384848484611b73565b611952576040517f08c379a000000000000000000000000000000000000000000000000000000000815260040161194990612e32565b60405180910390fd5b50505050565b6060611963826113f2565b6119a2576040517f08c379a000000000000000000000000000000000000000000000000000000000815260040161199990612fb2565b60405180910390fd5b60086119ad83611d0a565b6040516020016119be929190612cea565b6040516020818303038152906040529050919050565b6119dc610a2b565b611a1b576040517f08c379a0000000000000000000000000000000000000000000000000000000008152600401611a1290612dd2565b60405180910390fd5b6000600660006101000a81548160ff0219169083151502179055507f5db9ee0a495bf2e6ff9c91a7834c1ba4fdd244a5e8aa4e537bd38aeae4b073aa611a5f61145e565b604051611a6c9190612d0e565b60405180910390a1565b60007f80ac58cd000000000000000000000000000000000000000000000000000000007bffffffffffffffffffffffffffffffffffffffffffffffffffffffff1916827bffffffffffffffffffffffffffffffffffffffffffffffffffffffff19161480611b4157507f5b5e139f000000000000000000000000000000000000000000000000000000007bffffffffffffffffffffffffffffffffffffffffffffffffffffffff1916827bffffffffffffffffffffffffffffffffffffffffffffffffffffffff1916145b80611b515750611b5082611eb7565b5b9050919050565b611b63838383611f21565b611b6e838383611f79565b505050565b6000611b948473ffffffffffffffffffffffffffffffffffffffff1661208d565b15611cfd578373ffffffffffffffffffffffffffffffffffffffff1663150b7a02611bbd61145e565b8786866040518563ffffffff1660e01b8152600401611bdf9493929190612d29565b602060405180830381600087803b158015611bf957600080fd5b505af1925050508015611c2a57506040513d601f19601f82011682018060405250810190611c27919061284c565b60015b611cad573d8060008114611c5a576040519150601f19603f3d011682016040523d82523d6000602084013e611c5f565b606091505b50600081511415611ca5576040517f08c379a0000000000000000000000000000000000000000000000000000000008152600401611c9c90612e32565b60405180910390fd5b805181602001fd5b63150b7a0260e01b7bffffffffffffffffffffffffffffffffffffffffffffffffffffffff1916817bffffffffffffffffffffffffffffffffffffffffffffffffffffffff191614915050611d02565b600190505b949350505050565b60606000821415611d52576040518060400160405280600181526020017f30000000000000000000000000000000000000000000000000000000000000008152509050611eb2565b600082905060005b60008214611d84578080611d6d90613300565b915050600a82611d7d9190613182565b9150611d5a565b60008167ffffffffffffffff811115611dc6577f4e487b7100000000000000000000000000000000000000000000000000000000600052604160045260246000fd5b6040519080825280601f01601f191660200182016040528015611df85781602001600182028036833780820191505090505b5090505b60008514611eab57600182611e1191906131b3565b9150600a85611e209190613349565b6030611e2c919061312c565b60f81b818381518110611e68577f4e487b7100000000000000000000000000000000000000000000000000000000600052603260045260246000fd5b60200101907effffffffffffffffffffffffffffffffffffffffffffffffffffffffffffff1916908160001a905350600a85611ea49190613182565b9450611dfc565b8093505050505b919050565b60007f01ffc9a7000000000000000000000000000000000000000000000000000000007bffffffffffffffffffffffffffffffffffffffffffffffffffffffff1916827bffffffffffffffffffffffffffffffffffffffffffffffffffffffff1916149050919050565b611f2c8383836120a0565b611f35816120f8565b611f74576040517f08c379a0000000000000000000000000000000000000000000000000000000008152600401611f6b90612df2565b60405180910390fd5b505050565b611f84838383611f21565b600073ffffffffffffffffffffffffffffffffffffffff168373ffffffffffffffffffffffffffffffffffffffff161415611fc757611fc281612123565b612006565b8173ffffffffffffffffffffffffffffffffffffffff168373ffffffffffffffffffffffffffffffffffffffff161461200557612004838261216c565b5b5b600073ffffffffffffffffffffffffffffffffffffffff168273ffffffffffffffffffffffffffffffffffffffff16141561204957612044816122d9565b612088565b8273ffffffffffffffffffffffffffffffffffffffff168273ffffffffffffffffffffffffffffffffffffffff161461208757612086828261241c565b5b5b505050565b600080823b905060008111915050919050565b6120ab83838361249b565b6120b3610a2b565b156120f3576040517f08c379a00000000000000000000000000000000000000000000000000000000081526004016120ea90612db2565b60405180910390fd5b505050565b60006007600083815260200190815260200160002060009054906101000a900460ff16159050919050565b600b80549050600c600083815260200190815260200160002081905550600b81908060018154018082558091505060019003906000526020600020016000909190919091505550565b6000600161217984610b86565b61218391906131b3565b90506000600a6000848152602001908152602001600020549050818114612268576000600960008673ffffffffffffffffffffffffffffffffffffffff1673ffffffffffffffffffffffffffffffffffffffff168152602001908152602001600020600084815260200190815260200160002054905080600960008773ffffffffffffffffffffffffffffffffffffffff1673ffffffffffffffffffffffffffffffffffffffff16815260200190815260200160002060008481526020019081526020016000208190555081600a600083815260200190815260200160002081905550505b600a600084815260200190815260200160002060009055600960008573ffffffffffffffffffffffffffffffffffffffff1673ffffffffffffffffffffffffffffffffffffffff16815260200190815260200160002060008381526020019081526020016000206000905550505050565b60006001600b805490506122ed91906131b3565b90506000600c60008481526020019081526020016000205490506000600b8381548110612343577f4e487b7100000000000000000000000000000000000000000000000000000000600052603260045260246000fd5b9060005260206000200154905080600b838154811061238b577f4e487b7100000000000000000000000000000000000000000000000000000000600052603260045260246000fd5b906000526020600020018190555081600c600083815260200190815260200160002081905550600c600085815260200190815260200160002060009055600b805480612400577f4e487b7100000000000000000000000000000000000000000000000000000000600052603160045260246000fd5b6001900381819060005260206000200160009055905550505050565b600061242783610b86565b905081600960008573ffffffffffffffffffffffffffffffffffffffff1673ffffffffffffffffffffffffffffffffffffffff16815260200190815260200160002060008381526020019081526020016000208190555080600a600084815260200190815260200160002081905550505050565b505050565b8280546124ac9061329d565b90600052602060002090601f0160209004810192826124ce5760008555612515565b82601f106124e757805160ff1916838001178555612515565b82800160010185558215612515579182015b828111156125145782518255916020019190600101906124f9565b5b5090506125229190612526565b5090565b5b8082111561253f576000816000905550600101612527565b5090565b600061255661255184613072565b61304d565b90508281526020810184848401111561256e57600080fd5b61257984828561325b565b509392505050565b600061259461258f846130a3565b61304d565b9050828152602081018484840111156125ac57600080fd5b6125b784828561325b565b509392505050565b6000813590506125ce816139db565b92915050565b6000813590506125e3816139f2565b92915050565b6000813590506125f881613a09565b92915050565b60008151905061260d81613a09565b92915050565b600082601f83011261262457600080fd5b8135612634848260208601612543565b91505092915050565b600082601f83011261264e57600080fd5b813561265e848260208601612581565b91505092915050565b60008135905061267681613a20565b92915050565b60006020828403121561268e57600080fd5b600061269c848285016125bf565b91505092915050565b600080604083850312156126b857600080fd5b60006126c6858286016125bf565b92505060206126d7858286016125bf565b9150509250929050565b6000806000606084860312156126f657600080fd5b6000612704868287016125bf565b9350506020612715868287016125bf565b925050604061272686828701612667565b9150509250925092565b6000806000806080858703121561274657600080fd5b6000612754878288016125bf565b9450506020612765878288016125bf565b935050604061277687828801612667565b925050606085013567ffffffffffffffff81111561279357600080fd5b61279f87828801612613565b91505092959194509250565b600080604083850312156127be57600080fd5b60006127cc858286016125bf565b92505060206127dd858286016125d4565b9150509250929050565b600080604083850312156127fa57600080fd5b6000612808858286016125bf565b925050602061281985828601612667565b9150509250929050565b60006020828403121561283557600080fd5b6000612843848285016125e9565b91505092915050565b60006020828403121561285e57600080fd5b600061286c848285016125fe565b91505092915050565b60006020828403121561288757600080fd5b600082013567ffffffffffffffff8111156128a157600080fd5b6128ad8482850161263d565b91505092915050565b6000602082840312156128c857600080fd5b60006128d684828501612667565b91505092915050565b6128e8816131e7565b82525050565b6128f7816131f9565b82525050565b6000612908826130e9565b61291281856130ff565b935061292281856020860161326a565b61292b81613436565b840191505092915050565b6000612941826130f4565b61294b8185613110565b935061295b81856020860161326a565b61296481613436565b840191505092915050565b600061297a826130f4565b6129848185613121565b935061299481856020860161326a565b80840191505092915050565b600081546129ad8161329d565b6129b78186613121565b945060018216600081146129d257600181146129e357612a16565b60ff19831686528186019350612a16565b6129ec856130d4565b60005b83811015612a0e578154818901526001820191506020810190506129ef565b838801955050505b50505092915050565b6000612a2c602b83613110565b9150612a3782613447565b604082019050919050565b6000612a4f601483613110565b9150612a5a82613496565b602082019050919050565b6000612a72602c83613110565b9150612a7d826134bf565b604082019050919050565b6000612a95602b83613110565b9150612aa08261350e565b604082019050919050565b6000612ab8603283613110565b9150612ac38261355d565b604082019050919050565b6000612adb602683613110565b9150612ae6826135ac565b604082019050919050565b6000612afe602483613110565b9150612b09826135fb565b604082019050919050565b6000612b21601983613110565b9150612b2c8261364a565b602082019050919050565b6000612b44602c83613110565b9150612b4f82613673565b604082019050919050565b6000612b67601083613110565b9150612b72826136c2565b602082019050919050565b6000612b8a603883613110565b9150612b95826136eb565b604082019050919050565b6000612bad602a83613110565b9150612bb88261373a565b604082019050919050565b6000612bd0602983613110565b9150612bdb82613789565b604082019050919050565b6000612bf3602c83613110565b9150612bfe826137d8565b604082019050919050565b6000612c16602083613110565b9150612c2182613827565b602082019050919050565b6000612c39602983613110565b9150612c4482613850565b604082019050919050565b6000612c5c602f83613110565b9150612c678261389f565b604082019050919050565b6000612c7f602183613110565b9150612c8a826138ee565b604082019050919050565b6000612ca2603183613110565b9150612cad8261393d565b604082019050919050565b6000612cc5602c83613110565b9150612cd08261398c565b604082019050919050565b612ce481613251565b82525050565b6000612cf682856129a0565b9150612d02828461296f565b91508190509392505050565b6000602082019050612d2360008301846128df565b92915050565b6000608082019050612d3e60008301876128df565b612d4b60208301866128df565b612d586040830185612cdb565b8181036060830152612d6a81846128fd565b905095945050505050565b6000602082019050612d8a60008301846128ee565b92915050565b60006020820190508181036000830152612daa8184612936565b905092915050565b60006020820190508181036000830152612dcb81612a1f565b9050919050565b60006020820190508181036000830152612deb81612a42565b9050919050565b60006020820190508181036000830152612e0b81612a65565b9050919050565b60006020820190508181036000830152612e2b81612a88565b9050919050565b60006020820190508181036000830152612e4b81612aab565b9050919050565b60006020820190508181036000830152612e6b81612ace565b9050919050565b60006020820190508181036000830152612e8b81612af1565b9050919050565b60006020820190508181036000830152612eab81612b14565b9050919050565b60006020820190508181036000830152612ecb81612b37565b9050919050565b60006020820190508181036000830152612eeb81612b5a565b9050919050565b60006020820190508181036000830152612f0b81612b7d565b9050919050565b60006020820190508181036000830152612f2b81612ba0565b9050919050565b60006020820190508181036000830152612f4b81612bc3565b9050919050565b60006020820190508181036000830152612f6b81612be6565b9050919050565b60006020820190508181036000830152612f8b81612c09565b9050919050565b60006020820190508181036000830152612fab81612c2c565b9050919050565b60006020820190508181036000830152612fcb81612c4f565b9050919050565b60006020820190508181036000830152612feb81612c72565b9050919050565b6000602082019050818103600083015261300b81612c95565b9050919050565b6000602082019050818103600083015261302b81612cb8565b9050919050565b60006020820190506130476000830184612cdb565b92915050565b6000613057613068565b905061306382826132cf565b919050565b6000604051905090565b600067ffffffffffffffff82111561308d5761308c613407565b5b61309682613436565b9050602081019050919050565b600067ffffffffffffffff8211156130be576130bd613407565b5b6130c782613436565b9050602081019050919050565b60008190508160005260206000209050919050565b600081519050919050565b600081519050919050565b600082825260208201905092915050565b600082825260208201905092915050565b600081905092915050565b600061313782613251565b915061314283613251565b9250827fffffffffffffffffffffffffffffffffffffffffffffffffffffffffffffffff038211156131775761317661337a565b5b828201905092915050565b600061318d82613251565b915061319883613251565b9250826131a8576131a76133a9565b5b828204905092915050565b60006131be82613251565b91506131c983613251565b9250828210156131dc576131db61337a565b5b828203905092915050565b60006131f282613231565b9050919050565b60008115159050919050565b60007fffffffff0000000000000000000000000000000000000000000000000000000082169050919050565b600073ffffffffffffffffffffffffffffffffffffffff82169050919050565b6000819050919050565b82818337600083830152505050565b60005b8381101561328857808201518184015260208101905061326d565b83811115613297576000848401525b50505050565b600060028204905060018216806132b557607f821691505b602082108114156132c9576132c86133d8565b5b50919050565b6132d882613436565b810181811067ffffffffffffffff821117156132f7576132f6613407565b5b80604052505050565b600061330b82613251565b91507fffffffffffffffffffffffffffffffffffffffffffffffffffffffffffffffff82141561333e5761333d61337a565b5b600182019050919050565b600061335482613251565b915061335f83613251565b92508261336f5761336e6133a9565b5b828206905092915050565b7f4e487b7100000000000000000000000000000000000000000000000000000000600052601160045260246000fd5b7f4e487b7100000000000000000000000000000000000000000000000000000000600052601260045260246000fd5b7f4e487b7100000000000000000000000000000000000000000000000000000000600052602260045260246000fd5b7f4e487b7100000000000000000000000000000000000000000000000000000000600052604160045260246000fd5b6000601f19601f8301169050919050565b7f4552433732315061757361626c653a20746f6b656e207472616e73666572207760008201527f68696c6520706175736564000000000000000000000000000000000000000000602082015250565b7f5061757361626c653a206e6f7420706175736564000000000000000000000000600082015250565b7f4f7262697461754552433732313a20746f6b656e207472616e7366657220776860008201527f696c652065717569707065640000000000000000000000000000000000000000602082015250565b7f455243373231456e756d657261626c653a206f776e657220696e646578206f7560008201527f74206f6620626f756e6473000000000000000000000000000000000000000000602082015250565b7f4552433732313a207472616e7366657220746f206e6f6e20455243373231526560008201527f63656976657220696d706c656d656e7465720000000000000000000000000000602082015250565b7f4f776e61626c653a206e6577206f776e657220697320746865207a65726f206160008201527f6464726573730000000000000000000000000000000000000000000000000000602082015250565b7f4552433732313a207472616e7366657220746f20746865207a65726f2061646460008201527f7265737300000000000000000000000000000000000000000000000000000000602082015250565b7f4552433732313a20617070726f766520746f2063616c6c657200000000000000600082015250565b7f4552433732313a206f70657261746f7220717565727920666f72206e6f6e657860008201527f697374656e7420746f6b656e0000000000000000000000000000000000000000602082015250565b7f5061757361626c653a2070617573656400000000000000000000000000000000600082015250565b7f4552433732313a20617070726f76652063616c6c6572206973206e6f74206f7760008201527f6e6572206e6f7220617070726f76656420666f7220616c6c0000000000000000602082015250565b7f4552433732313a2062616c616e636520717565727920666f7220746865207a6560008201527f726f206164647265737300000000000000000000000000000000000000000000602082015250565b7f4552433732313a206f776e657220717565727920666f72206e6f6e657869737460008201527f656e7420746f6b656e0000000000000000000000000000000000000000000000602082015250565b7f4552433732313a20617070726f76656420717565727920666f72206e6f6e657860008201527f697374656e7420746f6b656e0000000000000000000000000000000000000000602082015250565b7f4f776e61626c653a2063616c6c6572206973206e6f7420746865206f776e6572600082015250565b7f4552433732313a207472616e73666572206f6620746f6b656e2074686174206960008201527f73206e6f74206f776e0000000000000000000000000000000000000000000000602082015250565b7f4552433732314d657461646174613a2055524920717565727920666f72206e6f60008201527f6e6578697374656e7420746f6b656e0000000000000000000000000000000000602082015250565b7f4552433732313a20617070726f76616c20746f2063757272656e74206f776e6560008201527f7200000000000000000000000000000000000000000000000000000000000000602082015250565b7f4552433732313a207472616e736665722063616c6c6572206973206e6f74206f60008201527f776e6572206e6f7220617070726f766564000000000000000000000000000000602082015250565b7f455243373231456e756d657261626c653a20676c6f62616c20696e646578206f60008201527f7574206f6620626f756e64730000000000000000000000000000000000000000602082015250565b6139e4816131e7565b81146139ef57600080fd5b50565b6139fb816131f9565b8114613a0657600080fd5b50565b613a1281613205565b8114613a1d57600080fd5b50565b613a2981613251565b8114613a3457600080fd5b5056fea26469706673582212209007874e2575d052912e39c57aa89435b612052e1afef8378ef5fd7a8cd4508d64736f6c63430008040033",
  "immutableReferences": {},
  "source": "// SPDX-License-Identifier: UNLICENSED\r\n\r\npragma solidity ^0.8.4;\r\n\r\nimport \"./OrbitauERC721.sol\";\r\nimport \"../../lib/token/ERC721/extensions/ERC721Enumerable.sol\";\r\n\r\ncontract OrbitauERC721Enumerable is OrbitauERC721, ERC721Enumerable {\r\n    /**\r\n     * @dev Create a new OrbitauERC721Enumerable contract.\r\n     *\r\n     */\r\n    constructor() OrbitauERC721() {}\r\n\r\n    /**\r\n     * @dev See {IERC165-supportsInterface}.\r\n     */\r\n    function supportsInterface(bytes4 interfaceId) public view virtual override(ERC721, ERC721Enumerable) returns (bool) {\r\n        return\r\n        interfaceId == type(IERC721).interfaceId ||\r\n        interfaceId == type(IERC721Metadata).interfaceId ||\r\n        ERC721Enumerable.supportsInterface(interfaceId);\r\n    }\r\n\r\n    /**\r\n     * @dev See {IERC721Metadata-tokenURI}.\r\n     */\r\n    function tokenURI(uint256 tokenId) public view override(ERC721, OrbitauERC721) returns (string memory) {\r\n        return OrbitauERC721.tokenURI(tokenId);\r\n    }\r\n\r\n    /**\r\n     * @dev Base URI for computing {tokenURI}. If set, the resulting URI for each\r\n     * token will be the concatenation of the `baseURI` and the `tokenId`.\r\n     */\r\n    function _baseURI() internal view override(ERC721, OrbitauERC721) returns (string memory) {\r\n        return OrbitauERC721._baseURI();\r\n    }\r\n\r\n    /**\r\n     * @dev Hook that is called before any token transfer. This includes minting\r\n     * and burning.\r\n     *\r\n     * Calling conditions:\r\n     *\r\n     * - When `from` and `to` are both non-zero, ``from``'s `tokenId` will be\r\n     * transferred to `to`.\r\n     * - When `from` is zero, `tokenId` will be minted for `to`.\r\n     * - When `to` is zero, ``from``'s `tokenId` will be burned.\r\n     * - `from` cannot be the zero address.\r\n     * - `to` cannot be the zero address.\r\n     *\r\n     * To learn more about hooks, head to xref:ROOT:extending-contracts.adoc#using-hooks[Using Hooks].\r\n     */\r\n    function _beforeTokenTransfer(address from, address to, uint256 tokenId) internal virtual override(OrbitauERC721, ERC721Enumerable) {\r\n        OrbitauERC721._beforeTokenTransfer(from, to, tokenId);\r\n        ERC721Enumerable._beforeTokenTransfer(from, to, tokenId);\r\n    }\r\n}\r\n",
  "sourcePath": "D:\\0xTaureum\\github\\orbitau-smart-contract\\contracts\\tokens\\ERC721\\OrbitauERC721Enumerable.sol",
  "compiler": {
    "name": "solc",
    "version": "0.8.4+commit.c7e474f2.Emscripten.clang"
  },
  "schemaVersion": "3.4.3",
  "updatedAt": "2021-09-17T17:04:05.556Z",
  "devdoc": {
    "kind": "dev",
    "methods": {
      "approve(address,uint256)": {
        "details": "See {IERC721-approve}."
      },
      "balanceOf(address)": {
        "details": "See {IERC721-balanceOf}."
      },
      "baseURI()": {
        "details": "Returns `__baseURI`."
      },
      "constructor": {
        "details": "Create a new OrbitauERC721Enumerable contract."
      },
      "getApproved(uint256)": {
        "details": "See {IERC721-getApproved}."
      },
      "isApprovedForAll(address,address)": {
        "details": "See {IERC721-isApprovedForAll}."
      },
      "name()": {
        "details": "See {IERC721Metadata-name}."
      },
      "owner()": {
        "details": "Returns the address of the current owner."
      },
      "ownerOf(uint256)": {
        "details": "See {IERC721-ownerOf}."
      },
      "pause()": {
        "details": "Pause the contract in case of bugs/attacks."
      },
      "paused()": {
        "details": "Returns true if the contract is paused, and false otherwise."
      },
      "renounceOwnership()": {
        "details": "Leaves the contract without owner. It will not be possible to call `onlyOwner` functions anymore. Can only be called by the current owner. NOTE: Renouncing ownership will leave the contract without an owner, thereby removing any functionality that is only available to the owner."
      },
      "safeTransferFrom(address,address,uint256)": {
        "details": "See {IERC721-safeTransferFrom}."
      },
      "safeTransferFrom(address,address,uint256,bytes)": {
        "details": "See {IERC721-safeTransferFrom}."
      },
      "setApprovalForAll(address,bool)": {
        "details": "See {IERC721-setApprovalForAll}."
      },
      "setBaseURI(string)": {
        "details": "Sets new value for the `__baseURI`. This operation can only been done by the owner of this contract."
      },
      "supportsInterface(bytes4)": {
        "details": "See {IERC165-supportsInterface}."
      },
      "symbol()": {
        "details": "See {IERC721Metadata-symbol}."
      },
      "tokenByIndex(uint256)": {
        "details": "See {IERC721Enumerable-tokenByIndex}."
      },
      "tokenOfOwnerByIndex(address,uint256)": {
        "details": "See {IERC721Enumerable-tokenOfOwnerByIndex}."
      },
      "tokenURI(uint256)": {
        "details": "See {IERC721Metadata-tokenURI}."
      },
      "totalSupply()": {
        "details": "See {IERC721Enumerable-totalSupply}."
      },
      "transferFrom(address,address,uint256)": {
        "details": "See {IERC721-transferFrom}."
      },
      "transferOwnership(address)": {
        "details": "Transfers ownership of the contract to a new account (`newOwner`). Can only be called by the current owner."
      },
      "unPause()": {
        "details": "Resume the contract after being paused."
      }
    },
    "version": 1
  },
  "userdoc": {
    "kind": "user",
    "methods": {
      "pause()": {
        "notice": "Only the owner can call this method."
      },
      "unPause()": {
        "notice": "Only the owner can call this method."
      }
    },
    "version": 1
  }
}