{
  "contractName": "OrbitauERC1155",
  "abi": [
    {
      "inputs": [
        {
          "internalType": "string",
          "name": "baseURI_",
          "type": "string"
        }
      ],
      "stateMutability": "nonpayable",
      "type": "constructor"
    },
    {
      "anonymous": false,
      "inputs": [
        {
          "indexed": true,
          "internalType": "address",
          "name": "account",
          "type": "address"
        },
        {
          "indexed": true,
          "internalType": "address",
          "name": "operator",
          "type": "address"
        },
        {
          "indexed": false,
          "internalType": "bool",
          "name": "approved",
          "type": "bool"
        }
      ],
      "name": "ApprovalForAll",
      "type": "event"
    },
    {
      "anonymous": false,
      "inputs": [
        {
          "indexed": true,
          "internalType": "address",
          "name": "previousOwner",
          "type": "address"
        },
        {
          "indexed": true,
          "internalType": "address",
          "name": "newOwner",
          "type": "address"
        }
      ],
      "name": "OwnershipTransferred",
      "type": "event"
    },
    {
      "anonymous": false,
      "inputs": [
        {
          "indexed": false,
          "internalType": "address",
          "name": "account",
          "type": "address"
        }
      ],
      "name": "Paused",
      "type": "event"
    },
    {
      "anonymous": false,
      "inputs": [
        {
          "indexed": true,
          "internalType": "address",
          "name": "operator",
          "type": "address"
        },
        {
          "indexed": true,
          "internalType": "address",
          "name": "from",
          "type": "address"
        },
        {
          "indexed": true,
          "internalType": "address",
          "name": "to",
          "type": "address"
        },
        {
          "indexed": false,
          "internalType": "uint256[]",
          "name": "ids",
          "type": "uint256[]"
        },
        {
          "indexed": false,
          "internalType": "uint256[]",
          "name": "values",
          "type": "uint256[]"
        }
      ],
      "name": "TransferBatch",
      "type": "event"
    },
    {
      "anonymous": false,
      "inputs": [
        {
          "indexed": true,
          "internalType": "address",
          "name": "operator",
          "type": "address"
        },
        {
          "indexed": true,
          "internalType": "address",
          "name": "from",
          "type": "address"
        },
        {
          "indexed": true,
          "internalType": "address",
          "name": "to",
          "type": "address"
        },
        {
          "indexed": false,
          "internalType": "uint256",
          "name": "id",
          "type": "uint256"
        },
        {
          "indexed": false,
          "internalType": "uint256",
          "name": "value",
          "type": "uint256"
        }
      ],
      "name": "TransferSingle",
      "type": "event"
    },
    {
      "anonymous": false,
      "inputs": [
        {
          "indexed": false,
          "internalType": "string",
          "name": "value",
          "type": "string"
        },
        {
          "indexed": true,
          "internalType": "uint256",
          "name": "id",
          "type": "uint256"
        }
      ],
      "name": "URI",
      "type": "event"
    },
    {
      "anonymous": false,
      "inputs": [
        {
          "indexed": false,
          "internalType": "address",
          "name": "account",
          "type": "address"
        }
      ],
      "name": "Unpaused",
      "type": "event"
    },
    {
      "inputs": [
        {
          "internalType": "address",
          "name": "account",
          "type": "address"
        },
        {
          "internalType": "uint256",
          "name": "id",
          "type": "uint256"
        }
      ],
      "name": "balanceOf",
      "outputs": [
        {
          "internalType": "uint256",
          "name": "",
          "type": "uint256"
        }
      ],
      "stateMutability": "view",
      "type": "function"
    },
    {
      "inputs": [
        {
          "internalType": "address[]",
          "name": "accounts",
          "type": "address[]"
        },
        {
          "internalType": "uint256[]",
          "name": "ids",
          "type": "uint256[]"
        }
      ],
      "name": "balanceOfBatch",
      "outputs": [
        {
          "internalType": "uint256[]",
          "name": "",
          "type": "uint256[]"
        }
      ],
      "stateMutability": "view",
      "type": "function"
    },
    {
      "inputs": [
        {
          "internalType": "address",
          "name": "account",
          "type": "address"
        },
        {
          "internalType": "address",
          "name": "operator",
          "type": "address"
        }
      ],
      "name": "isApprovedForAll",
      "outputs": [
        {
          "internalType": "bool",
          "name": "",
          "type": "bool"
        }
      ],
      "stateMutability": "view",
      "type": "function"
    },
    {
      "inputs": [],
      "name": "owner",
      "outputs": [
        {
          "internalType": "address",
          "name": "",
          "type": "address"
        }
      ],
      "stateMutability": "view",
      "type": "function"
    },
    {
      "inputs": [],
      "name": "paused",
      "outputs": [
        {
          "internalType": "bool",
          "name": "",
          "type": "bool"
        }
      ],
      "stateMutability": "view",
      "type": "function"
    },
    {
      "inputs": [],
      "name": "renounceOwnership",
      "outputs": [],
      "stateMutability": "nonpayable",
      "type": "function"
    },
    {
      "inputs": [
        {
          "internalType": "address",
          "name": "from",
          "type": "address"
        },
        {
          "internalType": "address",
          "name": "to",
          "type": "address"
        },
        {
          "internalType": "uint256[]",
          "name": "ids",
          "type": "uint256[]"
        },
        {
          "internalType": "uint256[]",
          "name": "amounts",
          "type": "uint256[]"
        },
        {
          "internalType": "bytes",
          "name": "data",
          "type": "bytes"
        }
      ],
      "name": "safeBatchTransferFrom",
      "outputs": [],
      "stateMutability": "nonpayable",
      "type": "function"
    },
    {
      "inputs": [
        {
          "internalType": "address",
          "name": "from",
          "type": "address"
        },
        {
          "internalType": "address",
          "name": "to",
          "type": "address"
        },
        {
          "internalType": "uint256",
          "name": "id",
          "type": "uint256"
        },
        {
          "internalType": "uint256",
          "name": "amount",
          "type": "uint256"
        },
        {
          "internalType": "bytes",
          "name": "data",
          "type": "bytes"
        }
      ],
      "name": "safeTransferFrom",
      "outputs": [],
      "stateMutability": "nonpayable",
      "type": "function"
    },
    {
      "inputs": [
        {
          "internalType": "address",
          "name": "operator",
          "type": "address"
        },
        {
          "internalType": "bool",
          "name": "approved",
          "type": "bool"
        }
      ],
      "name": "setApprovalForAll",
      "outputs": [],
      "stateMutability": "nonpayable",
      "type": "function"
    },
    {
      "inputs": [
        {
          "internalType": "bytes4",
          "name": "interfaceId",
          "type": "bytes4"
        }
      ],
      "name": "supportsInterface",
      "outputs": [
        {
          "internalType": "bool",
          "name": "",
          "type": "bool"
        }
      ],
      "stateMutability": "view",
      "type": "function"
    },
    {
      "inputs": [
        {
          "internalType": "address",
          "name": "newOwner",
          "type": "address"
        }
      ],
      "name": "transferOwnership",
      "outputs": [],
      "stateMutability": "nonpayable",
      "type": "function"
    },
    {
      "inputs": [
        {
          "internalType": "uint256",
          "name": "id",
          "type": "uint256"
        }
      ],
      "name": "totalSupply",
      "outputs": [
        {
          "internalType": "uint256",
          "name": "",
          "type": "uint256"
        }
      ],
      "stateMutability": "view",
      "type": "function"
    },
    {
      "inputs": [
        {
          "internalType": "uint256",
          "name": "_id",
          "type": "uint256"
        }
      ],
      "name": "exists",
      "outputs": [
        {
          "internalType": "bool",
          "name": "",
          "type": "bool"
        }
      ],
      "stateMutability": "view",
      "type": "function"
    },
    {
      "inputs": [
        {
          "internalType": "uint256",
          "name": "_id",
          "type": "uint256"
        }
      ],
      "name": "getCreator",
      "outputs": [
        {
          "internalType": "address",
          "name": "",
          "type": "address"
        }
      ],
      "stateMutability": "view",
      "type": "function"
    },
    {
      "inputs": [],
      "name": "pause",
      "outputs": [],
      "stateMutability": "nonpayable",
      "type": "function"
    },
    {
      "inputs": [],
      "name": "unPause",
      "outputs": [],
      "stateMutability": "nonpayable",
      "type": "function"
    },
    {
      "inputs": [
        {
          "internalType": "address",
          "name": "to",
          "type": "address"
        },
        {
          "internalType": "string",
          "name": "uri_",
          "type": "string"
        },
        {
          "internalType": "uint256",
          "name": "amount",
          "type": "uint256"
        },
        {
          "internalType": "bytes",
          "name": "data",
          "type": "bytes"
        }
      ],
      "name": "mint",
      "outputs": [
        {
          "internalType": "uint256",
          "name": "",
          "type": "uint256"
        }
      ],
      "stateMutability": "nonpayable",
      "type": "function"
    },
    {
      "inputs": [
        {
          "internalType": "address",
          "name": "to",
          "type": "address"
        },
        {
          "internalType": "string[]",
          "name": "uriList",
          "type": "string[]"
        },
        {
          "internalType": "uint256[]",
          "name": "amounts",
          "type": "uint256[]"
        },
        {
          "internalType": "bytes",
          "name": "data",
          "type": "bytes"
        }
      ],
      "name": "mintBatch",
      "outputs": [
        {
          "internalType": "uint256[]",
          "name": "",
          "type": "uint256[]"
        }
      ],
      "stateMutability": "nonpayable",
      "type": "function"
    },
    {
      "inputs": [
        {
          "internalType": "string",
          "name": "newURI",
          "type": "string"
        }
      ],
      "name": "setURI",
      "outputs": [],
      "stateMutability": "nonpayable",
      "type": "function"
    },
    {
      "inputs": [
        {
          "internalType": "uint256",
          "name": "tokenId",
          "type": "uint256"
        }
      ],
      "name": "uri",
      "outputs": [
        {
          "internalType": "string",
          "name": "",
          "type": "string"
        }
      ],
      "stateMutability": "view",
      "type": "function"
    }
  ],
  "bytecode": "0x60806040523480156200001157600080fd5b5060405162004c3b38038062004c3b833981810160405281019062000037919062000263565b8062000049816200011d60201b60201c565b506000600360006101000a81548160ff0219169083151502179055506000620000776200013960201b60201c565b905080600360016101000a81548173ffffffffffffffffffffffffffffffffffffffff021916908373ffffffffffffffffffffffffffffffffffffffff1602179055508073ffffffffffffffffffffffffffffffffffffffff16600073ffffffffffffffffffffffffffffffffffffffff167f8be0079c531659141344cd1fd0a4f28419497f9722a3daafe3b4186f6b6457e060405160405180910390a3505062000418565b80600290805190602001906200013592919062000141565b5050565b600033905090565b8280546200014f906200033d565b90600052602060002090601f016020900481019282620001735760008555620001bf565b82601f106200018e57805160ff1916838001178555620001bf565b82800160010185558215620001bf579182015b82811115620001be578251825591602001919060010190620001a1565b5b509050620001ce9190620001d2565b5090565b5b80821115620001ed576000816000905550600101620001d3565b5090565b6000620002086200020284620002d1565b620002a8565b9050828152602081018484840111156200022157600080fd5b6200022e84828562000307565b509392505050565b600082601f8301126200024857600080fd5b81516200025a848260208601620001f1565b91505092915050565b6000602082840312156200027657600080fd5b600082015167ffffffffffffffff8111156200029157600080fd5b6200029f8482850162000236565b91505092915050565b6000620002b4620002c7565b9050620002c2828262000373565b919050565b6000604051905090565b600067ffffffffffffffff821115620002ef57620002ee620003d8565b5b620002fa8262000407565b9050602081019050919050565b60005b83811015620003275780820151818401526020810190506200030a565b8381111562000337576000848401525b50505050565b600060028204905060018216806200035657607f821691505b602082108114156200036d576200036c620003a9565b5b50919050565b6200037e8262000407565b810181811067ffffffffffffffff82111715620003a0576200039f620003d8565b5b80604052505050565b7f4e487b7100000000000000000000000000000000000000000000000000000000600052602260045260246000fd5b7f4e487b7100000000000000000000000000000000000000000000000000000000600052604160045260246000fd5b6000601f19601f8301169050919050565b61481380620004286000396000f3fe608060405234801561001057600080fd5b506004361061012b5760003560e01c8063715018a6116100ad578063d48e638a11610071578063d48e638a14610354578063e985e9c514610384578063f242432a146103b4578063f2fde38b146103d0578063f7b188a5146103ec5761012b565b8063715018a6146102d65780638456cb59146102e05780638da5cb5b146102ea578063a22cb46514610308578063bd85b039146103245761012b565b8063428a328b116100f4578063428a328b146101f85780634e1273f4146102285780634f558e79146102585780635523c250146102885780635c975abb146102b85761012b565b8062fdd58e1461013057806301ffc9a71461016057806302fe5305146101905780630e89341c146101ac5780632eb2c2d6146101dc575b600080fd5b61014a600480360381019061014591906131e3565b6103f6565b6040516101579190613c90565b60405180910390f35b61017a6004803603810190610175919061328b565b6104bf565b60405161018791906139b3565b60405180910390f35b6101aa60048036038101906101a591906132dd565b6105a1565b005b6101c660048036038101906101c1919061331e565b610671565b6040516101d391906139ce565b60405180910390f35b6101f660048036038101906101f19190612f0e565b6107af565b005b610212600480360381019061020d919061305c565b610ba5565b60405161021f919061395a565b60405180910390f35b610242600480360381019061023d919061321f565b610f43565b60405161024f919061395a565b60405180910390f35b610272600480360381019061026d919061331e565b6110f4565b60405161027f91906139b3565b60405180910390f35b6102a2600480360381019061029d919061314b565b611113565b6040516102af9190613c90565b60405180910390f35b6102c06111dd565b6040516102cd91906139b3565b60405180910390f35b6102de6111f4565b005b6102e8611331565b005b6102f26113b7565b6040516102ff919061384b565b60405180910390f35b610322600480360381019061031d919061310f565b6113e1565b005b61033e6004803603810190610339919061331e565b611562565b60405161034b9190613c90565b60405180910390f35b61036e6004803603810190610369919061331e565b61157f565b60405161037b919061384b565b60405180910390f35b61039e60048036038101906103999190612ed2565b6115bc565b6040516103ab91906139b3565b60405180910390f35b6103ce60048036038101906103c99190612fcd565b611650565b005b6103ea60048036038101906103e59190612ea9565b611968565b005b6103f4611b14565b005b60008073ffffffffffffffffffffffffffffffffffffffff168373ffffffffffffffffffffffffffffffffffffffff161415610467576040517f08c379a000000000000000000000000000000000000000000000000000000000815260040161045e90613a90565b60405180910390fd5b60008083815260200190815260200160002060008473ffffffffffffffffffffffffffffffffffffffff1673ffffffffffffffffffffffffffffffffffffffff16815260200190815260200160002054905092915050565b60007fd9b67a26000000000000000000000000000000000000000000000000000000007bffffffffffffffffffffffffffffffffffffffffffffffffffffffff1916827bffffffffffffffffffffffffffffffffffffffffffffffffffffffff1916148061058a57507f0e89341c000000000000000000000000000000000000000000000000000000007bffffffffffffffffffffffffffffffffffffffffffffffffffffffff1916827bffffffffffffffffffffffffffffffffffffffffffffffffffffffff1916145b8061059a575061059982611b9a565b5b9050919050565b6105a9611c04565b73ffffffffffffffffffffffffffffffffffffffff166105c76113b7565b73ffffffffffffffffffffffffffffffffffffffff161461061d576040517f08c379a000000000000000000000000000000000000000000000000000000000815260040161061490613bf0565b60405180910390fd5b6106256111dd565b15610665576040517f08c379a000000000000000000000000000000000000000000000000000000000815260040161065c90613b30565b60405180910390fd5b61066e81611c0c565b50565b606061067c826110f4565b6106bb576040517f08c379a00000000000000000000000000000000000000000000000000000000081526004016106b290613bb0565b60405180910390fd5b60006106c683611c26565b90506000815111610772576006600084815260200190815260200160002080546106ef90613fdb565b80601f016020809104026020016040519081016040528092919081815260200182805461071b90613fdb565b80156107685780601f1061073d57610100808354040283529160200191610768565b820191906000526020600020905b81548152906001019060200180831161074b57829003601f168201915b50505050506107a7565b8060066000858152602001908152602001600020604051602001610797929190613827565b6040516020818303038152906040525b915050919050565b81518351146107f3576040517f08c379a00000000000000000000000000000000000000000000000000000000081526004016107ea90613c50565b60405180910390fd5b600073ffffffffffffffffffffffffffffffffffffffff168473ffffffffffffffffffffffffffffffffffffffff161415610863576040517f08c379a000000000000000000000000000000000000000000000000000000000815260040161085a90613b50565b60405180910390fd5b61086b611c04565b73ffffffffffffffffffffffffffffffffffffffff168573ffffffffffffffffffffffffffffffffffffffff1614806108b157506108b0856108ab611c04565b6115bc565b5b6108f0576040517f08c379a00000000000000000000000000000000000000000000000000000000081526004016108e790613b70565b60405180910390fd5b60006108fa611c04565b905061090a818787878787611cba565b60005b8451811015610b10576000858281518110610951577f4e487b7100000000000000000000000000000000000000000000000000000000600052603260045260246000fd5b602002602001015190506000858381518110610996577f4e487b7100000000000000000000000000000000000000000000000000000000600052603260045260246000fd5b60200260200101519050600080600084815260200190815260200160002060008b73ffffffffffffffffffffffffffffffffffffffff1673ffffffffffffffffffffffffffffffffffffffff16815260200190815260200160002054905081811015610a37576040517f08c379a0000000000000000000000000000000000000000000000000000000008152600401610a2e90613bd0565b60405180910390fd5b8181610a439190613ef1565b60008085815260200190815260200160002060008c73ffffffffffffffffffffffffffffffffffffffff1673ffffffffffffffffffffffffffffffffffffffff168152602001908152602001600020819055508160008085815260200190815260200160002060008b73ffffffffffffffffffffffffffffffffffffffff1673ffffffffffffffffffffffffffffffffffffffff1681526020019081526020016000206000828254610af59190613e9b565b9250508190555050505080610b099061403e565b905061090d565b508473ffffffffffffffffffffffffffffffffffffffff168673ffffffffffffffffffffffffffffffffffffffff168273ffffffffffffffffffffffffffffffffffffffff167f4a39dc06d4c0dbc64b70af90fd698a233a518aa5d07e595d983b8c0526c8f7fb8787604051610b8792919061397c565b60405180910390a4610b9d818787878787611d18565b505050505050565b6060838390508686905014610bef576040517f08c379a0000000000000000000000000000000000000000000000000000000008152600401610be690613a70565b60405180910390fd5b60008686905067ffffffffffffffff811115610c34577f4e487b7100000000000000000000000000000000000000000000000000000000600052604160045260246000fd5b604051908082528060200260200182016040528015610c625781602001602082028036833780820191505090505b50905060005b87879050811015610d405788888883818110610cad577f4e487b7100000000000000000000000000000000000000000000000000000000600052603260045260246000fd5b9050602002810190610cbf9190613cd4565b604051602001610cd193929190613928565b6040516020818303038152906040528051906020012060001c828281518110610d23577f4e487b7100000000000000000000000000000000000000000000000000000000600052603260045260246000fd5b60200260200101818152505080610d399061403e565b9050610c68565b50610d8e8882878780806020026020016040519081016040528093929190818152602001838360200280828437600081840152601f19601f8201169050808301925050505050505086611eff565b60005b87879050811015610f3457610e30828281518110610dd8577f4e487b7100000000000000000000000000000000000000000000000000000000600052603260045260246000fd5b6020026020010151898984818110610e19577f4e487b7100000000000000000000000000000000000000000000000000000000600052603260045260246000fd5b9050602002810190610e2b9190613cd4565b611fd9565b600073ffffffffffffffffffffffffffffffffffffffff1660046000848481518110610e85577f4e487b7100000000000000000000000000000000000000000000000000000000600052603260045260246000fd5b6020026020010151815260200190815260200160002060009054906101000a900473ffffffffffffffffffffffffffffffffffffffff1673ffffffffffffffffffffffffffffffffffffffff161415610f2357610f22828281518110610f14577f4e487b7100000000000000000000000000000000000000000000000000000000600052603260045260246000fd5b60200260200101518a612049565b5b80610f2d9061403e565b9050610d91565b50809150509695505050505050565b60608151835114610f89576040517f08c379a0000000000000000000000000000000000000000000000000000000008152600401610f8090613c30565b60405180910390fd5b6000835167ffffffffffffffff811115610fcc577f4e487b7100000000000000000000000000000000000000000000000000000000600052604160045260246000fd5b604051908082528060200260200182016040528015610ffa5781602001602082028036833780820191505090505b50905060005b84518110156110e957611093858281518110611045577f4e487b7100000000000000000000000000000000000000000000000000000000600052603260045260246000fd5b6020026020010151858381518110611086577f4e487b7100000000000000000000000000000000000000000000000000000000600052603260045260246000fd5b60200260200101516103f6565b8282815181106110cc577f4e487b7100000000000000000000000000000000000000000000000000000000600052603260045260246000fd5b602002602001018181525050806110e29061403e565b9050611000565b508091505092915050565b6000806005600084815260200190815260200160002054119050919050565b60008086868660405160200161112b93929190613928565b6040516020818303038152906040528051906020012060001c9050611152878286866121b1565b61115d818787611fd9565b600073ffffffffffffffffffffffffffffffffffffffff166004600083815260200190815260200160002060009054906101000a900473ffffffffffffffffffffffffffffffffffffffff1673ffffffffffffffffffffffffffffffffffffffff1614156111d0576111cf8188612049565b5b8091505095945050505050565b6000600360009054906101000a900460ff16905090565b6111fc611c04565b73ffffffffffffffffffffffffffffffffffffffff1661121a6113b7565b73ffffffffffffffffffffffffffffffffffffffff1614611270576040517f08c379a000000000000000000000000000000000000000000000000000000000815260040161126790613bf0565b60405180910390fd5b600073ffffffffffffffffffffffffffffffffffffffff16600360019054906101000a900473ffffffffffffffffffffffffffffffffffffffff1673ffffffffffffffffffffffffffffffffffffffff167f8be0079c531659141344cd1fd0a4f28419497f9722a3daafe3b4186f6b6457e060405160405180910390a36000600360016101000a81548173ffffffffffffffffffffffffffffffffffffffff021916908373ffffffffffffffffffffffffffffffffffffffff160217905550565b611339611c04565b73ffffffffffffffffffffffffffffffffffffffff166113576113b7565b73ffffffffffffffffffffffffffffffffffffffff16146113ad576040517f08c379a00000000000000000000000000000000000000000000000000000000081526004016113a490613bf0565b60405180910390fd5b6113b5612230565b565b6000600360019054906101000a900473ffffffffffffffffffffffffffffffffffffffff16905090565b8173ffffffffffffffffffffffffffffffffffffffff16611400611c04565b73ffffffffffffffffffffffffffffffffffffffff161415611457576040517f08c379a000000000000000000000000000000000000000000000000000000000815260040161144e90613c10565b60405180910390fd5b8060016000611464611c04565b73ffffffffffffffffffffffffffffffffffffffff1673ffffffffffffffffffffffffffffffffffffffff16815260200190815260200160002060008473ffffffffffffffffffffffffffffffffffffffff1673ffffffffffffffffffffffffffffffffffffffff16815260200190815260200160002060006101000a81548160ff0219169083151502179055508173ffffffffffffffffffffffffffffffffffffffff16611511611c04565b73ffffffffffffffffffffffffffffffffffffffff167f17307eab39ab6107e8899845ad3d59bd9653f200f220920489ca2b5937696c318360405161155691906139b3565b60405180910390a35050565b600060056000838152602001908152602001600020549050919050565b60006004600083815260200190815260200160002060009054906101000a900473ffffffffffffffffffffffffffffffffffffffff169050919050565b6000600160008473ffffffffffffffffffffffffffffffffffffffff1673ffffffffffffffffffffffffffffffffffffffff16815260200190815260200160002060008373ffffffffffffffffffffffffffffffffffffffff1673ffffffffffffffffffffffffffffffffffffffff16815260200190815260200160002060009054906101000a900460ff16905092915050565b600073ffffffffffffffffffffffffffffffffffffffff168473ffffffffffffffffffffffffffffffffffffffff1614156116c0576040517f08c379a00000000000000000000000000000000000000000000000000000000081526004016116b790613b50565b60405180910390fd5b6116c8611c04565b73ffffffffffffffffffffffffffffffffffffffff168573ffffffffffffffffffffffffffffffffffffffff16148061170e575061170d85611708611c04565b6115bc565b5b61174d576040517f08c379a000000000000000000000000000000000000000000000000000000000815260040161174490613af0565b60405180910390fd5b6000611757611c04565b9050611777818787611768886122d3565b611771886122d3565b87611cba565b600080600086815260200190815260200160002060008873ffffffffffffffffffffffffffffffffffffffff1673ffffffffffffffffffffffffffffffffffffffff1681526020019081526020016000205490508381101561180e576040517f08c379a000000000000000000000000000000000000000000000000000000000815260040161180590613bd0565b60405180910390fd5b838161181a9190613ef1565b60008087815260200190815260200160002060008973ffffffffffffffffffffffffffffffffffffffff1673ffffffffffffffffffffffffffffffffffffffff168152602001908152602001600020819055508360008087815260200190815260200160002060008873ffffffffffffffffffffffffffffffffffffffff1673ffffffffffffffffffffffffffffffffffffffff16815260200190815260200160002060008282546118cc9190613e9b565b925050819055508573ffffffffffffffffffffffffffffffffffffffff168773ffffffffffffffffffffffffffffffffffffffff168373ffffffffffffffffffffffffffffffffffffffff167fc3d58168c5ae7397731d063d5bbf3d657854427343f4c083240f7aacaa2d0f628888604051611949929190613cab565b60405180910390a461195f828888888888612399565b50505050505050565b611970611c04565b73ffffffffffffffffffffffffffffffffffffffff1661198e6113b7565b73ffffffffffffffffffffffffffffffffffffffff16146119e4576040517f08c379a00000000000000000000000000000000000000000000000000000000081526004016119db90613bf0565b60405180910390fd5b600073ffffffffffffffffffffffffffffffffffffffff168173ffffffffffffffffffffffffffffffffffffffff161415611a54576040517f08c379a0000000000000000000000000000000000000000000000000000000008152600401611a4b90613ab0565b60405180910390fd5b8073ffffffffffffffffffffffffffffffffffffffff16600360019054906101000a900473ffffffffffffffffffffffffffffffffffffffff1673ffffffffffffffffffffffffffffffffffffffff167f8be0079c531659141344cd1fd0a4f28419497f9722a3daafe3b4186f6b6457e060405160405180910390a380600360016101000a81548173ffffffffffffffffffffffffffffffffffffffff021916908373ffffffffffffffffffffffffffffffffffffffff16021790555050565b611b1c611c04565b73ffffffffffffffffffffffffffffffffffffffff16611b3a6113b7565b73ffffffffffffffffffffffffffffffffffffffff1614611b90576040517f08c379a0000000000000000000000000000000000000000000000000000000008152600401611b8790613bf0565b60405180910390fd5b611b98612580565b565b60007f01ffc9a7000000000000000000000000000000000000000000000000000000007bffffffffffffffffffffffffffffffffffffffffffffffffffffffff1916827bffffffffffffffffffffffffffffffffffffffffffffffffffffffff1916149050919050565b600033905090565b8060029080519060200190611c22929190612a3d565b5050565b606060028054611c3590613fdb565b80601f0160208091040260200160405190810160405280929190818152602001828054611c6190613fdb565b8015611cae5780601f10611c8357610100808354040283529160200191611cae565b820191906000526020600020905b815481529060010190602001808311611c9157829003601f168201915b50505050509050919050565b611cc8868686868686612622565b611cd06111dd565b15611d10576040517f08c379a0000000000000000000000000000000000000000000000000000000008152600401611d0790613ad0565b60405180910390fd5b505050505050565b611d378473ffffffffffffffffffffffffffffffffffffffff1661262a565b15611ef7578373ffffffffffffffffffffffffffffffffffffffff1663bc197c8187878686866040518663ffffffff1660e01b8152600401611d7d959493929190613866565b602060405180830381600087803b158015611d9757600080fd5b505af1925050508015611dc857506040513d601f19601f82011682018060405250810190611dc591906132b4565b60015b611e6e57611dd4614114565b806308c379a01415611e315750611de96146eb565b80611df45750611e33565b806040517f08c379a0000000000000000000000000000000000000000000000000000000008152600401611e2891906139ce565b60405180910390fd5b505b6040517f08c379a0000000000000000000000000000000000000000000000000000000008152600401611e65906139f0565b60405180910390fd5b63bc197c8160e01b7bffffffffffffffffffffffffffffffffffffffffffffffffffffffff1916817bffffffffffffffffffffffffffffffffffffffffffffffffffffffff191614611ef5576040517f08c379a0000000000000000000000000000000000000000000000000000000008152600401611eec90613a10565b60405180910390fd5b505b505050505050565b611f0b8484848461263d565b60005b8351811015611fd257828181518110611f50577f4e487b7100000000000000000000000000000000000000000000000000000000600052603260045260246000fd5b602002602001015160056000868481518110611f95577f4e487b7100000000000000000000000000000000000000000000000000000000600052603260045260246000fd5b602002602001015181526020019081526020016000206000828254611fba9190613e9b565b9250508190555080611fcb9061403e565b9050611f0e565b5050505050565b611fe2836110f4565b612021576040517f08c379a000000000000000000000000000000000000000000000000000000000815260040161201890613bb0565b60405180910390fd5b8181600660008681526020019081526020016000209190612043929190612ac3565b50505050565b600073ffffffffffffffffffffffffffffffffffffffff168173ffffffffffffffffffffffffffffffffffffffff1614156120b9576040517f08c379a00000000000000000000000000000000000000000000000000000000081526004016120b090613a30565b60405180910390fd5b600073ffffffffffffffffffffffffffffffffffffffff166004600084815260200190815260200160002060009054906101000a900473ffffffffffffffffffffffffffffffffffffffff1673ffffffffffffffffffffffffffffffffffffffff161461215b576040517f08c379a000000000000000000000000000000000000000000000000000000000815260040161215290613b10565b60405180910390fd5b806004600084815260200190815260200160002060006101000a81548173ffffffffffffffffffffffffffffffffffffffff021916908373ffffffffffffffffffffffffffffffffffffffff1602179055505050565b600082116121f4576040517f08c379a00000000000000000000000000000000000000000000000000000000081526004016121eb90613b90565b60405180910390fd5b612200848484846128a7565b816005600085815260200190815260200160002060008282546122239190613e9b565b9250508190555050505050565b6122386111dd565b15612278576040517f08c379a000000000000000000000000000000000000000000000000000000000815260040161226f90613b30565b60405180910390fd5b6001600360006101000a81548160ff0219169083151502179055507f62e78cea01bee320cd4e420270b5ea74000d11b0c9f74754ebdbfc544b05a2586122bc611c04565b6040516122c9919061384b565b60405180910390a1565b60606000600167ffffffffffffffff811115612318577f4e487b7100000000000000000000000000000000000000000000000000000000600052604160045260246000fd5b6040519080825280602002602001820160405280156123465781602001602082028036833780820191505090505b5090508281600081518110612384577f4e487b7100000000000000000000000000000000000000000000000000000000600052603260045260246000fd5b60200260200101818152505080915050919050565b6123b88473ffffffffffffffffffffffffffffffffffffffff1661262a565b15612578578373ffffffffffffffffffffffffffffffffffffffff1663f23a6e6187878686866040518663ffffffff1660e01b81526004016123fe9594939291906138ce565b602060405180830381600087803b15801561241857600080fd5b505af192505050801561244957506040513d601f19601f8201168201806040525081019061244691906132b4565b60015b6124ef57612455614114565b806308c379a014156124b2575061246a6146eb565b8061247557506124b4565b806040517f08c379a00000000000000000000000000000000000000000000000000000000081526004016124a991906139ce565b60405180910390fd5b505b6040517f08c379a00000000000000000000000000000000000000000000000000000000081526004016124e6906139f0565b60405180910390fd5b63f23a6e6160e01b7bffffffffffffffffffffffffffffffffffffffffffffffffffffffff1916817bffffffffffffffffffffffffffffffffffffffffffffffffffffffff191614612576576040517f08c379a000000000000000000000000000000000000000000000000000000000815260040161256d90613a10565b60405180910390fd5b505b505050505050565b6125886111dd565b6125c7576040517f08c379a00000000000000000000000000000000000000000000000000000000081526004016125be90613a50565b60405180910390fd5b6000600360006101000a81548160ff0219169083151502179055507f5db9ee0a495bf2e6ff9c91a7834c1ba4fdd244a5e8aa4e537bd38aeae4b073aa61260b611c04565b604051612618919061384b565b60405180910390a1565b505050505050565b600080823b905060008111915050919050565b600073ffffffffffffffffffffffffffffffffffffffff168473ffffffffffffffffffffffffffffffffffffffff1614156126ad576040517f08c379a00000000000000000000000000000000000000000000000000000000081526004016126a490613c70565b60405180910390fd5b81518351146126f1576040517f08c379a00000000000000000000000000000000000000000000000000000000081526004016126e890613c50565b60405180910390fd5b60006126fb611c04565b905061270c81600087878787611cba565b60005b845181101561281157838181518110612751577f4e487b7100000000000000000000000000000000000000000000000000000000600052603260045260246000fd5b6020026020010151600080878481518110612795577f4e487b7100000000000000000000000000000000000000000000000000000000600052603260045260246000fd5b6020026020010151815260200190815260200160002060008873ffffffffffffffffffffffffffffffffffffffff1673ffffffffffffffffffffffffffffffffffffffff16815260200190815260200160002060008282546127f79190613e9b565b9250508190555080806128099061403e565b91505061270f565b508473ffffffffffffffffffffffffffffffffffffffff16600073ffffffffffffffffffffffffffffffffffffffff168273ffffffffffffffffffffffffffffffffffffffff167f4a39dc06d4c0dbc64b70af90fd698a233a518aa5d07e595d983b8c0526c8f7fb878760405161288992919061397c565b60405180910390a46128a081600087878787611d18565b5050505050565b600073ffffffffffffffffffffffffffffffffffffffff168473ffffffffffffffffffffffffffffffffffffffff161415612917576040517f08c379a000000000000000000000000000000000000000000000000000000000815260040161290e90613c70565b60405180910390fd5b6000612921611c04565b905061294281600087612933886122d3565b61293c886122d3565b87611cba565b8260008086815260200190815260200160002060008773ffffffffffffffffffffffffffffffffffffffff1673ffffffffffffffffffffffffffffffffffffffff16815260200190815260200160002060008282546129a19190613e9b565b925050819055508473ffffffffffffffffffffffffffffffffffffffff16600073ffffffffffffffffffffffffffffffffffffffff168273ffffffffffffffffffffffffffffffffffffffff167fc3d58168c5ae7397731d063d5bbf3d657854427343f4c083240f7aacaa2d0f628787604051612a1f929190613cab565b60405180910390a4612a3681600087878787612399565b5050505050565b828054612a4990613fdb565b90600052602060002090601f016020900481019282612a6b5760008555612ab2565b82601f10612a8457805160ff1916838001178555612ab2565b82800160010185558215612ab2579182015b82811115612ab1578251825591602001919060010190612a96565b5b509050612abf9190612b49565b5090565b828054612acf90613fdb565b90600052602060002090601f016020900481019282612af15760008555612b38565b82601f10612b0a57803560ff1916838001178555612b38565b82800160010185558215612b38579182015b82811115612b37578235825591602001919060010190612b1c565b5b509050612b459190612b49565b5090565b5b80821115612b62576000816000905550600101612b4a565b5090565b6000612b79612b7484613d50565b613d2b565b90508083825260208201905082856020860282011115612b9857600080fd5b60005b85811015612bc85781612bae8882612cba565b845260208401935060208301925050600181019050612b9b565b5050509392505050565b6000612be5612be084613d7c565b613d2b565b90508083825260208201905082856020860282011115612c0457600080fd5b60005b85811015612c345781612c1a8882612e94565b845260208401935060208301925050600181019050612c07565b5050509392505050565b6000612c51612c4c84613da8565b613d2b565b905082815260208101848484011115612c6957600080fd5b612c74848285613f99565b509392505050565b6000612c8f612c8a84613dd9565b613d2b565b905082815260208101848484011115612ca757600080fd5b612cb2848285613f99565b509392505050565b600081359050612cc981614781565b92915050565b600082601f830112612ce057600080fd5b8135612cf0848260208601612b66565b91505092915050565b60008083601f840112612d0b57600080fd5b8235905067ffffffffffffffff811115612d2457600080fd5b602083019150836020820283011115612d3c57600080fd5b9250929050565b60008083601f840112612d5557600080fd5b8235905067ffffffffffffffff811115612d6e57600080fd5b602083019150836020820283011115612d8657600080fd5b9250929050565b600082601f830112612d9e57600080fd5b8135612dae848260208601612bd2565b91505092915050565b600081359050612dc681614798565b92915050565b600081359050612ddb816147af565b92915050565b600081519050612df0816147af565b92915050565b600082601f830112612e0757600080fd5b8135612e17848260208601612c3e565b91505092915050565b60008083601f840112612e3257600080fd5b8235905067ffffffffffffffff811115612e4b57600080fd5b602083019150836001820283011115612e6357600080fd5b9250929050565b600082601f830112612e7b57600080fd5b8135612e8b848260208601612c7c565b91505092915050565b600081359050612ea3816147c6565b92915050565b600060208284031215612ebb57600080fd5b6000612ec984828501612cba565b91505092915050565b60008060408385031215612ee557600080fd5b6000612ef385828601612cba565b9250506020612f0485828601612cba565b9150509250929050565b600080600080600060a08688031215612f2657600080fd5b6000612f3488828901612cba565b9550506020612f4588828901612cba565b945050604086013567ffffffffffffffff811115612f6257600080fd5b612f6e88828901612d8d565b935050606086013567ffffffffffffffff811115612f8b57600080fd5b612f9788828901612d8d565b925050608086013567ffffffffffffffff811115612fb457600080fd5b612fc088828901612df6565b9150509295509295909350565b600080600080600060a08688031215612fe557600080fd5b6000612ff388828901612cba565b955050602061300488828901612cba565b945050604061301588828901612e94565b935050606061302688828901612e94565b925050608086013567ffffffffffffffff81111561304357600080fd5b61304f88828901612df6565b9150509295509295909350565b6000806000806000806080878903121561307557600080fd5b600061308389828a01612cba565b965050602087013567ffffffffffffffff8111156130a057600080fd5b6130ac89828a01612cf9565b9550955050604087013567ffffffffffffffff8111156130cb57600080fd5b6130d789828a01612d43565b9350935050606087013567ffffffffffffffff8111156130f657600080fd5b61310289828a01612df6565b9150509295509295509295565b6000806040838503121561312257600080fd5b600061313085828601612cba565b925050602061314185828601612db7565b9150509250929050565b60008060008060006080868803121561316357600080fd5b600061317188828901612cba565b955050602086013567ffffffffffffffff81111561318e57600080fd5b61319a88828901612e20565b945094505060406131ad88828901612e94565b925050606086013567ffffffffffffffff8111156131ca57600080fd5b6131d688828901612df6565b9150509295509295909350565b600080604083850312156131f657600080fd5b600061320485828601612cba565b925050602061321585828601612e94565b9150509250929050565b6000806040838503121561323257600080fd5b600083013567ffffffffffffffff81111561324c57600080fd5b61325885828601612ccf565b925050602083013567ffffffffffffffff81111561327557600080fd5b61328185828601612d8d565b9150509250929050565b60006020828403121561329d57600080fd5b60006132ab84828501612dcc565b91505092915050565b6000602082840312156132c657600080fd5b60006132d484828501612de1565b91505092915050565b6000602082840312156132ef57600080fd5b600082013567ffffffffffffffff81111561330957600080fd5b61331584828501612e6a565b91505092915050565b60006020828403121561333057600080fd5b600061333e84828501612e94565b91505092915050565b60006133538383613809565b60208301905092915050565b61336881613f25565b82525050565b600061337982613e2f565b6133838185613e5d565b935061338e83613e0a565b8060005b838110156133bf5781516133a68882613347565b97506133b183613e50565b925050600181019050613392565b5085935050505092915050565b6133d581613f37565b82525050565b60006133e682613e3a565b6133f08185613e6e565b9350613400818560208601613fa8565b61340981614136565b840191505092915050565b60006134208385613e7f565b935061342d838584613f99565b61343683614136565b840190509392505050565b600061344c82613e45565b6134568185613e7f565b9350613466818560208601613fa8565b61346f81614136565b840191505092915050565b600061348582613e45565b61348f8185613e90565b935061349f818560208601613fa8565b80840191505092915050565b600081546134b881613fdb565b6134c28186613e90565b945060018216600081146134dd57600181146134ee57613521565b60ff19831686528186019350613521565b6134f785613e1a565b60005b83811015613519578154818901526001820191506020810190506134fa565b838801955050505b50505092915050565b6000613537603483613e7f565b915061354282614154565b604082019050919050565b600061355a602883613e7f565b9150613565826141a3565b604082019050919050565b600061357d601d83613e7f565b9150613588826141f2565b602082019050919050565b60006135a0601483613e7f565b91506135ab8261421b565b602082019050919050565b60006135c3602383613e7f565b91506135ce82614244565b604082019050919050565b60006135e6602b83613e7f565b91506135f182614293565b604082019050919050565b6000613609602683613e7f565b9150613614826142e2565b604082019050919050565b600061362c602c83613e7f565b915061363782614331565b604082019050919050565b600061364f602983613e7f565b915061365a82614380565b604082019050919050565b6000613672601e83613e7f565b915061367d826143cf565b602082019050919050565b6000613695601083613e7f565b91506136a0826143f8565b602082019050919050565b60006136b8602583613e7f565b91506136c382614421565b604082019050919050565b60006136db603283613e7f565b91506136e682614470565b604082019050919050565b60006136fe601c83613e7f565b9150613709826144bf565b602082019050919050565b6000613721602883613e7f565b915061372c826144e8565b604082019050919050565b6000613744602a83613e7f565b915061374f82614537565b604082019050919050565b6000613767602083613e7f565b915061377282614586565b602082019050919050565b600061378a602983613e7f565b9150613795826145af565b604082019050919050565b60006137ad602983613e7f565b91506137b8826145fe565b604082019050919050565b60006137d0602883613e7f565b91506137db8261464d565b604082019050919050565b60006137f3602183613e7f565b91506137fe8261469c565b604082019050919050565b61381281613f8f565b82525050565b61382181613f8f565b82525050565b6000613833828561347a565b915061383f82846134ab565b91508190509392505050565b6000602082019050613860600083018461335f565b92915050565b600060a08201905061387b600083018861335f565b613888602083018761335f565b818103604083015261389a818661336e565b905081810360608301526138ae818561336e565b905081810360808301526138c281846133db565b90509695505050505050565b600060a0820190506138e3600083018861335f565b6138f0602083018761335f565b6138fd6040830186613818565b61390a6060830185613818565b818103608083015261391c81846133db565b90509695505050505050565b600060408201905061393d600083018661335f565b8181036020830152613950818486613414565b9050949350505050565b60006020820190508181036000830152613974818461336e565b905092915050565b60006040820190508181036000830152613996818561336e565b905081810360208301526139aa818461336e565b90509392505050565b60006020820190506139c860008301846133cc565b92915050565b600060208201905081810360008301526139e88184613441565b905092915050565b60006020820190508181036000830152613a098161352a565b9050919050565b60006020820190508181036000830152613a298161354d565b9050919050565b60006020820190508181036000830152613a4981613570565b9050919050565b60006020820190508181036000830152613a6981613593565b9050919050565b60006020820190508181036000830152613a89816135b6565b9050919050565b60006020820190508181036000830152613aa9816135d9565b9050919050565b60006020820190508181036000830152613ac9816135fc565b9050919050565b60006020820190508181036000830152613ae98161361f565b9050919050565b60006020820190508181036000830152613b0981613642565b9050919050565b60006020820190508181036000830152613b2981613665565b9050919050565b60006020820190508181036000830152613b4981613688565b9050919050565b60006020820190508181036000830152613b69816136ab565b9050919050565b60006020820190508181036000830152613b89816136ce565b9050919050565b60006020820190508181036000830152613ba9816136f1565b9050919050565b60006020820190508181036000830152613bc981613714565b9050919050565b60006020820190508181036000830152613be981613737565b9050919050565b60006020820190508181036000830152613c098161375a565b9050919050565b60006020820190508181036000830152613c298161377d565b9050919050565b60006020820190508181036000830152613c49816137a0565b9050919050565b60006020820190508181036000830152613c69816137c3565b9050919050565b60006020820190508181036000830152613c89816137e6565b9050919050565b6000602082019050613ca56000830184613818565b92915050565b6000604082019050613cc06000830185613818565b613ccd6020830184613818565b9392505050565b60008083356001602003843603038112613ced57600080fd5b80840192508235915067ffffffffffffffff821115613d0b57600080fd5b602083019250600182023603831315613d2357600080fd5b509250929050565b6000613d35613d46565b9050613d41828261400d565b919050565b6000604051905090565b600067ffffffffffffffff821115613d6b57613d6a6140e5565b5b602082029050602081019050919050565b600067ffffffffffffffff821115613d9757613d966140e5565b5b602082029050602081019050919050565b600067ffffffffffffffff821115613dc357613dc26140e5565b5b613dcc82614136565b9050602081019050919050565b600067ffffffffffffffff821115613df457613df36140e5565b5b613dfd82614136565b9050602081019050919050565b6000819050602082019050919050565b60008190508160005260206000209050919050565b600081519050919050565b600081519050919050565b600081519050919050565b6000602082019050919050565b600082825260208201905092915050565b600082825260208201905092915050565b600082825260208201905092915050565b600081905092915050565b6000613ea682613f8f565b9150613eb183613f8f565b9250827fffffffffffffffffffffffffffffffffffffffffffffffffffffffffffffffff03821115613ee657613ee5614087565b5b828201905092915050565b6000613efc82613f8f565b9150613f0783613f8f565b925082821015613f1a57613f19614087565b5b828203905092915050565b6000613f3082613f6f565b9050919050565b60008115159050919050565b60007fffffffff0000000000000000000000000000000000000000000000000000000082169050919050565b600073ffffffffffffffffffffffffffffffffffffffff82169050919050565b6000819050919050565b82818337600083830152505050565b60005b83811015613fc6578082015181840152602081019050613fab565b83811115613fd5576000848401525b50505050565b60006002820490506001821680613ff357607f821691505b60208210811415614007576140066140b6565b5b50919050565b61401682614136565b810181811067ffffffffffffffff82111715614035576140346140e5565b5b80604052505050565b600061404982613f8f565b91507fffffffffffffffffffffffffffffffffffffffffffffffffffffffffffffffff82141561407c5761407b614087565b5b600182019050919050565b7f4e487b7100000000000000000000000000000000000000000000000000000000600052601160045260246000fd5b7f4e487b7100000000000000000000000000000000000000000000000000000000600052602260045260246000fd5b7f4e487b7100000000000000000000000000000000000000000000000000000000600052604160045260246000fd5b600060033d11156141335760046000803e614130600051614147565b90505b90565b6000601f19601f8301169050919050565b60008160e01c9050919050565b7f455243313135353a207472616e7366657220746f206e6f6e204552433131353560008201527f526563656976657220696d706c656d656e746572000000000000000000000000602082015250565b7f455243313135353a204552433131353552656365697665722072656a6563746560008201527f6420746f6b656e73000000000000000000000000000000000000000000000000602082015250565b7f455243313135353a207a65726f20616464726573732063726561746f72000000600082015250565b7f5061757361626c653a206e6f7420706175736564000000000000000000000000600082015250565b7f455243313135353a206d696e744261746368206c656e67746873206d69736d6160008201527f7463680000000000000000000000000000000000000000000000000000000000602082015250565b7f455243313135353a2062616c616e636520717565727920666f7220746865207a60008201527f65726f2061646472657373000000000000000000000000000000000000000000602082015250565b7f4f776e61626c653a206e6577206f776e657220697320746865207a65726f206160008201527f6464726573730000000000000000000000000000000000000000000000000000602082015250565b7f455243313135355061757361626c653a20746f6b656e207472616e736665722060008201527f7768696c65207061757365640000000000000000000000000000000000000000602082015250565b7f455243313135353a2063616c6c6572206973206e6f74206f776e6572206e6f7260008201527f20617070726f7665640000000000000000000000000000000000000000000000602082015250565b7f455243313135353a20616c72656164792068616420612063726561746f720000600082015250565b7f5061757361626c653a2070617573656400000000000000000000000000000000600082015250565b7f455243313135353a207472616e7366657220746f20746865207a65726f20616460008201527f6472657373000000000000000000000000000000000000000000000000000000602082015250565b7f455243313135353a207472616e736665722063616c6c6572206973206e6f742060008201527f6f776e6572206e6f7220617070726f7665640000000000000000000000000000602082015250565b7f455243313135353a206d696e7420616d6f756e74206973207a65726f00000000600082015250565b7f455243313135353a2055524920717565727920666f72206e6f6e65786973746560008201527f6e7420746f6b656e000000000000000000000000000000000000000000000000602082015250565b7f455243313135353a20696e73756666696369656e742062616c616e636520666f60008201527f72207472616e7366657200000000000000000000000000000000000000000000602082015250565b7f4f776e61626c653a2063616c6c6572206973206e6f7420746865206f776e6572600082015250565b7f455243313135353a2073657474696e6720617070726f76616c2073746174757360008201527f20666f722073656c660000000000000000000000000000000000000000000000602082015250565b7f455243313135353a206163636f756e747320616e6420696473206c656e67746860008201527f206d69736d617463680000000000000000000000000000000000000000000000602082015250565b7f455243313135353a2069647320616e6420616d6f756e7473206c656e6774682060008201527f6d69736d61746368000000000000000000000000000000000000000000000000602082015250565b7f455243313135353a206d696e7420746f20746865207a65726f2061646472657360008201527f7300000000000000000000000000000000000000000000000000000000000000602082015250565b600060443d10156146fb5761477e565b614703613d46565b60043d036004823e80513d602482011167ffffffffffffffff8211171561472b57505061477e565b808201805167ffffffffffffffff811115614749575050505061477e565b80602083010160043d03850181111561476657505050505061477e565b6147758260200185018661400d565b82955050505050505b90565b61478a81613f25565b811461479557600080fd5b50565b6147a181613f37565b81146147ac57600080fd5b50565b6147b881613f43565b81146147c357600080fd5b50565b6147cf81613f8f565b81146147da57600080fd5b5056fea2646970667358221220f4a5e8d642247030a7e9b3a50573060274fe6b3269adae8accb574a52404203764736f6c63430008040033",
  "immutableReferences": {},
  "source": "// SPDX-License-Identifier: UNLICENSED\r\n\r\npragma solidity 0.8.4;\r\n\r\nimport \"../../lib/token/ERC1155/ERC1155.sol\";\r\nimport \"../../lib/token/ERC1155/extensions/ERC1155Supply.sol\";\r\nimport \"../../lib/access/Ownable.sol\";\r\nimport \"../../lib/security/Pausable.sol\";\r\nimport \"../../lib/token/ERC1155/extensions/ERC1155Pausable.sol\";\r\n\r\ncontract OrbitauERC1155 is ERC1155Pausable, Ownable {\r\n    /**\r\n     * @dev Mapping from token IDs to their creator.\r\n     */\r\n    mapping(uint256 => address) internal _creator;\r\n\r\n    /**\r\n     * @dev Mapping from token IDs to their total supplies.\r\n     */\r\n    mapping(uint256 => uint256) internal _totalSupply;\r\n\r\n    /**\r\n     * @dev Mapping from NFT ID to metadata uri.\r\n     */\r\n    mapping(uint256 => string) internal _idToUri;\r\n\r\n    modifier creatorOrApproved(address creator) {\r\n        address operator = msg.sender;\r\n        require(operator == creator || isApprovedForAll(creator, msg.sender), \"ERC1155: caller is not creator nor approved\");\r\n        _;\r\n    }\r\n\r\n    /**\r\n     * @dev Create a new OrbitauERC1155 contract and set the `_uri` value.\r\n     *\r\n     */\r\n    constructor(string memory baseURI_) ERC1155(baseURI_) Ownable() Pausable() {\r\n    }\r\n\r\n    /**\r\n     * @dev Total amount of tokens in with a given id.\r\n     */\r\n    function totalSupply(uint256 id) public view virtual returns (uint256) {\r\n        return _totalSupply[id];\r\n    }\r\n\r\n    /**\r\n     * @dev Return the indicator whether a token exists given its id.\r\n     */\r\n    function exists(uint256 _id) public view virtual returns (bool) {\r\n        return _totalSupply[_id] > 0;\r\n    }\r\n\r\n    /**\r\n     * @dev Return the creator of an NFT given its id.\r\n     */\r\n    function getCreator(uint256 _id) external view returns (address) {\r\n        return _creator[_id];\r\n    }\r\n\r\n    /**\r\n     * @dev Pause the contract in case of bugs/attacks.\r\n     * @notice Only the owner can call this method.\r\n     */\r\n    function pause() public onlyOwner {\r\n        _pause();\r\n    }\r\n\r\n    /**\r\n     * @dev Resume the contract after being paused.\r\n     * @notice Only the owner can call this method.\r\n     */\r\n    function unPause() public onlyOwner {\r\n        _unpause();\r\n    }\r\n\r\n    /**\r\n     * @dev Mint a new ERC1155 token. A token can only be minted once.\r\n     * @notice It reverts if\r\n     *      - The `msg.sender` is not `to` or approved by `to`.\r\n     *      - `to` is the zero address.\r\n     *      - `to` cannot receive the token.\r\n     */\r\n    function mint(\r\n        address to,\r\n        string calldata uri_,\r\n        uint256 amount,\r\n        bytes memory data\r\n    ) external virtual returns (uint256){\r\n        uint256 id = uint256(keccak256(abi.encode(to, uri_)));\r\n\r\n        _mint(to, id, amount, data);\r\n        _setTokenUri(id, uri_);\r\n\r\n        // save the creator (if needed)\r\n        if (_creator[id] == address(0x0)) {\r\n            _saveCreator(id, to);\r\n        }\r\n\r\n        return id;\r\n    }\r\n\r\n    /**\r\n     * @dev Mint a batch of tokens.\r\n     */\r\n    function mintBatch(\r\n        address to,\r\n        string[] calldata uriList,\r\n        uint256[] calldata amounts,\r\n        bytes memory data\r\n    ) external virtual returns (uint256[] memory) {\r\n        require(uriList.length == amounts.length, \"ERC1155: mintBatch lengths mismatch\");\r\n\r\n        uint256[] memory ids = new uint256[](uriList.length);\r\n        for (uint256 i = 0; i < uriList.length; ++i) {\r\n            ids[i] = uint256(keccak256(abi.encode(to, uriList[i])));\r\n        }\r\n\r\n        _mintBatch(to, ids, amounts, data);\r\n        for (uint256 i = 0; i < uriList.length; ++i) {\r\n            _setTokenUri(ids[i], uriList[i]);\r\n\r\n            // save the creator (if needed)\r\n            if (_creator[ids[i]] == address(0x0)) {\r\n                _saveCreator(ids[i], to);\r\n            }\r\n        }\r\n\r\n        return ids;\r\n    }\r\n\r\n    /**\r\n     * @dev Sets a new URI for all token types, by relying on the token type ID\r\n     * substitution mechanism\r\n     * https://eips.ethereum.org/EIPS/eip-1155#metadata[defined in the EIP].\r\n     *\r\n     * By this mechanism, any occurrence of the `\\{id\\}` substring in either the\r\n     * URI or any of the amounts in the JSON file at said URI will be replaced by\r\n     * clients with the token type ID.\r\n     *\r\n     * For example, the `https://token-cdn-domain/\\{id\\}.json` URI would be\r\n     * interpreted by clients as\r\n     * `https://token-cdn-domain/000000000000000000000000000000000000000000000000000000000004cce0.json`\r\n     * for token type ID 0x4cce0.\r\n     *\r\n     * See {uri}.\r\n     *\r\n     * Because these URIs cannot be meaningfully represented by the {URI} event,\r\n     * this function emits no events.\r\n     */\r\n    function setURI(string memory newURI) public onlyOwner whenNotPaused {\r\n        _setURI(newURI);\r\n    }\r\n\r\n    /**\r\n     * @dev Return the URI of a tokenId.\r\n     */\r\n    function uri(uint256 tokenId) public view virtual override returns (string memory) {\r\n        require(exists(tokenId), \"ERC1155: URI query for nonexistent token\");\r\n\r\n        string memory baseURI = super.uri(tokenId);\r\n\r\n        return bytes(baseURI).length > 0 ? string(abi.encodePacked(baseURI, _idToUri[tokenId])) : _idToUri[tokenId];\r\n    }\r\n\r\n    /**\r\n     * @dev Set a distinct URI (RFC 3986) for a given NFT ID.\r\n     * @notice This is an internal function which should be called from user-implemented external\r\n     * function.\r\n     * @notice It throws an exception if the _tokenId does not exist.\r\n     * @param tokenId_ Id for which we want URI.\r\n     * @param uri_ String representing RFC 3986 URI.\r\n     */\r\n    function _setTokenUri(\r\n        uint256 tokenId_,\r\n        string calldata uri_\r\n    )\r\n    internal\r\n    {\r\n        require(exists(tokenId_), \"ERC1155: URI query for nonexistent token\");\r\n        _idToUri[tokenId_] = uri_;\r\n    }\r\n\r\n    /**\r\n     * @dev Save the creator of a token.\r\n     * @notice It reverts when\r\n     *   - `_creator` is the zero address; or\r\n     *   - the tokenId already had a creator.\r\n     */\r\n    function _saveCreator(uint256 tokenId, address creator_) internal {\r\n        require(creator_ != address(0x0), \"ERC1155: zero address creator\");\r\n        require(_creator[tokenId] == address(0x0), \"ERC1155: already had a creator\");\r\n        _creator[tokenId] = creator_;\r\n    }\r\n\r\n    /**\r\n     * @dev See {ERC1155-_mint}.\r\n     */\r\n    function _mint(address account, uint256 id, uint256 amount, bytes memory data) internal virtual override {\r\n        require(amount > 0, \"ERC1155: mint amount is zero\");\r\n        super._mint(account, id, amount, data);\r\n        _totalSupply[id] += amount;\r\n    }\r\n\r\n    /**\r\n     * @dev See {ERC1155-_mintBatch}.\r\n     */\r\n    function _mintBatch(\r\n        address to,\r\n        uint256[] memory ids,\r\n        uint256[] memory amounts,\r\n        bytes memory data\r\n    ) internal virtual override {\r\n        super._mintBatch(to, ids, amounts, data);\r\n        for (uint256 i = 0; i < ids.length; ++i) {\r\n            _totalSupply[ids[i]] += amounts[i];\r\n        }\r\n    }\r\n\r\n    /**\r\n     * @dev See {ERC1155-_burn}.\r\n     */\r\n    function _burn(\r\n        address account,\r\n        uint256 id,\r\n        uint256 amount\r\n    ) internal virtual override {\r\n        super._burn(account, id, amount);\r\n        _totalSupply[id] -= amount;\r\n    }\r\n\r\n    /**\r\n     * @dev See {ERC1155-_burnBatch}.\r\n     */\r\n    function _burnBatch(\r\n        address account,\r\n        uint256[] memory ids,\r\n        uint256[] memory amounts\r\n    ) internal virtual override {\r\n        super._burnBatch(account, ids, amounts);\r\n        for (uint256 i = 0; i < ids.length; ++i) {\r\n            _totalSupply[ids[i]] -= amounts[i];\r\n        }\r\n    }\r\n\r\n}\r\n",
  "sourcePath": "D:\\0xTaureum\\github\\orbitau-smart-contract\\contracts\\tokens\\ERC1155\\OrbitauERC1155.sol",
  "compiler": {
    "name": "solc",
    "version": "0.8.4+commit.c7e474f2.Emscripten.clang"
  },
  "schemaVersion": "3.4.3",
  "updatedAt": "2021-09-21T14:38:21.184Z",
  "devdoc": {
    "kind": "dev",
    "methods": {
      "balanceOf(address,uint256)": {
        "details": "See {IERC1155-balanceOf}. Requirements: - `account` cannot be the zero address."
      },
      "balanceOfBatch(address[],uint256[])": {
        "details": "See {IERC1155-balanceOfBatch}. Requirements: - `accounts` and `ids` must have the same length."
      },
      "constructor": {
        "details": "Create a new OrbitauERC1155 contract and set the `_uri` value."
      },
      "exists(uint256)": {
        "details": "Return the indicator whether a token exists given its id."
      },
      "getCreator(uint256)": {
        "details": "Return the creator of an NFT given its id."
      },
      "isApprovedForAll(address,address)": {
        "details": "See {IERC1155-isApprovedForAll}."
      },
      "mint(address,string,uint256,bytes)": {
        "details": "Mint a new ERC1155 token. A token can only be minted once."
      },
      "mintBatch(address,string[],uint256[],bytes)": {
        "details": "Mint a batch of tokens."
      },
      "owner()": {
        "details": "Returns the address of the current owner."
      },
      "pause()": {
        "details": "Pause the contract in case of bugs/attacks."
      },
      "paused()": {
        "details": "Returns true if the contract is paused, and false otherwise."
      },
      "renounceOwnership()": {
        "details": "Leaves the contract without owner. It will not be possible to call `onlyOwner` functions anymore. Can only be called by the current owner. NOTE: Renouncing ownership will leave the contract without an owner, thereby removing any functionality that is only available to the owner."
      },
      "safeBatchTransferFrom(address,address,uint256[],uint256[],bytes)": {
        "details": "See {IERC1155-safeBatchTransferFrom}."
      },
      "safeTransferFrom(address,address,uint256,uint256,bytes)": {
        "details": "See {IERC1155-safeTransferFrom}."
      },
      "setApprovalForAll(address,bool)": {
        "details": "See {IERC1155-setApprovalForAll}."
      },
      "setURI(string)": {
        "details": "Sets a new URI for all token types, by relying on the token type ID substitution mechanism https://eips.ethereum.org/EIPS/eip-1155#metadata[defined in the EIP]. By this mechanism, any occurrence of the `\\{id\\}` substring in either the URI or any of the amounts in the JSON file at said URI will be replaced by clients with the token type ID. For example, the `https://token-cdn-domain/\\{id\\}.json` URI would be interpreted by clients as `https://token-cdn-domain/000000000000000000000000000000000000000000000000000000000004cce0.json` for token type ID 0x4cce0. See {uri}. Because these URIs cannot be meaningfully represented by the {URI} event, this function emits no events."
      },
      "supportsInterface(bytes4)": {
        "details": "See {IERC165-supportsInterface}."
      },
      "totalSupply(uint256)": {
        "details": "Total amount of tokens in with a given id."
      },
      "transferOwnership(address)": {
        "details": "Transfers ownership of the contract to a new account (`newOwner`). Can only be called by the current owner."
      },
      "unPause()": {
        "details": "Resume the contract after being paused."
      },
      "uri(uint256)": {
        "details": "Return the URI of a tokenId."
      }
    },
    "stateVariables": {
      "_creator": {
        "details": "Mapping from token IDs to their creator."
      },
      "_idToUri": {
        "details": "Mapping from NFT ID to metadata uri."
      },
      "_totalSupply": {
        "details": "Mapping from token IDs to their total supplies."
      }
    },
    "version": 1
  },
  "userdoc": {
    "kind": "user",
    "methods": {
      "mint(address,string,uint256,bytes)": {
        "notice": "It reverts if      - The `msg.sender` is not `to` or approved by `to`.      - `to` is the zero address.      - `to` cannot receive the token."
      },
      "pause()": {
        "notice": "Only the owner can call this method."
      },
      "unPause()": {
        "notice": "Only the owner can call this method."
      }
    },
    "version": 1
  }
}