{
  "contractName": "OrbitauERC1155LazyMint",
  "abi": [
    {
      "inputs": [
        {
          "internalType": "string",
          "name": "uri_",
          "type": "string"
        }
      ],
      "stateMutability": "nonpayable",
      "type": "constructor"
    },
    {
      "anonymous": false,
      "inputs": [
        {
          "indexed": true,
          "internalType": "address",
          "name": "account",
          "type": "address"
        },
        {
          "indexed": true,
          "internalType": "address",
          "name": "operator",
          "type": "address"
        },
        {
          "indexed": false,
          "internalType": "bool",
          "name": "approved",
          "type": "bool"
        }
      ],
      "name": "ApprovalForAll",
      "type": "event"
    },
    {
      "anonymous": false,
      "inputs": [
        {
          "indexed": false,
          "internalType": "address",
          "name": "creator",
          "type": "address"
        },
        {
          "indexed": false,
          "internalType": "bytes32",
          "name": "digest",
          "type": "bytes32"
        },
        {
          "indexed": false,
          "internalType": "bytes",
          "name": "signature",
          "type": "bytes"
        },
        {
          "indexed": false,
          "internalType": "bytes32",
          "name": "salt",
          "type": "bytes32"
        }
      ],
      "name": "Logs",
      "type": "event"
    },
    {
      "anonymous": false,
      "inputs": [
        {
          "indexed": true,
          "internalType": "address",
          "name": "previousOwner",
          "type": "address"
        },
        {
          "indexed": true,
          "internalType": "address",
          "name": "newOwner",
          "type": "address"
        }
      ],
      "name": "OwnershipTransferred",
      "type": "event"
    },
    {
      "anonymous": false,
      "inputs": [
        {
          "indexed": false,
          "internalType": "address",
          "name": "account",
          "type": "address"
        }
      ],
      "name": "Paused",
      "type": "event"
    },
    {
      "anonymous": false,
      "inputs": [
        {
          "indexed": true,
          "internalType": "address",
          "name": "operator",
          "type": "address"
        },
        {
          "indexed": true,
          "internalType": "address",
          "name": "from",
          "type": "address"
        },
        {
          "indexed": true,
          "internalType": "address",
          "name": "to",
          "type": "address"
        },
        {
          "indexed": false,
          "internalType": "uint256[]",
          "name": "ids",
          "type": "uint256[]"
        },
        {
          "indexed": false,
          "internalType": "uint256[]",
          "name": "values",
          "type": "uint256[]"
        }
      ],
      "name": "TransferBatch",
      "type": "event"
    },
    {
      "anonymous": false,
      "inputs": [
        {
          "indexed": true,
          "internalType": "address",
          "name": "operator",
          "type": "address"
        },
        {
          "indexed": true,
          "internalType": "address",
          "name": "from",
          "type": "address"
        },
        {
          "indexed": true,
          "internalType": "address",
          "name": "to",
          "type": "address"
        },
        {
          "indexed": false,
          "internalType": "uint256",
          "name": "id",
          "type": "uint256"
        },
        {
          "indexed": false,
          "internalType": "uint256",
          "name": "value",
          "type": "uint256"
        }
      ],
      "name": "TransferSingle",
      "type": "event"
    },
    {
      "anonymous": false,
      "inputs": [
        {
          "indexed": false,
          "internalType": "string",
          "name": "value",
          "type": "string"
        },
        {
          "indexed": true,
          "internalType": "uint256",
          "name": "id",
          "type": "uint256"
        }
      ],
      "name": "URI",
      "type": "event"
    },
    {
      "anonymous": false,
      "inputs": [
        {
          "indexed": false,
          "internalType": "address",
          "name": "account",
          "type": "address"
        }
      ],
      "name": "Unpaused",
      "type": "event"
    },
    {
      "inputs": [
        {
          "internalType": "address",
          "name": "account",
          "type": "address"
        },
        {
          "internalType": "uint256",
          "name": "id",
          "type": "uint256"
        }
      ],
      "name": "balanceOf",
      "outputs": [
        {
          "internalType": "uint256",
          "name": "",
          "type": "uint256"
        }
      ],
      "stateMutability": "view",
      "type": "function"
    },
    {
      "inputs": [
        {
          "internalType": "address[]",
          "name": "accounts",
          "type": "address[]"
        },
        {
          "internalType": "uint256[]",
          "name": "ids",
          "type": "uint256[]"
        }
      ],
      "name": "balanceOfBatch",
      "outputs": [
        {
          "internalType": "uint256[]",
          "name": "",
          "type": "uint256[]"
        }
      ],
      "stateMutability": "view",
      "type": "function"
    },
    {
      "inputs": [
        {
          "internalType": "uint256",
          "name": "_id",
          "type": "uint256"
        }
      ],
      "name": "exists",
      "outputs": [
        {
          "internalType": "bool",
          "name": "",
          "type": "bool"
        }
      ],
      "stateMutability": "view",
      "type": "function"
    },
    {
      "inputs": [
        {
          "internalType": "uint256",
          "name": "_id",
          "type": "uint256"
        }
      ],
      "name": "getCreator",
      "outputs": [
        {
          "internalType": "address",
          "name": "",
          "type": "address"
        }
      ],
      "stateMutability": "view",
      "type": "function"
    },
    {
      "inputs": [
        {
          "internalType": "address",
          "name": "account",
          "type": "address"
        },
        {
          "internalType": "address",
          "name": "operator",
          "type": "address"
        }
      ],
      "name": "isApprovedForAll",
      "outputs": [
        {
          "internalType": "bool",
          "name": "",
          "type": "bool"
        }
      ],
      "stateMutability": "view",
      "type": "function"
    },
    {
      "inputs": [
        {
          "internalType": "address",
          "name": "to",
          "type": "address"
        },
        {
          "internalType": "string",
          "name": "uri_",
          "type": "string"
        },
        {
          "internalType": "uint256",
          "name": "amount",
          "type": "uint256"
        },
        {
          "internalType": "bytes",
          "name": "data",
          "type": "bytes"
        }
      ],
      "name": "mint",
      "outputs": [
        {
          "internalType": "uint256",
          "name": "",
          "type": "uint256"
        }
      ],
      "stateMutability": "nonpayable",
      "type": "function"
    },
    {
      "inputs": [
        {
          "internalType": "address",
          "name": "to",
          "type": "address"
        },
        {
          "internalType": "string[]",
          "name": "uriList",
          "type": "string[]"
        },
        {
          "internalType": "uint256[]",
          "name": "amounts",
          "type": "uint256[]"
        },
        {
          "internalType": "bytes",
          "name": "data",
          "type": "bytes"
        }
      ],
      "name": "mintBatch",
      "outputs": [
        {
          "internalType": "uint256[]",
          "name": "",
          "type": "uint256[]"
        }
      ],
      "stateMutability": "nonpayable",
      "type": "function"
    },
    {
      "inputs": [],
      "name": "owner",
      "outputs": [
        {
          "internalType": "address",
          "name": "",
          "type": "address"
        }
      ],
      "stateMutability": "view",
      "type": "function"
    },
    {
      "inputs": [],
      "name": "pause",
      "outputs": [],
      "stateMutability": "nonpayable",
      "type": "function"
    },
    {
      "inputs": [],
      "name": "paused",
      "outputs": [
        {
          "internalType": "bool",
          "name": "",
          "type": "bool"
        }
      ],
      "stateMutability": "view",
      "type": "function"
    },
    {
      "inputs": [],
      "name": "renounceOwnership",
      "outputs": [],
      "stateMutability": "nonpayable",
      "type": "function"
    },
    {
      "inputs": [
        {
          "internalType": "address",
          "name": "from",
          "type": "address"
        },
        {
          "internalType": "address",
          "name": "to",
          "type": "address"
        },
        {
          "internalType": "uint256[]",
          "name": "ids",
          "type": "uint256[]"
        },
        {
          "internalType": "uint256[]",
          "name": "amounts",
          "type": "uint256[]"
        },
        {
          "internalType": "bytes",
          "name": "data",
          "type": "bytes"
        }
      ],
      "name": "safeBatchTransferFrom",
      "outputs": [],
      "stateMutability": "nonpayable",
      "type": "function"
    },
    {
      "inputs": [
        {
          "internalType": "address",
          "name": "from",
          "type": "address"
        },
        {
          "internalType": "address",
          "name": "to",
          "type": "address"
        },
        {
          "internalType": "uint256",
          "name": "id",
          "type": "uint256"
        },
        {
          "internalType": "uint256",
          "name": "amount",
          "type": "uint256"
        },
        {
          "internalType": "bytes",
          "name": "data",
          "type": "bytes"
        }
      ],
      "name": "safeTransferFrom",
      "outputs": [],
      "stateMutability": "nonpayable",
      "type": "function"
    },
    {
      "inputs": [
        {
          "internalType": "address",
          "name": "operator",
          "type": "address"
        },
        {
          "internalType": "bool",
          "name": "approved",
          "type": "bool"
        }
      ],
      "name": "setApprovalForAll",
      "outputs": [],
      "stateMutability": "nonpayable",
      "type": "function"
    },
    {
      "inputs": [
        {
          "internalType": "string",
          "name": "newURI",
          "type": "string"
        }
      ],
      "name": "setURI",
      "outputs": [],
      "stateMutability": "nonpayable",
      "type": "function"
    },
    {
      "inputs": [
        {
          "internalType": "bytes4",
          "name": "interfaceId",
          "type": "bytes4"
        }
      ],
      "name": "supportsInterface",
      "outputs": [
        {
          "internalType": "bool",
          "name": "",
          "type": "bool"
        }
      ],
      "stateMutability": "view",
      "type": "function"
    },
    {
      "inputs": [
        {
          "internalType": "uint256",
          "name": "id",
          "type": "uint256"
        }
      ],
      "name": "totalSupply",
      "outputs": [
        {
          "internalType": "uint256",
          "name": "",
          "type": "uint256"
        }
      ],
      "stateMutability": "view",
      "type": "function"
    },
    {
      "inputs": [
        {
          "internalType": "address",
          "name": "newOwner",
          "type": "address"
        }
      ],
      "name": "transferOwnership",
      "outputs": [],
      "stateMutability": "nonpayable",
      "type": "function"
    },
    {
      "inputs": [],
      "name": "unPause",
      "outputs": [],
      "stateMutability": "nonpayable",
      "type": "function"
    },
    {
      "inputs": [
        {
          "internalType": "uint256",
          "name": "tokenId",
          "type": "uint256"
        }
      ],
      "name": "uri",
      "outputs": [
        {
          "internalType": "string",
          "name": "",
          "type": "string"
        }
      ],
      "stateMutability": "view",
      "type": "function"
    },
    {
      "inputs": [
        {
          "internalType": "address",
          "name": "redeemer",
          "type": "address"
        },
        {
          "components": [
            {
              "internalType": "string",
              "name": "tokenURI",
              "type": "string"
            },
            {
              "internalType": "uint256",
              "name": "amount",
              "type": "uint256"
            },
            {
              "internalType": "uint256",
              "name": "salt",
              "type": "uint256"
            },
            {
              "internalType": "bytes",
              "name": "signature",
              "type": "bytes"
            }
          ],
          "internalType": "struct OrbitauERC1155LazyMint.MintData",
          "name": "mintData",
          "type": "tuple"
        }
      ],
      "name": "redeem",
      "outputs": [
        {
          "internalType": "uint256",
          "name": "",
          "type": "uint256"
        }
      ],
      "stateMutability": "nonpayable",
      "type": "function"
    }
  ],
  "bytecode": "0x6101206040523480156200001257600080fd5b5060405162005c2638038062005c2683398181016040528101906200003891906200038b565b6040518060400160405280600b81526020017f4f726269746175313135350000000000000000000000000000000000000000008152506040518060400160405280600181526020017f31000000000000000000000000000000000000000000000000000000000000008152508280620000b7816200020960201b60201c565b506000600360006101000a81548160ff0219169083151502179055506000620000e56200022560201b60201c565b905080600360016101000a81548173ffffffffffffffffffffffffffffffffffffffff021916908373ffffffffffffffffffffffffffffffffffffffff1602179055508073ffffffffffffffffffffffffffffffffffffffff16600073ffffffffffffffffffffffffffffffffffffffff167f8be0079c531659141344cd1fd0a4f28419497f9722a3daafe3b4186f6b6457e060405160405180910390a3505060008280519060200120905060008280519060200120905060007f8b73c3c69bb8fe3d512ecc4cf759cc79239f7b179b0ffacaa9a75d522b39400f90508260c081815250508160e081815250504660a08181525050620001ed8184846200022d60201b60201c565b6080818152505080610100818152505050505050505062000618565b80600290805190602001906200022192919062000269565b5050565b600033905090565b600083838346306040516020016200024a95949392919062000403565b6040516020818303038152906040528051906020012090509392505050565b82805462000277906200053d565b90600052602060002090601f0160209004810192826200029b5760008555620002e7565b82601f10620002b657805160ff1916838001178555620002e7565b82800160010185558215620002e7579182015b82811115620002e6578251825591602001919060010190620002c9565b5b509050620002f69190620002fa565b5090565b5b8082111562000315576000816000905550600101620002fb565b5090565b6000620003306200032a8462000489565b62000460565b9050828152602081018484840111156200034957600080fd5b6200035684828562000507565b509392505050565b600082601f8301126200037057600080fd5b81516200038284826020860162000319565b91505092915050565b6000602082840312156200039e57600080fd5b600082015167ffffffffffffffff811115620003b957600080fd5b620003c7848285016200035e565b91505092915050565b620003db81620004bf565b82525050565b620003ec81620004d3565b82525050565b620003fd81620004fd565b82525050565b600060a0820190506200041a6000830188620003e1565b620004296020830187620003e1565b620004386040830186620003e1565b620004476060830185620003f2565b620004566080830184620003d0565b9695505050505050565b60006200046c6200047f565b90506200047a828262000573565b919050565b6000604051905090565b600067ffffffffffffffff821115620004a757620004a6620005d8565b5b620004b28262000607565b9050602081019050919050565b6000620004cc82620004dd565b9050919050565b6000819050919050565b600073ffffffffffffffffffffffffffffffffffffffff82169050919050565b6000819050919050565b60005b83811015620005275780820151818401526020810190506200050a565b8381111562000537576000848401525b50505050565b600060028204905060018216806200055657607f821691505b602082108114156200056d576200056c620005a9565b5b50919050565b6200057e8262000607565b810181811067ffffffffffffffff82111715620005a0576200059f620005d8565b5b80604052505050565b7f4e487b7100000000000000000000000000000000000000000000000000000000600052602260045260246000fd5b7f4e487b7100000000000000000000000000000000000000000000000000000000600052604160045260246000fd5b6000601f19601f8301169050919050565b60805160a05160c05160e051610100516155c96200065d6000396000612f5101526000612f9301526000612f7201526000612efe01526000612f2601526155c96000f3fe608060405234801561001057600080fd5b50600436106101365760003560e01c8063715018a6116100b8578063bd85b0391161007c578063bd85b0391461035f578063d48e638a1461038f578063e985e9c5146103bf578063f242432a146103ef578063f2fde38b1461040b578063f7b188a51461042757610136565b8063715018a6146102e15780638456cb59146102eb5780638da5cb5b146102f5578063a22cb46514610313578063b6e04e001461032f57610136565b8063428a328b116100ff578063428a328b146102035780634e1273f4146102335780634f558e79146102635780635523c250146102935780635c975abb146102c357610136565b8062fdd58e1461013b57806301ffc9a71461016b57806302fe53051461019b5780630e89341c146101b75780632eb2c2d6146101e7575b600080fd5b610155600480360381019061015091906139ca565b610431565b604051610162919061480c565b60405180910390f35b61018560048036038101906101809190613a72565b6104fa565b6040516101929190614392565b60405180910390f35b6101b560048036038101906101b09190613ac4565b6105dc565b005b6101d160048036038101906101cc9190613b05565b6106ac565b6040516101de919061448a565b60405180910390f35b61020160048036038101906101fc91906136a1565b6107ea565b005b61021d600480360381019061021891906137ef565b610be0565b60405161022a9190614339565b60405180910390f35b61024d60048036038101906102489190613a06565b610f7e565b60405161025a9190614339565b60405180910390f35b61027d60048036038101906102789190613b05565b61112f565b60405161028a9190614392565b60405180910390f35b6102ad60048036038101906102a891906138de565b61114e565b6040516102ba919061480c565b60405180910390f35b6102cb611218565b6040516102d89190614392565b60405180910390f35b6102e961122f565b005b6102f361136c565b005b6102fd6113f2565b60405161030a919061422a565b60405180910390f35b61032d600480360381019061032891906138a2565b61141c565b005b61034960048036038101906103449190613976565b61159d565b604051610356919061480c565b60405180910390f35b61037960048036038101906103749190613b05565b611834565b604051610386919061480c565b60405180910390f35b6103a960048036038101906103a49190613b05565b611851565b6040516103b6919061422a565b60405180910390f35b6103d960048036038101906103d49190613665565b61188e565b6040516103e69190614392565b60405180910390f35b61040960048036038101906104049190613760565b611922565b005b6104256004803603810190610420919061363c565b611c3a565b005b61042f611de6565b005b60008073ffffffffffffffffffffffffffffffffffffffff168373ffffffffffffffffffffffffffffffffffffffff1614156104a2576040517f08c379a00000000000000000000000000000000000000000000000000000000081526004016104999061458c565b60405180910390fd5b60008083815260200190815260200160002060008473ffffffffffffffffffffffffffffffffffffffff1673ffffffffffffffffffffffffffffffffffffffff16815260200190815260200160002054905092915050565b60007fd9b67a26000000000000000000000000000000000000000000000000000000007bffffffffffffffffffffffffffffffffffffffffffffffffffffffff1916827bffffffffffffffffffffffffffffffffffffffffffffffffffffffff191614806105c557507f0e89341c000000000000000000000000000000000000000000000000000000007bffffffffffffffffffffffffffffffffffffffffffffffffffffffff1916827bffffffffffffffffffffffffffffffffffffffffffffffffffffffff1916145b806105d557506105d482611e6c565b5b9050919050565b6105e4611ed6565b73ffffffffffffffffffffffffffffffffffffffff166106026113f2565b73ffffffffffffffffffffffffffffffffffffffff1614610658576040517f08c379a000000000000000000000000000000000000000000000000000000000815260040161064f9061474c565b60405180910390fd5b610660611218565b156106a0576040517f08c379a00000000000000000000000000000000000000000000000000000000081526004016106979061466c565b60405180910390fd5b6106a981611ede565b50565b60606106b78261112f565b6106f6576040517f08c379a00000000000000000000000000000000000000000000000000000000081526004016106ed9061470c565b60405180910390fd5b600061070183611ef8565b905060008151116107ad5760066000848152602001908152602001600020805461072a90614bd0565b80601f016020809104026020016040519081016040528092919081815260200182805461075690614bd0565b80156107a35780601f10610778576101008083540402835291602001916107a3565b820191906000526020600020905b81548152906001019060200180831161078657829003601f168201915b50505050506107e2565b80600660008581526020019081526020016000206040516020016107d29291906141cf565b6040516020818303038152906040525b915050919050565b815183511461082e576040517f08c379a0000000000000000000000000000000000000000000000000000000008152600401610825906147ac565b60405180910390fd5b600073ffffffffffffffffffffffffffffffffffffffff168473ffffffffffffffffffffffffffffffffffffffff16141561089e576040517f08c379a00000000000000000000000000000000000000000000000000000000081526004016108959061468c565b60405180910390fd5b6108a6611ed6565b73ffffffffffffffffffffffffffffffffffffffff168573ffffffffffffffffffffffffffffffffffffffff1614806108ec57506108eb856108e6611ed6565b61188e565b5b61092b576040517f08c379a0000000000000000000000000000000000000000000000000000000008152600401610922906146ac565b60405180910390fd5b6000610935611ed6565b9050610945818787878787611f8c565b60005b8451811015610b4b57600085828151811061098c577f4e487b7100000000000000000000000000000000000000000000000000000000600052603260045260246000fd5b6020026020010151905060008583815181106109d1577f4e487b7100000000000000000000000000000000000000000000000000000000600052603260045260246000fd5b60200260200101519050600080600084815260200190815260200160002060008b73ffffffffffffffffffffffffffffffffffffffff1673ffffffffffffffffffffffffffffffffffffffff16815260200190815260200160002054905081811015610a72576040517f08c379a0000000000000000000000000000000000000000000000000000000008152600401610a699061472c565b60405180910390fd5b8181610a7e9190614acf565b60008085815260200190815260200160002060008c73ffffffffffffffffffffffffffffffffffffffff1673ffffffffffffffffffffffffffffffffffffffff168152602001908152602001600020819055508160008085815260200190815260200160002060008b73ffffffffffffffffffffffffffffffffffffffff1673ffffffffffffffffffffffffffffffffffffffff1681526020019081526020016000206000828254610b309190614a79565b9250508190555050505080610b4490614c33565b9050610948565b508473ffffffffffffffffffffffffffffffffffffffff168673ffffffffffffffffffffffffffffffffffffffff168273ffffffffffffffffffffffffffffffffffffffff167f4a39dc06d4c0dbc64b70af90fd698a233a518aa5d07e595d983b8c0526c8f7fb8787604051610bc292919061435b565b60405180910390a4610bd8818787878787611fea565b505050505050565b6060838390508686905014610c2a576040517f08c379a0000000000000000000000000000000000000000000000000000000008152600401610c219061454c565b60405180910390fd5b60008686905067ffffffffffffffff811115610c6f577f4e487b7100000000000000000000000000000000000000000000000000000000600052604160045260246000fd5b604051908082528060200260200182016040528015610c9d5781602001602082028036833780820191505090505b50905060005b87879050811015610d7b5788888883818110610ce8577f4e487b7100000000000000000000000000000000000000000000000000000000600052603260045260246000fd5b9050602002810190610cfa91906148a7565b604051602001610d0c93929190614307565b6040516020818303038152906040528051906020012060001c828281518110610d5e577f4e487b7100000000000000000000000000000000000000000000000000000000600052603260045260246000fd5b60200260200101818152505080610d7490614c33565b9050610ca3565b50610dc98882878780806020026020016040519081016040528093929190818152602001838360200280828437600081840152601f19601f82011690508083019250505050505050866121d1565b60005b87879050811015610f6f57610e6b828281518110610e13577f4e487b7100000000000000000000000000000000000000000000000000000000600052603260045260246000fd5b6020026020010151898984818110610e54577f4e487b7100000000000000000000000000000000000000000000000000000000600052603260045260246000fd5b9050602002810190610e6691906148a7565b6122ab565b600073ffffffffffffffffffffffffffffffffffffffff1660046000848481518110610ec0577f4e487b7100000000000000000000000000000000000000000000000000000000600052603260045260246000fd5b6020026020010151815260200190815260200160002060009054906101000a900473ffffffffffffffffffffffffffffffffffffffff1673ffffffffffffffffffffffffffffffffffffffff161415610f5e57610f5d828281518110610f4f577f4e487b7100000000000000000000000000000000000000000000000000000000600052603260045260246000fd5b60200260200101518a61231b565b5b80610f6890614c33565b9050610dcc565b50809150509695505050505050565b60608151835114610fc4576040517f08c379a0000000000000000000000000000000000000000000000000000000008152600401610fbb9061478c565b60405180910390fd5b6000835167ffffffffffffffff811115611007577f4e487b7100000000000000000000000000000000000000000000000000000000600052604160045260246000fd5b6040519080825280602002602001820160405280156110355781602001602082028036833780820191505090505b50905060005b8451811015611124576110ce858281518110611080577f4e487b7100000000000000000000000000000000000000000000000000000000600052603260045260246000fd5b60200260200101518583815181106110c1577f4e487b7100000000000000000000000000000000000000000000000000000000600052603260045260246000fd5b6020026020010151610431565b828281518110611107577f4e487b7100000000000000000000000000000000000000000000000000000000600052603260045260246000fd5b6020026020010181815250508061111d90614c33565b905061103b565b508091505092915050565b6000806005600084815260200190815260200160002054119050919050565b60008086868660405160200161116693929190614307565b6040516020818303038152906040528051906020012060001c905061118d87828686612483565b6111988187876122ab565b600073ffffffffffffffffffffffffffffffffffffffff166004600083815260200190815260200160002060009054906101000a900473ffffffffffffffffffffffffffffffffffffffff1673ffffffffffffffffffffffffffffffffffffffff16141561120b5761120a818861231b565b5b8091505095945050505050565b6000600360009054906101000a900460ff16905090565b611237611ed6565b73ffffffffffffffffffffffffffffffffffffffff166112556113f2565b73ffffffffffffffffffffffffffffffffffffffff16146112ab576040517f08c379a00000000000000000000000000000000000000000000000000000000081526004016112a29061474c565b60405180910390fd5b600073ffffffffffffffffffffffffffffffffffffffff16600360019054906101000a900473ffffffffffffffffffffffffffffffffffffffff1673ffffffffffffffffffffffffffffffffffffffff167f8be0079c531659141344cd1fd0a4f28419497f9722a3daafe3b4186f6b6457e060405160405180910390a36000600360016101000a81548173ffffffffffffffffffffffffffffffffffffffff021916908373ffffffffffffffffffffffffffffffffffffffff160217905550565b611374611ed6565b73ffffffffffffffffffffffffffffffffffffffff166113926113f2565b73ffffffffffffffffffffffffffffffffffffffff16146113e8576040517f08c379a00000000000000000000000000000000000000000000000000000000081526004016113df9061474c565b60405180910390fd5b6113f0612502565b565b6000600360019054906101000a900473ffffffffffffffffffffffffffffffffffffffff16905090565b8173ffffffffffffffffffffffffffffffffffffffff1661143b611ed6565b73ffffffffffffffffffffffffffffffffffffffff161415611492576040517f08c379a00000000000000000000000000000000000000000000000000000000081526004016114899061476c565b60405180910390fd5b806001600061149f611ed6565b73ffffffffffffffffffffffffffffffffffffffff1673ffffffffffffffffffffffffffffffffffffffff16815260200190815260200160002060008473ffffffffffffffffffffffffffffffffffffffff1673ffffffffffffffffffffffffffffffffffffffff16815260200190815260200160002060006101000a81548160ff0219169083151502179055508173ffffffffffffffffffffffffffffffffffffffff1661154c611ed6565b73ffffffffffffffffffffffffffffffffffffffff167f17307eab39ab6107e8899845ad3d59bd9653f200f220920489ca2b5937696c31836040516115919190614392565b60405180910390a35050565b6000806115a9836125a5565b90506007600082815260200190815260200160002060009054906101000a900460ff161561160c576040517f08c379a00000000000000000000000000000000000000000000000000000000081526004016116039061460c565b60405180910390fd5b600061166a828580606001906116229190614850565b8080601f016020809104026020016040519081016040528093929190818152602001838380828437600081840152601f19601f82011690508083019250505050505050612630565b905060003390508173ffffffffffffffffffffffffffffffffffffffff168173ffffffffffffffffffffffffffffffffffffffff1614806116b157506116b0823361188e565b5b6116f0576040517f08c379a00000000000000000000000000000000000000000000000000000000081526004016116e7906147ec565b60405180910390fd5b60008286806000019061170391906148a7565b60405160200161171593929190614307565b6040516020818303038152906040528051906020012060001c905061174f8382886020013560405180602001604052806000815250612483565b6117688187806000019061176391906148a7565b6122ab565b600073ffffffffffffffffffffffffffffffffffffffff166004600083815260200190815260200160002060009054906101000a900473ffffffffffffffffffffffffffffffffffffffff1673ffffffffffffffffffffffffffffffffffffffff1614156117db576117da818461231b565b5b60016007600086815260200190815260200160002060006101000a81548160ff021916908315150217905550611827838883896020013560405180602001604052806000815250611922565b8094505050505092915050565b600060056000838152602001908152602001600020549050919050565b60006004600083815260200190815260200160002060009054906101000a900473ffffffffffffffffffffffffffffffffffffffff169050919050565b6000600160008473ffffffffffffffffffffffffffffffffffffffff1673ffffffffffffffffffffffffffffffffffffffff16815260200190815260200160002060008373ffffffffffffffffffffffffffffffffffffffff1673ffffffffffffffffffffffffffffffffffffffff16815260200190815260200160002060009054906101000a900460ff16905092915050565b600073ffffffffffffffffffffffffffffffffffffffff168473ffffffffffffffffffffffffffffffffffffffff161415611992576040517f08c379a00000000000000000000000000000000000000000000000000000000081526004016119899061468c565b60405180910390fd5b61199a611ed6565b73ffffffffffffffffffffffffffffffffffffffff168573ffffffffffffffffffffffffffffffffffffffff1614806119e057506119df856119da611ed6565b61188e565b5b611a1f576040517f08c379a0000000000000000000000000000000000000000000000000000000008152600401611a16906145ec565b60405180910390fd5b6000611a29611ed6565b9050611a49818787611a3a886126ac565b611a43886126ac565b87611f8c565b600080600086815260200190815260200160002060008873ffffffffffffffffffffffffffffffffffffffff1673ffffffffffffffffffffffffffffffffffffffff16815260200190815260200160002054905083811015611ae0576040517f08c379a0000000000000000000000000000000000000000000000000000000008152600401611ad79061472c565b60405180910390fd5b8381611aec9190614acf565b60008087815260200190815260200160002060008973ffffffffffffffffffffffffffffffffffffffff1673ffffffffffffffffffffffffffffffffffffffff168152602001908152602001600020819055508360008087815260200190815260200160002060008873ffffffffffffffffffffffffffffffffffffffff1673ffffffffffffffffffffffffffffffffffffffff1681526020019081526020016000206000828254611b9e9190614a79565b925050819055508573ffffffffffffffffffffffffffffffffffffffff168773ffffffffffffffffffffffffffffffffffffffff168373ffffffffffffffffffffffffffffffffffffffff167fc3d58168c5ae7397731d063d5bbf3d657854427343f4c083240f7aacaa2d0f628888604051611c1b929190614827565b60405180910390a4611c31828888888888612772565b50505050505050565b611c42611ed6565b73ffffffffffffffffffffffffffffffffffffffff16611c606113f2565b73ffffffffffffffffffffffffffffffffffffffff1614611cb6576040517f08c379a0000000000000000000000000000000000000000000000000000000008152600401611cad9061474c565b60405180910390fd5b600073ffffffffffffffffffffffffffffffffffffffff168173ffffffffffffffffffffffffffffffffffffffff161415611d26576040517f08c379a0000000000000000000000000000000000000000000000000000000008152600401611d1d906145ac565b60405180910390fd5b8073ffffffffffffffffffffffffffffffffffffffff16600360019054906101000a900473ffffffffffffffffffffffffffffffffffffffff1673ffffffffffffffffffffffffffffffffffffffff167f8be0079c531659141344cd1fd0a4f28419497f9722a3daafe3b4186f6b6457e060405160405180910390a380600360016101000a81548173ffffffffffffffffffffffffffffffffffffffff021916908373ffffffffffffffffffffffffffffffffffffffff16021790555050565b611dee611ed6565b73ffffffffffffffffffffffffffffffffffffffff16611e0c6113f2565b73ffffffffffffffffffffffffffffffffffffffff1614611e62576040517f08c379a0000000000000000000000000000000000000000000000000000000008152600401611e599061474c565b60405180910390fd5b611e6a612959565b565b60007f01ffc9a7000000000000000000000000000000000000000000000000000000007bffffffffffffffffffffffffffffffffffffffffffffffffffffffff1916827bffffffffffffffffffffffffffffffffffffffffffffffffffffffff1916149050919050565b600033905090565b8060029080519060200190611ef49291906131b5565b5050565b606060028054611f0790614bd0565b80601f0160208091040260200160405190810160405280929190818152602001828054611f3390614bd0565b8015611f805780601f10611f5557610100808354040283529160200191611f80565b820191906000526020600020905b815481529060010190602001808311611f6357829003601f168201915b50505050509050919050565b611f9a8686868686866129fb565b611fa2611218565b15611fe2576040517f08c379a0000000000000000000000000000000000000000000000000000000008152600401611fd9906145cc565b60405180910390fd5b505050505050565b6120098473ffffffffffffffffffffffffffffffffffffffff16612a03565b156121c9578373ffffffffffffffffffffffffffffffffffffffff1663bc197c8187878686866040518663ffffffff1660e01b815260040161204f959493929190614245565b602060405180830381600087803b15801561206957600080fd5b505af192505050801561209a57506040513d601f19601f820116820180604052508101906120979190613a9b565b60015b612140576120a6614d13565b806308c379a0141561210357506120bb6154a1565b806120c65750612105565b806040517f08c379a00000000000000000000000000000000000000000000000000000000081526004016120fa919061448a565b60405180910390fd5b505b6040517f08c379a0000000000000000000000000000000000000000000000000000000008152600401612137906144cc565b60405180910390fd5b63bc197c8160e01b7bffffffffffffffffffffffffffffffffffffffffffffffffffffffff1916817bffffffffffffffffffffffffffffffffffffffffffffffffffffffff1916146121c7576040517f08c379a00000000000000000000000000000000000000000000000000000000081526004016121be906144ec565b60405180910390fd5b505b505050505050565b6121dd84848484612a16565b60005b83518110156122a457828181518110612222577f4e487b7100000000000000000000000000000000000000000000000000000000600052603260045260246000fd5b602002602001015160056000868481518110612267577f4e487b7100000000000000000000000000000000000000000000000000000000600052603260045260246000fd5b60200260200101518152602001908152602001600020600082825461228c9190614a79565b925050819055508061229d90614c33565b90506121e0565b5050505050565b6122b48361112f565b6122f3576040517f08c379a00000000000000000000000000000000000000000000000000000000081526004016122ea9061470c565b60405180910390fd5b818160066000868152602001908152602001600020919061231592919061323b565b50505050565b600073ffffffffffffffffffffffffffffffffffffffff168173ffffffffffffffffffffffffffffffffffffffff16141561238b576040517f08c379a00000000000000000000000000000000000000000000000000000000081526004016123829061450c565b60405180910390fd5b600073ffffffffffffffffffffffffffffffffffffffff166004600084815260200190815260200160002060009054906101000a900473ffffffffffffffffffffffffffffffffffffffff1673ffffffffffffffffffffffffffffffffffffffff161461242d576040517f08c379a00000000000000000000000000000000000000000000000000000000081526004016124249061464c565b60405180910390fd5b806004600084815260200190815260200160002060006101000a81548173ffffffffffffffffffffffffffffffffffffffff021916908373ffffffffffffffffffffffffffffffffffffffff1602179055505050565b600082116124c6576040517f08c379a00000000000000000000000000000000000000000000000000000000081526004016124bd906146cc565b60405180910390fd5b6124d284848484612c80565b816005600085815260200190815260200160002060008282546124f59190614a79565b9250508190555050505050565b61250a611218565b1561254a576040517f08c379a00000000000000000000000000000000000000000000000000000000081526004016125419061466c565b60405180910390fd5b6001600360006101000a81548160ff0219169083151502179055507f62e78cea01bee320cd4e420270b5ea74000d11b0c9f74754ebdbfc544b05a25861258e611ed6565b60405161259b919061422a565b60405180910390a1565b60006126297fc83f80a2ef27c50cc01e0641d9eba999aeab63008a1397bb8a06438ab22ff9f38380600001906125db91906148a7565b6040516125e992919061418e565b60405180910390208460200135856040013560405160200161260e9493929190614400565b60405160208183030381529060405280519060200120612e16565b9050919050565b6000806040518060400160405280601c81526020017f19457468657265756d205369676e6564204d6573736167653a0a3332000000008152509050600081856040516020016126809291906141a7565b6040516020818303038152906040528051906020012090506126a28185612e30565b9250505092915050565b60606000600167ffffffffffffffff8111156126f1577f4e487b7100000000000000000000000000000000000000000000000000000000600052604160045260246000fd5b60405190808252806020026020018201604052801561271f5781602001602082028036833780820191505090505b509050828160008151811061275d577f4e487b7100000000000000000000000000000000000000000000000000000000600052603260045260246000fd5b60200260200101818152505080915050919050565b6127918473ffffffffffffffffffffffffffffffffffffffff16612a03565b15612951578373ffffffffffffffffffffffffffffffffffffffff1663f23a6e6187878686866040518663ffffffff1660e01b81526004016127d79594939291906142ad565b602060405180830381600087803b1580156127f157600080fd5b505af192505050801561282257506040513d601f19601f8201168201806040525081019061281f9190613a9b565b60015b6128c85761282e614d13565b806308c379a0141561288b57506128436154a1565b8061284e575061288d565b806040517f08c379a0000000000000000000000000000000000000000000000000000000008152600401612882919061448a565b60405180910390fd5b505b6040517f08c379a00000000000000000000000000000000000000000000000000000000081526004016128bf906144cc565b60405180910390fd5b63f23a6e6160e01b7bffffffffffffffffffffffffffffffffffffffffffffffffffffffff1916817bffffffffffffffffffffffffffffffffffffffffffffffffffffffff19161461294f576040517f08c379a0000000000000000000000000000000000000000000000000000000008152600401612946906144ec565b60405180910390fd5b505b505050505050565b612961611218565b6129a0576040517f08c379a00000000000000000000000000000000000000000000000000000000081526004016129979061452c565b60405180910390fd5b6000600360006101000a81548160ff0219169083151502179055507f5db9ee0a495bf2e6ff9c91a7834c1ba4fdd244a5e8aa4e537bd38aeae4b073aa6129e4611ed6565b6040516129f1919061422a565b60405180910390a1565b505050505050565b600080823b905060008111915050919050565b600073ffffffffffffffffffffffffffffffffffffffff168473ffffffffffffffffffffffffffffffffffffffff161415612a86576040517f08c379a0000000000000000000000000000000000000000000000000000000008152600401612a7d906147cc565b60405180910390fd5b8151835114612aca576040517f08c379a0000000000000000000000000000000000000000000000000000000008152600401612ac1906147ac565b60405180910390fd5b6000612ad4611ed6565b9050612ae581600087878787611f8c565b60005b8451811015612bea57838181518110612b2a577f4e487b7100000000000000000000000000000000000000000000000000000000600052603260045260246000fd5b6020026020010151600080878481518110612b6e577f4e487b7100000000000000000000000000000000000000000000000000000000600052603260045260246000fd5b6020026020010151815260200190815260200160002060008873ffffffffffffffffffffffffffffffffffffffff1673ffffffffffffffffffffffffffffffffffffffff1681526020019081526020016000206000828254612bd09190614a79565b925050819055508080612be290614c33565b915050612ae8565b508473ffffffffffffffffffffffffffffffffffffffff16600073ffffffffffffffffffffffffffffffffffffffff168273ffffffffffffffffffffffffffffffffffffffff167f4a39dc06d4c0dbc64b70af90fd698a233a518aa5d07e595d983b8c0526c8f7fb8787604051612c6292919061435b565b60405180910390a4612c7981600087878787611fea565b5050505050565b600073ffffffffffffffffffffffffffffffffffffffff168473ffffffffffffffffffffffffffffffffffffffff161415612cf0576040517f08c379a0000000000000000000000000000000000000000000000000000000008152600401612ce7906147cc565b60405180910390fd5b6000612cfa611ed6565b9050612d1b81600087612d0c886126ac565b612d15886126ac565b87611f8c565b8260008086815260200190815260200160002060008773ffffffffffffffffffffffffffffffffffffffff1673ffffffffffffffffffffffffffffffffffffffff1681526020019081526020016000206000828254612d7a9190614a79565b925050819055508473ffffffffffffffffffffffffffffffffffffffff16600073ffffffffffffffffffffffffffffffffffffffff168273ffffffffffffffffffffffffffffffffffffffff167fc3d58168c5ae7397731d063d5bbf3d657854427343f4c083240f7aacaa2d0f628787604051612df8929190614827565b60405180910390a4612e0f81600087878787612772565b5050505050565b6000612e29612e23612efa565b83612fbd565b9050919050565b600080600080604185511415612e5d576020850151925060408501519150606085015160001a9050612ee3565b604085511415612ea7576040850151602086015193507f7fffffffffffffffffffffffffffffffffffffffffffffffffffffffffffffff81169250601b8160ff1c01915050612ee2565b6040517f08c379a0000000000000000000000000000000000000000000000000000000008152600401612ed99061456c565b60405180910390fd5b5b612eef86828585612ff0565b935050505092915050565b60007f0000000000000000000000000000000000000000000000000000000000000000461415612f4c577f00000000000000000000000000000000000000000000000000000000000000009050612fba565b612fb77f00000000000000000000000000000000000000000000000000000000000000007f00000000000000000000000000000000000000000000000000000000000000007f000000000000000000000000000000000000000000000000000000000000000061317b565b90505b90565b60008282604051602001612fd29291906141f3565b60405160208183030381529060405280519060200120905092915050565b60007f7fffffffffffffffffffffffffffffff5d576e7357a4501ddfe92f46681b20a08260001c1115613058576040517f08c379a000000000000000000000000000000000000000000000000000000000815260040161304f9061462c565b60405180910390fd5b601b8460ff16148061306d5750601c8460ff16145b6130ac576040517f08c379a00000000000000000000000000000000000000000000000000000000081526004016130a3906146ec565b60405180910390fd5b6000600186868686604051600081526020016040526040516130d19493929190614445565b6020604051602081039080840390855afa1580156130f3573d6000803e3d6000fd5b505050602060405103519050600073ffffffffffffffffffffffffffffffffffffffff168173ffffffffffffffffffffffffffffffffffffffff16141561316f576040517f08c379a0000000000000000000000000000000000000000000000000000000008152600401613166906144ac565b60405180910390fd5b80915050949350505050565b600083838346306040516020016131969594939291906143ad565b6040516020818303038152906040528051906020012090509392505050565b8280546131c190614bd0565b90600052602060002090601f0160209004810192826131e3576000855561322a565b82601f106131fc57805160ff191683800117855561322a565b8280016001018555821561322a579182015b8281111561322957825182559160200191906001019061320e565b5b50905061323791906132c1565b5090565b82805461324790614bd0565b90600052602060002090601f01602090048101928261326957600085556132b0565b82601f1061328257803560ff19168380011785556132b0565b828001600101855582156132b0579182015b828111156132af578235825591602001919060010190613294565b5b5090506132bd91906132c1565b5090565b5b808211156132da5760008160009055506001016132c2565b5090565b60006132f16132ec84614923565b6148fe565b9050808382526020820190508285602086028201111561331057600080fd5b60005b8581101561334057816133268882613432565b845260208401935060208301925050600181019050613313565b5050509392505050565b600061335d6133588461494f565b6148fe565b9050808382526020820190508285602086028201111561337c57600080fd5b60005b858110156133ac57816133928882613627565b84526020840193506020830192505060018101905061337f565b5050509392505050565b60006133c96133c48461497b565b6148fe565b9050828152602081018484840111156133e157600080fd5b6133ec848285614b8e565b509392505050565b6000613407613402846149ac565b6148fe565b90508281526020810184848401111561341f57600080fd5b61342a848285614b8e565b509392505050565b60008135905061344181615537565b92915050565b600082601f83011261345857600080fd5b81356134688482602086016132de565b91505092915050565b60008083601f84011261348357600080fd5b8235905067ffffffffffffffff81111561349c57600080fd5b6020830191508360208202830111156134b457600080fd5b9250929050565b60008083601f8401126134cd57600080fd5b8235905067ffffffffffffffff8111156134e657600080fd5b6020830191508360208202830111156134fe57600080fd5b9250929050565b600082601f83011261351657600080fd5b813561352684826020860161334a565b91505092915050565b60008135905061353e8161554e565b92915050565b60008135905061355381615565565b92915050565b60008151905061356881615565565b92915050565b600082601f83011261357f57600080fd5b813561358f8482602086016133b6565b91505092915050565b60008083601f8401126135aa57600080fd5b8235905067ffffffffffffffff8111156135c357600080fd5b6020830191508360018202830111156135db57600080fd5b9250929050565b600082601f8301126135f357600080fd5b81356136038482602086016133f4565b91505092915050565b60006080828403121561361e57600080fd5b81905092915050565b6000813590506136368161557c565b92915050565b60006020828403121561364e57600080fd5b600061365c84828501613432565b91505092915050565b6000806040838503121561367857600080fd5b600061368685828601613432565b925050602061369785828601613432565b9150509250929050565b600080600080600060a086880312156136b957600080fd5b60006136c788828901613432565b95505060206136d888828901613432565b945050604086013567ffffffffffffffff8111156136f557600080fd5b61370188828901613505565b935050606086013567ffffffffffffffff81111561371e57600080fd5b61372a88828901613505565b925050608086013567ffffffffffffffff81111561374757600080fd5b6137538882890161356e565b9150509295509295909350565b600080600080600060a0868803121561377857600080fd5b600061378688828901613432565b955050602061379788828901613432565b94505060406137a888828901613627565b93505060606137b988828901613627565b925050608086013567ffffffffffffffff8111156137d657600080fd5b6137e28882890161356e565b9150509295509295909350565b6000806000806000806080878903121561380857600080fd5b600061381689828a01613432565b965050602087013567ffffffffffffffff81111561383357600080fd5b61383f89828a01613471565b9550955050604087013567ffffffffffffffff81111561385e57600080fd5b61386a89828a016134bb565b9350935050606087013567ffffffffffffffff81111561388957600080fd5b61389589828a0161356e565b9150509295509295509295565b600080604083850312156138b557600080fd5b60006138c385828601613432565b92505060206138d48582860161352f565b9150509250929050565b6000806000806000608086880312156138f657600080fd5b600061390488828901613432565b955050602086013567ffffffffffffffff81111561392157600080fd5b61392d88828901613598565b9450945050604061394088828901613627565b925050606086013567ffffffffffffffff81111561395d57600080fd5b6139698882890161356e565b9150509295509295909350565b6000806040838503121561398957600080fd5b600061399785828601613432565b925050602083013567ffffffffffffffff8111156139b457600080fd5b6139c08582860161360c565b9150509250929050565b600080604083850312156139dd57600080fd5b60006139eb85828601613432565b92505060206139fc85828601613627565b9150509250929050565b60008060408385031215613a1957600080fd5b600083013567ffffffffffffffff811115613a3357600080fd5b613a3f85828601613447565b925050602083013567ffffffffffffffff811115613a5c57600080fd5b613a6885828601613505565b9150509250929050565b600060208284031215613a8457600080fd5b6000613a9284828501613544565b91505092915050565b600060208284031215613aad57600080fd5b6000613abb84828501613559565b91505092915050565b600060208284031215613ad657600080fd5b600082013567ffffffffffffffff811115613af057600080fd5b613afc848285016135e2565b91505092915050565b600060208284031215613b1757600080fd5b6000613b2584828501613627565b91505092915050565b6000613b3a8383614161565b60208301905092915050565b613b4f81614b03565b82525050565b6000613b6082614a02565b613b6a8185614a30565b9350613b75836149dd565b8060005b83811015613ba6578151613b8d8882613b2e565b9750613b9883614a23565b925050600181019050613b79565b5085935050505092915050565b613bbc81614b15565b82525050565b613bcb81614b21565b82525050565b613be2613bdd82614b21565b614c7c565b82525050565b6000613bf48385614a52565b9350613c01838584614b8e565b82840190509392505050565b6000613c1882614a0d565b613c228185614a41565b9350613c32818560208601614b9d565b613c3b81614d35565b840191505092915050565b6000613c5182614a0d565b613c5b8185614a52565b9350613c6b818560208601614b9d565b80840191505092915050565b6000613c838385614a5d565b9350613c90838584614b8e565b613c9983614d35565b840190509392505050565b6000613caf82614a18565b613cb98185614a5d565b9350613cc9818560208601614b9d565b613cd281614d35565b840191505092915050565b6000613ce882614a18565b613cf28185614a6e565b9350613d02818560208601614b9d565b80840191505092915050565b60008154613d1b81614bd0565b613d258186614a6e565b94506001821660008114613d405760018114613d5157613d84565b60ff19831686528186019350613d84565b613d5a856149ed565b60005b83811015613d7c57815481890152600182019150602081019050613d5d565b838801955050505b50505092915050565b6000613d9a601883614a5d565b9150613da582614d53565b602082019050919050565b6000613dbd603483614a5d565b9150613dc882614d7c565b604082019050919050565b6000613de0602883614a5d565b9150613deb82614dcb565b604082019050919050565b6000613e03601d83614a5d565b9150613e0e82614e1a565b602082019050919050565b6000613e26601483614a5d565b9150613e3182614e43565b602082019050919050565b6000613e49602383614a5d565b9150613e5482614e6c565b604082019050919050565b6000613e6c601f83614a5d565b9150613e7782614ebb565b602082019050919050565b6000613e8f602b83614a5d565b9150613e9a82614ee4565b604082019050919050565b6000613eb2602683614a5d565b9150613ebd82614f33565b604082019050919050565b6000613ed5600283614a6e565b9150613ee082614f82565b600282019050919050565b6000613ef8602c83614a5d565b9150613f0382614fab565b604082019050919050565b6000613f1b602983614a5d565b9150613f2682614ffa565b604082019050919050565b6000613f3e602383614a5d565b9150613f4982615049565b604082019050919050565b6000613f61602283614a5d565b9150613f6c82615098565b604082019050919050565b6000613f84601e83614a5d565b9150613f8f826150e7565b602082019050919050565b6000613fa7601083614a5d565b9150613fb282615110565b602082019050919050565b6000613fca602583614a5d565b9150613fd582615139565b604082019050919050565b6000613fed603283614a5d565b9150613ff882615188565b604082019050919050565b6000614010601c83614a5d565b915061401b826151d7565b602082019050919050565b6000614033602283614a5d565b915061403e82615200565b604082019050919050565b6000614056602883614a5d565b91506140618261524f565b604082019050919050565b6000614079602a83614a5d565b91506140848261529e565b604082019050919050565b600061409c602083614a5d565b91506140a7826152ed565b602082019050919050565b60006140bf602983614a5d565b91506140ca82615316565b604082019050919050565b60006140e2602983614a5d565b91506140ed82615365565b604082019050919050565b6000614105602883614a5d565b9150614110826153b4565b604082019050919050565b6000614128602183614a5d565b915061413382615403565b604082019050919050565b600061414b602b83614a5d565b915061415682615452565b604082019050919050565b61416a81614b77565b82525050565b61417981614b77565b82525050565b61418881614b81565b82525050565b600061419b828486613be8565b91508190509392505050565b60006141b38285613c46565b91506141bf8284613bd1565b6020820191508190509392505050565b60006141db8285613cdd565b91506141e78284613d0e565b91508190509392505050565b60006141fe82613ec8565b915061420a8285613bd1565b60208201915061421a8284613bd1565b6020820191508190509392505050565b600060208201905061423f6000830184613b46565b92915050565b600060a08201905061425a6000830188613b46565b6142676020830187613b46565b81810360408301526142798186613b55565b9050818103606083015261428d8185613b55565b905081810360808301526142a18184613c0d565b90509695505050505050565b600060a0820190506142c26000830188613b46565b6142cf6020830187613b46565b6142dc6040830186614170565b6142e96060830185614170565b81810360808301526142fb8184613c0d565b90509695505050505050565b600060408201905061431c6000830186613b46565b818103602083015261432f818486613c77565b9050949350505050565b600060208201905081810360008301526143538184613b55565b905092915050565b600060408201905081810360008301526143758185613b55565b905081810360208301526143898184613b55565b90509392505050565b60006020820190506143a76000830184613bb3565b92915050565b600060a0820190506143c26000830188613bc2565b6143cf6020830187613bc2565b6143dc6040830186613bc2565b6143e96060830185614170565b6143f66080830184613b46565b9695505050505050565b60006080820190506144156000830187613bc2565b6144226020830186613bc2565b61442f6040830185614170565b61443c6060830184614170565b95945050505050565b600060808201905061445a6000830187613bc2565b614467602083018661417f565b6144746040830185613bc2565b6144816060830184613bc2565b95945050505050565b600060208201905081810360008301526144a48184613ca4565b905092915050565b600060208201905081810360008301526144c581613d8d565b9050919050565b600060208201905081810360008301526144e581613db0565b9050919050565b6000602082019050818103600083015261450581613dd3565b9050919050565b6000602082019050818103600083015261452581613df6565b9050919050565b6000602082019050818103600083015261454581613e19565b9050919050565b6000602082019050818103600083015261456581613e3c565b9050919050565b6000602082019050818103600083015261458581613e5f565b9050919050565b600060208201905081810360008301526145a581613e82565b9050919050565b600060208201905081810360008301526145c581613ea5565b9050919050565b600060208201905081810360008301526145e581613eeb565b9050919050565b6000602082019050818103600083015261460581613f0e565b9050919050565b6000602082019050818103600083015261462581613f31565b9050919050565b6000602082019050818103600083015261464581613f54565b9050919050565b6000602082019050818103600083015261466581613f77565b9050919050565b6000602082019050818103600083015261468581613f9a565b9050919050565b600060208201905081810360008301526146a581613fbd565b9050919050565b600060208201905081810360008301526146c581613fe0565b9050919050565b600060208201905081810360008301526146e581614003565b9050919050565b6000602082019050818103600083015261470581614026565b9050919050565b6000602082019050818103600083015261472581614049565b9050919050565b600060208201905081810360008301526147458161406c565b9050919050565b600060208201905081810360008301526147658161408f565b9050919050565b60006020820190508181036000830152614785816140b2565b9050919050565b600060208201905081810360008301526147a5816140d5565b9050919050565b600060208201905081810360008301526147c5816140f8565b9050919050565b600060208201905081810360008301526147e58161411b565b9050919050565b600060208201905081810360008301526148058161413e565b9050919050565b60006020820190506148216000830184614170565b92915050565b600060408201905061483c6000830185614170565b6148496020830184614170565b9392505050565b6000808335600160200384360303811261486957600080fd5b80840192508235915067ffffffffffffffff82111561488757600080fd5b60208301925060018202360383131561489f57600080fd5b509250929050565b600080833560016020038436030381126148c057600080fd5b80840192508235915067ffffffffffffffff8211156148de57600080fd5b6020830192506001820236038313156148f657600080fd5b509250929050565b6000614908614919565b90506149148282614c02565b919050565b6000604051905090565b600067ffffffffffffffff82111561493e5761493d614ce4565b5b602082029050602081019050919050565b600067ffffffffffffffff82111561496a57614969614ce4565b5b602082029050602081019050919050565b600067ffffffffffffffff82111561499657614995614ce4565b5b61499f82614d35565b9050602081019050919050565b600067ffffffffffffffff8211156149c7576149c6614ce4565b5b6149d082614d35565b9050602081019050919050565b6000819050602082019050919050565b60008190508160005260206000209050919050565b600081519050919050565b600081519050919050565b600081519050919050565b6000602082019050919050565b600082825260208201905092915050565b600082825260208201905092915050565b600081905092915050565b600082825260208201905092915050565b600081905092915050565b6000614a8482614b77565b9150614a8f83614b77565b9250827fffffffffffffffffffffffffffffffffffffffffffffffffffffffffffffffff03821115614ac457614ac3614c86565b5b828201905092915050565b6000614ada82614b77565b9150614ae583614b77565b925082821015614af857614af7614c86565b5b828203905092915050565b6000614b0e82614b57565b9050919050565b60008115159050919050565b6000819050919050565b60007fffffffff0000000000000000000000000000000000000000000000000000000082169050919050565b600073ffffffffffffffffffffffffffffffffffffffff82169050919050565b6000819050919050565b600060ff82169050919050565b82818337600083830152505050565b60005b83811015614bbb578082015181840152602081019050614ba0565b83811115614bca576000848401525b50505050565b60006002820490506001821680614be857607f821691505b60208210811415614bfc57614bfb614cb5565b5b50919050565b614c0b82614d35565b810181811067ffffffffffffffff82111715614c2a57614c29614ce4565b5b80604052505050565b6000614c3e82614b77565b91507fffffffffffffffffffffffffffffffffffffffffffffffffffffffffffffffff821415614c7157614c70614c86565b5b600182019050919050565b6000819050919050565b7f4e487b7100000000000000000000000000000000000000000000000000000000600052601160045260246000fd5b7f4e487b7100000000000000000000000000000000000000000000000000000000600052602260045260246000fd5b7f4e487b7100000000000000000000000000000000000000000000000000000000600052604160045260246000fd5b600060033d1115614d325760046000803e614d2f600051614d46565b90505b90565b6000601f19601f8301169050919050565b60008160e01c9050919050565b7f45434453413a20696e76616c6964207369676e61747572650000000000000000600082015250565b7f455243313135353a207472616e7366657220746f206e6f6e204552433131353560008201527f526563656976657220696d706c656d656e746572000000000000000000000000602082015250565b7f455243313135353a204552433131353552656365697665722072656a6563746560008201527f6420746f6b656e73000000000000000000000000000000000000000000000000602082015250565b7f455243313135353a207a65726f20616464726573732063726561746f72000000600082015250565b7f5061757361626c653a206e6f7420706175736564000000000000000000000000600082015250565b7f455243313135353a206d696e744261746368206c656e67746873206d69736d6160008201527f7463680000000000000000000000000000000000000000000000000000000000602082015250565b7f45434453413a20696e76616c6964207369676e6174757265206c656e67746800600082015250565b7f455243313135353a2062616c616e636520717565727920666f7220746865207a60008201527f65726f2061646472657373000000000000000000000000000000000000000000602082015250565b7f4f776e61626c653a206e6577206f776e657220697320746865207a65726f206160008201527f6464726573730000000000000000000000000000000000000000000000000000602082015250565b7f1901000000000000000000000000000000000000000000000000000000000000600082015250565b7f455243313135355061757361626c653a20746f6b656e207472616e736665722060008201527f7768696c65207061757365640000000000000000000000000000000000000000602082015250565b7f455243313135353a2063616c6c6572206973206e6f74206f776e6572206e6f7260008201527f20617070726f7665640000000000000000000000000000000000000000000000602082015250565b7f455243313135353a206d696e74206461746120616c726561647920726564656560008201527f6d65640000000000000000000000000000000000000000000000000000000000602082015250565b7f45434453413a20696e76616c6964207369676e6174757265202773272076616c60008201527f7565000000000000000000000000000000000000000000000000000000000000602082015250565b7f455243313135353a20616c72656164792068616420612063726561746f720000600082015250565b7f5061757361626c653a2070617573656400000000000000000000000000000000600082015250565b7f455243313135353a207472616e7366657220746f20746865207a65726f20616460008201527f6472657373000000000000000000000000000000000000000000000000000000602082015250565b7f455243313135353a207472616e736665722063616c6c6572206973206e6f742060008201527f6f776e6572206e6f7220617070726f7665640000000000000000000000000000602082015250565b7f455243313135353a206d696e7420616d6f756e74206973207a65726f00000000600082015250565b7f45434453413a20696e76616c6964207369676e6174757265202776272076616c60008201527f7565000000000000000000000000000000000000000000000000000000000000602082015250565b7f455243313135353a2055524920717565727920666f72206e6f6e65786973746560008201527f6e7420746f6b656e000000000000000000000000000000000000000000000000602082015250565b7f455243313135353a20696e73756666696369656e742062616c616e636520666f60008201527f72207472616e7366657200000000000000000000000000000000000000000000602082015250565b7f4f776e61626c653a2063616c6c6572206973206e6f7420746865206f776e6572600082015250565b7f455243313135353a2073657474696e6720617070726f76616c2073746174757360008201527f20666f722073656c660000000000000000000000000000000000000000000000602082015250565b7f455243313135353a206163636f756e747320616e6420696473206c656e67746860008201527f206d69736d617463680000000000000000000000000000000000000000000000602082015250565b7f455243313135353a2069647320616e6420616d6f756e7473206c656e6774682060008201527f6d69736d61746368000000000000000000000000000000000000000000000000602082015250565b7f455243313135353a206d696e7420746f20746865207a65726f2061646472657360008201527f7300000000000000000000000000000000000000000000000000000000000000602082015250565b7f455243313135353a2063616c6c6572206973206e6f742063726561746f72206e60008201527f6f7220617070726f766564000000000000000000000000000000000000000000602082015250565b600060443d10156154b157615534565b6154b9614919565b60043d036004823e80513d602482011167ffffffffffffffff821117156154e1575050615534565b808201805167ffffffffffffffff8111156154ff5750505050615534565b80602083010160043d03850181111561551c575050505050615534565b61552b82602001850186614c02565b82955050505050505b90565b61554081614b03565b811461554b57600080fd5b50565b61555781614b15565b811461556257600080fd5b50565b61556e81614b2b565b811461557957600080fd5b50565b61558581614b77565b811461559057600080fd5b5056fea26469706673582212200014af53625f64d4e1072ce5e9fd733ca86231607ae073e9451a313e8c5e3e6d64736f6c63430008040033",
  "immutableReferences": {
    "11562": [
      {
        "length": 32,
        "start": 12070
      }
    ],
    "11564": [
      {
        "length": 32,
        "start": 12030
      }
    ],
    "11566": [
      {
        "length": 32,
        "start": 12146
      }
    ],
    "11568": [
      {
        "length": 32,
        "start": 12179
      }
    ],
    "11570": [
      {
        "length": 32,
        "start": 12113
      }
    ]
  },
  "source": "// SPDX-License-Identifier: UNLICENSED\r\n\r\npragma solidity 0.8.4;\r\n\r\nimport \"./OrbitauERC1155.sol\";\r\nimport \"../../lib/utils/cryptography/draft-EIP712.sol\";\r\n\r\ncontract OrbitauERC1155LazyMint is OrbitauERC1155, EIP712 {\r\n    string private constant SIGNING_DOMAIN = \"Orbitau1155\";\r\n    string private constant SIGNATURE_VERSION = \"1\";\r\n\r\n    /**\r\n     * @dev Mapping for checking if minting data has been redeemed.\r\n     */\r\n    mapping(bytes32 => bool) private _mintHashRedeemed;\r\n\r\n    event Logs(address creator, bytes32 digest, bytes signature, bytes32 salt);\r\n\r\n    /**\r\n     * @dev A struct consists of the lazy minting data.\r\n     */\r\n    struct MintData {\r\n        string tokenURI;\r\n        uint256 amount;\r\n        uint256 salt;\r\n        bytes signature;\r\n    }\r\n\r\n    /**\r\n     * @dev Create a new OrbitauERC1155 contract and set the `_uri` value.\r\n     *\r\n     */\r\n    constructor(string memory uri_) OrbitauERC1155(uri_) EIP712(SIGNING_DOMAIN, SIGNATURE_VERSION) {\r\n    }\r\n\r\n    /**\r\n     * @dev Implement a lazy minting mechanism in which the NFT-minting process is delayed until the first order is successful.\r\n     * This function should be handled by a smart contract which is allowed by the `creator`.\r\n     * @notice For each lazy minting data, this function should only be called once.\r\n     * @notice It throws if\r\n     *      - the minting data has already been redeemed.\r\n     *      - `msg.sender` is not the `creator` or has not been approved by the `creator`.\r\n     *      - minting data and signature are not valid.\r\n     *      - if the `redeemer` is a contract and it cannot receive the NFT.\r\n     * @param redeemer The address of the party that an amount of the minting token will be transferred to.\r\n     * @param mintData The lazy minting data.\r\n     */\r\n    function redeem(address redeemer, MintData calldata mintData)\r\n    public virtual returns (uint256)\r\n    {\r\n        bytes32 digest = _hash(mintData);\r\n        require(!_mintHashRedeemed[digest], \"ERC1155: mint data already redeemed\");\r\n\r\n        address creator = _verify(digest, mintData.signature);\r\n        address operator = msg.sender;\r\n        require(operator == creator || isApprovedForAll(creator, msg.sender), \"ERC1155: caller is not creator nor approved\");\r\n\r\n        uint256 id = uint256(keccak256(abi.encode(creator, mintData.tokenURI)));\r\n\r\n        // mint the token to the creator\r\n        super._mint(creator, id, mintData.amount, \"\");\r\n\r\n        // set the tokenURI\r\n        _setTokenUri(id, mintData.tokenURI);\r\n\r\n        // save the creator\r\n        if (_creator[id] == address(0x0)) {\r\n            _saveCreator(id, creator);\r\n        }\r\n\r\n        // set the redeemed status\r\n        _mintHashRedeemed[digest] = true;\r\n\r\n        // transfer the token to the redeemer\r\n        safeTransferFrom(creator, redeemer, id, mintData.amount, \"\");\r\n\r\n        return id;\r\n    }\r\n\r\n    /// @notice Return a hash of the given PendingNFT, prepared using EIP712 typed data hashing rules.\r\n    function _hash(MintData calldata mintData)\r\n    internal view returns (bytes32)\r\n    {\r\n        return _hashTypedDataV4(keccak256(abi.encode(\r\n                keccak256(\"OrbitauERC1155(string uri,uint256 amount,uint256 salt)\"),\r\n                keccak256(bytes(mintData.tokenURI)),\r\n                mintData.amount,\r\n                mintData.salt\r\n            )));\r\n    }\r\n\r\n    /**\r\n     * @dev Return the signer for a pair of digested message and signature.\r\n     */\r\n    function _verify(bytes32 digest, bytes memory signature)\r\n    internal pure returns (address)\r\n    {\r\n        bytes memory prefix = \"\\x19Ethereum Signed Message:\\n32\";\r\n        bytes32 prefixedHash = keccak256(abi.encodePacked(prefix, digest));\r\n        return ECDSA.recover(prefixedHash, signature);\r\n    }\r\n}\r\n",
  "sourcePath": "D:\\0xTaureum\\github\\orbitau-smart-contract\\contracts\\tokens\\ERC1155\\OrbitauERC1155LazyMint.sol",
  "compiler": {
    "name": "solc",
    "version": "0.8.4+commit.c7e474f2.Emscripten.clang"
  },
  "schemaVersion": "3.4.3",
  "updatedAt": "2021-09-17T17:04:05.508Z",
  "devdoc": {
    "kind": "dev",
    "methods": {
      "balanceOf(address,uint256)": {
        "details": "See {IERC1155-balanceOf}. Requirements: - `account` cannot be the zero address."
      },
      "balanceOfBatch(address[],uint256[])": {
        "details": "See {IERC1155-balanceOfBatch}. Requirements: - `accounts` and `ids` must have the same length."
      },
      "constructor": {
        "details": "Create a new OrbitauERC1155 contract and set the `_uri` value."
      },
      "exists(uint256)": {
        "details": "Return the indicator whether a token exists given its id."
      },
      "getCreator(uint256)": {
        "details": "Return the creator of an NFT given its id."
      },
      "isApprovedForAll(address,address)": {
        "details": "See {IERC1155-isApprovedForAll}."
      },
      "mint(address,string,uint256,bytes)": {
        "details": "Mint a new ERC1155 token. A token can only be minted once."
      },
      "mintBatch(address,string[],uint256[],bytes)": {
        "details": "Mint a batch of tokens."
      },
      "owner()": {
        "details": "Returns the address of the current owner."
      },
      "pause()": {
        "details": "Pause the contract in case of bugs/attacks."
      },
      "paused()": {
        "details": "Returns true if the contract is paused, and false otherwise."
      },
      "redeem(address,(string,uint256,uint256,bytes))": {
        "details": "Implement a lazy minting mechanism in which the NFT-minting process is delayed until the first order is successful. This function should be handled by a smart contract which is allowed by the `creator`.",
        "params": {
          "mintData": "The lazy minting data.",
          "redeemer": "The address of the party that an amount of the minting token will be transferred to."
        }
      },
      "renounceOwnership()": {
        "details": "Leaves the contract without owner. It will not be possible to call `onlyOwner` functions anymore. Can only be called by the current owner. NOTE: Renouncing ownership will leave the contract without an owner, thereby removing any functionality that is only available to the owner."
      },
      "safeBatchTransferFrom(address,address,uint256[],uint256[],bytes)": {
        "details": "See {IERC1155-safeBatchTransferFrom}."
      },
      "safeTransferFrom(address,address,uint256,uint256,bytes)": {
        "details": "See {IERC1155-safeTransferFrom}."
      },
      "setApprovalForAll(address,bool)": {
        "details": "See {IERC1155-setApprovalForAll}."
      },
      "setURI(string)": {
        "details": "Sets a new URI for all token types, by relying on the token type ID substitution mechanism https://eips.ethereum.org/EIPS/eip-1155#metadata[defined in the EIP]. By this mechanism, any occurrence of the `\\{id\\}` substring in either the URI or any of the amounts in the JSON file at said URI will be replaced by clients with the token type ID. For example, the `https://token-cdn-domain/\\{id\\}.json` URI would be interpreted by clients as `https://token-cdn-domain/000000000000000000000000000000000000000000000000000000000004cce0.json` for token type ID 0x4cce0. See {uri}. Because these URIs cannot be meaningfully represented by the {URI} event, this function emits no events."
      },
      "supportsInterface(bytes4)": {
        "details": "See {IERC165-supportsInterface}."
      },
      "totalSupply(uint256)": {
        "details": "Total amount of tokens in with a given id."
      },
      "transferOwnership(address)": {
        "details": "Transfers ownership of the contract to a new account (`newOwner`). Can only be called by the current owner."
      },
      "unPause()": {
        "details": "Resume the contract after being paused."
      },
      "uri(uint256)": {
        "details": "Return the URI of a tokenId."
      }
    },
    "stateVariables": {
      "_mintHashRedeemed": {
        "details": "Mapping for checking if minting data has been redeemed."
      }
    },
    "version": 1
  },
  "userdoc": {
    "kind": "user",
    "methods": {
      "mint(address,string,uint256,bytes)": {
        "notice": "It reverts if      - The `msg.sender` is not `to` or approved by `to`.      - `to` is the zero address.      - `to` cannot receive the token."
      },
      "pause()": {
        "notice": "Only the owner can call this method."
      },
      "redeem(address,(string,uint256,uint256,bytes))": {
        "notice": "For each lazy minting data, this function should only be called once.It throws if      - the minting data has already been redeemed.      - `msg.sender` is not the `creator` or has not been approved by the `creator`.      - minting data and signature are not valid.      - if the `redeemer` is a contract and it cannot receive the NFT."
      },
      "unPause()": {
        "notice": "Only the owner can call this method."
      }
    },
    "version": 1
  }
}