{
  "contractName": "OrbitauERC721Enumerable",
  "abi": [
    {
      "inputs": [],
      "stateMutability": "nonpayable",
      "type": "constructor"
    },
    {
      "anonymous": false,
      "inputs": [
        {
          "indexed": true,
          "internalType": "address",
          "name": "owner",
          "type": "address"
        },
        {
          "indexed": true,
          "internalType": "address",
          "name": "approved",
          "type": "address"
        },
        {
          "indexed": true,
          "internalType": "uint256",
          "name": "tokenId",
          "type": "uint256"
        }
      ],
      "name": "Approval",
      "type": "event"
    },
    {
      "anonymous": false,
      "inputs": [
        {
          "indexed": true,
          "internalType": "address",
          "name": "owner",
          "type": "address"
        },
        {
          "indexed": true,
          "internalType": "address",
          "name": "operator",
          "type": "address"
        },
        {
          "indexed": false,
          "internalType": "bool",
          "name": "approved",
          "type": "bool"
        }
      ],
      "name": "ApprovalForAll",
      "type": "event"
    },
    {
      "anonymous": false,
      "inputs": [
        {
          "indexed": true,
          "internalType": "address",
          "name": "owner",
          "type": "address"
        },
        {
          "indexed": false,
          "internalType": "uint256",
          "name": "tokenId",
          "type": "uint256"
        }
      ],
      "name": "Equip",
      "type": "event"
    },
    {
      "anonymous": false,
      "inputs": [
        {
          "indexed": true,
          "internalType": "address",
          "name": "previousOwner",
          "type": "address"
        },
        {
          "indexed": true,
          "internalType": "address",
          "name": "newOwner",
          "type": "address"
        }
      ],
      "name": "OwnershipTransferred",
      "type": "event"
    },
    {
      "anonymous": false,
      "inputs": [
        {
          "indexed": false,
          "internalType": "address",
          "name": "account",
          "type": "address"
        }
      ],
      "name": "Paused",
      "type": "event"
    },
    {
      "anonymous": false,
      "inputs": [
        {
          "indexed": true,
          "internalType": "address",
          "name": "owner",
          "type": "address"
        },
        {
          "indexed": false,
          "internalType": "uint256",
          "name": "tokenId",
          "type": "uint256"
        }
      ],
      "name": "Redeem",
      "type": "event"
    },
    {
      "anonymous": false,
      "inputs": [
        {
          "indexed": true,
          "internalType": "address",
          "name": "from",
          "type": "address"
        },
        {
          "indexed": true,
          "internalType": "address",
          "name": "to",
          "type": "address"
        },
        {
          "indexed": true,
          "internalType": "uint256",
          "name": "tokenId",
          "type": "uint256"
        }
      ],
      "name": "Transfer",
      "type": "event"
    },
    {
      "anonymous": false,
      "inputs": [
        {
          "indexed": false,
          "internalType": "address",
          "name": "account",
          "type": "address"
        }
      ],
      "name": "Unpaused",
      "type": "event"
    },
    {
      "inputs": [
        {
          "internalType": "address",
          "name": "to",
          "type": "address"
        },
        {
          "internalType": "uint256",
          "name": "tokenId",
          "type": "uint256"
        }
      ],
      "name": "approve",
      "outputs": [],
      "stateMutability": "nonpayable",
      "type": "function"
    },
    {
      "inputs": [
        {
          "internalType": "address",
          "name": "owner",
          "type": "address"
        }
      ],
      "name": "balanceOf",
      "outputs": [
        {
          "internalType": "uint256",
          "name": "",
          "type": "uint256"
        }
      ],
      "stateMutability": "view",
      "type": "function"
    },
    {
      "inputs": [],
      "name": "baseURI",
      "outputs": [
        {
          "internalType": "string",
          "name": "",
          "type": "string"
        }
      ],
      "stateMutability": "view",
      "type": "function"
    },
    {
      "inputs": [
        {
          "internalType": "uint256",
          "name": "tokenId",
          "type": "uint256"
        }
      ],
      "name": "equip",
      "outputs": [],
      "stateMutability": "nonpayable",
      "type": "function"
    },
    {
      "inputs": [
        {
          "internalType": "uint256",
          "name": "tokenId",
          "type": "uint256"
        }
      ],
      "name": "getApproved",
      "outputs": [
        {
          "internalType": "address",
          "name": "",
          "type": "address"
        }
      ],
      "stateMutability": "view",
      "type": "function"
    },
    {
      "inputs": [
        {
          "internalType": "address",
          "name": "owner",
          "type": "address"
        },
        {
          "internalType": "address",
          "name": "operator",
          "type": "address"
        }
      ],
      "name": "isApprovedForAll",
      "outputs": [
        {
          "internalType": "bool",
          "name": "",
          "type": "bool"
        }
      ],
      "stateMutability": "view",
      "type": "function"
    },
    {
      "inputs": [],
      "name": "name",
      "outputs": [
        {
          "internalType": "string",
          "name": "",
          "type": "string"
        }
      ],
      "stateMutability": "view",
      "type": "function"
    },
    {
      "inputs": [],
      "name": "owner",
      "outputs": [
        {
          "internalType": "address",
          "name": "",
          "type": "address"
        }
      ],
      "stateMutability": "view",
      "type": "function"
    },
    {
      "inputs": [
        {
          "internalType": "uint256",
          "name": "tokenId",
          "type": "uint256"
        }
      ],
      "name": "ownerOf",
      "outputs": [
        {
          "internalType": "address",
          "name": "",
          "type": "address"
        }
      ],
      "stateMutability": "view",
      "type": "function"
    },
    {
      "inputs": [],
      "name": "pause",
      "outputs": [],
      "stateMutability": "nonpayable",
      "type": "function"
    },
    {
      "inputs": [],
      "name": "paused",
      "outputs": [
        {
          "internalType": "bool",
          "name": "",
          "type": "bool"
        }
      ],
      "stateMutability": "view",
      "type": "function"
    },
    {
      "inputs": [],
      "name": "renounceOwnership",
      "outputs": [],
      "stateMutability": "nonpayable",
      "type": "function"
    },
    {
      "inputs": [
        {
          "internalType": "address",
          "name": "from",
          "type": "address"
        },
        {
          "internalType": "address",
          "name": "to",
          "type": "address"
        },
        {
          "internalType": "uint256",
          "name": "tokenId",
          "type": "uint256"
        }
      ],
      "name": "safeTransferFrom",
      "outputs": [],
      "stateMutability": "nonpayable",
      "type": "function"
    },
    {
      "inputs": [
        {
          "internalType": "address",
          "name": "from",
          "type": "address"
        },
        {
          "internalType": "address",
          "name": "to",
          "type": "address"
        },
        {
          "internalType": "uint256",
          "name": "tokenId",
          "type": "uint256"
        },
        {
          "internalType": "bytes",
          "name": "_data",
          "type": "bytes"
        }
      ],
      "name": "safeTransferFrom",
      "outputs": [],
      "stateMutability": "nonpayable",
      "type": "function"
    },
    {
      "inputs": [
        {
          "internalType": "address",
          "name": "operator",
          "type": "address"
        },
        {
          "internalType": "bool",
          "name": "approved",
          "type": "bool"
        }
      ],
      "name": "setApprovalForAll",
      "outputs": [],
      "stateMutability": "nonpayable",
      "type": "function"
    },
    {
      "inputs": [
        {
          "internalType": "string",
          "name": "newBaseURI",
          "type": "string"
        }
      ],
      "name": "setBaseURI",
      "outputs": [],
      "stateMutability": "nonpayable",
      "type": "function"
    },
    {
      "inputs": [],
      "name": "symbol",
      "outputs": [
        {
          "internalType": "string",
          "name": "",
          "type": "string"
        }
      ],
      "stateMutability": "view",
      "type": "function"
    },
    {
      "inputs": [
        {
          "internalType": "uint256",
          "name": "index",
          "type": "uint256"
        }
      ],
      "name": "tokenByIndex",
      "outputs": [
        {
          "internalType": "uint256",
          "name": "",
          "type": "uint256"
        }
      ],
      "stateMutability": "view",
      "type": "function"
    },
    {
      "inputs": [
        {
          "internalType": "address",
          "name": "owner",
          "type": "address"
        },
        {
          "internalType": "uint256",
          "name": "index",
          "type": "uint256"
        }
      ],
      "name": "tokenOfOwnerByIndex",
      "outputs": [
        {
          "internalType": "uint256",
          "name": "",
          "type": "uint256"
        }
      ],
      "stateMutability": "view",
      "type": "function"
    },
    {
      "inputs": [],
      "name": "totalSupply",
      "outputs": [
        {
          "internalType": "uint256",
          "name": "",
          "type": "uint256"
        }
      ],
      "stateMutability": "view",
      "type": "function"
    },
    {
      "inputs": [
        {
          "internalType": "address",
          "name": "from",
          "type": "address"
        },
        {
          "internalType": "address",
          "name": "to",
          "type": "address"
        },
        {
          "internalType": "uint256",
          "name": "tokenId",
          "type": "uint256"
        }
      ],
      "name": "transferFrom",
      "outputs": [],
      "stateMutability": "nonpayable",
      "type": "function"
    },
    {
      "inputs": [
        {
          "internalType": "address",
          "name": "newOwner",
          "type": "address"
        }
      ],
      "name": "transferOwnership",
      "outputs": [],
      "stateMutability": "nonpayable",
      "type": "function"
    },
    {
      "inputs": [],
      "name": "unPause",
      "outputs": [],
      "stateMutability": "nonpayable",
      "type": "function"
    },
    {
      "inputs": [
        {
          "internalType": "bytes4",
          "name": "interfaceId",
          "type": "bytes4"
        }
      ],
      "name": "supportsInterface",
      "outputs": [
        {
          "internalType": "bool",
          "name": "",
          "type": "bool"
        }
      ],
      "stateMutability": "view",
      "type": "function"
    },
    {
      "inputs": [
        {
          "internalType": "uint256",
          "name": "tokenId",
          "type": "uint256"
        }
      ],
      "name": "tokenURI",
      "outputs": [
        {
          "internalType": "string",
          "name": "",
          "type": "string"
        }
      ],
      "stateMutability": "view",
      "type": "function"
    }
  ],
  "bytecode": "0x60806040523480156200001157600080fd5b506040518060400160405280600e81526020017f4f726269746175204552433732310000000000000000000000000000000000008152506040518060400160405280600781526020017f4f72626974617500000000000000000000000000000000000000000000000000815250816000908051906020019062000096929190620001da565b508060019080519060200190620000af929190620001da565b5050506000600660006101000a81548160ff0219169083151502179055506000620000df620001d260201b60201c565b905080600660016101000a81548173ffffffffffffffffffffffffffffffffffffffff021916908373ffffffffffffffffffffffffffffffffffffffff1602179055508073ffffffffffffffffffffffffffffffffffffffff16600073ffffffffffffffffffffffffffffffffffffffff167f8be0079c531659141344cd1fd0a4f28419497f9722a3daafe3b4186f6b6457e060405160405180910390a3506040518060400160405280601c81526020017f68747470733a2f2f6d657461646174612e6f7262697461752e696f2f0000000081525060089080519060200190620001cb929190620001da565b50620002ef565b600033905090565b828054620001e8906200028a565b90600052602060002090601f0160209004810192826200020c576000855562000258565b82601f106200022757805160ff191683800117855562000258565b8280016001018555821562000258579182015b82811115620002575782518255916020019190600101906200023a565b5b5090506200026791906200026b565b5090565b5b80821115620002865760008160009055506001016200026c565b5090565b60006002820490506001821680620002a357607f821691505b60208210811415620002ba57620002b9620002c0565b5b50919050565b7f4e487b7100000000000000000000000000000000000000000000000000000000600052602260045260246000fd5b613cf680620002ff6000396000f3fe608060405234801561001057600080fd5b50600436106101735760003560e01c80636c0360eb116100de578063a22cb46511610097578063c87b56dd11610071578063c87b56dd14610424578063e985e9c514610454578063f2fde38b14610484578063f7b188a5146104a057610173565b8063a22cb465146103d0578063b85f8027146103ec578063b88d4fde1461040857610173565b80636c0360eb1461033257806370a0823114610350578063715018a6146103805780638456cb591461038a5780638da5cb5b1461039457806395d89b41146103b257610173565b80632f745c59116101305780632f745c591461024c57806342842e0e1461027c5780634f6ccce71461029857806355f804b3146102c85780635c975abb146102e45780636352211e1461030257610173565b806301ffc9a71461017857806306fdde03146101a8578063081812fc146101c6578063095ea7b3146101f657806318160ddd1461021257806323b872dd14610230575b600080fd5b610192600480360381019061018d91906129ae565b6104aa565b60405161019f9190612f46565b60405180910390f35b6101b061058c565b6040516101bd9190612f61565b60405180910390f35b6101e060048036038101906101db9190612a41565b61061e565b6040516101ed9190612edf565b60405180910390f35b610210600480360381019061020b9190612972565b6106a3565b005b61021a6107bb565b6040516102279190613243565b60405180910390f35b61024a6004803603810190610245919061286c565b6107c8565b005b61026660048036038101906102619190612972565b610828565b6040516102739190613243565b60405180910390f35b6102966004803603810190610291919061286c565b6108cd565b005b6102b260048036038101906102ad9190612a41565b6108ed565b6040516102bf9190613243565b60405180910390f35b6102e260048036038101906102dd9190612a00565b610984565b005b6102ec610a62565b6040516102f99190612f46565b60405180910390f35b61031c60048036038101906103179190612a41565b610a79565b6040516103299190612edf565b60405180910390f35b61033a610b2b565b6040516103479190612f61565b60405180910390f35b61036a60048036038101906103659190612807565b610bbd565b6040516103779190613243565b60405180910390f35b610388610c75565b005b610392610db2565b005b61039c610e38565b6040516103a99190612edf565b60405180910390f35b6103ba610e62565b6040516103c79190612f61565b60405180910390f35b6103ea60048036038101906103e59190612936565b610ef4565b005b61040660048036038101906104019190612a41565b611075565b005b610422600480360381019061041d91906128bb565b6111c9565b005b61043e60048036038101906104399190612a41565b61122b565b60405161044b9190612f61565b60405180910390f35b61046e60048036038101906104699190612830565b61123d565b60405161047b9190612f46565b60405180910390f35b61049e60048036038101906104999190612807565b6112d1565b005b6104a861147d565b005b60007f80ac58cd000000000000000000000000000000000000000000000000000000007bffffffffffffffffffffffffffffffffffffffffffffffffffffffff1916827bffffffffffffffffffffffffffffffffffffffffffffffffffffffff1916148061057557507f5b5e139f000000000000000000000000000000000000000000000000000000007bffffffffffffffffffffffffffffffffffffffffffffffffffffffff1916827bffffffffffffffffffffffffffffffffffffffffffffffffffffffff1916145b80610585575061058482611503565b5b9050919050565b60606000805461059b906134ae565b80601f01602080910402602001604051908101604052809291908181526020018280546105c7906134ae565b80156106145780601f106105e957610100808354040283529160200191610614565b820191906000526020600020905b8154815290600101906020018083116105f757829003601f168201915b5050505050905090565b60006106298261157d565b610668576040517f08c379a000000000000000000000000000000000000000000000000000000000815260040161065f90613163565b60405180910390fd5b6004600083815260200190815260200160002060009054906101000a900473ffffffffffffffffffffffffffffffffffffffff169050919050565b60006106ae82610a79565b90508073ffffffffffffffffffffffffffffffffffffffff168373ffffffffffffffffffffffffffffffffffffffff16141561071f576040517f08c379a0000000000000000000000000000000000000000000000000000000008152600401610716906131e3565b60405180910390fd5b8073ffffffffffffffffffffffffffffffffffffffff1661073e6115e9565b73ffffffffffffffffffffffffffffffffffffffff16148061076d575061076c816107676115e9565b61123d565b5b6107ac576040517f08c379a00000000000000000000000000000000000000000000000000000000081526004016107a390613103565b60405180910390fd5b6107b683836115f1565b505050565b6000600b80549050905090565b6107d96107d36115e9565b826116aa565b610818576040517f08c379a000000000000000000000000000000000000000000000000000000000815260040161080f90613203565b60405180910390fd5b610823838383611788565b505050565b600061083383610bbd565b8210610874576040517f08c379a000000000000000000000000000000000000000000000000000000000815260040161086b90613003565b60405180910390fd5b600960008473ffffffffffffffffffffffffffffffffffffffff1673ffffffffffffffffffffffffffffffffffffffff168152602001908152602001600020600083815260200190815260200160002054905092915050565b6108e8838383604051806020016040528060008152506111c9565b505050565b60006108f76107bb565b8210610938576040517f08c379a000000000000000000000000000000000000000000000000000000000815260040161092f90613223565b60405180910390fd5b600b8281548110610972577f4e487b7100000000000000000000000000000000000000000000000000000000600052603260045260246000fd5b90600052602060002001549050919050565b61098c6115e9565b73ffffffffffffffffffffffffffffffffffffffff166109aa610e38565b73ffffffffffffffffffffffffffffffffffffffff1614610a00576040517f08c379a00000000000000000000000000000000000000000000000000000000081526004016109f790613183565b60405180910390fd5b610a08610a62565b15610a48576040517f08c379a0000000000000000000000000000000000000000000000000000000008152600401610a3f906130e3565b60405180910390fd5b8060089080519060200190610a5e92919061262b565b5050565b6000600660009054906101000a900460ff16905090565b6000806002600084815260200190815260200160002060009054906101000a900473ffffffffffffffffffffffffffffffffffffffff169050600073ffffffffffffffffffffffffffffffffffffffff168173ffffffffffffffffffffffffffffffffffffffff161415610b22576040517f08c379a0000000000000000000000000000000000000000000000000000000008152600401610b1990613143565b60405180910390fd5b80915050919050565b606060088054610b3a906134ae565b80601f0160208091040260200160405190810160405280929190818152602001828054610b66906134ae565b8015610bb35780601f10610b8857610100808354040283529160200191610bb3565b820191906000526020600020905b815481529060010190602001808311610b9657829003601f168201915b5050505050905090565b60008073ffffffffffffffffffffffffffffffffffffffff168273ffffffffffffffffffffffffffffffffffffffff161415610c2e576040517f08c379a0000000000000000000000000000000000000000000000000000000008152600401610c2590613123565b60405180910390fd5b600360008373ffffffffffffffffffffffffffffffffffffffff1673ffffffffffffffffffffffffffffffffffffffff168152602001908152602001600020549050919050565b610c7d6115e9565b73ffffffffffffffffffffffffffffffffffffffff16610c9b610e38565b73ffffffffffffffffffffffffffffffffffffffff1614610cf1576040517f08c379a0000000000000000000000000000000000000000000000000000000008152600401610ce890613183565b60405180910390fd5b600073ffffffffffffffffffffffffffffffffffffffff16600660019054906101000a900473ffffffffffffffffffffffffffffffffffffffff1673ffffffffffffffffffffffffffffffffffffffff167f8be0079c531659141344cd1fd0a4f28419497f9722a3daafe3b4186f6b6457e060405160405180910390a36000600660016101000a81548173ffffffffffffffffffffffffffffffffffffffff021916908373ffffffffffffffffffffffffffffffffffffffff160217905550565b610dba6115e9565b73ffffffffffffffffffffffffffffffffffffffff16610dd8610e38565b73ffffffffffffffffffffffffffffffffffffffff1614610e2e576040517f08c379a0000000000000000000000000000000000000000000000000000000008152600401610e2590613183565b60405180910390fd5b610e366119e4565b565b6000600660019054906101000a900473ffffffffffffffffffffffffffffffffffffffff16905090565b606060018054610e71906134ae565b80601f0160208091040260200160405190810160405280929190818152602001828054610e9d906134ae565b8015610eea5780601f10610ebf57610100808354040283529160200191610eea565b820191906000526020600020905b815481529060010190602001808311610ecd57829003601f168201915b5050505050905090565b610efc6115e9565b73ffffffffffffffffffffffffffffffffffffffff168273ffffffffffffffffffffffffffffffffffffffff161415610f6a576040517f08c379a0000000000000000000000000000000000000000000000000000000008152600401610f6190613083565b60405180910390fd5b8060056000610f776115e9565b73ffffffffffffffffffffffffffffffffffffffff1673ffffffffffffffffffffffffffffffffffffffff16815260200190815260200160002060008473ffffffffffffffffffffffffffffffffffffffff1673ffffffffffffffffffffffffffffffffffffffff16815260200190815260200160002060006101000a81548160ff0219169083151502179055508173ffffffffffffffffffffffffffffffffffffffff166110246115e9565b73ffffffffffffffffffffffffffffffffffffffff167f17307eab39ab6107e8899845ad3d59bd9653f200f220920489ca2b5937696c31836040516110699190612f46565b60405180910390a35050565b3373ffffffffffffffffffffffffffffffffffffffff1661109582610a79565b73ffffffffffffffffffffffffffffffffffffffff16146110eb576040517f08c379a00000000000000000000000000000000000000000000000000000000081526004016110e2906130a3565b60405180910390fd5b6007600082815260200190815260200160002060009054906101000a900460ff161561114c576040517f08c379a000000000000000000000000000000000000000000000000000000000815260040161114390612fe3565b60405180910390fd5b60016007600083815260200190815260200160002060006101000a81548160ff0219169083151502179055503373ffffffffffffffffffffffffffffffffffffffff167f9bc69fd0e63231957daa6abe5af60a488ed6d7b33dc6be78443b607e672d952c826040516111be9190613243565b60405180910390a250565b6111da6111d46115e9565b836116aa565b611219576040517f08c379a000000000000000000000000000000000000000000000000000000000815260040161121090613203565b60405180910390fd5b61122584848484611a87565b50505050565b606061123682611ae3565b9050919050565b6000600560008473ffffffffffffffffffffffffffffffffffffffff1673ffffffffffffffffffffffffffffffffffffffff16815260200190815260200160002060008373ffffffffffffffffffffffffffffffffffffffff1673ffffffffffffffffffffffffffffffffffffffff16815260200190815260200160002060009054906101000a900460ff16905092915050565b6112d96115e9565b73ffffffffffffffffffffffffffffffffffffffff166112f7610e38565b73ffffffffffffffffffffffffffffffffffffffff161461134d576040517f08c379a000000000000000000000000000000000000000000000000000000000815260040161134490613183565b60405180910390fd5b600073ffffffffffffffffffffffffffffffffffffffff168173ffffffffffffffffffffffffffffffffffffffff1614156113bd576040517f08c379a00000000000000000000000000000000000000000000000000000000081526004016113b490613043565b60405180910390fd5b8073ffffffffffffffffffffffffffffffffffffffff16600660019054906101000a900473ffffffffffffffffffffffffffffffffffffffff1673ffffffffffffffffffffffffffffffffffffffff167f8be0079c531659141344cd1fd0a4f28419497f9722a3daafe3b4186f6b6457e060405160405180910390a380600660016101000a81548173ffffffffffffffffffffffffffffffffffffffff021916908373ffffffffffffffffffffffffffffffffffffffff16021790555050565b6114856115e9565b73ffffffffffffffffffffffffffffffffffffffff166114a3610e38565b73ffffffffffffffffffffffffffffffffffffffff16146114f9576040517f08c379a00000000000000000000000000000000000000000000000000000000081526004016114f090613183565b60405180910390fd5b611501611b5f565b565b60007f780e9d63000000000000000000000000000000000000000000000000000000007bffffffffffffffffffffffffffffffffffffffffffffffffffffffff1916827bffffffffffffffffffffffffffffffffffffffffffffffffffffffff19161480611576575061157582611c01565b5b9050919050565b60008073ffffffffffffffffffffffffffffffffffffffff166002600084815260200190815260200160002060009054906101000a900473ffffffffffffffffffffffffffffffffffffffff1673ffffffffffffffffffffffffffffffffffffffff1614159050919050565b600033905090565b816004600083815260200190815260200160002060006101000a81548173ffffffffffffffffffffffffffffffffffffffff021916908373ffffffffffffffffffffffffffffffffffffffff160217905550808273ffffffffffffffffffffffffffffffffffffffff1661166483610a79565b73ffffffffffffffffffffffffffffffffffffffff167f8c5be1e5ebec7d5bd14f71427d1e84f3dd0314c0f7b2291e5b200ac8c7c3b92560405160405180910390a45050565b60006116b58261157d565b6116f4576040517f08c379a00000000000000000000000000000000000000000000000000000000081526004016116eb906130c3565b60405180910390fd5b60006116ff83610a79565b90508073ffffffffffffffffffffffffffffffffffffffff168473ffffffffffffffffffffffffffffffffffffffff16148061176e57508373ffffffffffffffffffffffffffffffffffffffff166117568461061e565b73ffffffffffffffffffffffffffffffffffffffff16145b8061177f575061177e818561123d565b5b91505092915050565b8273ffffffffffffffffffffffffffffffffffffffff166117a882610a79565b73ffffffffffffffffffffffffffffffffffffffff16146117fe576040517f08c379a00000000000000000000000000000000000000000000000000000000081526004016117f5906131a3565b60405180910390fd5b600073ffffffffffffffffffffffffffffffffffffffff168273ffffffffffffffffffffffffffffffffffffffff16141561186e576040517f08c379a000000000000000000000000000000000000000000000000000000000815260040161186590613063565b60405180910390fd5b611879838383611ce3565b6118846000826115f1565b6001600360008573ffffffffffffffffffffffffffffffffffffffff1673ffffffffffffffffffffffffffffffffffffffff16815260200190815260200160002060008282546118d491906133c4565b925050819055506001600360008473ffffffffffffffffffffffffffffffffffffffff1673ffffffffffffffffffffffffffffffffffffffff168152602001908152602001600020600082825461192b919061333d565b92505081905550816002600083815260200190815260200160002060006101000a81548173ffffffffffffffffffffffffffffffffffffffff021916908373ffffffffffffffffffffffffffffffffffffffff160217905550808273ffffffffffffffffffffffffffffffffffffffff168473ffffffffffffffffffffffffffffffffffffffff167fddf252ad1be2c89b69c2b068fc378daa952ba7f163c4a11628f55a4df523b3ef60405160405180910390a4505050565b6119ec610a62565b15611a2c576040517f08c379a0000000000000000000000000000000000000000000000000000000008152600401611a23906130e3565b60405180910390fd5b6001600660006101000a81548160ff0219169083151502179055507f62e78cea01bee320cd4e420270b5ea74000d11b0c9f74754ebdbfc544b05a258611a706115e9565b604051611a7d9190612edf565b60405180910390a1565b611a92848484611788565b611a9e84848484611cfe565b611add576040517f08c379a0000000000000000000000000000000000000000000000000000000008152600401611ad490613023565b60405180910390fd5b50505050565b6060611aee8261157d565b611b2d576040517f08c379a0000000000000000000000000000000000000000000000000000000008152600401611b24906131c3565b60405180910390fd5b6008611b3883611e95565b604051602001611b49929190612ebb565b6040516020818303038152906040529050919050565b611b67610a62565b611ba6576040517f08c379a0000000000000000000000000000000000000000000000000000000008152600401611b9d90612fa3565b60405180910390fd5b6000600660006101000a81548160ff0219169083151502179055507f5db9ee0a495bf2e6ff9c91a7834c1ba4fdd244a5e8aa4e537bd38aeae4b073aa611bea6115e9565b604051611bf79190612edf565b60405180910390a1565b60007f80ac58cd000000000000000000000000000000000000000000000000000000007bffffffffffffffffffffffffffffffffffffffffffffffffffffffff1916827bffffffffffffffffffffffffffffffffffffffffffffffffffffffff19161480611ccc57507f5b5e139f000000000000000000000000000000000000000000000000000000007bffffffffffffffffffffffffffffffffffffffffffffffffffffffff1916827bffffffffffffffffffffffffffffffffffffffffffffffffffffffff1916145b80611cdc5750611cdb82612042565b5b9050919050565b611cee8383836120ac565b611cf9838383612104565b505050565b6000611d1f8473ffffffffffffffffffffffffffffffffffffffff16612218565b15611e88578373ffffffffffffffffffffffffffffffffffffffff1663150b7a02611d486115e9565b8786866040518563ffffffff1660e01b8152600401611d6a9493929190612efa565b602060405180830381600087803b158015611d8457600080fd5b505af1925050508015611db557506040513d601f19601f82011682018060405250810190611db291906129d7565b60015b611e38573d8060008114611de5576040519150601f19603f3d011682016040523d82523d6000602084013e611dea565b606091505b50600081511415611e30576040517f08c379a0000000000000000000000000000000000000000000000000000000008152600401611e2790613023565b60405180910390fd5b805181602001fd5b63150b7a0260e01b7bffffffffffffffffffffffffffffffffffffffffffffffffffffffff1916817bffffffffffffffffffffffffffffffffffffffffffffffffffffffff191614915050611e8d565b600190505b949350505050565b60606000821415611edd576040518060400160405280600181526020017f3000000000000000000000000000000000000000000000000000000000000000815250905061203d565b600082905060005b60008214611f0f578080611ef890613511565b915050600a82611f089190613393565b9150611ee5565b60008167ffffffffffffffff811115611f51577f4e487b7100000000000000000000000000000000000000000000000000000000600052604160045260246000fd5b6040519080825280601f01601f191660200182016040528015611f835781602001600182028036833780820191505090505b5090505b6000851461203657600182611f9c91906133c4565b9150600a85611fab919061355a565b6030611fb7919061333d565b60f81b818381518110611ff3577f4e487b7100000000000000000000000000000000000000000000000000000000600052603260045260246000fd5b60200101907effffffffffffffffffffffffffffffffffffffffffffffffffffffffffffff1916908160001a905350600a8561202f9190613393565b9450611f87565b8093505050505b919050565b60007f01ffc9a7000000000000000000000000000000000000000000000000000000007bffffffffffffffffffffffffffffffffffffffffffffffffffffffff1916827bffffffffffffffffffffffffffffffffffffffffffffffffffffffff1916149050919050565b6120b783838361222b565b6120c081612283565b6120ff576040517f08c379a00000000000000000000000000000000000000000000000000000000081526004016120f690612fc3565b60405180910390fd5b505050565b61210f8383836120ac565b600073ffffffffffffffffffffffffffffffffffffffff168373ffffffffffffffffffffffffffffffffffffffff1614156121525761214d816122ae565b612191565b8173ffffffffffffffffffffffffffffffffffffffff168373ffffffffffffffffffffffffffffffffffffffff16146121905761218f83826122f7565b5b5b600073ffffffffffffffffffffffffffffffffffffffff168273ffffffffffffffffffffffffffffffffffffffff1614156121d4576121cf81612464565b612213565b8273ffffffffffffffffffffffffffffffffffffffff168273ffffffffffffffffffffffffffffffffffffffff16146122125761221182826125a7565b5b5b505050565b600080823b905060008111915050919050565b612236838383612626565b61223e610a62565b1561227e576040517f08c379a000000000000000000000000000000000000000000000000000000000815260040161227590612f83565b60405180910390fd5b505050565b60006007600083815260200190815260200160002060009054906101000a900460ff16159050919050565b600b80549050600c600083815260200190815260200160002081905550600b81908060018154018082558091505060019003906000526020600020016000909190919091505550565b6000600161230484610bbd565b61230e91906133c4565b90506000600a60008481526020019081526020016000205490508181146123f3576000600960008673ffffffffffffffffffffffffffffffffffffffff1673ffffffffffffffffffffffffffffffffffffffff168152602001908152602001600020600084815260200190815260200160002054905080600960008773ffffffffffffffffffffffffffffffffffffffff1673ffffffffffffffffffffffffffffffffffffffff16815260200190815260200160002060008481526020019081526020016000208190555081600a600083815260200190815260200160002081905550505b600a600084815260200190815260200160002060009055600960008573ffffffffffffffffffffffffffffffffffffffff1673ffffffffffffffffffffffffffffffffffffffff16815260200190815260200160002060008381526020019081526020016000206000905550505050565b60006001600b8054905061247891906133c4565b90506000600c60008481526020019081526020016000205490506000600b83815481106124ce577f4e487b7100000000000000000000000000000000000000000000000000000000600052603260045260246000fd5b9060005260206000200154905080600b8381548110612516577f4e487b7100000000000000000000000000000000000000000000000000000000600052603260045260246000fd5b906000526020600020018190555081600c600083815260200190815260200160002081905550600c600085815260200190815260200160002060009055600b80548061258b577f4e487b7100000000000000000000000000000000000000000000000000000000600052603160045260246000fd5b6001900381819060005260206000200160009055905550505050565b60006125b283610bbd565b905081600960008573ffffffffffffffffffffffffffffffffffffffff1673ffffffffffffffffffffffffffffffffffffffff16815260200190815260200160002060008381526020019081526020016000208190555080600a600084815260200190815260200160002081905550505050565b505050565b828054612637906134ae565b90600052602060002090601f01602090048101928261265957600085556126a0565b82601f1061267257805160ff19168380011785556126a0565b828001600101855582156126a0579182015b8281111561269f578251825591602001919060010190612684565b5b5090506126ad91906126b1565b5090565b5b808211156126ca5760008160009055506001016126b2565b5090565b60006126e16126dc84613283565b61325e565b9050828152602081018484840111156126f957600080fd5b61270484828561346c565b509392505050565b600061271f61271a846132b4565b61325e565b90508281526020810184848401111561273757600080fd5b61274284828561346c565b509392505050565b60008135905061275981613c64565b92915050565b60008135905061276e81613c7b565b92915050565b60008135905061278381613c92565b92915050565b60008151905061279881613c92565b92915050565b600082601f8301126127af57600080fd5b81356127bf8482602086016126ce565b91505092915050565b600082601f8301126127d957600080fd5b81356127e984826020860161270c565b91505092915050565b60008135905061280181613ca9565b92915050565b60006020828403121561281957600080fd5b60006128278482850161274a565b91505092915050565b6000806040838503121561284357600080fd5b60006128518582860161274a565b92505060206128628582860161274a565b9150509250929050565b60008060006060848603121561288157600080fd5b600061288f8682870161274a565b93505060206128a08682870161274a565b92505060406128b1868287016127f2565b9150509250925092565b600080600080608085870312156128d157600080fd5b60006128df8782880161274a565b94505060206128f08782880161274a565b9350506040612901878288016127f2565b925050606085013567ffffffffffffffff81111561291e57600080fd5b61292a8782880161279e565b91505092959194509250565b6000806040838503121561294957600080fd5b60006129578582860161274a565b92505060206129688582860161275f565b9150509250929050565b6000806040838503121561298557600080fd5b60006129938582860161274a565b92505060206129a4858286016127f2565b9150509250929050565b6000602082840312156129c057600080fd5b60006129ce84828501612774565b91505092915050565b6000602082840312156129e957600080fd5b60006129f784828501612789565b91505092915050565b600060208284031215612a1257600080fd5b600082013567ffffffffffffffff811115612a2c57600080fd5b612a38848285016127c8565b91505092915050565b600060208284031215612a5357600080fd5b6000612a61848285016127f2565b91505092915050565b612a73816133f8565b82525050565b612a828161340a565b82525050565b6000612a93826132fa565b612a9d8185613310565b9350612aad81856020860161347b565b612ab681613647565b840191505092915050565b6000612acc82613305565b612ad68185613321565b9350612ae681856020860161347b565b612aef81613647565b840191505092915050565b6000612b0582613305565b612b0f8185613332565b9350612b1f81856020860161347b565b80840191505092915050565b60008154612b38816134ae565b612b428186613332565b94506001821660008114612b5d5760018114612b6e57612ba1565b60ff19831686528186019350612ba1565b612b77856132e5565b60005b83811015612b9957815481890152600182019150602081019050612b7a565b838801955050505b50505092915050565b6000612bb7602b83613321565b9150612bc282613658565b604082019050919050565b6000612bda601483613321565b9150612be5826136a7565b602082019050919050565b6000612bfd602c83613321565b9150612c08826136d0565b604082019050919050565b6000612c20601b83613321565b9150612c2b8261371f565b602082019050919050565b6000612c43602b83613321565b9150612c4e82613748565b604082019050919050565b6000612c66603283613321565b9150612c7182613797565b604082019050919050565b6000612c89602683613321565b9150612c94826137e6565b604082019050919050565b6000612cac602483613321565b9150612cb782613835565b604082019050919050565b6000612ccf601983613321565b9150612cda82613884565b602082019050919050565b6000612cf2603583613321565b9150612cfd826138ad565b604082019050919050565b6000612d15602c83613321565b9150612d20826138fc565b604082019050919050565b6000612d38601083613321565b9150612d438261394b565b602082019050919050565b6000612d5b603883613321565b9150612d6682613974565b604082019050919050565b6000612d7e602a83613321565b9150612d89826139c3565b604082019050919050565b6000612da1602983613321565b9150612dac82613a12565b604082019050919050565b6000612dc4602c83613321565b9150612dcf82613a61565b604082019050919050565b6000612de7602083613321565b9150612df282613ab0565b602082019050919050565b6000612e0a602983613321565b9150612e1582613ad9565b604082019050919050565b6000612e2d602f83613321565b9150612e3882613b28565b604082019050919050565b6000612e50602183613321565b9150612e5b82613b77565b604082019050919050565b6000612e73603183613321565b9150612e7e82613bc6565b604082019050919050565b6000612e96602c83613321565b9150612ea182613c15565b604082019050919050565b612eb581613462565b82525050565b6000612ec78285612b2b565b9150612ed38284612afa565b91508190509392505050565b6000602082019050612ef46000830184612a6a565b92915050565b6000608082019050612f0f6000830187612a6a565b612f1c6020830186612a6a565b612f296040830185612eac565b8181036060830152612f3b8184612a88565b905095945050505050565b6000602082019050612f5b6000830184612a79565b92915050565b60006020820190508181036000830152612f7b8184612ac1565b905092915050565b60006020820190508181036000830152612f9c81612baa565b9050919050565b60006020820190508181036000830152612fbc81612bcd565b9050919050565b60006020820190508181036000830152612fdc81612bf0565b9050919050565b60006020820190508181036000830152612ffc81612c13565b9050919050565b6000602082019050818103600083015261301c81612c36565b9050919050565b6000602082019050818103600083015261303c81612c59565b9050919050565b6000602082019050818103600083015261305c81612c7c565b9050919050565b6000602082019050818103600083015261307c81612c9f565b9050919050565b6000602082019050818103600083015261309c81612cc2565b9050919050565b600060208201905081810360008301526130bc81612ce5565b9050919050565b600060208201905081810360008301526130dc81612d08565b9050919050565b600060208201905081810360008301526130fc81612d2b565b9050919050565b6000602082019050818103600083015261311c81612d4e565b9050919050565b6000602082019050818103600083015261313c81612d71565b9050919050565b6000602082019050818103600083015261315c81612d94565b9050919050565b6000602082019050818103600083015261317c81612db7565b9050919050565b6000602082019050818103600083015261319c81612dda565b9050919050565b600060208201905081810360008301526131bc81612dfd565b9050919050565b600060208201905081810360008301526131dc81612e20565b9050919050565b600060208201905081810360008301526131fc81612e43565b9050919050565b6000602082019050818103600083015261321c81612e66565b9050919050565b6000602082019050818103600083015261323c81612e89565b9050919050565b60006020820190506132586000830184612eac565b92915050565b6000613268613279565b905061327482826134e0565b919050565b6000604051905090565b600067ffffffffffffffff82111561329e5761329d613618565b5b6132a782613647565b9050602081019050919050565b600067ffffffffffffffff8211156132cf576132ce613618565b5b6132d882613647565b9050602081019050919050565b60008190508160005260206000209050919050565b600081519050919050565b600081519050919050565b600082825260208201905092915050565b600082825260208201905092915050565b600081905092915050565b600061334882613462565b915061335383613462565b9250827fffffffffffffffffffffffffffffffffffffffffffffffffffffffffffffffff038211156133885761338761358b565b5b828201905092915050565b600061339e82613462565b91506133a983613462565b9250826133b9576133b86135ba565b5b828204905092915050565b60006133cf82613462565b91506133da83613462565b9250828210156133ed576133ec61358b565b5b828203905092915050565b600061340382613442565b9050919050565b60008115159050919050565b60007fffffffff0000000000000000000000000000000000000000000000000000000082169050919050565b600073ffffffffffffffffffffffffffffffffffffffff82169050919050565b6000819050919050565b82818337600083830152505050565b60005b8381101561349957808201518184015260208101905061347e565b838111156134a8576000848401525b50505050565b600060028204905060018216806134c657607f821691505b602082108114156134da576134d96135e9565b5b50919050565b6134e982613647565b810181811067ffffffffffffffff8211171561350857613507613618565b5b80604052505050565b600061351c82613462565b91507fffffffffffffffffffffffffffffffffffffffffffffffffffffffffffffffff82141561354f5761354e61358b565b5b600182019050919050565b600061356582613462565b915061357083613462565b9250826135805761357f6135ba565b5b828206905092915050565b7f4e487b7100000000000000000000000000000000000000000000000000000000600052601160045260246000fd5b7f4e487b7100000000000000000000000000000000000000000000000000000000600052601260045260246000fd5b7f4e487b7100000000000000000000000000000000000000000000000000000000600052602260045260246000fd5b7f4e487b7100000000000000000000000000000000000000000000000000000000600052604160045260246000fd5b6000601f19601f8301169050919050565b7f4552433732315061757361626c653a20746f6b656e207472616e73666572207760008201527f68696c6520706175736564000000000000000000000000000000000000000000602082015250565b7f5061757361626c653a206e6f7420706175736564000000000000000000000000600082015250565b7f4f7262697461754552433732313a20746f6b656e207472616e7366657220776860008201527f696c652065717569707065640000000000000000000000000000000000000000602082015250565b7f4f7262697461754552433732313a206e66742065717569707065640000000000600082015250565b7f455243373231456e756d657261626c653a206f776e657220696e646578206f7560008201527f74206f6620626f756e6473000000000000000000000000000000000000000000602082015250565b7f4552433732313a207472616e7366657220746f206e6f6e20455243373231526560008201527f63656976657220696d706c656d656e7465720000000000000000000000000000602082015250565b7f4f776e61626c653a206e6577206f776e657220697320746865207a65726f206160008201527f6464726573730000000000000000000000000000000000000000000000000000602082015250565b7f4552433732313a207472616e7366657220746f20746865207a65726f2061646460008201527f7265737300000000000000000000000000000000000000000000000000000000602082015250565b7f4552433732313a20617070726f766520746f2063616c6c657200000000000000600082015250565b7f4f7262697461754552433732313a2065717569702063616c6c6572206973206e60008201527f6f74206f776e6572206e6f7220617070726f7665640000000000000000000000602082015250565b7f4552433732313a206f70657261746f7220717565727920666f72206e6f6e657860008201527f697374656e7420746f6b656e0000000000000000000000000000000000000000602082015250565b7f5061757361626c653a2070617573656400000000000000000000000000000000600082015250565b7f4552433732313a20617070726f76652063616c6c6572206973206e6f74206f7760008201527f6e6572206e6f7220617070726f76656420666f7220616c6c0000000000000000602082015250565b7f4552433732313a2062616c616e636520717565727920666f7220746865207a6560008201527f726f206164647265737300000000000000000000000000000000000000000000602082015250565b7f4552433732313a206f776e657220717565727920666f72206e6f6e657869737460008201527f656e7420746f6b656e0000000000000000000000000000000000000000000000602082015250565b7f4552433732313a20617070726f76656420717565727920666f72206e6f6e657860008201527f697374656e7420746f6b656e0000000000000000000000000000000000000000602082015250565b7f4f776e61626c653a2063616c6c6572206973206e6f7420746865206f776e6572600082015250565b7f4552433732313a207472616e73666572206f6620746f6b656e2074686174206960008201527f73206e6f74206f776e0000000000000000000000000000000000000000000000602082015250565b7f4552433732314d657461646174613a2055524920717565727920666f72206e6f60008201527f6e6578697374656e7420746f6b656e0000000000000000000000000000000000602082015250565b7f4552433732313a20617070726f76616c20746f2063757272656e74206f776e6560008201527f7200000000000000000000000000000000000000000000000000000000000000602082015250565b7f4552433732313a207472616e736665722063616c6c6572206973206e6f74206f60008201527f776e6572206e6f7220617070726f766564000000000000000000000000000000602082015250565b7f455243373231456e756d657261626c653a20676c6f62616c20696e646578206f60008201527f7574206f6620626f756e64730000000000000000000000000000000000000000602082015250565b613c6d816133f8565b8114613c7857600080fd5b50565b613c848161340a565b8114613c8f57600080fd5b50565b613c9b81613416565b8114613ca657600080fd5b50565b613cb281613462565b8114613cbd57600080fd5b5056fea2646970667358221220317ea1cf438d0f14f1bce799bfb039f8051cb4226a304ba3f4831a2a198e492b64736f6c63430008040033",
  "immutableReferences": {},
  "source": "// SPDX-License-Identifier: UNLICENSED\r\n\r\npragma solidity ^0.8.4;\r\n\r\nimport \"./OrbitauERC721.sol\";\r\nimport \"../../lib/token/ERC721/extensions/ERC721Enumerable.sol\";\r\n\r\ncontract OrbitauERC721Enumerable is OrbitauERC721, ERC721Enumerable {\r\n    /**\r\n     * @dev Create a new OrbitauERC721Enumerable contract.\r\n     *\r\n     */\r\n    constructor() OrbitauERC721() {}\r\n\r\n    /**\r\n     * @dev See {IERC165-supportsInterface}.\r\n     */\r\n    function supportsInterface(bytes4 interfaceId) public view virtual override(ERC721, ERC721Enumerable) returns (bool) {\r\n        return\r\n        interfaceId == type(IERC721).interfaceId ||\r\n        interfaceId == type(IERC721Metadata).interfaceId ||\r\n        ERC721Enumerable.supportsInterface(interfaceId);\r\n    }\r\n\r\n    /**\r\n     * @dev See {IERC721Metadata-tokenURI}.\r\n     */\r\n    function tokenURI(uint256 tokenId) public view override(ERC721, OrbitauERC721) returns (string memory) {\r\n        return OrbitauERC721.tokenURI(tokenId);\r\n    }\r\n\r\n    /**\r\n     * @dev Base URI for computing {tokenURI}. If set, the resulting URI for each\r\n     * token will be the concatenation of the `baseURI` and the `tokenId`.\r\n     */\r\n    function _baseURI() internal view override(ERC721, OrbitauERC721) returns (string memory) {\r\n        return OrbitauERC721._baseURI();\r\n    }\r\n\r\n    /**\r\n     * @dev Hook that is called before any token transfer. This includes minting\r\n     * and burning.\r\n     *\r\n     * Calling conditions:\r\n     *\r\n     * - When `from` and `to` are both non-zero, ``from``'s `tokenId` will be\r\n     * transferred to `to`.\r\n     * - When `from` is zero, `tokenId` will be minted for `to`.\r\n     * - When `to` is zero, ``from``'s `tokenId` will be burned.\r\n     * - `from` cannot be the zero address.\r\n     * - `to` cannot be the zero address.\r\n     *\r\n     * To learn more about hooks, head to xref:ROOT:extending-contracts.adoc#using-hooks[Using Hooks].\r\n     */\r\n    function _beforeTokenTransfer(address from, address to, uint256 tokenId) internal virtual override(OrbitauERC721, ERC721Enumerable) {\r\n        OrbitauERC721._beforeTokenTransfer(from, to, tokenId);\r\n        ERC721Enumerable._beforeTokenTransfer(from, to, tokenId);\r\n    }\r\n}\r\n",
  "sourcePath": "D:\\0xTaureum\\github\\orbitau-smart-contract\\contracts\\tokens\\ERC721\\OrbitauERC721Enumerable.sol",
  "compiler": {
    "name": "solc",
    "version": "0.8.4+commit.c7e474f2.Emscripten.clang"
  },
  "schemaVersion": "3.4.3",
  "updatedAt": "2021-09-15T10:26:33.491Z",
  "devdoc": {
    "kind": "dev",
    "methods": {
      "approve(address,uint256)": {
        "details": "See {IERC721-approve}."
      },
      "balanceOf(address)": {
        "details": "See {IERC721-balanceOf}."
      },
      "baseURI()": {
        "details": "Returns `__baseURI`."
      },
      "constructor": {
        "details": "Create a new OrbitauERC721Enumerable contract."
      },
      "getApproved(uint256)": {
        "details": "See {IERC721-getApproved}."
      },
      "isApprovedForAll(address,address)": {
        "details": "See {IERC721-isApprovedForAll}."
      },
      "name()": {
        "details": "See {IERC721Metadata-name}."
      },
      "owner()": {
        "details": "Returns the address of the current owner."
      },
      "ownerOf(uint256)": {
        "details": "See {IERC721-ownerOf}."
      },
      "pause()": {
        "details": "Pause the contract in case of bugs/attacks."
      },
      "paused()": {
        "details": "Returns true if the contract is paused, and false otherwise."
      },
      "renounceOwnership()": {
        "details": "Leaves the contract without owner. It will not be possible to call `onlyOwner` functions anymore. Can only be called by the current owner. NOTE: Renouncing ownership will leave the contract without an owner, thereby removing any functionality that is only available to the owner."
      },
      "safeTransferFrom(address,address,uint256)": {
        "details": "See {IERC721-safeTransferFrom}."
      },
      "safeTransferFrom(address,address,uint256,bytes)": {
        "details": "See {IERC721-safeTransferFrom}."
      },
      "setApprovalForAll(address,bool)": {
        "details": "See {IERC721-setApprovalForAll}."
      },
      "setBaseURI(string)": {
        "details": "Sets new value for the `__baseURI`. This operation can only been done by the owner of this contract."
      },
      "supportsInterface(bytes4)": {
        "details": "See {IERC165-supportsInterface}."
      },
      "symbol()": {
        "details": "See {IERC721Metadata-symbol}."
      },
      "tokenByIndex(uint256)": {
        "details": "See {IERC721Enumerable-tokenByIndex}."
      },
      "tokenOfOwnerByIndex(address,uint256)": {
        "details": "See {IERC721Enumerable-tokenOfOwnerByIndex}."
      },
      "tokenURI(uint256)": {
        "details": "See {IERC721Metadata-tokenURI}."
      },
      "totalSupply()": {
        "details": "See {IERC721Enumerable-totalSupply}."
      },
      "transferFrom(address,address,uint256)": {
        "details": "See {IERC721-transferFrom}."
      },
      "transferOwnership(address)": {
        "details": "Transfers ownership of the contract to a new account (`newOwner`). Can only be called by the current owner."
      },
      "unPause()": {
        "details": "Resume the contract after being paused."
      }
    },
    "version": 1
  },
  "userdoc": {
    "kind": "user",
    "methods": {
      "pause()": {
        "notice": "Only the owner can call this method."
      },
      "unPause()": {
        "notice": "Only the owner can call this method."
      }
    },
    "version": 1
  }
}