{
  "contractName": "OrbitauERC721LazyMint",
  "abi": [
    {
      "inputs": [],
      "stateMutability": "nonpayable",
      "type": "constructor"
    },
    {
      "anonymous": false,
      "inputs": [
        {
          "indexed": true,
          "internalType": "address",
          "name": "owner",
          "type": "address"
        },
        {
          "indexed": true,
          "internalType": "address",
          "name": "approved",
          "type": "address"
        },
        {
          "indexed": true,
          "internalType": "uint256",
          "name": "tokenId",
          "type": "uint256"
        }
      ],
      "name": "Approval",
      "type": "event"
    },
    {
      "anonymous": false,
      "inputs": [
        {
          "indexed": true,
          "internalType": "address",
          "name": "owner",
          "type": "address"
        },
        {
          "indexed": true,
          "internalType": "address",
          "name": "operator",
          "type": "address"
        },
        {
          "indexed": false,
          "internalType": "bool",
          "name": "approved",
          "type": "bool"
        }
      ],
      "name": "ApprovalForAll",
      "type": "event"
    },
    {
      "anonymous": false,
      "inputs": [
        {
          "indexed": true,
          "internalType": "address",
          "name": "owner",
          "type": "address"
        },
        {
          "indexed": false,
          "internalType": "uint256",
          "name": "tokenId",
          "type": "uint256"
        }
      ],
      "name": "Equip",
      "type": "event"
    },
    {
      "anonymous": false,
      "inputs": [
        {
          "indexed": true,
          "internalType": "address",
          "name": "previousOwner",
          "type": "address"
        },
        {
          "indexed": true,
          "internalType": "address",
          "name": "newOwner",
          "type": "address"
        }
      ],
      "name": "OwnershipTransferred",
      "type": "event"
    },
    {
      "anonymous": false,
      "inputs": [
        {
          "indexed": false,
          "internalType": "address",
          "name": "account",
          "type": "address"
        }
      ],
      "name": "Paused",
      "type": "event"
    },
    {
      "anonymous": false,
      "inputs": [
        {
          "indexed": true,
          "internalType": "address",
          "name": "owner",
          "type": "address"
        },
        {
          "indexed": false,
          "internalType": "uint256",
          "name": "tokenId",
          "type": "uint256"
        }
      ],
      "name": "Redeem",
      "type": "event"
    },
    {
      "anonymous": false,
      "inputs": [
        {
          "indexed": true,
          "internalType": "address",
          "name": "from",
          "type": "address"
        },
        {
          "indexed": true,
          "internalType": "address",
          "name": "to",
          "type": "address"
        },
        {
          "indexed": true,
          "internalType": "uint256",
          "name": "tokenId",
          "type": "uint256"
        }
      ],
      "name": "Transfer",
      "type": "event"
    },
    {
      "anonymous": false,
      "inputs": [
        {
          "indexed": false,
          "internalType": "address",
          "name": "account",
          "type": "address"
        }
      ],
      "name": "Unpaused",
      "type": "event"
    },
    {
      "inputs": [
        {
          "internalType": "address",
          "name": "to",
          "type": "address"
        },
        {
          "internalType": "uint256",
          "name": "tokenId",
          "type": "uint256"
        }
      ],
      "name": "approve",
      "outputs": [],
      "stateMutability": "nonpayable",
      "type": "function"
    },
    {
      "inputs": [
        {
          "internalType": "address",
          "name": "owner",
          "type": "address"
        }
      ],
      "name": "balanceOf",
      "outputs": [
        {
          "internalType": "uint256",
          "name": "",
          "type": "uint256"
        }
      ],
      "stateMutability": "view",
      "type": "function"
    },
    {
      "inputs": [],
      "name": "baseURI",
      "outputs": [
        {
          "internalType": "string",
          "name": "",
          "type": "string"
        }
      ],
      "stateMutability": "view",
      "type": "function"
    },
    {
      "inputs": [
        {
          "internalType": "uint256",
          "name": "tokenId",
          "type": "uint256"
        }
      ],
      "name": "equip",
      "outputs": [],
      "stateMutability": "nonpayable",
      "type": "function"
    },
    {
      "inputs": [
        {
          "internalType": "uint256",
          "name": "tokenId",
          "type": "uint256"
        }
      ],
      "name": "getApproved",
      "outputs": [
        {
          "internalType": "address",
          "name": "",
          "type": "address"
        }
      ],
      "stateMutability": "view",
      "type": "function"
    },
    {
      "inputs": [
        {
          "internalType": "address",
          "name": "owner",
          "type": "address"
        },
        {
          "internalType": "address",
          "name": "operator",
          "type": "address"
        }
      ],
      "name": "isApprovedForAll",
      "outputs": [
        {
          "internalType": "bool",
          "name": "",
          "type": "bool"
        }
      ],
      "stateMutability": "view",
      "type": "function"
    },
    {
      "inputs": [],
      "name": "name",
      "outputs": [
        {
          "internalType": "string",
          "name": "",
          "type": "string"
        }
      ],
      "stateMutability": "view",
      "type": "function"
    },
    {
      "inputs": [],
      "name": "owner",
      "outputs": [
        {
          "internalType": "address",
          "name": "",
          "type": "address"
        }
      ],
      "stateMutability": "view",
      "type": "function"
    },
    {
      "inputs": [
        {
          "internalType": "uint256",
          "name": "tokenId",
          "type": "uint256"
        }
      ],
      "name": "ownerOf",
      "outputs": [
        {
          "internalType": "address",
          "name": "",
          "type": "address"
        }
      ],
      "stateMutability": "view",
      "type": "function"
    },
    {
      "inputs": [],
      "name": "pause",
      "outputs": [],
      "stateMutability": "nonpayable",
      "type": "function"
    },
    {
      "inputs": [],
      "name": "paused",
      "outputs": [
        {
          "internalType": "bool",
          "name": "",
          "type": "bool"
        }
      ],
      "stateMutability": "view",
      "type": "function"
    },
    {
      "inputs": [],
      "name": "renounceOwnership",
      "outputs": [],
      "stateMutability": "nonpayable",
      "type": "function"
    },
    {
      "inputs": [
        {
          "internalType": "address",
          "name": "from",
          "type": "address"
        },
        {
          "internalType": "address",
          "name": "to",
          "type": "address"
        },
        {
          "internalType": "uint256",
          "name": "tokenId",
          "type": "uint256"
        }
      ],
      "name": "safeTransferFrom",
      "outputs": [],
      "stateMutability": "nonpayable",
      "type": "function"
    },
    {
      "inputs": [
        {
          "internalType": "address",
          "name": "from",
          "type": "address"
        },
        {
          "internalType": "address",
          "name": "to",
          "type": "address"
        },
        {
          "internalType": "uint256",
          "name": "tokenId",
          "type": "uint256"
        },
        {
          "internalType": "bytes",
          "name": "_data",
          "type": "bytes"
        }
      ],
      "name": "safeTransferFrom",
      "outputs": [],
      "stateMutability": "nonpayable",
      "type": "function"
    },
    {
      "inputs": [
        {
          "internalType": "address",
          "name": "operator",
          "type": "address"
        },
        {
          "internalType": "bool",
          "name": "approved",
          "type": "bool"
        }
      ],
      "name": "setApprovalForAll",
      "outputs": [],
      "stateMutability": "nonpayable",
      "type": "function"
    },
    {
      "inputs": [
        {
          "internalType": "string",
          "name": "newBaseURI",
          "type": "string"
        }
      ],
      "name": "setBaseURI",
      "outputs": [],
      "stateMutability": "nonpayable",
      "type": "function"
    },
    {
      "inputs": [
        {
          "internalType": "address",
          "name": "",
          "type": "address"
        }
      ],
      "name": "signers",
      "outputs": [
        {
          "internalType": "bool",
          "name": "",
          "type": "bool"
        }
      ],
      "stateMutability": "view",
      "type": "function"
    },
    {
      "inputs": [
        {
          "internalType": "bytes4",
          "name": "interfaceId",
          "type": "bytes4"
        }
      ],
      "name": "supportsInterface",
      "outputs": [
        {
          "internalType": "bool",
          "name": "",
          "type": "bool"
        }
      ],
      "stateMutability": "view",
      "type": "function"
    },
    {
      "inputs": [],
      "name": "symbol",
      "outputs": [
        {
          "internalType": "string",
          "name": "",
          "type": "string"
        }
      ],
      "stateMutability": "view",
      "type": "function"
    },
    {
      "inputs": [
        {
          "internalType": "uint256",
          "name": "index",
          "type": "uint256"
        }
      ],
      "name": "tokenByIndex",
      "outputs": [
        {
          "internalType": "uint256",
          "name": "",
          "type": "uint256"
        }
      ],
      "stateMutability": "view",
      "type": "function"
    },
    {
      "inputs": [
        {
          "internalType": "address",
          "name": "owner",
          "type": "address"
        },
        {
          "internalType": "uint256",
          "name": "index",
          "type": "uint256"
        }
      ],
      "name": "tokenOfOwnerByIndex",
      "outputs": [
        {
          "internalType": "uint256",
          "name": "",
          "type": "uint256"
        }
      ],
      "stateMutability": "view",
      "type": "function"
    },
    {
      "inputs": [
        {
          "internalType": "uint256",
          "name": "tokenId",
          "type": "uint256"
        }
      ],
      "name": "tokenURI",
      "outputs": [
        {
          "internalType": "string",
          "name": "",
          "type": "string"
        }
      ],
      "stateMutability": "view",
      "type": "function"
    },
    {
      "inputs": [],
      "name": "totalSupply",
      "outputs": [
        {
          "internalType": "uint256",
          "name": "",
          "type": "uint256"
        }
      ],
      "stateMutability": "view",
      "type": "function"
    },
    {
      "inputs": [
        {
          "internalType": "address",
          "name": "from",
          "type": "address"
        },
        {
          "internalType": "address",
          "name": "to",
          "type": "address"
        },
        {
          "internalType": "uint256",
          "name": "tokenId",
          "type": "uint256"
        }
      ],
      "name": "transferFrom",
      "outputs": [],
      "stateMutability": "nonpayable",
      "type": "function"
    },
    {
      "inputs": [
        {
          "internalType": "address",
          "name": "newOwner",
          "type": "address"
        }
      ],
      "name": "transferOwnership",
      "outputs": [],
      "stateMutability": "nonpayable",
      "type": "function"
    },
    {
      "inputs": [],
      "name": "unPause",
      "outputs": [],
      "stateMutability": "nonpayable",
      "type": "function"
    },
    {
      "inputs": [
        {
          "internalType": "address",
          "name": "_signer",
          "type": "address"
        }
      ],
      "name": "addSigner",
      "outputs": [],
      "stateMutability": "nonpayable",
      "type": "function"
    },
    {
      "inputs": [
        {
          "internalType": "address",
          "name": "_signer",
          "type": "address"
        }
      ],
      "name": "removeSigner",
      "outputs": [],
      "stateMutability": "nonpayable",
      "type": "function"
    },
    {
      "inputs": [
        {
          "internalType": "uint256",
          "name": "tokenId",
          "type": "uint256"
        },
        {
          "internalType": "bytes",
          "name": "signature",
          "type": "bytes"
        }
      ],
      "name": "redeem",
      "outputs": [],
      "stateMutability": "nonpayable",
      "type": "function"
    }
  ],
  "bytecode": "0x6101206040523480156200001257600080fd5b506040518060400160405280600a81526020017f4f7262697461754e4654000000000000000000000000000000000000000000008152506040518060400160405280600181526020017f31000000000000000000000000000000000000000000000000000000000000008152506040518060400160405280600e81526020017f4f726269746175204552433732310000000000000000000000000000000000008152506040518060400160405280600781526020017f4f7262697461750000000000000000000000000000000000000000000000000081525081600090805190602001906200010392919062000300565b5080600190805190602001906200011c92919062000300565b5050506000600660006101000a81548160ff02191690831515021790555060006200014c620002bc60201b60201c565b905080600660016101000a81548173ffffffffffffffffffffffffffffffffffffffff021916908373ffffffffffffffffffffffffffffffffffffffff1602179055508073ffffffffffffffffffffffffffffffffffffffff16600073ffffffffffffffffffffffffffffffffffffffff167f8be0079c531659141344cd1fd0a4f28419497f9722a3daafe3b4186f6b6457e060405160405180910390a3506040518060400160405280601c81526020017f68747470733a2f2f6d657461646174612e6f7262697461752e696f2f00000000815250600890805190602001906200023892919062000300565b5060008280519060200120905060008280519060200120905060007f8b73c3c69bb8fe3d512ecc4cf759cc79239f7b179b0ffacaa9a75d522b39400f90508260c081815250508160e081815250504660a08181525050620002a1818484620002c460201b60201c565b608081815250508061010081815250505050505050620004ed565b600033905090565b60008383834630604051602001620002e1959493929190620003e3565b6040516020818303038152906040528051906020012090509392505050565b8280546200030e9062000488565b90600052602060002090601f0160209004810192826200033257600085556200037e565b82601f106200034d57805160ff19168380011785556200037e565b828001600101855582156200037e579182015b828111156200037d57825182559160200191906001019062000360565b5b5090506200038d919062000391565b5090565b5b80821115620003ac57600081600090555060010162000392565b5090565b620003bb8162000440565b82525050565b620003cc8162000454565b82525050565b620003dd816200047e565b82525050565b600060a082019050620003fa6000830188620003c1565b620004096020830187620003c1565b620004186040830186620003c1565b620004276060830185620003d2565b620004366080830184620003b0565b9695505050505050565b60006200044d826200045e565b9050919050565b6000819050919050565b600073ffffffffffffffffffffffffffffffffffffffff82169050919050565b6000819050919050565b60006002820490506001821680620004a157607f821691505b60208210811415620004b857620004b7620004be565b5b50919050565b7f4e487b7100000000000000000000000000000000000000000000000000000000600052602260045260246000fd5b60805160a05160c05160e05161010051615122620005326000396000612a5401526000612a9601526000612a7501526000612a0101526000612a2901526151226000f3fe608060405234801561001057600080fd5b50600436106101cf5760003560e01c806370a0823111610104578063b85f8027116100a2578063e985e9c511610071578063e985e9c514610518578063eb12d61e14610548578063f2fde38b14610564578063f7b188a514610580576101cf565b8063b85f802714610494578063b88d4fde146104b0578063c87b56dd146104cc578063e77c646d146104fc576101cf565b80638456cb59116100de5780638456cb59146104325780638da5cb5b1461043c57806395d89b411461045a578063a22cb46514610478576101cf565b806370a08231146103c8578063715018a6146103f8578063736c0d5b14610402576101cf565b80632f745c591161017157806355f804b31161014b57806355f804b3146103405780635c975abb1461035c5780636352211e1461037a5780636c0360eb146103aa576101cf565b80632f745c59146102c457806342842e0e146102f45780634f6ccce714610310576101cf565b8063095ea7b3116101ad578063095ea7b3146102525780630e316ab71461026e57806318160ddd1461028a57806323b872dd146102a8576101cf565b806301ffc9a7146101d457806306fdde0314610204578063081812fc14610222575b600080fd5b6101ee60048036038101906101e991906136cc565b61058a565b6040516101fb9190613f02565b60405180910390f35b61020c61066c565b6040516102199190613fec565b60405180910390f35b61023c6004803603810190610237919061375f565b6106fe565b6040516102499190613e9b565b60405180910390f35b61026c60048036038101906102679190613690565b610783565b005b61028860048036038101906102839190613525565b61089b565b005b6102926109e2565b60405161029f919061440e565b60405180910390f35b6102c260048036038101906102bd919061358a565b6109ef565b005b6102de60048036038101906102d99190613690565b610a4f565b6040516102eb919061440e565b60405180910390f35b61030e6004803603810190610309919061358a565b610af4565b005b61032a6004803603810190610325919061375f565b610b14565b604051610337919061440e565b60405180910390f35b61035a6004803603810190610355919061371e565b610bab565b005b610364610c89565b6040516103719190613f02565b60405180910390f35b610394600480360381019061038f919061375f565b610ca0565b6040516103a19190613e9b565b60405180910390f35b6103b2610d52565b6040516103bf9190613fec565b60405180910390f35b6103e260048036038101906103dd9190613525565b610de4565b6040516103ef919061440e565b60405180910390f35b610400610e9c565b005b61041c60048036038101906104179190613525565b610fd9565b6040516104299190613f02565b60405180910390f35b61043a610ff9565b005b61044461107f565b6040516104519190613e9b565b60405180910390f35b6104626110a9565b60405161046f9190613fec565b60405180910390f35b610492600480360381019061048d9190613654565b61113b565b005b6104ae60048036038101906104a9919061375f565b6112bc565b005b6104ca60048036038101906104c591906135d9565b611410565b005b6104e660048036038101906104e1919061375f565b611472565b6040516104f39190613fec565b60405180910390f35b61051660048036038101906105119190613788565b611484565b005b610532600480360381019061052d919061354e565b61157c565b60405161053f9190613f02565b60405180910390f35b610562600480360381019061055d9190613525565b611610565b005b61057e60048036038101906105799190613525565b611757565b005b610588611903565b005b60007f80ac58cd000000000000000000000000000000000000000000000000000000007bffffffffffffffffffffffffffffffffffffffffffffffffffffffff1916827bffffffffffffffffffffffffffffffffffffffffffffffffffffffff1916148061065557507f5b5e139f000000000000000000000000000000000000000000000000000000007bffffffffffffffffffffffffffffffffffffffffffffffffffffffff1916827bffffffffffffffffffffffffffffffffffffffffffffffffffffffff1916145b80610665575061066482611989565b5b9050919050565b60606000805461067b9061469b565b80601f01602080910402602001604051908101604052809291908181526020018280546106a79061469b565b80156106f45780601f106106c9576101008083540402835291602001916106f4565b820191906000526020600020905b8154815290600101906020018083116106d757829003601f168201915b5050505050905090565b600061070982611a03565b610748576040517f08c379a000000000000000000000000000000000000000000000000000000000815260040161073f906142ee565b60405180910390fd5b6004600083815260200190815260200160002060009054906101000a900473ffffffffffffffffffffffffffffffffffffffff169050919050565b600061078e82610ca0565b90508073ffffffffffffffffffffffffffffffffffffffff168373ffffffffffffffffffffffffffffffffffffffff1614156107ff576040517f08c379a00000000000000000000000000000000000000000000000000000000081526004016107f69061436e565b60405180910390fd5b8073ffffffffffffffffffffffffffffffffffffffff1661081e611a6f565b73ffffffffffffffffffffffffffffffffffffffff16148061084d575061084c81610847611a6f565b61157c565b5b61088c576040517f08c379a00000000000000000000000000000000000000000000000000000000081526004016108839061424e565b60405180910390fd5b6108968383611a77565b505050565b6108a3611a6f565b73ffffffffffffffffffffffffffffffffffffffff166108c161107f565b73ffffffffffffffffffffffffffffffffffffffff1614610917576040517f08c379a000000000000000000000000000000000000000000000000000000000815260040161090e9061430e565b60405180910390fd5b600073ffffffffffffffffffffffffffffffffffffffff168173ffffffffffffffffffffffffffffffffffffffff161415610987576040517f08c379a000000000000000000000000000000000000000000000000000000000815260040161097e906140ce565b60405180910390fd5b6000600d60008373ffffffffffffffffffffffffffffffffffffffff1673ffffffffffffffffffffffffffffffffffffffff16815260200190815260200160002060006101000a81548160ff02191690831515021790555050565b6000600b80549050905090565b610a006109fa611a6f565b82611b30565b610a3f576040517f08c379a0000000000000000000000000000000000000000000000000000000008152600401610a36906143ae565b60405180910390fd5b610a4a838383611c0e565b505050565b6000610a5a83610de4565b8210610a9b576040517f08c379a0000000000000000000000000000000000000000000000000000000008152600401610a92906140ee565b60405180910390fd5b600960008473ffffffffffffffffffffffffffffffffffffffff1673ffffffffffffffffffffffffffffffffffffffff168152602001908152602001600020600083815260200190815260200160002054905092915050565b610b0f83838360405180602001604052806000815250611410565b505050565b6000610b1e6109e2565b8210610b5f576040517f08c379a0000000000000000000000000000000000000000000000000000000008152600401610b56906143ce565b60405180910390fd5b600b8281548110610b99577f4e487b7100000000000000000000000000000000000000000000000000000000600052603260045260246000fd5b90600052602060002001549050919050565b610bb3611a6f565b73ffffffffffffffffffffffffffffffffffffffff16610bd161107f565b73ffffffffffffffffffffffffffffffffffffffff1614610c27576040517f08c379a0000000000000000000000000000000000000000000000000000000008152600401610c1e9061430e565b60405180910390fd5b610c2f610c89565b15610c6f576040517f08c379a0000000000000000000000000000000000000000000000000000000008152600401610c669061422e565b60405180910390fd5b8060089080519060200190610c859291906132ff565b5050565b6000600660009054906101000a900460ff16905090565b6000806002600084815260200190815260200160002060009054906101000a900473ffffffffffffffffffffffffffffffffffffffff169050600073ffffffffffffffffffffffffffffffffffffffff168173ffffffffffffffffffffffffffffffffffffffff161415610d49576040517f08c379a0000000000000000000000000000000000000000000000000000000008152600401610d409061428e565b60405180910390fd5b80915050919050565b606060088054610d619061469b565b80601f0160208091040260200160405190810160405280929190818152602001828054610d8d9061469b565b8015610dda5780601f10610daf57610100808354040283529160200191610dda565b820191906000526020600020905b815481529060010190602001808311610dbd57829003601f168201915b5050505050905090565b60008073ffffffffffffffffffffffffffffffffffffffff168273ffffffffffffffffffffffffffffffffffffffff161415610e55576040517f08c379a0000000000000000000000000000000000000000000000000000000008152600401610e4c9061426e565b60405180910390fd5b600360008373ffffffffffffffffffffffffffffffffffffffff1673ffffffffffffffffffffffffffffffffffffffff168152602001908152602001600020549050919050565b610ea4611a6f565b73ffffffffffffffffffffffffffffffffffffffff16610ec261107f565b73ffffffffffffffffffffffffffffffffffffffff1614610f18576040517f08c379a0000000000000000000000000000000000000000000000000000000008152600401610f0f9061430e565b60405180910390fd5b600073ffffffffffffffffffffffffffffffffffffffff16600660019054906101000a900473ffffffffffffffffffffffffffffffffffffffff1673ffffffffffffffffffffffffffffffffffffffff167f8be0079c531659141344cd1fd0a4f28419497f9722a3daafe3b4186f6b6457e060405160405180910390a36000600660016101000a81548173ffffffffffffffffffffffffffffffffffffffff021916908373ffffffffffffffffffffffffffffffffffffffff160217905550565b600d6020528060005260406000206000915054906101000a900460ff1681565b611001611a6f565b73ffffffffffffffffffffffffffffffffffffffff1661101f61107f565b73ffffffffffffffffffffffffffffffffffffffff1614611075576040517f08c379a000000000000000000000000000000000000000000000000000000000815260040161106c9061430e565b60405180910390fd5b61107d611e6a565b565b6000600660019054906101000a900473ffffffffffffffffffffffffffffffffffffffff16905090565b6060600180546110b89061469b565b80601f01602080910402602001604051908101604052809291908181526020018280546110e49061469b565b80156111315780601f1061110657610100808354040283529160200191611131565b820191906000526020600020905b81548152906001019060200180831161111457829003601f168201915b5050505050905090565b611143611a6f565b73ffffffffffffffffffffffffffffffffffffffff168273ffffffffffffffffffffffffffffffffffffffff1614156111b1576040517f08c379a00000000000000000000000000000000000000000000000000000000081526004016111a8906141ae565b60405180910390fd5b80600560006111be611a6f565b73ffffffffffffffffffffffffffffffffffffffff1673ffffffffffffffffffffffffffffffffffffffff16815260200190815260200160002060008473ffffffffffffffffffffffffffffffffffffffff1673ffffffffffffffffffffffffffffffffffffffff16815260200190815260200160002060006101000a81548160ff0219169083151502179055508173ffffffffffffffffffffffffffffffffffffffff1661126b611a6f565b73ffffffffffffffffffffffffffffffffffffffff167f17307eab39ab6107e8899845ad3d59bd9653f200f220920489ca2b5937696c31836040516112b09190613f02565b60405180910390a35050565b3373ffffffffffffffffffffffffffffffffffffffff166112dc82610ca0565b73ffffffffffffffffffffffffffffffffffffffff1614611332576040517f08c379a0000000000000000000000000000000000000000000000000000000008152600401611329906141ce565b60405180910390fd5b6007600082815260200190815260200160002060009054906101000a900460ff1615611393576040517f08c379a000000000000000000000000000000000000000000000000000000000815260040161138a906140ae565b60405180910390fd5b60016007600083815260200190815260200160002060006101000a81548160ff0219169083151502179055503373ffffffffffffffffffffffffffffffffffffffff167f9bc69fd0e63231957daa6abe5af60a488ed6d7b33dc6be78443b607e672d952c82604051611405919061440e565b60405180910390a250565b61142161141b611a6f565b83611b30565b611460576040517f08c379a0000000000000000000000000000000000000000000000000000000008152600401611457906143ae565b60405180910390fd5b61146c84848484611f0d565b50505050565b606061147d82611f69565b9050919050565b60006114dd6114933386611fe5565b84848080601f016020809104026020016040519081016040528093929190818152602001838380828437600081840152601f19601f82011690508083019250505050505050612042565b9050600d60008273ffffffffffffffffffffffffffffffffffffffff1673ffffffffffffffffffffffffffffffffffffffff16815260200190815260200160002060009054906101000a900460ff1661156b576040517f08c379a00000000000000000000000000000000000000000000000000000000081526004016115629061438e565b60405180910390fd5b61157533856120be565b5050505050565b6000600560008473ffffffffffffffffffffffffffffffffffffffff1673ffffffffffffffffffffffffffffffffffffffff16815260200190815260200160002060008373ffffffffffffffffffffffffffffffffffffffff1673ffffffffffffffffffffffffffffffffffffffff16815260200190815260200160002060009054906101000a900460ff16905092915050565b611618611a6f565b73ffffffffffffffffffffffffffffffffffffffff1661163661107f565b73ffffffffffffffffffffffffffffffffffffffff161461168c576040517f08c379a00000000000000000000000000000000000000000000000000000000081526004016116839061430e565b60405180910390fd5b600073ffffffffffffffffffffffffffffffffffffffff168173ffffffffffffffffffffffffffffffffffffffff1614156116fc576040517f08c379a00000000000000000000000000000000000000000000000000000000081526004016116f3906140ce565b60405180910390fd5b6001600d60008373ffffffffffffffffffffffffffffffffffffffff1673ffffffffffffffffffffffffffffffffffffffff16815260200190815260200160002060006101000a81548160ff02191690831515021790555050565b61175f611a6f565b73ffffffffffffffffffffffffffffffffffffffff1661177d61107f565b73ffffffffffffffffffffffffffffffffffffffff16146117d3576040517f08c379a00000000000000000000000000000000000000000000000000000000081526004016117ca9061430e565b60405180910390fd5b600073ffffffffffffffffffffffffffffffffffffffff168173ffffffffffffffffffffffffffffffffffffffff161415611843576040517f08c379a000000000000000000000000000000000000000000000000000000000815260040161183a9061412e565b60405180910390fd5b8073ffffffffffffffffffffffffffffffffffffffff16600660019054906101000a900473ffffffffffffffffffffffffffffffffffffffff1673ffffffffffffffffffffffffffffffffffffffff167f8be0079c531659141344cd1fd0a4f28419497f9722a3daafe3b4186f6b6457e060405160405180910390a380600660016101000a81548173ffffffffffffffffffffffffffffffffffffffff021916908373ffffffffffffffffffffffffffffffffffffffff16021790555050565b61190b611a6f565b73ffffffffffffffffffffffffffffffffffffffff1661192961107f565b73ffffffffffffffffffffffffffffffffffffffff161461197f576040517f08c379a00000000000000000000000000000000000000000000000000000000081526004016119769061430e565b60405180910390fd5b611987612238565b565b60007f780e9d63000000000000000000000000000000000000000000000000000000007bffffffffffffffffffffffffffffffffffffffffffffffffffffffff1916827bffffffffffffffffffffffffffffffffffffffffffffffffffffffff191614806119fc57506119fb826122da565b5b9050919050565b60008073ffffffffffffffffffffffffffffffffffffffff166002600084815260200190815260200160002060009054906101000a900473ffffffffffffffffffffffffffffffffffffffff1673ffffffffffffffffffffffffffffffffffffffff1614159050919050565b600033905090565b816004600083815260200190815260200160002060006101000a81548173ffffffffffffffffffffffffffffffffffffffff021916908373ffffffffffffffffffffffffffffffffffffffff160217905550808273ffffffffffffffffffffffffffffffffffffffff16611aea83610ca0565b73ffffffffffffffffffffffffffffffffffffffff167f8c5be1e5ebec7d5bd14f71427d1e84f3dd0314c0f7b2291e5b200ac8c7c3b92560405160405180910390a45050565b6000611b3b82611a03565b611b7a576040517f08c379a0000000000000000000000000000000000000000000000000000000008152600401611b719061420e565b60405180910390fd5b6000611b8583610ca0565b90508073ffffffffffffffffffffffffffffffffffffffff168473ffffffffffffffffffffffffffffffffffffffff161480611bf457508373ffffffffffffffffffffffffffffffffffffffff16611bdc846106fe565b73ffffffffffffffffffffffffffffffffffffffff16145b80611c055750611c04818561157c565b5b91505092915050565b8273ffffffffffffffffffffffffffffffffffffffff16611c2e82610ca0565b73ffffffffffffffffffffffffffffffffffffffff1614611c84576040517f08c379a0000000000000000000000000000000000000000000000000000000008152600401611c7b9061432e565b60405180910390fd5b600073ffffffffffffffffffffffffffffffffffffffff168273ffffffffffffffffffffffffffffffffffffffff161415611cf4576040517f08c379a0000000000000000000000000000000000000000000000000000000008152600401611ceb9061418e565b60405180910390fd5b611cff8383836123bc565b611d0a600082611a77565b6001600360008573ffffffffffffffffffffffffffffffffffffffff1673ffffffffffffffffffffffffffffffffffffffff1681526020019081526020016000206000828254611d5a919061459a565b925050819055506001600360008473ffffffffffffffffffffffffffffffffffffffff1673ffffffffffffffffffffffffffffffffffffffff1681526020019081526020016000206000828254611db19190614513565b92505081905550816002600083815260200190815260200160002060006101000a81548173ffffffffffffffffffffffffffffffffffffffff021916908373ffffffffffffffffffffffffffffffffffffffff160217905550808273ffffffffffffffffffffffffffffffffffffffff168473ffffffffffffffffffffffffffffffffffffffff167fddf252ad1be2c89b69c2b068fc378daa952ba7f163c4a11628f55a4df523b3ef60405160405180910390a4505050565b611e72610c89565b15611eb2576040517f08c379a0000000000000000000000000000000000000000000000000000000008152600401611ea99061422e565b60405180910390fd5b6001600660006101000a81548160ff0219169083151502179055507f62e78cea01bee320cd4e420270b5ea74000d11b0c9f74754ebdbfc544b05a258611ef6611a6f565b604051611f039190613e9b565b60405180910390a1565b611f18848484611c0e565b611f24848484846123d7565b611f63576040517f08c379a0000000000000000000000000000000000000000000000000000000008152600401611f5a9061410e565b60405180910390fd5b50505050565b6060611f7482611a03565b611fb3576040517f08c379a0000000000000000000000000000000000000000000000000000000008152600401611faa9061434e565b60405180910390fd5b6008611fbe8361256e565b604051602001611fcf929190613e40565b6040516020818303038152906040529050919050565b600061203a7f2a7ce3384fb1f62f6bd97e4a1e1a00f2e95b951be9ca8e8b6079726a872ebb2d848460405160200161201f93929190613f1d565b6040516020818303038152906040528051906020012061271b565b905092915050565b6000806040518060400160405280601c81526020017f19457468657265756d205369676e6564204d6573736167653a0a333200000000815250905060008185604051602001612092929190613e18565b6040516020818303038152906040528051906020012090506120b48185612735565b9250505092915050565b60006120c982611a03565b156121d5573373ffffffffffffffffffffffffffffffffffffffff166120ee83610ca0565b73ffffffffffffffffffffffffffffffffffffffff1614612144576040517f08c379a000000000000000000000000000000000000000000000000000000000815260040161213b906143ee565b60405180910390fd5b6007600083815260200190815260200160002060009054906101000a900460ff166121a4576040517f08c379a000000000000000000000000000000000000000000000000000000000815260040161219b9061416e565b60405180910390fd5b60006007600084815260200190815260200160002060006101000a81548160ff0219169083151502179055506121e1565b6121df83836127ff565b505b8273ffffffffffffffffffffffffffffffffffffffff167f222838db2794d11532d940e8dec38ae307ed0b63cd97c233322e221f998767a683604051612227919061440e565b60405180910390a281905092915050565b612240610c89565b61227f576040517f08c379a00000000000000000000000000000000000000000000000000000000081526004016122769061404e565b60405180910390fd5b6000600660006101000a81548160ff0219169083151502179055507f5db9ee0a495bf2e6ff9c91a7834c1ba4fdd244a5e8aa4e537bd38aeae4b073aa6122c3611a6f565b6040516122d09190613e9b565b60405180910390a1565b60007f80ac58cd000000000000000000000000000000000000000000000000000000007bffffffffffffffffffffffffffffffffffffffffffffffffffffffff1916827bffffffffffffffffffffffffffffffffffffffffffffffffffffffff191614806123a557507f5b5e139f000000000000000000000000000000000000000000000000000000007bffffffffffffffffffffffffffffffffffffffffffffffffffffffff1916827bffffffffffffffffffffffffffffffffffffffffffffffffffffffff1916145b806123b557506123b482612814565b5b9050919050565b6123c783838361287e565b6123d28383836128d6565b505050565b60006123f88473ffffffffffffffffffffffffffffffffffffffff166129ea565b15612561578373ffffffffffffffffffffffffffffffffffffffff1663150b7a02612421611a6f565b8786866040518563ffffffff1660e01b81526004016124439493929190613eb6565b602060405180830381600087803b15801561245d57600080fd5b505af192505050801561248e57506040513d601f19601f8201168201806040525081019061248b91906136f5565b60015b612511573d80600081146124be576040519150601f19603f3d011682016040523d82523d6000602084013e6124c3565b606091505b50600081511415612509576040517f08c379a00000000000000000000000000000000000000000000000000000000081526004016125009061410e565b60405180910390fd5b805181602001fd5b63150b7a0260e01b7bffffffffffffffffffffffffffffffffffffffffffffffffffffffff1916817bffffffffffffffffffffffffffffffffffffffffffffffffffffffff191614915050612566565b600190505b949350505050565b606060008214156125b6576040518060400160405280600181526020017f30000000000000000000000000000000000000000000000000000000000000008152509050612716565b600082905060005b600082146125e85780806125d1906146fe565b915050600a826125e19190614569565b91506125be565b60008167ffffffffffffffff81111561262a577f4e487b7100000000000000000000000000000000000000000000000000000000600052604160045260246000fd5b6040519080825280601f01601f19166020018201604052801561265c5781602001600182028036833780820191505090505b5090505b6000851461270f57600182612675919061459a565b9150600a856126849190614751565b60306126909190614513565b60f81b8183815181106126cc577f4e487b7100000000000000000000000000000000000000000000000000000000600052603260045260246000fd5b60200101907effffffffffffffffffffffffffffffffffffffffffffffffffffffffffffff1916908160001a905350600a856127089190614569565b9450612660565b8093505050505b919050565b600061272e6127286129fd565b83612ac0565b9050919050565b600080600080604185511415612762576020850151925060408501519150606085015160001a90506127e8565b6040855114156127ac576040850151602086015193507f7fffffffffffffffffffffffffffffffffffffffffffffffffffffffffffffff81169250601b8160ff1c019150506127e7565b6040517f08c379a00000000000000000000000000000000000000000000000000000000081526004016127de9061408e565b60405180910390fd5b5b6127f486828585612af3565b935050505092915050565b600061280b8383612c7e565b81905092915050565b60007f01ffc9a7000000000000000000000000000000000000000000000000000000007bffffffffffffffffffffffffffffffffffffffffffffffffffffffff1916827bffffffffffffffffffffffffffffffffffffffffffffffffffffffff1916149050919050565b612889838383612c9c565b61289281612cf4565b6128d1576040517f08c379a00000000000000000000000000000000000000000000000000000000081526004016128c89061406e565b60405180910390fd5b505050565b6128e183838361287e565b600073ffffffffffffffffffffffffffffffffffffffff168373ffffffffffffffffffffffffffffffffffffffff1614156129245761291f81612d1f565b612963565b8173ffffffffffffffffffffffffffffffffffffffff168373ffffffffffffffffffffffffffffffffffffffff1614612962576129618382612d68565b5b5b600073ffffffffffffffffffffffffffffffffffffffff168273ffffffffffffffffffffffffffffffffffffffff1614156129a6576129a181612ed5565b6129e5565b8273ffffffffffffffffffffffffffffffffffffffff168273ffffffffffffffffffffffffffffffffffffffff16146129e4576129e38282613018565b5b5b505050565b600080823b905060008111915050919050565b60007f0000000000000000000000000000000000000000000000000000000000000000461415612a4f577f00000000000000000000000000000000000000000000000000000000000000009050612abd565b612aba7f00000000000000000000000000000000000000000000000000000000000000007f00000000000000000000000000000000000000000000000000000000000000007f0000000000000000000000000000000000000000000000000000000000000000613097565b90505b90565b60008282604051602001612ad5929190613e64565b60405160208183030381529060405280519060200120905092915050565b60007f7fffffffffffffffffffffffffffffff5d576e7357a4501ddfe92f46681b20a08260001c1115612b5b576040517f08c379a0000000000000000000000000000000000000000000000000000000008152600401612b52906141ee565b60405180910390fd5b601b8460ff161480612b705750601c8460ff16145b612baf576040517f08c379a0000000000000000000000000000000000000000000000000000000008152600401612ba6906142ae565b60405180910390fd5b600060018686868660405160008152602001604052604051612bd49493929190613fa7565b6020604051602081039080840390855afa158015612bf6573d6000803e3d6000fd5b505050602060405103519050600073ffffffffffffffffffffffffffffffffffffffff168173ffffffffffffffffffffffffffffffffffffffff161415612c72576040517f08c379a0000000000000000000000000000000000000000000000000000000008152600401612c699061400e565b60405180910390fd5b80915050949350505050565b612c988282604051806020016040528060008152506130d1565b5050565b612ca783838361312c565b612caf610c89565b15612cef576040517f08c379a0000000000000000000000000000000000000000000000000000000008152600401612ce69061402e565b60405180910390fd5b505050565b60006007600083815260200190815260200160002060009054906101000a900460ff16159050919050565b600b80549050600c600083815260200190815260200160002081905550600b81908060018154018082558091505060019003906000526020600020016000909190919091505550565b60006001612d7584610de4565b612d7f919061459a565b90506000600a6000848152602001908152602001600020549050818114612e64576000600960008673ffffffffffffffffffffffffffffffffffffffff1673ffffffffffffffffffffffffffffffffffffffff168152602001908152602001600020600084815260200190815260200160002054905080600960008773ffffffffffffffffffffffffffffffffffffffff1673ffffffffffffffffffffffffffffffffffffffff16815260200190815260200160002060008481526020019081526020016000208190555081600a600083815260200190815260200160002081905550505b600a600084815260200190815260200160002060009055600960008573ffffffffffffffffffffffffffffffffffffffff1673ffffffffffffffffffffffffffffffffffffffff16815260200190815260200160002060008381526020019081526020016000206000905550505050565b60006001600b80549050612ee9919061459a565b90506000600c60008481526020019081526020016000205490506000600b8381548110612f3f577f4e487b7100000000000000000000000000000000000000000000000000000000600052603260045260246000fd5b9060005260206000200154905080600b8381548110612f87577f4e487b7100000000000000000000000000000000000000000000000000000000600052603260045260246000fd5b906000526020600020018190555081600c600083815260200190815260200160002081905550600c600085815260200190815260200160002060009055600b805480612ffc577f4e487b7100000000000000000000000000000000000000000000000000000000600052603160045260246000fd5b6001900381819060005260206000200160009055905550505050565b600061302383610de4565b905081600960008573ffffffffffffffffffffffffffffffffffffffff1673ffffffffffffffffffffffffffffffffffffffff16815260200190815260200160002060008381526020019081526020016000208190555080600a600084815260200190815260200160002081905550505050565b600083838346306040516020016130b2959493929190613f54565b6040516020818303038152906040528051906020012090509392505050565b6130db8383613131565b6130e860008484846123d7565b613127576040517f08c379a000000000000000000000000000000000000000000000000000000000815260040161311e9061410e565b60405180910390fd5b505050565b505050565b600073ffffffffffffffffffffffffffffffffffffffff168273ffffffffffffffffffffffffffffffffffffffff1614156131a1576040517f08c379a0000000000000000000000000000000000000000000000000000000008152600401613198906142ce565b60405180910390fd5b6131aa81611a03565b156131ea576040517f08c379a00000000000000000000000000000000000000000000000000000000081526004016131e19061414e565b60405180910390fd5b6131f6600083836123bc565b6001600360008473ffffffffffffffffffffffffffffffffffffffff1673ffffffffffffffffffffffffffffffffffffffff16815260200190815260200160002060008282546132469190614513565b92505081905550816002600083815260200190815260200160002060006101000a81548173ffffffffffffffffffffffffffffffffffffffff021916908373ffffffffffffffffffffffffffffffffffffffff160217905550808273ffffffffffffffffffffffffffffffffffffffff16600073ffffffffffffffffffffffffffffffffffffffff167fddf252ad1be2c89b69c2b068fc378daa952ba7f163c4a11628f55a4df523b3ef60405160405180910390a45050565b82805461330b9061469b565b90600052602060002090601f01602090048101928261332d5760008555613374565b82601f1061334657805160ff1916838001178555613374565b82800160010185558215613374579182015b82811115613373578251825591602001919060010190613358565b5b5090506133819190613385565b5090565b5b8082111561339e576000816000905550600101613386565b5090565b60006133b56133b08461444e565b614429565b9050828152602081018484840111156133cd57600080fd5b6133d8848285614659565b509392505050565b60006133f36133ee8461447f565b614429565b90508281526020810184848401111561340b57600080fd5b613416848285614659565b509392505050565b60008135905061342d81615090565b92915050565b600081359050613442816150a7565b92915050565b600081359050613457816150be565b92915050565b60008151905061346c816150be565b92915050565b60008083601f84011261348457600080fd5b8235905067ffffffffffffffff81111561349d57600080fd5b6020830191508360018202830111156134b557600080fd5b9250929050565b600082601f8301126134cd57600080fd5b81356134dd8482602086016133a2565b91505092915050565b600082601f8301126134f757600080fd5b81356135078482602086016133e0565b91505092915050565b60008135905061351f816150d5565b92915050565b60006020828403121561353757600080fd5b60006135458482850161341e565b91505092915050565b6000806040838503121561356157600080fd5b600061356f8582860161341e565b92505060206135808582860161341e565b9150509250929050565b60008060006060848603121561359f57600080fd5b60006135ad8682870161341e565b93505060206135be8682870161341e565b92505060406135cf86828701613510565b9150509250925092565b600080600080608085870312156135ef57600080fd5b60006135fd8782880161341e565b945050602061360e8782880161341e565b935050604061361f87828801613510565b925050606085013567ffffffffffffffff81111561363c57600080fd5b613648878288016134bc565b91505092959194509250565b6000806040838503121561366757600080fd5b60006136758582860161341e565b925050602061368685828601613433565b9150509250929050565b600080604083850312156136a357600080fd5b60006136b18582860161341e565b92505060206136c285828601613510565b9150509250929050565b6000602082840312156136de57600080fd5b60006136ec84828501613448565b91505092915050565b60006020828403121561370757600080fd5b60006137158482850161345d565b91505092915050565b60006020828403121561373057600080fd5b600082013567ffffffffffffffff81111561374a57600080fd5b613756848285016134e6565b91505092915050565b60006020828403121561377157600080fd5b600061377f84828501613510565b91505092915050565b60008060006040848603121561379d57600080fd5b60006137ab86828701613510565b935050602084013567ffffffffffffffff8111156137c857600080fd5b6137d486828701613472565b92509250509250925092565b6137e9816145ce565b82525050565b6137f8816145e0565b82525050565b613807816145ec565b82525050565b61381e613819826145ec565b614747565b82525050565b600061382f826144c5565b61383981856144db565b9350613849818560208601614668565b6138528161483e565b840191505092915050565b6000613868826144c5565b61387281856144ec565b9350613882818560208601614668565b80840191505092915050565b6000613899826144d0565b6138a381856144f7565b93506138b3818560208601614668565b6138bc8161483e565b840191505092915050565b60006138d2826144d0565b6138dc8185614508565b93506138ec818560208601614668565b80840191505092915050565b600081546139058161469b565b61390f8186614508565b9450600182166000811461392a576001811461393b5761396e565b60ff1983168652818601935061396e565b613944856144b0565b60005b8381101561396657815481890152600182019150602081019050613947565b838801955050505b50505092915050565b60006139846018836144f7565b915061398f8261484f565b602082019050919050565b60006139a7602b836144f7565b91506139b282614878565b604082019050919050565b60006139ca6014836144f7565b91506139d5826148c7565b602082019050919050565b60006139ed602c836144f7565b91506139f8826148f0565b604082019050919050565b6000613a10601f836144f7565b9150613a1b8261493f565b602082019050919050565b6000613a33601b836144f7565b9150613a3e82614968565b602082019050919050565b6000613a56601a836144f7565b9150613a6182614991565b602082019050919050565b6000613a79602b836144f7565b9150613a84826149ba565b604082019050919050565b6000613a9c6032836144f7565b9150613aa782614a09565b604082019050919050565b6000613abf6026836144f7565b9150613aca82614a58565b604082019050919050565b6000613ae2601c836144f7565b9150613aed82614aa7565b602082019050919050565b6000613b05600283614508565b9150613b1082614ad0565b600282019050919050565b6000613b28601b836144f7565b9150613b3382614af9565b602082019050919050565b6000613b4b6024836144f7565b9150613b5682614b22565b604082019050919050565b6000613b6e6019836144f7565b9150613b7982614b71565b602082019050919050565b6000613b916035836144f7565b9150613b9c82614b9a565b604082019050919050565b6000613bb46022836144f7565b9150613bbf82614be9565b604082019050919050565b6000613bd7602c836144f7565b9150613be282614c38565b604082019050919050565b6000613bfa6010836144f7565b9150613c0582614c87565b602082019050919050565b6000613c1d6038836144f7565b9150613c2882614cb0565b604082019050919050565b6000613c40602a836144f7565b9150613c4b82614cff565b604082019050919050565b6000613c636029836144f7565b9150613c6e82614d4e565b604082019050919050565b6000613c866022836144f7565b9150613c9182614d9d565b604082019050919050565b6000613ca96020836144f7565b9150613cb482614dec565b602082019050919050565b6000613ccc602c836144f7565b9150613cd782614e15565b604082019050919050565b6000613cef6020836144f7565b9150613cfa82614e64565b602082019050919050565b6000613d126029836144f7565b9150613d1d82614e8d565b604082019050919050565b6000613d35602f836144f7565b9150613d4082614edc565b604082019050919050565b6000613d586021836144f7565b9150613d6382614f2b565b604082019050919050565b6000613d7b6015836144f7565b9150613d8682614f7a565b602082019050919050565b6000613d9e6031836144f7565b9150613da982614fa3565b604082019050919050565b6000613dc1602c836144f7565b9150613dcc82614ff2565b604082019050919050565b6000613de46038836144f7565b9150613def82615041565b604082019050919050565b613e0381614642565b82525050565b613e128161464c565b82525050565b6000613e24828561385d565b9150613e30828461380d565b6020820191508190509392505050565b6000613e4c82856138f8565b9150613e5882846138c7565b91508190509392505050565b6000613e6f82613af8565b9150613e7b828561380d565b602082019150613e8b828461380d565b6020820191508190509392505050565b6000602082019050613eb060008301846137e0565b92915050565b6000608082019050613ecb60008301876137e0565b613ed860208301866137e0565b613ee56040830185613dfa565b8181036060830152613ef78184613824565b905095945050505050565b6000602082019050613f1760008301846137ef565b92915050565b6000606082019050613f3260008301866137fe565b613f3f60208301856137e0565b613f4c6040830184613dfa565b949350505050565b600060a082019050613f6960008301886137fe565b613f7660208301876137fe565b613f8360408301866137fe565b613f906060830185613dfa565b613f9d60808301846137e0565b9695505050505050565b6000608082019050613fbc60008301876137fe565b613fc96020830186613e09565b613fd660408301856137fe565b613fe360608301846137fe565b95945050505050565b60006020820190508181036000830152614006818461388e565b905092915050565b6000602082019050818103600083015261402781613977565b9050919050565b600060208201905081810360008301526140478161399a565b9050919050565b60006020820190508181036000830152614067816139bd565b9050919050565b60006020820190508181036000830152614087816139e0565b9050919050565b600060208201905081810360008301526140a781613a03565b9050919050565b600060208201905081810360008301526140c781613a26565b9050919050565b600060208201905081810360008301526140e781613a49565b9050919050565b6000602082019050818103600083015261410781613a6c565b9050919050565b6000602082019050818103600083015261412781613a8f565b9050919050565b6000602082019050818103600083015261414781613ab2565b9050919050565b6000602082019050818103600083015261416781613ad5565b9050919050565b6000602082019050818103600083015261418781613b1b565b9050919050565b600060208201905081810360008301526141a781613b3e565b9050919050565b600060208201905081810360008301526141c781613b61565b9050919050565b600060208201905081810360008301526141e781613b84565b9050919050565b6000602082019050818103600083015261420781613ba7565b9050919050565b6000602082019050818103600083015261422781613bca565b9050919050565b6000602082019050818103600083015261424781613bed565b9050919050565b6000602082019050818103600083015261426781613c10565b9050919050565b6000602082019050818103600083015261428781613c33565b9050919050565b600060208201905081810360008301526142a781613c56565b9050919050565b600060208201905081810360008301526142c781613c79565b9050919050565b600060208201905081810360008301526142e781613c9c565b9050919050565b6000602082019050818103600083015261430781613cbf565b9050919050565b6000602082019050818103600083015261432781613ce2565b9050919050565b6000602082019050818103600083015261434781613d05565b9050919050565b6000602082019050818103600083015261436781613d28565b9050919050565b6000602082019050818103600083015261438781613d4b565b9050919050565b600060208201905081810360008301526143a781613d6e565b9050919050565b600060208201905081810360008301526143c781613d91565b9050919050565b600060208201905081810360008301526143e781613db4565b9050919050565b6000602082019050818103600083015261440781613dd7565b9050919050565b60006020820190506144236000830184613dfa565b92915050565b6000614433614444565b905061443f82826146cd565b919050565b6000604051905090565b600067ffffffffffffffff8211156144695761446861480f565b5b6144728261483e565b9050602081019050919050565b600067ffffffffffffffff82111561449a5761449961480f565b5b6144a38261483e565b9050602081019050919050565b60008190508160005260206000209050919050565b600081519050919050565b600081519050919050565b600082825260208201905092915050565b600081905092915050565b600082825260208201905092915050565b600081905092915050565b600061451e82614642565b915061452983614642565b9250827fffffffffffffffffffffffffffffffffffffffffffffffffffffffffffffffff0382111561455e5761455d614782565b5b828201905092915050565b600061457482614642565b915061457f83614642565b92508261458f5761458e6147b1565b5b828204905092915050565b60006145a582614642565b91506145b083614642565b9250828210156145c3576145c2614782565b5b828203905092915050565b60006145d982614622565b9050919050565b60008115159050919050565b6000819050919050565b60007fffffffff0000000000000000000000000000000000000000000000000000000082169050919050565b600073ffffffffffffffffffffffffffffffffffffffff82169050919050565b6000819050919050565b600060ff82169050919050565b82818337600083830152505050565b60005b8381101561468657808201518184015260208101905061466b565b83811115614695576000848401525b50505050565b600060028204905060018216806146b357607f821691505b602082108114156146c7576146c66147e0565b5b50919050565b6146d68261483e565b810181811067ffffffffffffffff821117156146f5576146f461480f565b5b80604052505050565b600061470982614642565b91507fffffffffffffffffffffffffffffffffffffffffffffffffffffffffffffffff82141561473c5761473b614782565b5b600182019050919050565b6000819050919050565b600061475c82614642565b915061476783614642565b925082614777576147766147b1565b5b828206905092915050565b7f4e487b7100000000000000000000000000000000000000000000000000000000600052601160045260246000fd5b7f4e487b7100000000000000000000000000000000000000000000000000000000600052601260045260246000fd5b7f4e487b7100000000000000000000000000000000000000000000000000000000600052602260045260246000fd5b7f4e487b7100000000000000000000000000000000000000000000000000000000600052604160045260246000fd5b6000601f19601f8301169050919050565b7f45434453413a20696e76616c6964207369676e61747572650000000000000000600082015250565b7f4552433732315061757361626c653a20746f6b656e207472616e73666572207760008201527f68696c6520706175736564000000000000000000000000000000000000000000602082015250565b7f5061757361626c653a206e6f7420706175736564000000000000000000000000600082015250565b7f4f7262697461754552433732313a20746f6b656e207472616e7366657220776860008201527f696c652065717569707065640000000000000000000000000000000000000000602082015250565b7f45434453413a20696e76616c6964207369676e6174757265206c656e67746800600082015250565b7f4f7262697461754552433732313a206e66742065717569707065640000000000600082015250565b7f4552525f5349474e45525f49535f5a45524f5f41444452455353000000000000600082015250565b7f455243373231456e756d657261626c653a206f776e657220696e646578206f7560008201527f74206f6620626f756e6473000000000000000000000000000000000000000000602082015250565b7f4552433732313a207472616e7366657220746f206e6f6e20455243373231526560008201527f63656976657220696d706c656d656e7465720000000000000000000000000000602082015250565b7f4f776e61626c653a206e6577206f776e657220697320746865207a65726f206160008201527f6464726573730000000000000000000000000000000000000000000000000000602082015250565b7f4552433732313a20746f6b656e20616c7265616479206d696e74656400000000600082015250565b7f1901000000000000000000000000000000000000000000000000000000000000600082015250565b7f4f7262697461754552433732313a206e66742072656465656d65640000000000600082015250565b7f4552433732313a207472616e7366657220746f20746865207a65726f2061646460008201527f7265737300000000000000000000000000000000000000000000000000000000602082015250565b7f4552433732313a20617070726f766520746f2063616c6c657200000000000000600082015250565b7f4f7262697461754552433732313a2065717569702063616c6c6572206973206e60008201527f6f74206f776e6572206e6f7220617070726f7665640000000000000000000000602082015250565b7f45434453413a20696e76616c6964207369676e6174757265202773272076616c60008201527f7565000000000000000000000000000000000000000000000000000000000000602082015250565b7f4552433732313a206f70657261746f7220717565727920666f72206e6f6e657860008201527f697374656e7420746f6b656e0000000000000000000000000000000000000000602082015250565b7f5061757361626c653a2070617573656400000000000000000000000000000000600082015250565b7f4552433732313a20617070726f76652063616c6c6572206973206e6f74206f7760008201527f6e6572206e6f7220617070726f76656420666f7220616c6c0000000000000000602082015250565b7f4552433732313a2062616c616e636520717565727920666f7220746865207a6560008201527f726f206164647265737300000000000000000000000000000000000000000000602082015250565b7f4552433732313a206f776e657220717565727920666f72206e6f6e657869737460008201527f656e7420746f6b656e0000000000000000000000000000000000000000000000602082015250565b7f45434453413a20696e76616c6964207369676e6174757265202776272076616c60008201527f7565000000000000000000000000000000000000000000000000000000000000602082015250565b7f4552433732313a206d696e7420746f20746865207a65726f2061646472657373600082015250565b7f4552433732313a20617070726f76656420717565727920666f72206e6f6e657860008201527f697374656e7420746f6b656e0000000000000000000000000000000000000000602082015250565b7f4f776e61626c653a2063616c6c6572206973206e6f7420746865206f776e6572600082015250565b7f4552433732313a207472616e73666572206f6620746f6b656e2074686174206960008201527f73206e6f74206f776e0000000000000000000000000000000000000000000000602082015250565b7f4552433732314d657461646174613a2055524920717565727920666f72206e6f60008201527f6e6578697374656e7420746f6b656e0000000000000000000000000000000000602082015250565b7f4552433732313a20617070726f76616c20746f2063757272656e74206f776e6560008201527f7200000000000000000000000000000000000000000000000000000000000000602082015250565b7f4552525f494e56414c49445f5349474e41545552450000000000000000000000600082015250565b7f4552433732313a207472616e736665722063616c6c6572206973206e6f74206f60008201527f776e6572206e6f7220617070726f766564000000000000000000000000000000602082015250565b7f455243373231456e756d657261626c653a20676c6f62616c20696e646578206f60008201527f7574206f6620626f756e64730000000000000000000000000000000000000000602082015250565b7f4f7262697461754552433732313a2072656465656d65722063616c6c6572206960008201527f73206e6f74206f776e6572206e6f7220617070726f7665640000000000000000602082015250565b615099816145ce565b81146150a457600080fd5b50565b6150b0816145e0565b81146150bb57600080fd5b50565b6150c7816145f6565b81146150d257600080fd5b50565b6150de81614642565b81146150e957600080fd5b5056fea26469706673582212206a384caaa9abcf7212250d6808a256b250bd8937a58e4896b9d91c6e5e2b30e164736f6c63430008040033",
  "immutableReferences": {
    "11562": [
      {
        "length": 32,
        "start": 10793
      }
    ],
    "11564": [
      {
        "length": 32,
        "start": 10753
      }
    ],
    "11566": [
      {
        "length": 32,
        "start": 10869
      }
    ],
    "11568": [
      {
        "length": 32,
        "start": 10902
      }
    ],
    "11570": [
      {
        "length": 32,
        "start": 10836
      }
    ]
  },
  "source": "// SPDX-License-Identifier: UNLICENSED\r\n\r\npragma solidity 0.8.4;\r\n\r\nimport \"./OrbitauERC721Enumerable.sol\";\r\nimport \"../../lib/utils/cryptography/draft-EIP712.sol\";\r\n\r\ncontract OrbitauERC721LazyMint is OrbitauERC721Enumerable, EIP712 {    \r\n    mapping(address => bool) public signers;\r\n\r\n    string private constant SIGNING_DOMAIN = \"OrbitauNFT\";\r\n    string private constant SIGNATURE_VERSION = \"1\";\r\n\r\n    /**\r\n     * @dev Create a new OrbitauNFTLazyMint contract and and assign `DEFAULT_ADMIN_ROLE, MINTER_ROLE` for the creator.\r\n     * This construction function should be called from an exchange.\r\n     *\r\n     */\r\n    constructor() OrbitauERC721Enumerable() EIP712(SIGNING_DOMAIN, SIGNATURE_VERSION)\r\n    {}\r\n\r\n    function addSigner(address _signer) external onlyOwner {\r\n        require(_signer != address(0), \"ERR_SIGNER_IS_ZERO_ADDRESS\");\r\n        signers[_signer] = true;\r\n    }\r\n\r\n    function removeSigner(address _signer) external onlyOwner {\r\n        require(_signer != address(0), \"ERR_SIGNER_IS_ZERO_ADDRESS\");\r\n        signers[_signer] = false;\r\n    }\r\n\r\n    function redeem(uint256 tokenId, bytes calldata signature)\r\n    external\r\n    {\r\n        address _signer = _verify(_hash(msg.sender, tokenId), signature);\r\n        \r\n        require(signers[_signer], \"ERR_INVALID_SIGNATURE\");\r\n\r\n        redeem(msg.sender, tokenId);\r\n    }\r\n\r\n    /// @notice Returns a hash of the given PendingNFT, prepared using EIP712 typed data hashing rules.\r\n    function _hash(address redeemer, uint256 tokenId)\r\n    internal view returns (bytes32)\r\n    {\r\n        return _hashTypedDataV4(keccak256(abi.encode(\r\n                keccak256(\"OrbitauNFT(address redeemer, uint256 tokenId)\"),\r\n                redeemer,\r\n                tokenId\r\n            )));\r\n    }\r\n\r\n    /**\r\n     * @dev Returns the signer for a pair of digested message and signature.\r\n     */\r\n    function _verify(bytes32 digest, bytes memory signature)\r\n    internal pure returns (address)\r\n    {\r\n        bytes memory prefix = \"\\x19Ethereum Signed Message:\\n32\";\r\n        bytes32 prefixedHash = keccak256(abi.encodePacked(prefix, digest));\r\n        return ECDSA.recover(prefixedHash, signature);\r\n    }\r\n}\r\n",
  "sourcePath": "D:\\0xTaureum\\github\\orbitau-smart-contract\\contracts\\tokens\\ERC721\\OrbitauERC721LazyMint.sol",
  "compiler": {
    "name": "solc",
    "version": "0.8.4+commit.c7e474f2.Emscripten.clang"
  },
  "schemaVersion": "3.4.3",
  "updatedAt": "2021-09-15T10:26:33.507Z",
  "devdoc": {
    "kind": "dev",
    "methods": {
      "approve(address,uint256)": {
        "details": "See {IERC721-approve}."
      },
      "balanceOf(address)": {
        "details": "See {IERC721-balanceOf}."
      },
      "baseURI()": {
        "details": "Returns `__baseURI`."
      },
      "constructor": {
        "details": "Create a new OrbitauNFTLazyMint contract and and assign `DEFAULT_ADMIN_ROLE, MINTER_ROLE` for the creator. This construction function should be called from an exchange."
      },
      "getApproved(uint256)": {
        "details": "See {IERC721-getApproved}."
      },
      "isApprovedForAll(address,address)": {
        "details": "See {IERC721-isApprovedForAll}."
      },
      "name()": {
        "details": "See {IERC721Metadata-name}."
      },
      "owner()": {
        "details": "Returns the address of the current owner."
      },
      "ownerOf(uint256)": {
        "details": "See {IERC721-ownerOf}."
      },
      "pause()": {
        "details": "Pause the contract in case of bugs/attacks."
      },
      "paused()": {
        "details": "Returns true if the contract is paused, and false otherwise."
      },
      "renounceOwnership()": {
        "details": "Leaves the contract without owner. It will not be possible to call `onlyOwner` functions anymore. Can only be called by the current owner. NOTE: Renouncing ownership will leave the contract without an owner, thereby removing any functionality that is only available to the owner."
      },
      "safeTransferFrom(address,address,uint256)": {
        "details": "See {IERC721-safeTransferFrom}."
      },
      "safeTransferFrom(address,address,uint256,bytes)": {
        "details": "See {IERC721-safeTransferFrom}."
      },
      "setApprovalForAll(address,bool)": {
        "details": "See {IERC721-setApprovalForAll}."
      },
      "setBaseURI(string)": {
        "details": "Sets new value for the `__baseURI`. This operation can only been done by the owner of this contract."
      },
      "supportsInterface(bytes4)": {
        "details": "See {IERC165-supportsInterface}."
      },
      "symbol()": {
        "details": "See {IERC721Metadata-symbol}."
      },
      "tokenByIndex(uint256)": {
        "details": "See {IERC721Enumerable-tokenByIndex}."
      },
      "tokenOfOwnerByIndex(address,uint256)": {
        "details": "See {IERC721Enumerable-tokenOfOwnerByIndex}."
      },
      "tokenURI(uint256)": {
        "details": "See {IERC721Metadata-tokenURI}."
      },
      "totalSupply()": {
        "details": "See {IERC721Enumerable-totalSupply}."
      },
      "transferFrom(address,address,uint256)": {
        "details": "See {IERC721-transferFrom}."
      },
      "transferOwnership(address)": {
        "details": "Transfers ownership of the contract to a new account (`newOwner`). Can only be called by the current owner."
      },
      "unPause()": {
        "details": "Resume the contract after being paused."
      }
    },
    "version": 1
  },
  "userdoc": {
    "kind": "user",
    "methods": {
      "pause()": {
        "notice": "Only the owner can call this method."
      },
      "unPause()": {
        "notice": "Only the owner can call this method."
      }
    },
    "version": 1
  }
}